:020000040800F2
:1000000000000220E10A0008310B0008A5280008C2
:10001000310B0008310B0008310B00080000000014
:10002000000000000000000000000000310B00088C
:10003000310B000800000000310B00089528000873
:10004000310B0008310B0008310B0008310B0008A0
:10005000310B0008310B0008310B0008310B000890
:10006000310B0008310B0008310B0008651B00083C
:10007000711B0008351500087D1B0008891B00084E
:10008000310B0008310B0008310B0008310B000860
:10009000310B0008310B0008310B0008310B000850
:1000A000310B0008310B0008310B0008310B000840
:1000B000310B0008310B0008310B0008310B000830
:1000C000310B0008310B0008310B0008310B000820
:1000D000310B0008310B0008310B0008310B000810
:1000E000310B0008310B000800000000310B000844
:1000F000310B0008310B0008310B0008310B0008F0
:10010000310B0008310B0008310B0008310B0008DF
:10011000310B0008310B0008310B0008310B0008CF
:10012000310B0008310B0008310B0008310B0008BF
:10013000310B0008310B0008310B0008310B0008AF
:1001400000000000000000000000000000000000AF
:10015000310B0008310B0008310B0008310B00088F
:10016000310B0008310B0008310B0008310B00087F
:10017000310B0008310B0008310B0008310B00086F
:10018000310B0008310B0008310B0008310B00085F
:10019000310B0008310B0008310B0008310B00084F
:1001A000310B0008310B0008310B0008310B00083F
:1001B00021240008310B0008310B0008310B000826
:1001C000310B0008310B0008310B0008310B00081F
:1001D000310B0008310B0008310B0008310B00080F
:1001E000310B0008310B0008310B0008310B0008FF
:1001F000310B0008310B0008310B0008310B0008EF
:10020000310B0008310B0008310B0008310B0008DE
:10021000310B0008310B0008310B0008310B0008CE
:10022000310B0008310B0008310B00080000000002
:10023000310B0008310B000800000000310B0008F2
:10024000310B0008310B0008310B0008310B00089E
:10025000310B0008310B0008310B0008310B00088E
:10026000310B0008310B0008310B0008310B00087E
:10027000310B0008310B0008310B000800000000B2
:10028000310B0008310B0008310B000800000000A2
:0802900000000000310B000822
:1002980010B5054C237833B9044B13B10448AFF3B8
:1002A80000800123237010BD880000240000000096
:1002B8009802000808B5034B1BB103490348AFF384
:1002C800008008BD000000008C000024980200088F
:1002D80081F0004102E000BF83F0004330B54FEAEF
:1002E80041044FEA430594EA050F08BF90EA020F5C
:1002F8001FBF54EA000C55EA020C7FEA645C7FEAEF
:10030800655C00F0E2804FEA5454D4EB5555B8BF11
:100318006D420CDD2C4480EA020281EA030382EA82
:10032800000083EA010180EA020281EA0303362D14
:1003380088BF30BD11F0004F4FEA01314FF4801CE7
:100348004CEA113102D0404261EB410113F0004FF9
:100358004FEA03334CEA133302D0524263EB4303B0
:1003680094EA050F00F0A780A4F10104D5F1200E4E
:100378000DDB02FA0EFC22FA05F2801841F10001A9
:1003880003FA0EF2801843FA05F359410EE0A5F17D
:1003980020050EF1200E012A03FA0EFC28BF4CF0AE
:1003A800020C43FA05F3C01851EBE37101F0004564
:1003B80007D54FF0000EDCF1000C7EEB00006EEB71
:1003C8000101B1F5801F1BD3B1F5001F0CD34908FB
:1003D8005FEA30004FEA3C0C04F101044FEA445252
:1003E80012F5800F80F09A80BCF1004F08BF5FEAD9
:1003F800500C50F1000041EB045141EA050130BDB9
:100408005FEA4C0C404141EB0101013C28BFB1F5CA
:10041800801FE9D291F0000F04BF01460020B1FA15
:1004280081F308BF2033A3F10B03B3F120020CDAE8
:100438000C3208DD02F1140CC2F10C0201FA0CF0C6
:1004480021FA02F10CE002F11402D8BFC2F1200C2B
:1004580001FA02F120FA0CFCDCBF41EA0C019040E1
:10046800E41AA2BF01EB0451294330BD6FEA04042A
:100478001F3C1CDA0C340EDC04F11404C4F1200215
:1004880020FA04F001FA02F340EA030021FA04F327
:1004980045EA030130BDC4F10C04C4F1200220FA7E
:1004A80002F001FA04F340EA0300294630BD21FABC
:1004B80004F0294630BD94F0000F83F4801306BF82
:1004C80081F480110134013D4EE77FEA645C18BF76
:1004D8007FEA655C29D094EA050F08BF90EA020F0D
:1004E80005D054EA000C04BF1946104630BD91EA05
:1004F800030F1EBF0021002030BD5FEA545C05D108
:100508004000494128BF41F0004130BD14F5800446
:100518003CBF01F5801130BD01F0004545F0FE41BA
:1005280041F470014FF0000030BD7FEA645C1ABFEF
:10053800194610467FEA655C1CBF0B46024650EA26
:10054800013406BF52EA033591EA030F41F4002152
:1005580030BD00BF90F0000F04BF0021704730B5D8
:100568004FF4806404F132044FF000054FF00001AD
:1005780050E700BF90F0000F04BF0021704730B56E
:100588004FF4806404F1320410F0004548BF404243
:100598004FF000013EE700BF42004FEAE2014FEA98
:1005A80031014FEA02701FBF12F07F4393F07F4F73
:1005B80081F06051704732F07F4208BF704793F076
:1005C8007F4F04BF41F40021704730B54FF4607489
:1005D80001F0004521F000411CE700BF50EA01028C
:1005E80008BF704730B54FF000050AE050EA010235
:1005F80008BF704730B511F0004502D5404261EBA5
:1006080041014FF4806404F132045FEA915C3FF4E5
:10061800D8AE4FF003025FEADC0C18BF03325FEA82
:10062800DC0C18BF033202EBDC02C2F1200300FA33
:1006380003FC20FA02F001FA03FE40EA0E0021FA58
:1006480002F11444BDE600BF30B4194C0022194B26
:10065800D4F88810184841F47001184DC4F888106F
:100668001C68174944F001041C601A611C6820408A
:1006780018609A61DA611A629A62DA621A635A63D6
:100688009A63DA631A645A64186820F48020186040
:100698001A662B681940B1F1005F02D2094B01229A
:1006A8001A60034B4FF0006230BC9A60704700BF7D
:1006B80000ED00E0004402587FEDF6EA0010005C0F
:1006C8000000FFFF08810051704700BF704700BF5E
:1006D800704700BF704700BF704700BF704700BF3A
:1006E80008B5074B0748197881F00101197000F027
:1006F800BDFA02F02BFEBDE8084002F05FBE00BF65
:100708006402002428030024714B2DE9F0472DEDE5
:10071800048B82B093ED008A0C46164602F054FE14
:1007280007EE900AF8EE677AB4EEE78AF1EE10FA6F
:1007380000F1CB80DFF8CC81F2EE088ADFF8C8A19F
:100748004046644D00F0A8FA6348D8F8882003684A
:100758006249134498F8E1C0614F23EAE3739FEDBF
:10076800619A9FED618A082BDFF8A091A8BF082342
:10077800CA5C19440360082A4B785C4828BF0022E9
:10078800082B28BF00233A70BCF17F0F98F8D120BE
:100798002B70DAF80030DFF8788108BF01337F2A40
:1007A80008BF03F1FF33022BB8BF0223052BA8BFF4
:1007B8000523CAF8003002F0F3FEDAF80030F0EE54
:1007C800400AB0EE000A03EB43039B0007EE903AA1
:1007D800F8EEE77A77EEA00A70EEC90AC0EEA80A2A
:1007E80009F08AFB414820EE080A88ED000A02F069
:1007F800D7FEDAF80030F0EE400AB1EE047A03EBE7
:100808004303B0EE000A9B0007EE903AF8EEE77A51
:1008180077EEA00A70EE870A70EEC90AC0EEA80A41
:1008280009F06AFB2E48F0EE407A98ED000A87ED51
:10083800020A67EE887AC9ED007A09F071FAF0EEDB
:10084800407A99ED000A234885ED020AC7ED067A39
:1008580009F066FA264885ED060A02F0F1FDDFED9B
:10086800257A254B20EE270A1D4883ED020A09F058
:1008780093F818488DED000A09F08EF81F480023F8
:1008880001AA694603608DED010A08F0EFFDB0EE9C
:10089800408AAEB1013E0025194F26F00106B0EEA0
:1008A800480A154808F068FEAE4287ED000A04F1D0
:1008B800080404ED020A05F1020504ED010AEED16F
:1008C80002B0BDEC048BBDE8F087FFF709FF31E704
:1008D8000C000024D0020024B000002410000024E2
:1008E800AC02002400008A420000DC43F402002429
:1008F800640100240080094568020024B400002433
:1009080094030024BC000024AC000024A8000024A8
:10091800A40000242DE9F0412F4D00272F4E4FF061
:100928007C58DFED2F0A2DED048B88B0B0EE408A9D
:100938009FED2C9A01ACDFED2C8AB0EE490A0FCD61
:100948000FC495E8070084E807003A4601A927483C
:1009580002F0F0FDB0EE480A3046254D08F0EEFDF5
:10096800F7EE007A234B2846B0EE680A224CC7EE11
:10097800889A736085ED038A204E85ED059AC5ED4A
:10098800028AC5F80480C5ED049A09F0C9F9F0EEA9
:10099800407A2046B0EE680A6E60C4ED049A84ED91
:1009A800038AC4ED028AC4F8048084ED059AC5ED73
:1009B800067A2F7009F0B4F911490120114B02226F
:1009C8002770666084ED060A08601A6008B0BDECFE
:1009D800048BBDE8F08100BF4801002468020024B0
:1009E8000000FE42000000000000C842F40200249B
:1009F800AC020024CDCCCC3DD0020024A4707D3FB5
:100A0800B0000024AC00002408B50D4800F08EF8B2
:100A180002F09CFC02F0D2FC0A4800F0FDF90948FB
:100A280000F032F9FFF776FF074B002205489A607D
:100A380000F02EF90549034800F01CF9FEE700BF55
:100A480028030024BC0000246802002411070008C1
:100A580010B5134A134C1449144809F06DF9104A9B
:100A68001349144809F068F921460D4A124809F05B
:100A780063F921460A4A114809F05EF9084A104903
:100A8800104809F059F9064A0F49104809F054F975
:100A9800034A0F490F48BDE8104009F04DB900BF9F
:100AA80000000024E5060008D506000828030024F5
:100AB800D9060008BC000024AC020024D00200249F
:100AC800D1060008F4020024E106000868020024A8
:100AD800DD060008B4000024DFF834D0002103E06C
:100AE8000C4B5B58435004310B480C4B42189A424C
:100AF800F6D30B4A02E0002342F8043B094B9A4222
:100B0800F9D3FFF7A1FD09F061FFFFF77DFF7047FB
:100B180000000220A4B0000800000024880000247F
:100B280088000024A41C0024FEE70000F8B5044651
:100B380003232B4D40F6033C84F82F3004F124079F
:100B4800284B0626284AC4F8313003F10073274899
:100B580003F54073264925600125C4F83530254B37
:100B680062604FF48072A0600020E1603021C4F818
:100B78003930214BA284C4F83D30C4F841C0A76184
:100B880084F8275084F8295084F82B0084F82D0025
:100B980061612674194FC4E9070001F023F928465A
:100BA8003021174D01F01EF9164B4FF4A0600221B9
:100BB80040F20712E365A4F860004FF48773124807
:100BC80084F86760C4F84570C4F84950C4F84D000B
:100BD80084F86310A4F86420A4F86830F8BD00BF56
:100BE80000070500040204040105080509050705B6
:100BF80006050A06040300010609000200010801AF
:100C0800090101070001000404010B0110B50446A5
:100C180001F046FE204601F005FCE01C01F082F9D7
:100C280004F1630002F046FB04F1670002F042FBA6
:100C380004F1140000F0AAFFBDE8104002F086BBE2
:100C48001F2982B009D8084B03EB410213F8113071
:100C5800507843EA002002B0704701230C2043EA91
:100C6800002002B0704700BF68AA0008633002F095
:100C78005BBB00BF002008B501F0A4F80020BDE868
:100C8800084001F0C5B800BF90ED670A704700BF83
:100C9800543000F0E7BB00BF10B504466C3002F0DA
:100CA80019FC04F1CC0002F035FD04F1DC00BDE8CC
:100CB800104002F02FBD00BF2DE9F04114218CB087
:100CC8000446FFF7BDFF03461321204604F1F4074D
:100CD800ADF80C30FFF7B4FF0346122120464FF061
:100CE8000108ADF81030FFF7ABFF0346049A384609
:100CF8000399ADF8143004F5A476059B06ADCDF83C
:100D0800008002F09FFC20461121FFF799FF03465F
:100D180018212046ADF80C30FFF792FF0346172143
:100D2800204609ACADF81030FFF78AFF0346049A55
:100D380030460399ADF81430059BCDF8008002F0D9
:100D480081FC2846072102F02FFD95E8070084E87A
:100D580007003846214602F09DFC95E8070084E824
:100D680007002146304602F095FC384602F0A8FC00
:100D7800304602F0A5FC0CB0BDE8F08170B5DFED9F
:100D8800250A8EB015210446CDED010AFFF758FF5C
:100D9800034605A804F1540504F18C06ADF80C309F
:100DA800039900F0A7F820460F21FFF749FF0346F3
:100DB8000DF12500ADF81030049900F09BF805A955
:100DC80028460222042300F0A7F804F1A8032846C5
:100DD8000021C4E9316300F05BFB002394ED680A4D
:100DE8000146DDED010A1A46304602F00FFB28469F
:100DF8000121D4F8C85000F04BFB00230146DDED7B
:100E0800010A284694ED680A1A4602F0FFFA0EB065
:100E180070BD00BF6F12033B3022344B344970B5AC
:100E2800044686B0C0F8A42100F1CC06C0F8A03171
:100E380000F1DC05C0F89C11FFF778FE2046FFF7AB
:100E4800E5FE02F0BBFA20461C21FFF7F9FE034637
:100E580094ED680A3046ADF81030049902F03EFC73
:100E680020461B21FFF7ECFE034694ED680A28464E
:100E7800ADF81430059902F031FC20461A21C4E976
:100E88003B65FFF7DDFE034619212046ADF8043027
:100E9800FFF7D6FE03460D212046ADF80830FFF7D0
:100EA800CFFE0346019994ED680A04F16C00ADF891
:100EB8000C30029A039B02F0E7FA2046FFF7FCFE8B
:100EC8002046FFF75BFFD4F8A411D4ED676A002031
:100ED80007EE901AB8EE677AC6EE877AC4ED687A9C
:100EE80006B0BDE8704000F07DBF00BFAB127A4489
:100EF800008E3B4710B483B00022ADF804100321E4
:100F0800BDF80440817004800274C27003B05DF8BB
:100F1800044B02F0CFB900BF2DE9F04F0025DE4C9D
:100F2800DE4F964642608DB0037007F11C0284F8CC
:100F3800EEE08446A4F8FB50C4F8EF50C4F8F35030
:100F4800C4F8F750BD6101950495C7E90055C7E994
:100F58000255C7E904554368CDE90255C4E947720B
:100F6800CDE90555CDE90755CDE90955002B00F028
:100F78006B810E460868A0464968F368B2683D80F0
:100F8800A8E80F00337C88F80030337C84F8EF3011
:100F9800DCF80430012B40F2578133467D8053F84A
:100FA800118F58689968DA68C4F81180C4F8150078
:100FB800C4F81910C4F81D201B7C84F8213096F859
:100FC800213084F8F030DCF80430022B40F23C8108
:100FD8003346BD8053F8228F58689968DA68C4F898
:100FE8002280C4F82600C4F82A10C4F82E201B7CDE
:100FF80084F8323096F8323084F8F130DCF8043076
:10100800032B40F221813346FD8053F8338F586813
:101018009968DA68C4F83380C4F83700C4F83B101C
:10102800C4F83F201B7C84F8433096F8433084F89A
:10103800F230DCF80430042B40F20681B14604F1AA
:1010480044083D8159F8440FD9F80C30D9F80410F8
:10105800D9F80820A8E80F0099F8103088F800306F
:1010680096F8543084F8F330DCF80430052B40F25D
:10107800EB8033467D8153F8558F58689968DA6854
:10108800C4F85580C4F85900C4F85D10C4F861204C
:101098001B7C84F8653096F8653084F8F430DCF809
:1010A8000430062B40F2D0803346BD8153F8668F5A
:1010B80058689968DA68C4F86680C4F86A00C4F8A1
:1010C8006E10C4F872201B7C84F8763096F876305F
:1010D80084F8F530DCF80430072B40F2B58033464D
:1010E800FD8153F8778F58689968DA68C4F8778073
:1010F800C4F87B00C4F87F10C4F883201B7C84F8F4
:10110800873096F8873084F8F630DCF80430082BFE
:1011180040F29A80B14604F188083D8259F8880F58
:10112800D9F80C30D9F80410D9F80820A8E80F002D
:1011380099F8103088F8003096F8983084F8F7302D
:10114800DCF80430092B7FD9334608F101054FF04C
:10115800000953F8998FA7F8129058689968DA68C7
:10116800C4F899806860A960EA601B7C2B7496F8C3
:10117800A93084F8F830DCF804300A2B64D93346F7
:10118800A7F8149053F8AA8F58689968DA68C4F8D1
:10119800AA80C5F81500C5F81910C5F81D201B7CD4
:1011A80085F8213096F8BA3084F8F930DCF8043044
:1011B8000B2B49D93346A7F8169053F8BB8F5868BC
:1011C8009968DA68C4F8BB80C5F82600C5F82A1003
:1011D800C5F82E201B7C85F8323096F8CB3084F881
:1011E800FA30DCF804300C2B2ED9B24605F133085E
:1011F800A7F818905AF8CC0FDAF80C30DAF804107F
:10120800DAF80820A8E80F009AF8103088F80030BB
:1012180096F8DC3084F8FB30DCF804300D2B13D959
:101228003346A7F81A9053F8DD7F58689968DA684A
:10123800C4F8DD70A864E9642A651B7C85F854301D
:1012480096F8ED3084F8FC3015484FF480719CF81E
:1012580000305FFA8EF24FF480260027C4F824018C
:101268000120A4F838110821C4F83C210022C4E95F
:101278004A67C4E94C01002600270320002184F8AE
:101288004021C4F85821C4E95267C4E95401002B2D
:1012980000F08B8006E000BF9803002400000030B7
:1012A80000200240012200200121013B84F85C213A
:1012B800C4E95A01082B0AD8DFE803F005868B90A9
:1012C800959A9FA5AC0003224023C4E958235548AA
:1012D800002502F0A5FE01A95248019502F0FCFF85
:1012E80040F2FF73022204200021CDE9062394F87E
:1012F800EE30CDE90801002B48D00627DFF85491DD
:10130800494EDFF85481DFF854B1DFF854A119E0F1
:10131800022A30D0012A40D15B78012B3FD0002B24
:101328000CBF33460023013504A93E48EDB2CDE990
:10133800043702F099FA94F8EE30AB4226D93B4BC9
:1013480053F8257005EB0513E25C2344002ADFD12E
:101358005B78062B1DD0072B23D0022B2CD0032B18
:101368002CD06BB3012B2DD0042B21D0052B304B67
:1013780018BF0023D7E75B78042B0CD0052B12D0BD
:10138800C3B1012B2B4B18BF0023CCE70DB0BDE830
:10139800F08F294BC7E74346C5E70023C3E74B4611
:1013A800C1E75346BFE75B46BDE784F85C318EE78B
:1013B800224BB8E7224BB6E7224BB4E7224BB2E701
:1013C800224BB0E7224BAEE707226023C4E958233B
:1013D8007DE70F228023C4E9582378E71F22A02342
:1013E800C4E9582373E73F22C023C4E958236EE7B2
:1013F8007F22E023C4E9582369E7FF224FF4807372
:10140800C4E9582363E740F2FF124FF49073C4E92C
:1014180058235CE740F2FF324FF4A073C4E9582325
:1014280055E700BFBC0400240002B025A8AA0008A4
:101438000000B84F0008302E0800900C0000844BC4
:101448000004002A0040C03A0080F03E000021431A
:10145800000052472000F0141000C0100001802145
:101468008000501D38B5094C40F2FF724FF0011151
:1014780004F59275284602F0DDFE284694F8EE2021
:10148800D4F81C11BDE8384002F042BC980300248F
:10149800034B0D29D3F81C0198BF00EB410070479E
:1014A800980300241D4B02689A4200D070471C4BD9
:1014B8004FF48061D3F8D82070B542F02002194D5E
:1014C80004460920C5F8981182B0C5F88C014FF47C
:1014D8000061C3F8D82005F5C476D3F8D8204FF4B6
:1014E8000053114802F02002C5F89C11C5F8A0313C
:1014F8004FF4807101920023019AC5F888013046A3
:10150800C5F8A411C5E96433C5E96A3306F0F2FDEC
:10151800E664C5F8C04102B070BD00BF00200240BB
:10152800004402589803002440000240014807F094
:10153800D3B800BF2005002402682DE9F84F264BD8
:101548009A4201D0BDE8F88FDFF8908098F8EE3025
:10155800002BF7D0002408F1EE0A08F1040608F180
:10156800FE05A14619E003F00101C3F3400BC3F3E4
:101578008007304601F0D8FE5946301D01F0D4FEF0
:10158800394606F1080001F0CFFE98F8EE30013434
:1015980011360235A2B29342D4D91AF8012FC4EBFE
:1015A800C40C002AF3D0D8F81C110027D8F8202141
:1015B8002B78BB4631F8140002EB4C121B0139465C
:1015C800D0522B8801339BB22B809AF800209A4284
:1015D800C9D2A5F80090CCE7002002409803002467
:1015E8002DE9F04FD64F8DB0DFF86CB3BB6807F12B
:1015F8001006D7F810580BF582640BF1100207F5A6
:10160800826903EB800E069483000A9204EB850836
:10161800DBF8084006EB850C039302EB850197F88D
:101628001C3809EB850ACDF81C8004EB80000B916F
:10163800CDE9086CCDE9049A002B00F0DA80012B83
:1016480040F0C480002D00F066810B4600240EF1A6
:10165800040900F10408DFEDBB5A714602950193B5
:1016680051F8343059F8345083F4000E50F83430BF
:1016780085F4000583F4000AAEF5000306EE103A7F
:1016880058F83430AAF5000A013483F4000EA5F5A1
:10169800000306EE90AAB8EEC66A07EE103AAEF559
:1016A8000003F8EEE66A07EE903AB8EEC77A019BB7
:1016B80026EE256AF8EEE77A66EEA56A27EE257A21
:1016C800A6EC016A67EEA57AE2EC016AACEC017A55
:1016D800E3EC017A0193029BA342C1D11D467B68CA
:1016E8002A4604A908A89847039ADBF80C00F96869
:1016F80097F81C3810441144002B00F0B180012BDE
:101708005DD1DDF810A00023DDF81C900E1DDDF87A
:101718001880041DDDF814E09FED8B7ADFF83CC2D9
:10172800DFED8A6A8A4F3BE0F4EEE67AF1EE10FAD2
:10173800C0F22B813A46FEEC017A41F83320F4EEF0
:10174800C77AF1EE10FA3FD9F4EEE67AF1EE10FA24
:10175800C0F222813A46F8EC017A46F83320F4EEDA
:10176800C77AF1EE10FA2DD9F4EEE67AF1EE10FA16
:10177800C0F219813A46F9EC017A40F83320F4EEC8
:10178800C77AF1EE10FA14D9F4EEE67AF1EE10FA0F
:10179800C0F2C7803A4644F8332001339D420ED93F
:1017A800FAEC017AF4EEC77AF1EE10FABCD8624688
:1017B800C1E7624644F8332001339D42F0D80DB0AA
:1017C800BDE8F08F6246D6E76246C4E77B682A46E2
:1017D80004A908A89847039ADBF80C00F96897F859
:1017E8001C3810441144CBB3012BE8D1002D88D10B
:1017F800E5E7002D00F08F800EF1040900F10408E0
:10180800DFED545A3EF9334006EE104A30F93340C2
:1018180006EE904A39F93340B8EEC66A07EE104A28
:1018280038F93340F8EEE66A013307EE904AB8EE2D
:10183800C77A26EE256A9D42F8EEE77A66EEA56A33
:1018480027EE257AA6EC016A67EEA57AE2EC016A32
:10185800ACEC017AE1EC017AD4D140E7002DAED0AE
:10186800DDF810A00023DDF81C900E1DDDF81880AF
:10187800041DDDF814E09FED347ADFF8E0C0DFEDF9
:10188800336A334F38E0F4EEE67AF1EE10FA4FDBC4
:101898003A46FEEC017A41F83320F4EEC77AF1EECD
:1018A80010FA36D9F4EEE67AF1EE10FA58DB3A4639
:1018B800F8EC017A46F83320F4EEC77AF1EE10FA24
:1018C80025D9F4EEE67AF1EE10FA50DB3A46F9EC57
:1018D800017A40F83320F4EEC77AF1EE10FA14D901
:1018E800F4EEE67AF1EE10FA48DB3A4644F8332093
:1018F80001339D427FF663AFFAEC017AF4EEC77AC2
:10190800F1EE10FABFD86246C3E76246EEE76246D8
:10191800DDE76246CCE77B682A4604A908A8984711
:101928004DE7B0EE676ABEEEE46A16EE102A32E7BB
:10193800B0EE676ABEEEE46A16EE102AA9E700BFA9
:10194800980500240000003404FF7FBF04FF7F3F98
:1019580082FF7F0000000038C00D00247E0080FF59
:10196800B0EE676ABEEEE46A16EE102AA0E7B0EEA3
:10197800676ABEEEE46A16EE102AA8E7B0EE676A58
:10198800BEEEE46A16EE102AB0E7B0EE676ABEEE65
:10199800E46A16EE102ACEE6B0EE676ABEEEE46A96
:1019A80016EE102AD7E6B0EE676ABEEEE46A16EEC7
:1019B800102AE0E60B4692000146184609F02AB8BC
:1019C800F8B5044601220F4658484FF4804106F006
:1019D800A5FA2368564A934263D02032934260D0D6
:1019E800544DD5F8184805F1100095F81C28BE008C
:1019F800AB686408012A03EB870100EB840452D02A
:101A0800A0420FD002469FED4C7A51F8043B1BB21E
:101A180007EE903AF8EEE77A67EE877AE2EC017A19
:101A28009442F2D105F5826495F81E78D5F810280D
:101A380021462B6802FB07F29847D5F8182895F835
:101A48001C18EB6852080129334404EB820240D089
:101A580094421ED09FED397A3948DFED3A6A9FEDFE
:101A68003A6A08E0F4EEE67AF1EE10FA55DBA242A3
:101A780043F8041B0DD0F4EC017A47F6FE71F4EE3E
:101A8800C77AF1EE10FAEDD80146A24243F8041BDA
:101A9800F1D100224FF480412448BDE8F84006F017
:101AA8003DBA2A4D9DE7A042BCD002469FED287A58
:101AB80051F8043B83F40003A3F5000307EE903AC2
:101AC800F8EEE77A67EE877AE2EC017A9442EFD192
:101AD800A8E79442DDD0043B9FED187A1D4DDFED59
:101AE800196A1D4808E0F4EEE67AF1EE10FA0DDB0B
:101AF800A24243F8041FCCD0F4EC017A0146F4EE7C
:101B0800C77AF1EE10FAEED82946F1E7B0EE676A27
:101B1800BEEEE46A16EE101AEAE767EE867AFDEE84
:101B2800E77A17EE901A09B2A1E700BF0018025829
:101B380004580140C00D00240000003804FF7FBF96
:101B48000280FFFF04FF7F3F00FEFF469805002448
:101B5800000000347E0080FF82FF7F00014806F00D
:101B6800BBBD00BF60190024014806F0B5BD00BF29
:101B7800D8190024014806F0AFBD00BF501A002450
:101B8800014806F0A9BD00BFB81700242DE9F047A9
:101B98000646814C814D88B0814AD0E90030C4F8AE
:101BA8002468802BC5F82468077828BF802390F81C
:101BB8000B9090F80C80C4F81038C5F81038C3782A
:101BC800226084F81C3803792A6085F81C3801F0F3
:101BD8001FF9B06808B100F0D3FEF06808B100F052
:101BE800CFFED5F810184FF0020E6E4A17F0FD0F11
:101BF8000191D4F8101802F500606B4B01FA0EFA47
:101C08000199AB6003F5006301FA0EF1E260A06090
:101C1800C4F818A8EB60C5F8181884F81EE885F809
:101C28001EE82ED1F14584F81D9800F08A80B9F19C
:101C3800030F76D0B9F1010F7DD0914600F2FF7302
:101C480040F6FE72A3EB0903934240F28C804FF4F6
:101C58000062002108F0ECFE48464FF400620021C3
:101C680008F0E6FE4FF400720021504808F0E0FE4C
:101C78004FF4007200214E4808F0DAFE0023C4F841
:101C880014387B1E012B10D900274A484FF4804294
:101C980001230024077002A947480594CDE90223CF
:101CA80005F044FF08B0BDE8F087B8F1010F85F8EA
:101CB8001D8854D0B8F1020F0AD171681023F0685A
:101CC8004BF68032897AB1FA81F1490907F068F94F
:101CD800A86840F6FE72ED6800F2FF735B1B934242
:101CE8004ED94FF40062002108F0A2FE28464FF4B6
:101CF8000062002108F09CFE4FF4007200212F487A
:101D0800A7F1020708F094FE4FF4007200212C4856
:101D180008F08EFEB7FA87F700237F09C4F8143855
:101D2800B3E740F60133ADF80830029807F03EFA01
:101D3800D4E9020982E7B06807F0F2F8D4E90209A9
:101D48007CE7716810234BF68032B068497AB1FAA3
:101D580081F1490907F024F9D4E902096EE7F0682E
:101D680007F0DEF8B4E7031FA9F1040200F2FC70E3
:101D7800002143F8041F834242F8041FF9D171E798
:101D8800031F2A1F00F2FC70002143F8041F984229
:101D980042F8041FF9D1AFE798050024C00D0024CC
:101DA800BD190008FC000030FC100030A805002414
:101DB800A8090024E815002400180258D00D0024B2
:101DC800D0110024044B00221A7010B9034B19607B
:101DD8007047034B19607047E815002498050024E4
:101DE800C00D002468B9084B802993F81E2828BF25
:101DF8008021C3F8101801FB02F14900C3F8181834
:101E08007047024BF0E700BF98050024C00D00247E
:101E180010B5C0B9234CD4F82438B4F818285B6836
:101E28005B7973B3E168204803F080FDD4F8243867
:101E3800B4F818285B68DB7973BBA1681B48BDE858
:101E4800104003F005BE1A4CD4F82438B4F818280A
:101E58005B689B7983B1E168164803F067FDD4F8A5
:101E68002438B4F818285B681B7A7BB9A168124833
:101E7800BDE8104003F0ECBDA1680E4803F0E8FD92
:101E8800EDE7A168084803F0E3FDCFE7E1680A48F9
:101E9800BDE8104003F04ABDE1680448BDE81040C1
:101EA80003F044BD98050024C81A0024C81800246B
:101EB800C00D00243018002420170024084B1A787D
:101EC800012A07D10368074A934206D02032934279
:101ED80003D070470021FFF773BD0020FFF780BBD8
:101EE800E8150024045801400B4B1A78012A07D141
:101EF80003680A4A934209D02032934206D07047B9
:101F0800074BD3F818184908FFF75ABD044BD3F804
:101F180018084008FFF764BBE8150024045801407E
:101F2800980500242DE9F04FA44C0346ABB0204699
:101F380023655F7893F8008002F0F6FEE8B9012F78
:101F48004FF001059E49034614BF4FF480124FF429
:101F58000002E060A560C4E9001592FAA2F2B2FAA4
:101F680082F24FF48076E0612046013A2362C4E9A8
:101F7800042602F06DFE034618B101202BB0BDE81F
:101F8800F08F4FF0660C41F2883220460EA9149665
:101F9800179313931B93CDF838C0CDE91533CDE9CA
:101FA800193302F0DFFE0028E7D1992341F2883285
:101FB8000EA920460E9302F0D5FE0028DDD14FF081
:101FC800000B4FF0010C4FF0050A4FF08079249078
:101FD80008AA21901CA9299041F28833CDF870A055
:101FE800CDF89490CDE908BC4FF0100B4FF0010CE0
:101FF800CDE90ABC4FF0000B4FF4800CCDE922600C
:10200800CDE927002046CDE90CBC03F017F80028DD
:10201800B3D1ADF808001390CDE91460CDE91609E5
:10202800CDE91850CDE91A00002F00F0CB80F0233D
:10203800ADF80830C02341F288320EA95F480E93EC
:1020480002F090FE002898D141F288325B4802A93C
:1020580002F0F2FE044600288FD1002601274FF433
:1020680080754FF080794FF0000A4FF4800B21946F
:1020780041F28833299408AA1CA950482295CDF822
:102088009490CDE90867CDE9234410260127CDE9CE
:1020980027440524CDE90A671C94CDE90CAB02F06E
:1020A800CDFF00287FF469AF012406238DF80700CF
:1020B80041F2883213901CA91B90219029900E940C
:1020C8001C93CDE91450CDE91609CDE91900CDE9E5
:1020D8002250CDE92400CDE92700384802F042FE1D
:1020E80000287FF44AAF10260127052041F28833E3
:1020F80008AA1CA91C903148CDF89490CDE90A672C
:1021080002260227CDE90CABCDE9086702F096FF5D
:1021180000287FF432AF41F288320EA9274802F036
:1021280021FE00287FF429AF402341F288320DF1C7
:10213800070122488DF8073002F07EFE00287FF460
:102148001CAF10260127052002AA41F288330EA9E8
:102158000E901A48CDF85C90CDE9046740264027D8
:10216800CDE906ABCDE9026702F068FF0646002814
:102178007FF403AF22950025219605202996012793
:102188001C9008AA41F288331CA90C48CDF89490F9
:10219800CDE92366CDE927660126CDE90856102644
:1021A800CDE90CABCDE90A6702F048FF00287FF4BF
:1021B800E4AEB8F1000F50D00020DFE6EC150024A3
:1021C80000500052612341F288320EA920460E9336
:1021D80002F0C8FD00287FF4D0AE41F2883202A98F
:1021E800204602F0A7FE00287FF4C7AEBDF80830ED
:1021F8000625259041F2883223F078032190299012
:102208001CA943F0400322961C95ADF80830CDE98F
:102218002300CDE92700204602F0A4FD00287FF422
:10222800ACAE1026012720460225022441F288334D
:1022380008AA1CA9CDF870A0CDF89490CDE90A673A
:1022480000264FF48007CDE90845CDE90C6702F078
:10225800F5FE00283FF4EEAE8FE6EB24A0264FF4FF
:10226800005706251C9400244FF0805000234FF49B
:1022780080784FF4406929900EAA1CA90C48CDE932
:102288001E67CDE920454FF440464FF040770024C3
:102298000025CDE92733CDE92289CDE92467CDE9A9
:1022A8000E4502F03FFF003818BF012066E600BF68
:1022B800EC1500243E4B02682DE9F0479A428CB099
:1022C8004FF00005CDE90755CDE909550B9502D02A
:1022D8000CB0BDE8F087374B0226374905AFD3F875
:1022E800D420B146DFF8D4A04FF0030842F480426E
:1022F800C3F8D420D3F8D42002F480420092009A84
:10230800D3F8E02042F04002C3F8E020D3F8E02000
:1023180002F040020192019AD3F8E02042F0200234
:10232800C3F8E020D3F8E02002F020020292029ADB
:10233800D3F8E02042F01002C3F8E020D3F8E02000
:1023480002F010020392039AD3F8E0203243C3F854
:10235800E020D3F8E03033400493049B03C9059090
:10236800ADF81810DAF8504034440236204601F02F
:10237800F7F9034620461C4601F0FAF917F8013B25
:10238800024607A920460B93CDE90729CDE909584C
:1023980005F0CCFB0E2EE5D100225C20114602F0A0
:1023A80011F85C2002F048F80CB0BDE8F08700BFD7
:1023B8000050005200440258E8AA0008EC15002416
:1023C800124B02689A4200D07047114AD2F8D430B2
:1023D80070B523F4804302250E4EC2F8D430346D14
:1023E8002C440235204601F0BBF9034620461C4622
:1023F80001F0BEF90146204605F0BCFC0E2DEED1D9
:102408005C20BDE8704002F025B800BF00500052C3
:1024180000440258EC150024014802F00BBF00BF2D
:10242800EC1500242DE9F043444C8BB0A0630378ED
:1024380023B1002528460BB0BDE8F083404A0A23A3
:1024480000260127626008220893202302A9201D84
:10245800C4E90267C4E9042340264FF4C077002288
:102468004FF40063C4E90667C4E908234FF48056B3
:10247800002702220723C4E90A67CDE902230426BC
:10248800032200230827CDE90623CDE9046702F0DB
:102498005DF8054600284CD14FF001084FF01009AF
:1024A8000126002702A94FF480520190201DCDE992
:1024B80002894FF002084FF01009CDE9046702F0D5
:1024C8006FF8642006F014FD02A94FF48052201D15
:1024D800CDE90467CDE9028904264FF003084FF0DF
:1024E8001009002702F05CF802A94FF48052201D61
:1024F800CDE90467CDE9028902F052F840F23223AF
:102508004FF0010C042601931027019B02A94FF4F8
:102518008052201DCDE904C3CDE9026702F040F8DE
:10252800201D40F6060102F05BF828460BB0BDE816
:10253800F083012528460BB0BDE8F0834816002437
:1025480040410052694A2DE9F04315688FB015B132
:102558000FB0BDE8F083664B01210C240026116002
:102568000327D3F8D4204FF683784FF0020908A93F
:1025780042F480525F48C3F8D420D3F8D42002F440
:1025880080520092009AD3F8E02042F01002C3F87B
:10259800E020D3F8E02002F010020192019AD3F86B
:1025A800E02042F04002C3F8E020D3F8E02002F037
:1025B80040020292029AD3F8E02042F00802C3F8DF
:1025C800E020D3F8E02002F008020392039AD3F83F
:1025D800E02042F48072C3F8E020D3F8E02002F44F
:1025E80080720492049AD3F8E02042F08002C3F883
:1025F800E020D3F8E02002F080020592059AD3F893
:10260800E02042F02002C3F8E020D3F8E02002F0F6
:1026180020020692069AD3F8E02042F00402C3F89A
:10262800E020D3F8E0300C9403F004030793079BF1
:10263800CDE90A67CDE9088905F078FA48F237123A
:10264800022308A92C480C94DFF8C080CDE90A675A
:10265800CDE9082305F06AFA4CF20372022308A9AF
:1026680026480C94CDE90A67CDE9082305F05EFAFF
:1026780040F2FF62022308A921480C94CDE90A67B9
:10268800CDE9082305F052FA4FF60C72022308A987
:102698001C480C94CDE90A67CDE9082305F046FAF1
:1026A8004FF63F02022308A917480C94CDE90823E6
:1026B800CDE90A6705F03AFAD8F83800013001F098
:1026C8004FF8D8F838300646581C01F051F8022265
:1026D8000746032308A930460C9408970B93CDE9C5
:1026E800092505F023FA0FB0BDE8F0834016002451
:1026F800004402580010025800180258000C0258F2
:1027080000200258001C02580014025848160024E1
:102718002DE9F04FCFB04C2200210AA808F088F923
:102728002022002102A808F083F9BC2200211EA85B
:1027380008F07EF9022006F045FB514A0021514B72
:1027480001911846D16A21F00101D162D26A02F0E2
:10275800010201929A6942F440429A619B6903F42A
:1027680040430193019B83699B04FCD5464A02249C
:1027780021204FF48031936A0126042523F00303B6
:1027880023439362C82308221096169300231794B4
:10279800199415951C93CDE90A0105210AA8CDE9DC
:1027A80013441891CDE91A2303F002FC00B1FEE7A7
:1027B8003F2603270022082302A82146CDE9026705
:1027C800CDE90423402640234FF480624027CDE919
:1027D8000823CDE9066703F027FF034600B1FEE7AB
:1027E80080220A260227002534924FF480723394FF
:1027F8008024439200224FF054084FF008091EA885
:10280800CDE93B334FF4805335934FF480334693EF
:102818000623CDE92267CDE9244540F22716402753
:1028280004242025CDE926234FF480620023CDE936
:102838002867CDE92A45CDE92C230FF23C0BDBE9CB
:1028480000AB002602270024002500224FF4401385
:10285800CDE91EABCDE92089CDE92E67CDE930451C
:10286800CDE93E2304F008F900B1FEE706F0D0FAFE
:102878004FB0BDE8F08F00BF09130F03040000003C
:1028880000040058004802580044025808B506F0F1
:102898001DFBBDE8084001F055BE00BFFFBE7047F4
:1028A80070B584B0012506F0E3FA0024FFF730FF85
:1028B80001F0FCFD4FF040512E4A4FF480736846FA
:1028C8000191ADF80050CDE9022301F011FE40F26C
:1028D800011119224FF040436846ADF80E108DF8EB
:1028E800082001938DF801508DF80D408DF80A40AD
:1028F80001F0FEFD042001F0E9FD06F071FCBFF3D4
:102908004F8FBFF36F8F1C4BC3F85042BFF34F8FED
:10291800BFF36F8F5A6942F400325A61BFF34F8F89
:10292800BFF36F8FC3F88440BFF34F8FD3F8801085
:1029380043F6E074C1F34E32C1F3C901520102EA11
:102948000405084645EA80760138C3F86062461CEB
:10295800F8D1203A12F1200FF1D1BFF34F8F5A6905
:1029680042F480325A61BFF34F8FBFF36F8F04B0C8
:1029780070BD00BF0D00010300ED00E006F0B8BA1D
:1029880038B5054600F0FCFE04462B78022B3FD0F4
:10299800032B35D0012B2BD02868214B214A1860F6
:1029A800A988998022606B79012B18D0022B1CD042
:1029B800C3B1002501232046E360A5602562C4E970
:1029C8000455C4E9065501F0D5FE2946204601F014
:1029D800FFFF29462046BDE8384002F025B8124BD3
:1029E8006360E6E7114B6360E3E7114B6360E0E780
:1029F8002868104B104A1860A98899802260D2E78D
:102A080028680E4B0E4A1860A98899802260CAE788
:102A180028680C4B0C4A1860A98899802260C2E784
:102A280084160024005400403211D0208A62E0301D
:102A38001A0980108C160024005800409C160024A7
:102A4800001C005894160024005C00409C4A03684F
:102A5800934230B58FB055D09A4A934200F09C808B
:102A6800994A934200F0EE80984A934201D00FB001
:102A780030BD974B974CD3F8E020601C42F002021F
:102A8800C3F8E020D3F8E03003F002030893089B72
:102A980000F066FE0546601C00F06AFE22781221EE
:102AA8000023012ACDE90901CDE90B3301D804231C
:102AB8000D9309A92846019105F038F8864800F0D9
:102AC8004FFE0546844800F053FE22780023122466
:102AD800012A0199CDE90904CDE90B3301D8042372
:102AE8000D93284605F022F8794BD3F8F42042F0EC
:102AF8008002C3F8F420D3F8F43003F0800309937C
:102B0800099BB4E7724B754CD3F8E020601C42F087
:102B18000202C3F8E020D3F8E03003F00203029386
:102B2800029B00F01DFE0546601C00F021FE227885
:102B380012210023012ACDE90901CDE90B3301D87F
:102B480004230D9309A92846019104F0EFFF644876
:102B580000F006FE0546624800F00AFE22780023CF
:102B68001224012A0199CDE90904CDE90B3301D8D2
:102B780004230D93284604F0D9FF554BD3F8E820D9
:102B880042F40012C3F8E820D3F8E83003F4001345
:102B98000393039B0FB030BD4D4B524CD3F8E0204C
:102BA800601C42F08002C3F8E020D3F8E02002F075
:102BB80080020492049AD3F8E02042F00202C3F89B
:102BC800E020D3F8E03003F002030593059B00F002
:102BD800C7FD0546601C00F0CBFD227812210023BA
:102BE800012ACDE90901CDE90B3301D804230D935E
:102BF80009A92846019104F099FF3B4800F0B0FD6F
:102C08000546394800F0B4FD227800231224012A31
:102C18000199CDE90904CDE90B3301D804230D93BB
:102C2800284604F083FF2A4BD3F8E82042F48002B8
:102C3800C3F8E820D3F8E83003F480030693069B32
:102C48000FB030BD294C601C00F08AFD0546601CA1
:102C580000F08EFD227812210023012ACDE9090116
:102C6800CDE90B3301D804230D9309A92846019116
:102C780004F05CFF1E4800F073FD05461C4800F098
:102C880077FD227800231224012A0199CDE909044D
:102C9800CDE90B3301D804230D93284604F046FFF1
:102CA8000B4BD3F8E82042F40002C3F8E820D3F82D
:102CB800E83003F400030793079B0FB030BD00BF53
:102CC8000054004000580040005C0040001C0058C0
:102CD800004402589C1600249F16002484160024E1
:102CE800871600248C1600248F16002494160024BE
:102CF80097160024184BF0B5197983B0012929D00B
:102D0800002211460024154802230125144F4BF6D2
:102D180080360192009107600662C461114EC4605A
:102D2800C0E90135C0E90544C0E90B4402F03CFDA7
:102D38000D4802234461C461C46044630660DDE950
:102D48000012C0E90154C0E90B4403B0BDE8F040EB
:102D580002F02ABD0222D5E7AC1600243018002460
:102D6800045C0140245C01402017002470B5254D07
:102D780082B0E978012936D000226B7A1146002BFF
:102D880035D0012B3AD16B791F48002B0CBF032398
:102D98000223436000244BF68036022306628460D7
:102DA800C461C460C0E90544C0E90B441648CDE9D4
:102DB800001202F0F9FCEB7914480125A3424FF008
:102DC800020344610CBF03260226C4614660C46046
:102DD80044638560DDE90012C0E90B4402B0BDE838
:102DE800704002F0E1BC6B7A0222002BC9D16B79EA
:102DF8000548B3FA83F35B094360CBE70248012334
:102E08004360C7E7AC160024C81A0024C818002479
:102E1800F8B5194F044600F1200C3E4620681034DE
:102E280054F80C1C354654F8082C103654F8043C59
:102E380064450FC5F2D12378104A3370104C1149FC
:102E48003B78114D1460012B104804F58064104A3A
:102E58000D6010490460116005D0022B01D033B118
:102E6800F8BDFFF783FFBDE8F840FFF743BFBDE8B3
:102E7800F840FFF77BBF00BFAC160024C81A002437
:102E880004580140C8180024245801403018002470
:102E980020170024245C0140B14BD3F8E02042F015
:102EA80010022DE9F04FC3F8E02093B0D3F8E020EA
:102EB8000446AC4D02F010020092009AD3F8E020CC
:102EC80042F00202C3F8E020D3F8E02002F0020248
:102ED8000192019AD3F8E02042F04002C3F8E020C2
:102EE800D3F8E02002F040020292029AD3F8E020E0
:102EF80042F00802C3F8E020D3F8E02002F008020C
:102F08000392039AD3F8E02042F00402C3F8E020C9
:102F1800D3F8E02002F004020492049AD3F8E020E7
:102F280042F00102C3F8E020D3F8E02002F00102E9
:102F38000592059AD3F8E02042F48072C3F8E020A5
:102F4800D3F8E010026801F48071AA42069106994C
:102F5800D3F8E01041F08001C3F8E010D3F8E01096
:102F680001F0800107910799D3F8E01041F02001A2
:102F7800C3F8E010D3F8E01001F020010891089997
:102F88000CD0794B9A4200F00781784B9A423AD09C
:102F9800774B9A4275D013B0BDE8F08F754A116827
:102FA800002900F06E810025DFF8E89101310DF16C
:102FB800340809EB450A2F465FFA85FB1160504635
:102FC80015B96D4B597AA9B900F0CAFB06465046A7
:102FD80000F0CEFB02230146062230461192CDE9CD
:102FE8000D134146CDE90F7704F0A0FDBBF1040FA6
:102FF80000F00E81013509EB450A5FFA85FB504662
:10300800002DDED0E0E75D4B1A6862B95449D1F86B
:10301800F00040F40000C1F8F000D1F8F01001F41D
:1030280000010B910B9961680132554D4FF48040B6
:1030380021F002011A60534A4FF4805301294FF0DE
:1030480059072A604FF480710CBF002240226B613F
:103058004FF480660023AA604FF40032A861284626
:10306800EB606B626F602E61C5E9071205F042F8EC
:1030780022683F4BC4F884509A42AC63C4F880502D
:1030880089D13E4B1A68002A00F0ED8000253E4E9B
:1030980001320DF13408A9464FF0020A30465FFAB2
:1030A80085FB1A60CDB9344B9B7A7BB900F058FB8D
:1030B8000746304600F05CFB0A230D901095CDE9D9
:1030C8000EA538464146119304F030FD013502360D
:1030D8005FFA85FB3046002DE5D000F041FB07463E
:1030E800304600F045FBBBF1020F02464FF00A03E1
:1030F80041463846CDE90D2ACDE90F9900F0B18057
:10310800119304F013FDBBF1040FDFD163685A2259
:103118001E4D4FF4806623F002031D496A604FF488
:103128008052012B4FF4804029604FF480710CBF0E
:1031380000234023A8612846AB600023C5E9046248
:103148004FF40032EB606B62C5E9071204F0D2FF5E
:10315800C4F88450AC63C4F8805013B0BDE8F08F55
:10316800004402580458014024580140045C0140BE
:10317800245C0140A4160024AC160024A8160024E0
:10318800501A002458000240C3160024B81700241F
:1031980070000240B9160024404A136863B94049D8
:1031A800D1F8F00040F48000C1F8F000D1F8F01038
:1031B80001F480010A910A9961680133394D4FF48D
:1031C800804021F002011360374A4FF480530129EF
:1031D8004FF058072A604FF480710CBF002240223C
:1031E8006B614FF480660023AA604FF40032A86137
:1031F80028466F602E61EB606B62C5E9071204F028
:1032080079FF2268C4F88450AC63C4F88050BCE6E7
:1032180063685722254D4FF4806623F00203244942
:103228006A604FF48052012B4FF4804029604FF4BC
:1032380080710CBF00234023A8612846AB6000239F
:10324800C5E904624FF40032EB606B62C5E907120E
:1032580004F050FF2268C4F88450AC63C4F880506E
:103268008FE608232DE70E49D1F8F00040F400005E
:10327800C1F8F000D1F8F01001F400010C910C999C
:1032880004E7D3F8F00040F48000C3F8F000D3F866
:10329800F03003F480030993099B84E6A416002404
:1032A80000440258D819002428000240601900245C
:1032B8001000024010B5837886B00446022B22D055
:1032C800032B1ED0012B1CD000230293E378012B83
:1032D80015D0022B13D00023039300232046049318
:1032E80000F03EFA034620461C4600F041FA01A9C8
:1032F80003462046019304F019FC06B010BD039361
:10330800EBE70293E2E711230293DFE738B50546BE
:1033180000F026FA0446284600F02AFA014620461C
:10332800BDE8384004F0F4BD70B506460D4600F01F
:1033380017FA0446304600F01BFA2A1E01462046BA
:1033480018BF0122BDE8704004F0E8BDF0B5194B84
:10335800C827194E02224FF0804403F10C050021C2
:10336800002089B09A60DC60802200245A620194AF
:10337800C3E900674FF0FF360027C3E90401C3E93A
:1033880006672846CDE90444CDE90644CDE9024460
:1033980002F06CFC4FF4805304A92846049302F011
:1033A80019FD01A928460194039402F0D1FD09B042
:1033B800F0BD00BFD0160024400D0300014802F004
:1033C800EDBC00BFDC160024034BDA681B68506AAA
:1033D800B0FBF3F0704700BFD01600240368B3F1C8
:1033E800804F00D07047084B82B0D3F8E82042F0F5
:1033F8000102C3F8E820D3F8E83003F00103019391
:10340800019B02B0704700BF00440258B6EE007A34
:10341800016060EE200A0276F7EE007A437680EDCE
:10342800020A60EE870AC0ED047A87EEA07A10B42B
:103438000024C46044615DF8044B80ED017A704754
:103448000268037E128807EE902AFBEEC87A1BB149
:10345800B7EE007A77EE677AD0ED056A90ED047AD8
:1034680077EEE67A437E67EE877A0BB1F1EE677AFC
:1034780090ED030A90ED017A77EEC07AA7EE270A5D
:1034880080ED030A704700BF30B5044685B04FF49D
:1034980080751030ADF80820ADF80C100180A282BC
:1034A8006582E5828DED000AADF80430FFF702FF72
:1034B80004F11400FFF7FEFE9DED000A2046019975
:1034C80000F00CF900224FF6FF73E261238305B088
:1034D80030BD00BF70B5067E044610307600FFF799
:1034E80015FF034676B2657E04F114001E436D0095
:1034F80026766DB2FFF70AFF034620461D43657620
:1035080000F008F9237E002203F00303E261022B96
:1035180006D0627E02F00302022A00D133B170BDE8
:10352800637E9B07FBD10123E36170BD4FF0FF333E
:10353800E36170BD9FED197AF0EE407A4B68B4EE06
:10354800470A70B504460868F1EE10FA8E68CD682F
:103558002DED028B206048BFB0EE470A0869B0EE37
:10356800608A636084F830204B690A8B206163614C
:103578002283C4ED077AC4ED080AA660E56006F068
:1035880053FCF0EE407AB0EE480AC4ED097A06F032
:103598004BFC84ED0A0ABDEC028B70BD95BFD63397
:1035A80090F8303010B50446032B47D8DFE803F015
:1035B80015243502FFF744FF60EE006AD4ED077A60
:1035C80094ED087A66EE806A37EE677AE6EE877AD7
:1035D800B0EE670AC4ED0B7A10BDFFF731FFD4EDEA
:1035E800077A94ED087A37EE677AE0EE077AB0EE5C
:1035F800670AC4ED0B7A10BDFFF722FFD4ED077AF6
:1036080094ED087A20EE000A37EE677AE0EE077A42
:10361800B0EE670AC4ED0B7A10BDFFF711FF94ED09
:10362800097AD4ED0A7A77EEC77AA0EE277AB0EE57
:10363800470A06F087FB84ED0B0A10BD90ED0B0AD4
:1036480010BD00BF30B585B004469FED110A9DF846
:103658002050ADF80C100399ADF808202A468DEDDE
:10366800000AADF8043005F0FFFD9DED000A2A467A
:1036780004F11C00029905F0F7FD9DED000A2A46A9
:1036880004F13800019905B0BDE8304005F0ECBD03
:1036980000007A4438B50C46054691ED000A05F05D
:1036A80007FE94ED010A05F11C0005F001FE05F185
:1036B800380094ED020ABDE8384005F0F9BD00BFB6
:1036C80010B5044605F006FE04F11C0005F002FEE4
:1036D80004F13800BDE8104005F0FCBDB7EE007AF3
:1036E80001220346C7EE007A70B4002683B0C1F306
:1036F80007250024ADF80410C660417010449D7081
:10370800DC701A709A809A71C3ED027A03B070BCAB
:10371800FFF7D0BD38B54479054683790130640098
:1037280064B2B3B1FFF7F2FDB0FA80F35B0923434B
:10373800DBB2A3F17F026B71012A0ED9FF2B07D1EF
:10374800D5ED037A95ED027A77EE877AC5ED037A9F
:1037580038BDFFF7DBFD43B2E9E70023EB6038BD76
:10376800024B027853F82200704700BF10AB0008E4
:10377800024B427833F81200704700BFF0AA0008E5
:1037880010B485B00478074B0DF1100C0FCB0CEB7F
:1037980084040CE90F0054F8100C05B05DF8044BD4
:1037A800704700BF48AA0008074B01EB410103EB33
:1037B800810110B44A680C688B68046042605DF847
:1037C800044B8360704700BF40AB0008704700BFE0
:1037D800806B08B5FFF7FAFF08BD00BF704700BF50
:1037E800836B5A6D12F0500F5A6D10B51DD11968C0
:1037F80042F400725A650A6812F0080FCA681BD0B2
:1038080012F4406F0DD1CA6894040AD45A6D22F498
:1038180080725A655A6DD10403D45A6D42F0010280
:103828005A651846FDF788FE10BDD2060AD4DB6C2F
:10383800BDE81040DB6C18479007E7D01846FDF745
:103848007BFEF1E71846FFF7C9FF10BD806B08B58E
:10385800436D43F040034365836D43F00403836580
:10386800FFF7BCFF08BD00BFF0B5002283B001928E
:1038780090F85020012A00F01B81034601201A68A5
:1038880083F850009468660700F189800C68C4F3D7
:103898001305002D40F08E80C4F3846C00FA0CF000
:1038A8004C681F26D569A7093440284302F1300522
:1038B80007F00C07A640D0610CFA04F4785920EA06
:1038C8000600204378519068450771D4956815F033
:1038D800080548D10C6802F1140607208F684FEAE2
:1038E800D45CC4F304540CF0040C00FA04FE07FA88
:1038F80004F4C64F5CF8060020EA0E0020434CF89A
:103908000600386800F07040B0F1805F00F0C880B1
:10391800D068D66810F0100F486940F0E980C6F307
:103928008206760000FA06F60F69042F00F0C380BD
:1039380002F16004086854F827C000F0F8400CF061
:10394800004C40EA0C00304344F827000E694F7ED3
:1039580054F82600012F20F0004008BF4FF0004522
:10396800054344F826509068C40716D4CE68086802
:1039780006F01807A64CD2F8C050FC40C0F3130755
:10398800DFF8B8C2044025EA0705664544EA05049D
:10399800C2F8C04046D0002816DB002003E05A6D6C
:1039A80042F020025A65002283F8502003B0F0BD8F
:1039B8009068D8E794FAA4F5B5FA85F5C4F3846C51
:1039C80005F01F04A0406BE792498A4200F0B680D8
:1039D80001F580718A4200F0B1808F4E8F4DA96841
:1039E800B46801F0E076E44304F00104002C00F030
:1039F800B3808B4CA04200F0E6808A4CA04200F0D5
:103A08001F81894CA042C8D14902C6D482498A4242
:103A1800C3D1AA68002022F0E072324342F4800247
:103A2800AA60C0E7002F69D090FAA0F4B4FA84F431
:103A3800013404F01F04092C00F2A38090FAA0F4CA
:103A4800B4FA84F490FAA0F50126B5FA85F50134A4
:103A58003544A40605F01F0504F0F84406FA05F5F8
:103A68002C4390FAA0F0B0FA80F0304400F01F0028
:103A780000EB400000052043C70D02F11405C0F318
:103A880004504FF0070C07F004078E680CFA00FC8E
:103A98007C59864024EA0C003043785108687AE75C
:103AA800D6684869C6F38206760000FA06F63BE750
:103AB800022003B0F0BD106E0D6800F0F840AC06AF
:103AC800B0EB856F30D0506E00F0F840844226D0BD
:103AD800906E00F0F84084422BD0D06E00F0F84091
:103AE80084427FF440AFD06E20F00040D0663AE7C1
:103AF800760806F0080600FA06F615E7800E441C5C
:103B080004F01F06092E2DD8A406012506EB460051
:103B180004F0F84405FA06F600053443ABE7506EA6
:103B280020F000405066D3E7106E20F00040106689
:103B3800C9E7906E20F000409066CEE73B49354ECD
:103B48003B4C0D468968B768A46801F0E0763C43B1
:103B5800E44304F0010449E75A6D012042F02002D1
:103B68005A6520E706EB46000127A5061E3807FA26
:103B780006F605F0F8450005354340F00070284387
:103B88007AE790FAA0F5B5FA85F590FAA0F401263F
:103B9800B4FA84F401353444AD0604F01F0405F08A
:103BA800F84506FA04F4254390FAA0F4B4FA84F42C
:103BB800344404F01F0404EB4404A4F11E0000057F
:103BC80040F00070DBE708023FF5E7AE12498A4291
:103BD8007FF4E3AE174AA9681268174821F0E0712C
:103BE80092093143A0FB020241F400019209A96045
:103BF80052000192019A002A3FF4CFAE019A013A8D
:103C08000192019A002AF9D1C7E600BF0010005CB2
:103C1800FFFF0F00002002400060025800630258B6
:103C2800000084CB000052C70000B8CF0023024038
:103C38000021024004000024632D3E050000FF47D8
:103C480011F080707FF4A9AE05498A427FF4A5AED1
:103C5800AA6822F0E072324342F08072AA60A2E6BB
:103C68000060025803689A68D20701D5002070479F
:103C78009968214A114270B504462AD199681F4AA9
:103C88000A4042F001029A6005F02CF923681C4AA8
:103C98000546934226D002F58072934222D0194AF3
:103CA8009268164E0AE09A68324042F001029A6021
:103CB80005F018F9401B02280BD823681A68D207A8
:103CC80017D49A68D107EED505F00CF9401B0228E5
:103CD800F3D9636D012043F010036365A36D0343BB
:103CE800A36570BD084A9268D006DAD0074A9342A5
:103CF800D7D1002070BD00BF3F000080C0FFFF7F0C
:103D080000200240006302580023024000210240C4
:103D18002DE9F0413B4D044600680F461646A8427F
:103D280019D0394B984216D0384DAB688068420795
:103D380016D494F85020012A12D003F01F0801234A
:103D4800B8F1090F84F850300DD90023012084F808
:103D58005030BDE8F0812E4DAB6880684207E8D549
:103D68000220BDE8F08140F2212323FA08F3DB4367
:103D780013F00105E9D12046FFF774FF00283AD176
:103D8800626D244B2568134043F480736365B8F172
:103D9800000F02D01C4B9D4203D0636D23F48013A7
:103DA8006365636D13F4805329D0A36D23F0060374
:103DB800A365E06C4FF0000CDFF868E033463A4644
:103DC8001C21154F154EC0F83CE00764C6642960F5
:103DD80005F1400184F850C06E6846F010066E6028
:103DE80004F052FB22680E4B91680B4043F0040329
:103DF8009360BDE8F08184F85050BDE8F081A36578
:103E0800D7E700BF002002400021024000630258AB
:103E180000230240FEF0FFFFD9370008553800089C
:103E2800C0FFFF7FE937000838B503689A68910733
:103E380002D59B68002038BD9A68D20723D59A68B6
:103E4800044602F00D02012A08D0636D012043F0F8
:103E580010036365A36D0343A36538BD9868032108
:103E68000A4A024042F002029A60196005F03AF8E4
:103E7800054604E005F036F8401B0228E5D823681B
:103E88009B68DB07F6D4002038BD00BFC0FFFF7F6A
:103E980038B55A4A04460368934249D002F58072FD
:103EA800934245D0564B9B6813F4403F14BF0123FF
:103EB8000023EBB102F0D2FC63680546B3F5003F7E
:103EC80000F08B80B3F5403F73D0B3F5803F00F02E
:103ED800848005F01FF841F2030398421FD8494B2C
:103EE8009D4260D92268936843F48073936038BD1B
:103EF8004FF4002003F038FD63680546B3F5101F42
:103F080075D01DD9B3F5201F5BD0B3F5301FE0D1B4
:103F180005F000F841F20303984244D92D0A3A4BC0
:103F28009D422ED82268936823F44073936038BD6D
:103F3800364B9B6813F4403F14BF01230023B8E7B6
:103F4800B3F5E01F3FD004D9B3F5001FC1D145092F
:103F5800BFE7B3F5801F06D00AD9B3F5A01F02D07A
:103F6800B3F5C01FB5D19B0C5B00B5FBF3F5B0E70B
:103F7800B3F5002FF7D023F40022B2F5802FF2D04A
:103F8800A7E7234B234A2B4493421ED9224B234AAB
:103F98002B449342226893682BD823F4407343F44C
:103FA8000073936038BD2268936823F4807393602C
:103FB80038BD850804F0AEFF41F203039842AED83D
:103FC8008DE7C50985E7050983E72268936823F427
:103FD800407343F48073936038BD1B0CB5FBF3F555
:103FE80004F098FF41F20303984298D877E78509CF
:103FF8006FE743F44073936038BD00BF0020024070
:1040080000630258002D3101105E5F00002302405A
:10401800EFA1A0FF0F5E5F00DF4341FF1FBCBE00A2
:1040280070B5002382B00193002800F0CF80456D61
:104038000446002D00F0B980226893689D0003D5DE
:104048009168704B0B4093609368D80015D46E4B01
:1040580090681B686D4D9B096D49A5FB0353014092
:104068009B0941F0805191600193019B2BB1019B09
:10407800013B0193019B002BF9D19368D90024D40B
:10408800636D012543F010036365A36D2B43A3659E
:10409800936813F0040F636D1DD1DB061BD4636DA9
:1040A80023F4817343F0020363659368DE0728D421
:1040B800584B9A4217D003F580739A4213D0564B47
:1040C8009B68D9071DD4554A15E09368002513F05D
:1040D800040F636DE1D0636D012543F0100328469A
:1040E800636502B070BD4B4A4D4B92689B681343A1
:1040F800D80706D44B4A9368616823F47C130B43B2
:10410800936004F007FF41F20303A1689842237FFC
:1041180051D8667D1A04206B42EA463202430A43AC
:10412800012B03D1236A013B42EA4342636A23B16C
:1041380003F47873A16A0B431A4323683A49D86891
:1041480001400A43DA609A6812F0040F9A681CD199
:1041580012071AD4D968354A207D0A40E16A42EA32
:1041680080320A43DA6094F83820012A3AD01A6972
:1041780022F001021A611A692046616B22F070422E
:104188000A431A61FFF784FE2368E268012A21D0F6
:104198001A6B22F00F021A63636D284623F003039B
:1041A80043F00103636502B070BDFDF77BF9A565B7
:1041B80084F8505040E71029ABD1607D1A04216B78
:1041C80042EA40320A4342F01C02A9E70125284688
:1041D80002B070BD196BA26921F00F01013A0A43C0
:1041E8001A63D9E71869124ED4E910210640A06C69
:1041F8000A43E16B3243024342EA014242F00102C0
:104208001A61B8E7C0FFFF5F04000024632D3E0574
:10421800C0FFFF6F00200240006002580063025890
:10422800002102400023024003C0F0FFFCBFFFFF53
:104238001EF800FCF0B50D4690F8501083B000262B
:10424800012901963ED001230446174680F85030D4
:10425800FFF7EAFD636DE0B91C4E07F08042216864
:1042680005F480351E401A4B1A4F46F00206666563
:104278008E68334013432B4343F000438B608B68B5
:10428800002B0EDB636D23F0030343F0010363652A
:1042980002E043F010036365002384F8503003B054
:1042A800F0BD019B01330193019BBB42E7D9636DCC
:1042B8000022012023F0120384F8502043F0100359
:1042C8006365ECE7022003B0F0BD00BFFDEEFFFF21
:1042D800C0FFFE3FFF955A55F0B490F850200E6885
:1042E800012A49D00346294A01201C6883F8500056
:1042F800944208D05A6D002142F0200283F85010F1
:104308005A65F0BC7047224DAA6852070AD5A268C0
:104318005A6D012042F020025A65002283F850208D
:10432800F0BC7047A06810F00400F1D1C6B1DFF806
:1043380068C04F68DCF8082022F440423A43CCF8C1
:104348000820A468AA682243D40713D48A68DCF832
:1043580008401049164321400E43CCF80860DCE7BA
:104368000D498A6822F440428A60A068AA6802431C
:10437800D00704D50020D0E70220F0BC70478C6835
:104388003046044A22408A60C7E700BF0020024046
:1043980000210240E0F0FFFF00230240074900022D
:1043A800074BCA6800F4E06010B44FF6FF042240DF
:1043B8005DF8044B10430343CB60704700ED00E009
:1043C8000000FA05194BDB68C3F3022330B4C3F1CC
:1043D80007051C1D042D28BF0425062C19D9033BED
:1043E8004FF0FF349C4022EA04024FF0FF340028CB
:1043F80004FA05F421EA040101FA03F141EA020191
:104408000ADB09010A4BC9B2034483F8001330BC24
:10441800704700221346E8E700F00F000901054B3A
:10442800C9B20344197630BC704700BF00ED00E004
:1044380000E100E0FCEC00E0002807DB00F01F01D1
:1044480001234009024A8B4042F82030704700BFE0
:1044580000E100E000280DDB4309012200F01F0005
:104468000549203302FA00F041F82300BFF34F8FCB
:10447800BFF36F8F704700BF00E100E00138B0F173
:10448800807F0DD2074B0022072130B4F025064C5F
:104498005860104684F823509A60196030BC704701
:1044A8000120704710E000E000ED00E0BFF35F8FEF
:1044B800044A00200449536A23F480335362486055
:1044C800704700BF00ED00E090ED00E0064A40F0C4
:1044D8000100064B5860536A43F480335362BFF3BC
:1044E8004F8FBFF36F8F704700ED00E090ED00E055
:1044F800124A437893600178E9B1436870B4D36095
:10450800C37A047B1B06857A867B43EA0473447B63
:104518000B43017A43EAC543C57B43EA8443447AA3
:1045280043EA464343EA054343EA042343EA410393
:1045380070BC13617047D1601161704790ED00E065
:10454800704700BF08B5FFF7FBFF08BD18B338B5C3
:1045580090F82C300D46044603F0FF02B3B1022355
:10456800214684F82C3051F8040B04F0D7FE294674
:10457800D4E9000204F00EFF084A01210020136864
:1045880043F00043136084F82C1038BD80F82D20C8
:10459800FDF7D8FFE3E70120704700BF0040005255
:1045A80070B590F82C300546022BD8B204D000F034
:1045B800FB04012C01D0012070BD02230E4628689F
:1045C80085F82C3004F032FF3368022B03D000202A
:1045D80085F82C4070BD0523002085F82C3070BD6F
:1045E80038B590F82C300446022BD8B205D094F890
:1045F8002C30012BDDB201D0012038BD0223206808
:1046080084F82C3004F024FF002084F82C5038BDA6
:1046180070B504460D4616466A1C23682CD19A6963
:10462800900727D49A69D106F9D59A699106FCD5DD
:1046380020221021D961DA619A69900701D50022F8
:104648009A629A69D10703D49A6942F001029A6181
:104658005A6800211B4E2025012032405A60636CA5
:1046680084F8401043F00403636484F8415084F8EC
:10467800421070BD002070BD9A699207FAD49A69F9
:10468800D0061BD404F02EFC801BA84201D8002DB4
:10469800C2D1636C2021002201200B4384F8402002
:1046A800636484F8411084F8422070BD04F01AFC59
:1046B800801B8542EDD3002DEBD0236899698A06CB
:1046C800F4D5B5E700E800FE70B504460D46164679
:1046D800236899698A0649D49969CA0626D5681C47
:1046E80038D19A699106FCD520221021D961DA6166
:1046F8009A69900701D500229A629A69D10703D472
:104708009A6942F001029A615A680021184E2025E0
:10471800012032405A60636C84F8401043F004036F
:10472800636484F8415084F8421070BD04F0DAFBE9
:10473800801BA84201D8002DCAD1636C2021002219
:1047480001200B4384F84020636484F8411084F806
:10475800422070BD9A699206C6D404F0C3FB801B40
:104768008542EAD3002DE8D02368B8E7002070BD61
:1047780000E800FE00284DD0F8B590F84130044616
:1047880003F0FF02002B40D02421E068D4E9003276
:1047980084F841100128196822F0706221F00101A3
:1047A80019601A619A6822F400429A60A26828D0B7
:1047B80042F4044202289A6002D14FF400625A601F
:1047C8005A68002114482027A6691043D4E9042513
:1047D80058602A43D868E56942EA0622266A20F426
:1047E80000403543D8600846DA601D601A6842F018
:1047F80001021A60616484F84170216384F84210F0
:10480800F8BD42F400429A60DAE780F84020FEF7EB
:104818001DF9B9E701207047008000022DE9F04733
:10482800984690F84130089E202B40F08A8090F8F6
:1048380040300446012B00F0848001238946174646
:1048480080F8403004F04EFB054604E004F04AFBD3
:10485800401B192878D82368986910F40040F5D1CE
:1048680010222121676284F8411084F84220606494
:10487800A4F82A80628D606392B2FF2A72D8618D93
:10488800C9F309075A68DFF838C189B24A4802EA09
:104898000C025FFA81FC21853A4342EA0C4210433C
:1048A8005860DFF824814FF0FF0ADFF82091638D0C
:1048B8002A46314620469BB2002B30D0FFF7A8FE8F
:1048C800002875D1606A216810F8012B238D8A624F
:1048D800628D013B6062013A9BB292B22385628588
:1048E800628D92B2002BE2D1002AE0D0701C45D133
:1048F8008B691A06FCD5638D9BB2FF2B4AD94B688E
:104908002A46A4F828A0204603EA08033B4343EAC2
:1049180009034B603146638D9BB2002BCED1FFF764
:10492800D3FE002844D123682021244DD9615A6838
:104938002A405A6084F8411084F8400084F8420004
:1049480000E00220BDE8F087636C202100220120EE
:104958000B4384F84020636484F8411084F84220B3
:10496800BDE8F0875A68C9F309071549FF200A40CE
:10497800144920853A431143596092E78B691B0615
:10498800B9D404F0AFFA401B8642DDD3002EDBD049
:104998002168ABE7628D4B6892B203EA0803D0B294
:1049A800228543EA00433B4343F000734B607EE7B4
:1049B8000120BDE8F08700BF0020008200E800FE6B
:1049C800009800FC0020FF81009C00FC0000FF0113
:1049D80090F84120202A21D1034670B4D5B290F82E
:1049E8004020012A1CD01A682420002683F84100A0
:1049F8001468304624F001041460146824F48054C8
:104A08001460146821431160116841F001011160BC
:104A180083F8415083F8406070BC704702207047AB
:104A2800022070BC704700BF90F84120202A20D196
:104A3800034670B4D6B290F84020012A1BD01A68F9
:104A48002420002583F841001468284624F0010436
:104A58001460146824F4706444EA01211160116838
:104A680041F00101116083F8416083F8405070BC47
:104A7800704702207047022070BC7047F0B44C6A3F
:104A880082B014B1B2F1406F30D18B69002B34D0B1
:104A98000E6A002E59D0056823438F68C869EF61F4
:104AA800002800F0AE8013430F690C68B2F1406F24
:104AB80043EA0603CE6843EA0003C86A43EA0003F0
:104AC800086B43EA000348690190486B43EA000316
:104AD800019843EA070343EA060343EA040343EA67
:104AE80080436B6160D04B68AB615DE08B6A0568A1
:104AF800013B2B618B69002BCAD10B6A002B44D078
:104B0800066823438D68C869F561002869D0134396
:104B18004D6B0F69B2F1406F43EA0003C86ACC6875
:104B280043EA0003086B43EA0003486943EA0503C4
:104B380043EA070343EA040343EA8043736133D03B
:104B48004B68B36102B0F0BC7047CD69002D6CD0E2
:104B580023430668CC6AB2F1406F43EA02000F6B48
:104B68004B6B40EA0500CD6840EA04000C6840EA57
:104B7800070040EA03004B6940EA050040EA0400E8
:104B880040EA83407061DBD10EE0CB697BB95CB150
:104B9800CB6A00682343D1E90C5413434A692B4379
:104BA800234343EA8243436102B0F0BC7047234386
:104BB800CC6A0D6BB2F1406F43EA0203006843EA26
:104BC80004034C6B43EA0503CD6843EA04034C69CC
:104BD80043EA050343EA84434361E5D04B688361B4
:104BE800E2E7D1E90B0513434C6B03432B43D1E9AF
:104BF80004022343034343EA8243736102B0F0BCD7
:104C0800704713434F6B0C6933434A69D1E90B0C66
:104C18000343086843EA0C033B432343034343EA43
:104C280082436B6102B0F0BC70471C43CE6A0068D7
:104C380044EA02030C684A693343D1E90C753B43E3
:104C48002B43234343EA8243436102B0F0BC7047DD
:104C5800F8B5044604F046F9002C55D094F84030D5
:104C6800012B53D00123064684F8403094F8413094
:104C780003F0FF02002B35D0A76C2368A1681A68DF
:104C8800013922F4706242EA01221A6001E07A1CBA
:104C980032D19D6815F02005F9D1D4E90716E268EC
:104CA80028461F680A43616832431D4E42EA016282
:104CB8003E406169A76932431A4E1A6041EA070209
:104CC8005F6821693E4042EA0142012132435A604D
:104CD8001A680A431A60656484F84110002384F84E
:104CE8004030F8BD204684F84020FDF7E3FA41F251
:104CF80088331F46A364C0E704F0F4F8801BB84269
:104D080006D82FB12368C4E70120F8BD0220F8BDFA
:104D18000423012084F84130636C03436364DDE7B6
:104D28002FFFFF00FEF8E0FFC8B110B590F8403043
:104D38000446012B11D00268012380F84030136823
:104D480023F001031360FDF73BFB0023636418465F
:104D580084F8413084F8403010BD022010BD012095
:104D6800704700BF2DE9F04104460D46904604F017
:104D7800B9F894F84030012B3BD0012384F8403037
:104D880094F84130012BDEB206D0022600233046CB
:104D980084F84030BDE8F0810022022307466264AF
:104DA80084F84130B8F1FF3F23680ED19A6812F0B9
:104DB8002002FBD129462046FFF760FE6B6AE3B16B
:104DC8000123002684F84130E0E79A6812F02002B7
:104DD8001ED004F087F8C01B804502D3B8F1000F3D
:104DE800E0D1042384F84130636C43F00103636429
:104DF800CCE702263046BDE8F081226893689B071D
:104E0800FCD5022101230026D16084F84130BDE79A
:104E180029462046FFF732FE6B6A43B1D0E704F01B
:104E280061F8C01B8045DCD3B8F1000FD9D02268E7
:104E380093689907F3D5E4E72DE9F84304468946D2
:104E4800154604F04FF894F840302768012B67D0D6
:104E5800012384F8403094F84130012B5FFA83F83D
:104E680007D04FF002080023404684F84030BDE8E0
:104E7800F88300236364B9F1000F56D01223064665
:104E880084F841303B690133E3623B69C4F82490FC
:104E98000133A3627B6923F040637B61E36A002BE3
:104EA80031D0691C3B4611D19A685207FCD5636A18
:104EB8001B7887F82030E26A636A013A0133E262BC
:104EC800E26A6362F2B1691C2368EDD09B685807F7
:104ED800EDD404F007F8801B854201D3002DF2D1F0
:104EE800042384F84130636C43F00103636413E0E6
:104EF800BB689B070CD403F0F5FF801B8542EFD3FA
:104F0800002DEDD02768691CF2D1BB689A07FCD543
:104F180002234FF00008FB60012384F84130A2E728
:104F28004FF002084046BDE8F883636C43F008037D
:104F3800636498E72DE9F84304461546894603F06B
:104F4800D1FF2768BA6994F84030012B6CD001234F
:104F580084F8403094F84130012B5FFA83F807D089
:104F68004FF002080023404684F84030BDE8F8833B
:104F780000236364B9F1000F5BD02223064684F84E
:104F880041303B690133A3633B69C4F83090013376
:104F980063637B6923F0406343F080637B61BA619C
:104FA800A36B002B33D0681C3B4612D19A6812F0D1
:104FB800060FFBD097F82020236B1A70A26B236B87
:104FC800013A0133A263A26B2363FAB1681C236818
:104FD800ECD09B6813F0060FECD103F083FF801B25
:104FE800854201D3002DF1D1042384F84130636C4C
:104FF80043F00103636413E0BB689B070CD403F020
:1050080071FF801B8542EFD3002DEDD02768691C06
:10501800F2D1BB689A07FCD502234FF00008FB6069
:10502800012384F841309DE74FF002084046BDE86F
:10503800F883636C43F00803636493E72DE9F8434E
:1050480004461D460F46164603F04CFF94F84030C0
:10505800012B4FD0012384F8403094F84130012BC4
:105068005FFA83F807D04FF002080023404684F81F
:105078004030BDE8F883002242238146626484F808
:105088004130681C236829D19A689106FCD432689B
:10509800394670689A62B2685862DA621A6830698A
:1050A80022F44002D6F80CC042EA00064FF0006233
:1050B800204646F480061E60C7F828C0FFF7DEFCCD
:1050C800681C22681BD193681907FCD508210123A5
:1050D8004FF00008D16084F84130C6E79A6892061C
:1050E800D5D503F0FFFEA0EB0900854212D3002DB1
:1050F800C7D10FE04FF002084046BDE8F883936837
:105108001B07E3D403F0EEFEA0EB0900854201D3B0
:10511800002DD5D1042384F84130636C43F001039A
:105128006364A2E72DE9F84304460F46904603F06E
:10513800D9FE94F84030012B42D0012384F8403046
:1051480094F84130012BDEB206D002260023304607
:1051580084F84030BDE8F883002282230546D4F85D
:105168004890626484F84130B9F1FF3F226814D155
:1051780093689906FCD41368D8F8041023F0080340
:10518800082943EA010313601ED039464FF04062F4
:1051980020460026FFF772FCD8E793689B06EAD5FD
:1051A80003F0A0FE401B814502D3B9F1000FDBD10B
:1051B800042384F84130636C43F001036364C5E75A
:1051C80002263046BDE8F883D8F800101023116392
:1051D800D360136843F480131360D6E7704700BFA9
:1051E80008B5006C00238363C36290F84130082B34
:1051F8000BD103680222DA601A6842F400321A609E
:105208001A6842F002021A6008BD012380F8413092
:10521800FFF7E4FF08BD00BF704700BF704700BF3D
:10522800704700BF704700BF704700BF704700BF9E
:10523800704700BF38B5036804469A68196855076F
:105248000ED548030CD594F84120122A75D094F84D
:105258004120222A00F0A1802046FFF7E5FF38BD53
:10526800950726D5880324D50222DA601A6822F425
:10527800E0221A6094F84120122A7AD094F841204A
:10528800222A00F0A98094F84120022A00F0D08058
:1052980094F84120082AE2D15A690121204622F0D7
:1052A80040625A6184F84110636C3BBBFFF7B4FF5E
:1052B80038BD150725D4D50735D5C80333D50125FD
:1052C800DD601A6822F470221A60626C42F00202F1
:1052D80062641A68520779D51A68E06B22F00402F2
:1052E80057491A60816503F057FD0028B7D0636CF1
:1052F800204643F00403636484F84150FFF76EFFCF
:1053080038BD0803D7D50822DA601A68520206D5D4
:105318001A68012122F410221A6084F841102046EC
:10532800FFF784FF38BDD00699D5CA0297D5102259
:105338002046DA60FFF77CFF38BD9A6850078BD5A6
:1053480018460EE0626A127883F82020E16A206825
:105358000139626AE1620132816862624D077FF554
:105368007BAFE26A002AEDD1036823F4802303604F
:1053780072E71A68510709D51A68E16B22F004022E
:1053880009681A60CB6823F00103CB60012320462B
:1053980084F84130FFF746FF38BD9A6852077FF519
:1053A8005BAF18460EE093F82010226B1170A16BCA
:1053B80020680139226BA1630132816822634907A1
:1053C8007FF54AAFA26B002AEDD1CDE7204684F8DD
:1053D8004150FFF703FF38BD1A6852071DD49A6879
:1053E80012F47C5F0FD111E093F82010226B11703A
:1053F800A16B20680139226BA163013281682263A5
:1054080011F47C5F02D0A26B002AEDD10123204663
:1054180084F84130FFF704FF38BD1A68E16B22F0C9
:10542800040209681A60CB6823F00103CB60EDE73A
:105438000123204684F84130FFF7F0FE38BD00BF55
:10544800E9510008B24B016899422DE9F04105463F
:105458001FD0203399421CD003F57873994259D054
:105468002033994256D003F57873994200F0208191
:105478002033994200F01C8195F89130A54E03F035
:10548800FF026BB9284685F89020FDF705FD2968CD
:1054980006E0A14E95F8913003F0FF02002BF1D001
:1054A8009E4B9F481B680A68A0FB030322F48032C6
:1054B8001B0B0A609B0023B30C68013B14F4803477
:1054C800F9D1EB680222012B85F8912000F01A81AE
:1054D800934219BF174603202320222715BF4FF0F8
:1054E800010C4FF0210C00222022AB68013B042B59
:1054F80000F25781DFE813F0D1001100D800100046
:10550800D400D5F89430012043F04003C5F8943016
:10551800BDE8F081834EBDE73A464FF400682B6A38
:105528003260002B44D07A4B994200F029817E48A2
:10553800081AB0FA80F04009002840F021817B4B1E
:10554800994200F017812033994200F01381784B7B
:10555800994200F009812033994200F00581754B8A
:10556800994200F01381744B994200F01581AB69A0
:10557800B3F5002F00F0EE80AB6A00EB80002A6ADA
:10558800B3F1806F4FEA40030CBF0221012102FBF7
:1055980001F21202B3FBF2F3684AA2FB0312D2082B
:1055A80002EB8201A3EB4103092B08BF01326A62B7
:1055B8006B6833F002032B6D40F09F80012B14BF02
:1055C8004FF40074002403F0A5FC6B68B0F5005F8D
:1055D800D5E9111243EA01037FD31A43EB6CE96A58
:1055E8001A43A8692B680A436969AF6A0A431968AC
:1055F800D5F824C0024352483A4308402969186044
:105608000A4319684FF220004E4F0A4342EA0C52EF
:1056180042EA080222434C4C1A605968EA690C4075
:10562800296B11436A6B5C6011435C686A6E2143A5
:10563800EC6D22432C6E5960224399686C6D0F40C3
:10564800A96D013C01399F6022439C6842EA01220E
:10565800A96E2243EC6E9A6041EA0402D9686C6F25
:105668000840296F42EA0442294C0139D860D868B9
:10567800A34242EA012242EA0002DA601AD02D4A25
:10568800934217D000230122C5F89430184685F8B4
:10569800903085F89120BDE8F0814FF480683EE7AE
:1056A80002464FF400683AE762464FF4006836E76E
:1056B800264EEFE6736C23F00103736495F83830D7
:1056C800012BDFD1D5E90F23013A43EA02137364B2
:1056D800736C43F001037364D4E7E96C1A43686997
:1056E8000A43E96A2B680A43AF69196802431848F4
:1056F8003A430840D5E909C181E7012B08BF4FF4B7
:10570800007460E7132012274FF0110C1022ECE60A
:105718000458014000540058005801400400002477
:105728001BECCB95005C014024580140045C01400F
:10573800046001400454005824540058CDCCCCCC0B
:1057480010C005F00080F8FFF01FFFFF0060014067
:1057580010C005F800EB8000296A6A6D430002FB5F
:1057680001F2B3FBF2F317E74FF4007002F0FCF814
:105778002968F4E64FF4007002F0F6F82968E6E6C6
:105788004FF4807002F0F0F82968D8E64FF4806092
:1057980002F0EAF82968E6E64FF4006002F0E4F85F
:1057A800E5E64FF00008BAE60229F8B5044635D90F
:1057B800C81E012830D8656800204FF400362367DA
:1057C80035F002054FF4802560640CBF01270746B9
:1057D80004294FF6FF7127650CBF01270D27E064E8
:1057E800E065A765A0666167C4E91865032A13D850
:1057F800DFE802F0484F553723684B4A934205D0FB
:1058080002F1C052A2F58232934205D16368012B9E
:1058180002D1636C002B30D00120F8BD4568002010
:10582800236735F002056064E0644FF4803508BFF3
:105838000646A0664FF6FF7018BF0126E56560674B
:1058480013F001002665E7D14D1E012D2ED84FF427
:105858000035C4E91850032ADED8DFE802F05A4BB5
:105868003B315B01E02180226365A164E26603F0BD
:1058780051FB94F83830012BBED02046BDE8F840E3
:10588800FFF7E0BD1B01802140226365A164E26649
:10589800EDE780225B01A2646365E266E7E75B01EE
:1058A800C02180226365A164E266E0E74FF48025A9
:1058B800C4E91805032AAFD8DFE802F02B1C0C0254
:1058C8005B08E02080219A01A0645B01E166C4E9DD
:1058D8001523CCE75B08C025802002294FEA8312F4
:1058E800A5644FEA4313E066C4E91523BFD1082332
:1058F800A366BCE75B08802202294FEA8310A264F2
:105908004FEA4313E266C4E91503B0D11023A36636
:10591800ADE75B08802040215A01A0641B01E166C5
:10592800C4E91523A3E700BF045801402DE9F84353
:105938000F460446154603F0D5FA002F62D0B5FA93
:1059480085F84FEA5818002D5CD094F89130012B57
:105958005FFA83F951D194F89030012B4DD042462B
:1059680006464FF0120CD4F8800065F30F022B4660
:10597800C4F89480394665F31F42324D84F89090FC
:10598800E267314AA76784F891C00564C2642F4D65
:105998002268C0F850801C32C56302F075FD0028EB
:1059A8003ED1636C082B636831D0052161202268E1
:1059B800023B012B98BF014613690B43136113681F
:1059C80043F40033136006E003F08CFA831BB3F54D
:1059D8007A7F2AD82268556915F4E025F4D013682F
:1059E800DB0303D4136843F4803313604FF00009DA
:1059F800484684F89090BDE8F8834FF0020948467D
:105A0800BDE8F8834FF001094846BDE8F88323F064
:105A18000202012A0BBF1521052171206120C6E76A
:105A2800484684F89080BDE8F883D4F894304FF065
:105A3800030984F8905043F040034846C4F8943072
:105A4800BDE8F8838D5B0008095C0008295B000845
:105A5800F8B500294FD0B2FA82F513466D09002A2D
:105A680049D090F891200446012AD6B240D190F846
:105A78009020012A3CD02F4680F8906081674FF033
:105A8800220C63F30F07C0F894500A46D0F884003C
:105A980063F31F471E4984F891C0E76701641D49F5
:105AA8001D4FC164216805651C31C76302F0ECFC19
:105AB800D0B923681A68D20303D41A6842F4803232
:105AC8001A60626C082A626818D005206125023ABB
