:020000040800F2
:10000000000002205D030008AD030008AD030008F6
:10001000AD030008AD030008AD03000800000000B8
:10002000000000000000000000000000AD03000818
:10003000AD03000800000000AD030008AD03000898
:10004000AD030008AD030008AD030008AD030008D0
:10005000AD030008AD030008AD030008AD030008C0
:10006000AD030008AD030008AD030008AD030008B0
:10007000AD030008AD030008AD030008AD030008A0
:10008000AD030008AD030008AD030008AD03000890
:10009000AD030008AD030008AD030008AD03000880
:1000A000AD030008AD030008AD030008AD03000870
:1000B000AD030008AD030008AD030008AD03000860
:1000C000AD030008AD030008AD030008AD03000850
:1000D000AD030008AD030008AD030008AD03000840
:1000E000AD030008AD03000800000000AD030008E8
:1000F000AD030008AD030008AD030008AD03000820
:10010000AD030008AD030008AD030008AD0300080F
:10011000AD030008AD030008AD030008AD030008FF
:10012000AD030008AD030008AD030008AD030008EF
:10013000AD030008AD030008AD030008AD030008DF
:1001400000000000000000000000000000000000AF
:10015000AD030008AD030008AD030008AD030008BF
:10016000AD030008AD030008AD030008AD030008AF
:10017000AD030008AD030008AD030008AD0300089F
:10018000AD030008AD030008AD030008AD0300088F
:10019000AD030008AD030008AD030008AD0300087F
:1001A000AD030008AD030008AD030008AD0300086F
:1001B000AD030008AD030008AD030008AD0300085F
:1001C000AD030008AD030008AD030008AD0300084F
:1001D000AD030008AD030008AD030008AD0300083F
:1001E000AD030008AD030008AD030008AD0300082F
:1001F000AD030008AD030008AD030008AD0300081F
:10020000AD030008AD030008AD030008AD0300080E
:10021000AD030008AD030008AD030008AD030008FE
:10022000AD030008AD030008AD03000800000000A6
:10023000AD030008AD03000800000000AD03000896
:10024000AD030008AD030008AD030008AD030008CE
:10025000AD030008AD030008AD030008AD030008BE
:10026000AD030008AD030008AD030008AD030008AE
:10027000AD030008AD030008AD0300080000000056
:10028000AD030008AD030008AD0300080000000046
:0802900000000000AD030008AE
:1002980010B5054C237833B9044B13B10448AFF3B8
:1002A80000800123237010BD00000024000000001E
:1002B8009802000808B5034B1BB103490348AFF384
:1002C800008008BD00000000040000249802000817
:1002D80030B4194C0022194BD4F88810184841F44E
:1002E8007001184DC4F888101C68174944F00104BF
:1002F8001C601A611C68204018609A61DA611A62F1
:100308009A62DA621A635A639A63DA631A645A64FD
:10031800186820F4802018601A662B681940B1F11B
:10032800005F02D2094B01221A60034B4FF00062B2
:1003380030BC9A60704700BF00ED00E000440258EE
:100348007FEDF6EA0010005C0000FFFF0881005115
:1003580000207047DFF834D0002103E00C4B5B58D5
:10036800435004310B480C4B42189A42F6D30B4ABF
:1003780002E0002342F8043B094B9A42F9D3FFF705
:10038800A7FF00F011F8FFF7E3FF70470000022015
:1003980018040008000000240000002400000024C5
:1003A8001C000024FEE7000070B50D4D0D4C641BC9
:1003B800A4100026A64209D10B4D0C4C00F018F8E9
:1003C800641BA4100026A64205D170BD55F8043B55
:1003D80098470136EEE755F8043B98470136F2E7AF
:1003E8001004000810040008100400081404000891
:1003F800F8B500BFF8BC08BC9E467047F8B500BF0A
:08040800F8BC08BC9E467047D9
:04041000BD02000821
:040414009902000841
:040000050800035D8F
:00000001FF
