:020000040800F2
:1000000000000220050D0008550D000875210008AC
:10001000550D0008550D0008550D000800000000A2
:10002000000000000000000000000000550D000866
:10003000550D000800000000550D0008652100085E
:10004000550D0008550D0008550D0008550D000808
:10005000550D0008550D0008550D0008550D0008F8
:10006000550D0008550D0008550D0008211C00080D
:100070002D1C0008F1150008391C0008451C00085B
:1000800089B80008550D0008550D0008550D0008E9
:10009000550D0008550D0008550D0008550D0008B8
:1000A000550D0008550D0008550D0008550D0008A8
:1000B000550D0008550D0008550D0008550D000898
:1000C000550D0008550D0008550D0008550D000888
:1000D000550D00087DB80008550D0008550D0008A5
:1000E000550D0008550D000800000000550D0008D2
:1000F000550D0008550D0008550D0008550D000858
:10010000550D0008550D0008550D0008550D000847
:10011000550D0008550D0008550D0008550D000837
:10012000550D0008550D0008550D0008550D000827
:10013000550D0008550D0008550D0008550D000817
:1001400000000000000000000000000000000000AF
:10015000550D0008550D0008550D0008550D0008F7
:10016000550D0008550D0008FD2F00080930000846
:10017000550D000815300008550D0008550D0008F4
:10018000550D0008550D0008550D0008550D0008C7
:10019000550D0008550D0008550D0008550D0008B7
:1001A000550D0008550D0008550D0008550D0008A7
:1001B0005DB30008550D0008550D0008550D0008E9
:1001C000550D0008550D0008213000082D3000089D
:1001D000550D000839300008550D0008550D000870
:1001E000550D0008550D0008550D0008550D000867
:1001F000550D0008550D0008550D0008550D000857
:10020000550D0008550D0008550D0008550D000846
:10021000550D0008550D0008550D0008550D000836
:10022000550D0008550D0008550D00080000000090
:10023000550D0008550D000800000000550D000880
:10024000550D0008550D0008550D0008550D000806
:10025000550D0008550D0008550D0008550D0008F6
:10026000550D0008550D0008550D0008550D0008E6
:10027000550D0008550D0008550D00080000000040
:10028000550D0008550D0008550D00080000000030
:0802900000000000550D0008FC
:1002A00010B5054C237833B9044B13B10448AFF3B0
:1002B00000800123237010BD3002002400000000E4
:1002C0009802000808B5034B1BB103490348AFF37C
:1002D000008008BD000000003402002498020008DD
:1002E000034613F8012B002AFBD1181A0138704776
:1002F00001F0FF01102A2BDB10F0070F08D010F8D7
:10030000013B013A8B422DD010F0070F42B3F6D1DA
:10031000F0B441EA012141EA014122F007047FF0F3
:1003200000070023F0E80256083C85EA010586EA4A
:10033000010685FA47F5A3FA87F586FA47F6A5FA86
:1003400087F68EB9EED1F0BC01F0FF0102F0070292
:1003500032B110F8013B013A83EA010313B1F8D13D
:100360000020704701387047002D06BF354603381E
:10037000073815F0010F07D1013015F4807F02BF57
:10038000013015F4C03F0130F0BC0138704700BFA8
:1003900081F0004102E000BF83F0004330B54FEA36
:1003A00041044FEA430594EA050F08BF90EA020FA3
:1003B0001FBF54EA000C55EA020C7FEA645C7FEA36
:1003C000655C00F0E2804FEA5454D4EB5555B8BF59
:1003D0006D420CDD2C4480EA020281EA030382EACA
:1003E000000083EA010180EA020281EA0303362D5C
:1003F00088BF30BD11F0004F4FEA01314FF4801C2F
:100400004CEA113102D0404261EB410113F0004F40
:100410004FEA03334CEA133302D0524263EB4303F7
:1004200094EA050F00F0A780A4F10104D5F1200E95
:100430000DDB02FA0EFC22FA05F2801841F10001F0
:1004400003FA0EF2801843FA05F359410EE0A5F1C4
:1004500020050EF1200E012A03FA0EFC28BF4CF0F5
:10046000020C43FA05F3C01851EBE37101F00045AB
:1004700007D54FF0000EDCF1000C7EEB00006EEBB8
:100480000101B1F5801F1BD3B1F5001F0CD3490842
:100490005FEA30004FEA3C0C04F101044FEA445299
:1004A00012F5800F80F09A80BCF1004F08BF5FEA20
:1004B000500C50F1000041EB045141EA050130BD00
:1004C0005FEA4C0C404141EB0101013C28BFB1F512
:1004D000801FE9D291F0000F04BF01460020B1FA5D
:1004E00081F308BF2033A3F10B03B3F120020CDA30
:1004F0000C3208DD02F1140CC2F10C0201FA0CF00E
:1005000021FA02F10CE002F11402D8BFC2F1200C72
:1005100001FA02F120FA0CFCDCBF41EA0C01904028
:10052000E41AA2BF01EB0451294330BD6FEA040471
:100530001F3C1CDA0C340EDC04F11404C4F120025C
:1005400020FA04F001FA02F340EA030021FA04F36E
:1005500045EA030130BDC4F10C04C4F1200220FAC5
:1005600002F001FA04F340EA0300294630BD21FA03
:1005700004F0294630BD94F0000F83F4801306BFC9
:1005800081F480110134013D4EE77FEA645C18BFBD
:100590007FEA655C29D094EA050F08BF90EA020F54
:1005A00005D054EA000C04BF1946104630BD91EA4C
:1005B000030F1EBF0021002030BD5FEA545C05D14F
:1005C0004000494128BF41F0004130BD14F580048E
:1005D0003CBF01F5801130BD01F0004545F0FE4102
:1005E00041F470014FF0000030BD7FEA645C1ABF37
:1005F000194610467FEA655C1CBF0B46024650EA6E
:10060000013406BF52EA033591EA030F41F4002199
:1006100030BD00BF90F0000F04BF0021704730B51F
:100620004FF4806404F132044FF000054FF00001F4
:1006300050E700BF90F0000F04BF0021704730B5B5
:100640004FF4806404F1320410F0004548BF40428A
:100650004FF000013EE700BF42004FEAE2014FEADF
:1006600031014FEA02701FBF12F07F4393F07F4FBA
:1006700081F06051704732F07F4208BF704793F0BD
:100680007F4F04BF41F40021704730B54FF46074D0
:1006900001F0004521F000411CE700BF50EA0102D3
:1006A00008BF704730B54FF000050AE050EA01027C
:1006B00008BF704730B511F0004502D5404261EBEC
:1006C00041014FF4806404F132045FEA915C3FF42D
:1006D000D8AE4FF003025FEADC0C18BF03325FEACA
:1006E000DC0C18BF033202EBDC02C2F1200300FA7B
:1006F00003FC20FA02F001FA03FE40EA0E0021FAA0
:1007000002F11444BDE600BF53B94AB9002908BF3D
:1007100000281CBF4FF0FF314FF0FF3000F06EB9E2
:10072000ADF1080C6DE904CE00F006F8DDF804E048
:10073000DDE9022304B070472DE9F047089D044627
:100740008C46002B40F083808A42174647D9B2FA84
:1007500082F242B1C2F1200024FA00F091409740A9
:1007600040EA010C94404FEA1748230CBCFBF8F612
:100770001FFA87FE08FB16C143EA014306FB0EF190
:10078000994209D9FB1806F1FF3080F0198199428E
:1007900040F21681023E3B445B1AA4B2B3FBF8F070
:1007A00008FB103344EA034400FB0EFEA64509D9BA
:1007B0003C1900F1FF3380F00581A64540F202812B
:1007C00002383C4440EA0640A4EB0E0400261DB16A
:1007D000D4400023C5E900433146BDE8F08702B9A3
:1007E000FFDEB2FA82F2002A50D1CB1B4FEA174E3D
:1007F0001FFA87F80126B3FBFEFC210C0EFB1C330D
:1008000041EA034108FB0CF38B4207D979180CF13C
:10081000FF3002D28B4200F2E9808446C91AA3B2AB
:10082000B1FBFEF00EFB101143EA014408FB00F897
:10083000A04507D93C1900F1FF3302D2A04500F2D0
:10084000D9801846A4EB080440EA0C40BFE78B426D
:1008500009D9002D00F0B1800026C5E9000130461D
:100860003146BDE8F087B3FA83F6002E4AD18B42B9
:1008700002D3824200F2B880841A61EB03010120A6
:100880008C46002DA8D0C5E9004CA5E7C2F1200395
:1008900020FA03F6974001FA02F04FEA174ED940CA
:1008A0003043030CB1FBFEF61FFA87F80EFB16115E
:1008B00043EA014306FB08F1994204FA02F409D91C
:1008C000FB1806F1FF3C80F08D80994240F28A804F
:1008D000023E3B445B1A81B2B3FBFEF00EFB1033C9
:1008E00041EA034100FB08F38B4207D9791800F174
:1008F000FF3C73D28B4271D902383944CB1A40EA9B
:10090000064678E7C6F1200C03FA06F422FA0CF347
:100910001C4320FA0CF701FA06F34FEA144E21FAB1
:100920000CF11F433B0CB1FBFEF91FFA84F80EFBE0
:10093000191143EA014109FB08FA8A4502FA06F255
:1009400000FA06F308D9611809F1FF3048D28A4548
:1009500046D9A9F102092144A1EB0A01BFB2B1FBBA
:10096000FEF00EFB101147EA014700FB08F8B845FE
:1009700007D9E71900F1FF312ED2B8452CD902383A
:10098000274440EA0940A7EB0807A0FB02894F452E
:10099000C64649461AD317D05DB1B3EB0E0267EBDA
:1009A000010707FA0CFCF2404CEA0202F740C5E9E5
:1009B000002700263146BDE8F0872E4628460BE783
:1009C0000646E9E61846FDE64345E5D2B8EB020ED9
:1009D00069EB04010138DFE70846D2E760468DE79E
:1009E0008146B9E7664675E730464AE7ACF1020C46
:1009F000394413E702383C4424E700BF704700BF86
:100A000030B4194C0022194BD4F88810184841F41E
:100A10007001184DC4F888101C68174944F001048F
:100A20001C601A611C68204018609A61DA611A62C1
:100A30009A62DA621A635A639A63DA631A645A64CE
:100A4000186820F4802018601A662B681940B1F1EC
:100A5000005F02D2094B01221A60034B4FF0006283
:100A600030BC9A60704700BF00ED00E000440258BF
:100A70007FEDF6EA0010005C0000FFFF08810051E6
:100A8000704700BF704700BF704700BF704700BF8E
:100A9000AAB1013AF8B50C460025094F22F001062B
:100AA00008480DF007FB06480DF0F2FC3A6BB54222
:100AB00005F10205626044F8082BF1D1F8BD7047DA
:100AC0004C020024B004002430B5ADF5077D03AC22
:100AD00084E807002278257A012A647A08D0032A5C
:100AE00003D1012D4CD0022D3CD00DF5077D30BD3A
:100AF0000A462B462F4906A800940EF01DFB06A8B7
:100B0000FFF7EEFB06A902462B4802F073FA002C11
:100B1000EBD007EE905A9FED297AF2EE080A284DA5
:100B2000F8EE677AB0EE000A77EEC77AC7EEA00A51
:100B30000DF006FEDFED237A284620EE270A85ED2C
:100B4000020A0DF07BFC07EE904ADFED1F6A85ED8F
:100B5000060AF8EEE77A87EEA67A85ED017A0DF5BA
:100B6000077D30BD07EE904A9FED170A1748F8EE53
:100B7000677A87EE800A0DF061FD0DF5077D30BDC7
:100B800007EE904A9FED0D7AF2EE080AF8EE677ACA
:100B9000B0EE000A77EEC77AC7EEA00A0DF0D0FDDE
:100BA000DFED087A094820EE270A0DF0D1FC0DF59B
:100BB000077D30BDFC020108F202002400008A42D9
:100BC000B00400240000DC430000FE424C0200247C
:100BD00070B53048304E314C2DED028B84B000F0B2
:100BE0007DF900212E4801AD02F07EF9FA2001F0D6
:100BF00031FB01210022294802F09CF8254800F031
:100C0000B5F8B7EE007AB0EE408A4FF07C52002380
:100C10009FED240A30467260C7EE087A736186ED54
:100C2000038A86ED020AC6ED047A0DF007FCF0EEA9
:100C3000407A0623B0EE480A1B483370C6ED067AA8
:100C40000DF008FC134800F095F81248174900F021
:100C500083F8204602F07CF8104802F081F8636FB8
:100C6000226F9B1A5A07F7D0636F226F9B1A5B079C
:100C7000FAD0226F02EB4203013204EB830302F04D
:100C800007021033226793E8070085E80700FFF7A3
:100C90001BFFE4E790020024B00400243804002481
:100CA000F20200240000C8424C020024910A00080D
:100CB00008B50B4A0B490C480DF03CFD084A0B499E
:100CC0000B480DF037FD064A0A490B480DF032FD7E
:100CD000034A0A490A48BDE808400DF02BBD00BF91
:100CE00000000024850A000890020024810A000800
:100CF00038040024890A0008B00400248D0A000882
:100D00004C020024DFF834D0002103E00C4B5B5888
:100D1000435004310B480C4B42189A42F6D30B4A0D
:100D200002E0002342F8043B094B9A42F9D3FFF753
:100D300067FE0EF0D7F8FFF74BFF70470000022068
:100D4000AC09010800000024300200243002002415
:100D5000E4520024FEE70000002008B501F094F8FA
:100D60000020BDE8084001F0B5B800BF90ED670A6B
:100D7000704700BF543000F0D7BB00BF2DE9F041F1
:100D800014218CB0044609F0B5FE03461321204619
:100D900004F1F407ADF80C3009F0ACFE0346122163
:100DA00020464FF00108ADF8103009F0A3FE0346CD
:100DB000049A38460399ADF8143004F5A476059BDF
:100DC00006ADCDF8008002F025F82046112109F08B
:100DD00091FE034618212046ADF80C3009F08AFE3A
:100DE00003461721204609ACADF8103009F082FE09
:100DF0000346049A30460399ADF81430059BCDF8AC
:100E0000008002F007F82846072102F03FF995E834
:100E1000070084E807003846214602F023F895E8E9
:100E2000070084E807002146304602F01BF83846E8
:100E300002F02EF8304602F02BF80CB0BDE8F0813D
:100E400070B5DFED250A8EB015210446CDED010AFF
:100E500009F050FE034605A804F1540504F18C0680
:100E6000ADF80C30039900F0A7F820460F2109F0E7
:100E700041FE03460DF12500ADF81030049900F055
:100E80009BF805A928460222042300F0A7F804F1E4
:100E9000A80328460021C4E9316300F05BFB00236E
:100EA00094ED680A0146DDED010A1A46304601F06C
:100EB00001FF28460121D4F8C85000F04BFB002365
:100EC0000146DDED010A284694ED680A1A4601F054
:100ED000F1FE0EB070BD00BF6F12033B3022344BE9
:100EE000344970B5044686B0C0F8A42100F1CC06A0
:100EF000C0F8A03100F1DC05C0F89C1109F070FDCC
:100F0000204609F0DDFD01F0B7FE20461C2109F066
:100F1000F1FD034694ED680A3046ADF810300499AF
:100F200001F0C4FF20461B2109F0E4FD034694EDC7
:100F3000680A2846ADF81430059901F0B7FF20463D
:100F40001A21C4E93B6509F0D5FD03461921204665
:100F5000ADF8043009F0CEFD03460D212046ADF872
:100F6000083009F0C7FD0346019994ED680A04F1C1
:100F70006C00ADF80C30029A039B01F0B5FE2046E0
:100F8000FFF7FCFE2046FFF75BFFD4F8A411D4ED79
:100F9000676A002007EE901AB8EE677AC6EE877A85
:100FA000C4ED687A06B0BDE8704000F07DBF00BFB8
:100FB000AB127A44008E3B4710B483B00022ADF8E8
:100FC00004100321BDF80440817004800274C270D3
:100FD00003B05DF8044B01F0D9BD00BF2DE9F04F1F
:100FE0000025DE4CDE4F964642608DB0037007F15F
:100FF0001C0284F8EEE08446A4F8FB50C4F8EF50DD
:10100000C4F8F350C4F8F750BD6101950495C7E9E1
:101010000055C7E90255C7E904554368CDE90255B3
:10102000C4E94772CDE90555CDE90755CDE9095524
:10103000002B00F06B810E460868A0464968F368F3
:10104000B2683D80A8E80F00337C88F80030337C1C
:1010500084F8EF30DCF80430012B40F2578133463E
:101060007D8053F8118F58689968DA68C4F8118048
:10107000C4F81500C4F81910C4F81D201B7C84F8AE
:10108000213096F8213084F8F030DCF80430022B5F
:1010900040F23C813346BD8053F8228F58689968EE
:1010A000DA68C4F82280C4F82600C4F82A10C4F80C
:1010B0002E201B7C84F8323096F8323084F8F130E0
:1010C000DCF80430032B40F221813346FD8053F8D5
:1010D000338F58689968DA68C4F83380C4F83700E9
:1010E000C4F83B10C4F83F201B7C84F8433096F8CA
:1010F000433084F8F230DCF80430042B40F20681EF
:10110000B14604F144083D8159F8440FD9F80C3038
:10111000D9F80410D9F80820A8E80F0099F8103081
:1011200088F8003096F8543084F8F330DCF8043056
:10113000052B40F2EB8033467D8153F8558F58687C
:101140009968DA68C4F85580C4F85900C4F85D108D
:10115000C4F861201B7C84F8653096F8653084F80B
:10116000F430DCF80430062B40F2D0803346BD81E9
:1011700053F8668F58689968DA68C4F86680C4F8CE
:101180006A00C4F86E10C4F872201B7C84F87630B4
:1011900096F8763084F8F530DCF80430072B40F20E
:1011A000B5803346FD8153F8778F58689968DA68BF
:1011B000C4F87780C4F87B00C4F87F10C4F883209B
:1011C0001B7C84F8873096F8873084F8F630DCF89A
:1011D0000430082B40F29A80B14604F188083D8221
:1011E00059F8880FD9F80C30D9F80410D9F808202C
:1011F000A8E80F0099F8103088F8003096F8983079
:1012000084F8F730DCF80430092B7FD9334608F135
:1012100001054FF0000953F8998FA7F8129058680C
:101220009968DA68C4F899806860A960EA601B7CF4
:101230002B7496F8A93084F8F830DCF804300A2BC7
:1012400064D93346A7F8149053F8AA8F5868996860
:10125000DA68C4F8AA80C5F81500C5F81910C5F8F1
:101260001D201B7C85F8213096F8BA3084F8F930BF
:10127000DCF804300B2B49D93346A7F8169053F805
:10128000BB8F58689968DA68C4F8BB80C5F8260037
:10129000C5F82A10C5F82E201B7C85F8323096F848
:1012A000CB3084F8FA30DCF804300C2B2ED9B2465F
:1012B00005F13308A7F818905AF8CC0FDAF80C307B
:1012C000DAF80410DAF80820A8E80F009AF81030CD
:1012D00088F8003096F8DC3084F8FB30DCF8043015
:1012E0000D2B13D93346A7F81A9053F8DD7F5868B1
:1012F0009968DA68C4F8DD70A864E9642A651B7C23
:1013000085F8543096F8ED3084F8FC3015484FF4E9
:1013100080719CF800305FFA8EF24FF4802600272F
:10132000C4F824010120A4F838110821C4F83C2194
:101330000022C4E94A67C4E94C01002600270320C3
:10134000002184F84021C4F85821C4E95267C4E957
:101350005401002B00F08B8006E000BFD80400246D
:101360000000003000200240012200200121013B4A
:1013700084F85C21C4E95A01082B0AD8DFE803F09D
:1013800005868B90959A9FA5AC0003224023C4E963
:1013900058235548002503F0F7FD01A9524801954F
:1013A00003F04EFF40F2FF73022204200021CDE93A
:1013B000062394F8EE30CDE90801002B48D006272B
:1013C000DFF85491494EDFF85481DFF854B1DFF86B
:1013D00054A119E0022A30D0012A40D15B78012BB8
:1013E0003FD0002B0CBF33460023013504A93E48F3
:1013F000EDB2CDE9043703F0EBF994F8EE30AB42EF
:1014000026D93B4B53F8257005EB0513E25C2344CA
:10141000002ADFD15B78062B1DD0072B23D0022BAF
:101420002CD0032B2CD06BB3012B2DD0042B21D02F
:10143000052B304B18BF0023D7E75B78042B0CD06B
:10144000052B12D0C3B1012B2B4B18BF0023CCE7C7
:101450000DB0BDE8F08F294BC7E74346C5E7002331
:10146000C3E74B46C1E75346BFE75B46BDE784F899
:101470005C318EE7224BB8E7224BB6E7224BB4E74C
:10148000224BB2E7224BB0E7224BAEE707226023A4
:10149000C4E958237DE70F228023C4E9582378E765
:1014A0001F22A023C4E9582373E73F22C023C4E9C5
:1014B00058236EE77F22E023C4E9582369E7FF221F
:1014C0004FF48073C4E9582363E740F2FF124FF4EE
:1014D0009073C4E958235CE740F2FF324FF4A073E5
:1014E000C4E9582355E700BFFC0500240002B025DD
:1014F000180301080000B84F0008302E0800900CB7
:101500000000844B0004002A0040C03A0080F03EF6
:1015100000002143000052472000F0141000C010CA
:10152000000180218000501D38B5094C40F2FF7247
:101530004FF0011104F59275284603F02FFE28465E
:1015400094F8EE20D4F81C11BDE8384003F094BBA9
:10155000D8040024034B0D29D3F81C0198BF00EBDD
:1015600041007047D80400241D4B02689A4200D005
:1015700070471C4B4FF48061D3F8D82070B542F00F
:101580002002194D04460920C5F8981182B0C5F80B
:101590008C014FF40061C3F8D82005F5C476D3F868
:1015A000D8204FF40053114802F02002C5F89C11D6
:1015B000C5F8A0314FF4807101920023019AC5F85B
:1015C00088013046C5F8A411C5E96433C5E96A331A
:1015D00007F042F8E664C5F8C04102B070BD00BF34
:1015E0000020024000440258D80400244000024079
:1015F000014807F0C1BB00BF6006002402682DE966
:10160000F84F264B9A4201D0BDE8F88FDFF8908062
:1016100098F8EE30002BF7D0002408F1EE0A08F11C
:10162000040608F1FE05A14619E003F00101C3F329
:10163000400BC3F38007304601F0D4FA5946301D01
:1016400001F0D0FA394606F1080001F0CBFA98F81B
:10165000EE30013411360235A2B29342D4D91AF8D1
:10166000012FC4EBC40C002AF3D0D8F81C110027BA
:10167000D8F820212B78BB4631F8140002EB4C122D
:101680001B013946D0522B8801339BB22B809AF82C
:1016900000209A42C9D2A5F80090CCE70020024071
:1016A000D80400242DE9F04FD64F8DB0DFF86CB38D
:1016B000BB6807F11006D7F810580BF582640BF1E0
:1016C000100207F5826903EB800E069483000A92EC
:1016D00004EB8508DBF8084006EB850C039302EB6E
:1016E000850197F81C3809EB850ACDF81C8004EBBE
:1016F00080000B91CDE9086CCDE9049A002B00F035
:10170000DA80012B40F0C480002D00F066810B468A
:1017100000240EF1040900F10408DFEDBB5A714604
:101720000295019351F8343059F8345083F4000E87
:1017300050F8343085F4000583F4000AAEF5000358
:1017400006EE103A58F83430AAF5000A013483F452
:10175000000EA5F5000306EE90AAB8EEC66A07EEE5
:10176000103AAEF50003F8EEE66A07EE903AB8EEEE
:10177000C77A019B26EE256AF8EEE77A66EEA56A3F
:1017800027EE257AA6EC016A67EEA57AE2EC016AFB
:10179000ACEC017AE3EC017A0193029BA342C1D144
:1017A0001D467B682A4604A908A89847039ADBF8D7
:1017B0000C00F96897F81C3810441144002B00F015
:1017C000B180012B5DD1DDF810A00023DDF81C9065
:1017D0000E1DDDF81880041DDDF814E09FED8B7AF6
:1017E000DFF83CC2DFED8A6A8A4F3BE0F4EEE67A2E
:1017F000F1EE10FAC0F22B813A46FEEC017A41F884
:101800003320F4EEC77AF1EE10FA3FD9F4EEE67A1F
:10181000F1EE10FAC0F222813A46F8EC017A46F86D
:101820003320F4EEC77AF1EE10FA2DD9F4EEE67A11
:10183000F1EE10FAC0F219813A46F9EC017A40F85B
:101840003320F4EEC77AF1EE10FA14D9F4EEE67A0A
:10185000F1EE10FAC0F2C7803A4644F83320013363
:101860009D420ED9FAEC017AF4EEC77AF1EE10FA45
:10187000BCD86246C1E7624644F8332001339D423A
:10188000F0D80DB0BDE8F08F6246D6E76246C4E7F7
:101890007B682A4604A908A89847039ADBF80C003D
:1018A000F96897F81C3810441144CBB3012BE8D1E8
:1018B000002D88D1E5E7002D00F08F800EF104099E
:1018C00000F10408DFED545A3EF9334006EE104AA9
:1018D00030F9334006EE904A39F93340B8EEC66A23
:1018E00007EE104A38F93340F8EEE66A013307EEA6
:1018F000904AB8EEC77A26EE256A9D42F8EEE77A5E
:1019000066EEA56A27EE257AA6EC016A67EEA57A4F
:10191000E2EC016AACEC017AE1EC017AD4D140E767
:10192000002DAED0DDF810A00023DDF81C900E1DB8
:10193000DDF81880041DDDF814E09FED347ADFF83F
:10194000E0C0DFED336A334F38E0F4EEE67AF1EED3
:1019500010FA4FDB3A46FEEC017A41F83320F4EE00
:10196000C77AF1EE10FA36D9F4EEE67AF1EE10FA13
:1019700058DB3A46F8EC017A46F83320F4EEC77AA1
:10198000F1EE10FA25D9F4EEE67AF1EE10FA50DB1A
:101990003A46F9EC017A40F83320F4EEC77AF1EEDA
:1019A00010FA14D9F4EEE67AF1EE10FA48DB3A4672
:1019B00044F8332001339D427FF663AFFAEC017A9D
:1019C000F4EEC77AF1EE10FABFD86246C3E762467A
:1019D000EEE76246DDE76246CCE77B682A4604A96B
:1019E00008A898474DE7B0EE676ABEEEE46A16EEC7
:1019F000102A32E7B0EE676ABEEEE46A16EE102AED
:101A0000A9E700BFD80600240000003404FF7FBF10
:101A100004FF7F3F82FF7F0000000038000F00249A
:101A20007E0080FFB0EE676ABEEEE46A16EE102A12
:101A3000A0E7B0EE676ABEEEE46A16EE102AA8E7E9
:101A4000B0EE676ABEEEE46A16EE102AB0E7B0EEBA
:101A5000676ABEEEE46A16EE102ACEE6B0EE676A5A
:101A6000BEEEE46A16EE102AD7E6B0EE676ABEEE66
:101A7000E46A16EE102AE0E60B469200014618468C
:101A80000DF05CBAF8B5044601220F4658484FF4F1
:101A9000804106F0F5FC2368564A934263D0203219
:101AA000934260D0544DD5F8184805F1100095F8D0
:101AB0001C28BE00AB686408012A03EB870100EB19
:101AC000840452D0A0420FD002469FED4C7A51F8C8
:101AD000043B1BB207EE903AF8EEE77A67EE877A9E
:101AE000E2EC017A9442F2D105F5826495F81E7811
:101AF000D5F8102821462B6802FB07F29847D5F845
:101B0000182895F81C18EB6852080129334404EB97
:101B1000820240D094421ED09FED397A3948DFEDE1
:101B20003A6A9FED3A6A08E0F4EEE67AF1EE10FACE
:101B300055DBA24243F8041B0DD0F4EC017A47F6C2
:101B4000FE71F4EEC77AF1EE10FAEDD80146A2422A
:101B500043F8041BF1D100224FF480412448BDE832
:101B6000F84006F08DBC2A4D9DE7A042BCD002464D
:101B70009FED287A51F8043B83F40003A3F500039A
:101B800007EE903AF8EEE77A67EE877AE2EC017AB0
:101B90009442EFD1A8E79442DDD0043B9FED187A40
:101BA0001D4DDFED196A1D4808E0F4EEE67AF1EE0E
:101BB00010FA0DDBA24243F8041FCCD0F4EC017AFA
:101BC0000146F4EEC77AF1EE10FAEED82946F1E7B5
:101BD000B0EE676ABEEEE46A16EE101AEAE767EE48
:101BE000867AFDEEE77A17EE901A09B2A1E700BFF8
:101BF0000018025804580140000F0024000000386B
:101C000004FF7FBF0280FFFF04FF7F3F00FEFF460F
:101C1000D8060024000000347E0080FF82FF7F0091
:101C2000014807F0A9B800BF7C250024014807F04F
:101C3000A3B800BFF4250024014807F09DB800BFF9
:101C40006C260024014807F097B800BFD423002475
:101C50002DE9F0470646814C814D88B0814AD0E994
:101C60000030C4F82468802BC5F82468077828BFA2
:101C7000802390F80B9090F80C80C4F81038C5F8C9
:101C80001038C378226084F81C3803792A6085F8FC
:101C90001C3800F029FDB06808B100F0DDFAF068EA
:101CA00008B100F0D9FAD5F810184FF0020E6E4ABC
:101CB00017F0FD0F0191D4F8101802F500606B4B7E
:101CC00001FA0EFA0199AB6003F5006301FA0EF117
:101CD000E260A060C4F818A8EB60C5F8181884F892
:101CE0001EE885F81EE82ED1F14584F81D9800F015
:101CF0008A80B9F1030F76D0B9F1010F7DD09146FA
:101D000000F2FF7340F6FE72A3EB0903934240F228
:101D10008C804FF4006200210DF01EF948464FF40C
:101D2000006200210DF018F94FF4007200215048B4
:101D30000DF012F94FF4007200214E480DF00CF92D
:101D40000023C4F814387B1E012B10D900274A4801
:101D50004FF4804201230024077002A947480594EC
:101D6000CDE9022306F09AF908B0BDE8F087B8F192
:101D7000010F85F81D8854D0B8F1020F0AD171689F
:101D80001023F0684BF68032897AB1FA81F1490963
:101D900008F006FFA86840F6FE72ED6800F2FF73D7
:101DA0005B1B93424ED94FF4006200210DF0D4F832
:101DB00028464FF4006200210DF0CEF84FF4007277
:101DC00000212F48A7F102070DF0C6F84FF400726A
:101DD00000212C480DF0C0F8B7FA87F700237F09DF
:101DE000C4F81438B3E740F60133ADF80830029870
:101DF00008F0DCFFD4E9020982E7B06808F090FE41
:101E0000D4E902097CE7716810234BF68032B06890
:101E1000497AB1FA81F1490908F0C2FED4E9020910
:101E20006EE7F06808F07CFEB4E7031FA9F1040236
:101E300000F2FC70002143F8041F834242F8041FA3
:101E4000F9D171E7031F2A1F00F2FC70002143F84B
:101E5000041F984242F8041FF9D1AFE7D8060024C6
:101E6000000F0024791A0008FC000030FC1000303C
:101E7000E8060024E80A0024281700240018025865
:101E8000100F002410130024044B00221A7010B904
:101E9000034B19607047034B1960704728170024E3
:101EA000D8060024000F002468B9084B802993F855
:101EB0001E2828BF8021C3F8101801FB02F1490039
:101EC000C3F818187047024BF0E700BFD80600248B
:101ED000000F002410B5C0B9234CD4F82438B4F84E
:101EE00018285B685B7973B3E168204803F08CFFC6
:101EF000D4F82438B4F818285B68DB7973BBA16880
:101F00001B48BDE8104004F011B81A4CD4F824382E
:101F1000B4F818285B689B7983B1E168164803F030
:101F200073FFD4F82438B4F818285B681B7A7BB99F
:101F3000A1681248BDE8104003F0F8BFA1680E4840
:101F400003F0F4FFEDE7A168084803F0EFFFCFE7E7
:101F5000E1680A48BDE8104003F056BFE168044854
:101F6000BDE8104003F050BFD8060024E42600244A
:101F7000E4240024000F00244C2400243C230024EB
:101F8000084B1A78012A07D10368074A934206D002
:101F90002032934203D070470021FFF773BD002029
:101FA000FFF780BB28170024045801400B4B1A7818
:101FB000012A07D103680A4A934209D0203293428A
:101FC00006D07047074BD3F818184908FFF75ABDD9
:101FD000044BD3F818084008FFF764BB2817002407
:101FE00004580140D80600242DE9F04FCFB04C2210
:101FF00000210AA80CF0B0FF2022002102A80CF05A
:10200000ABFFBC2200211EA80CF0A6FF022007F0A7
:1020100013FA514A0021514B01911846D16A21F01F
:102020000101D162D26A02F0010201929A6942F47E
:1020300040429A619B6903F440430193019B836989
:102040009B04FCD5464A022421204FF48031936A38
:102050000126042523F0030323439362C8230822A7
:102060001096169300231794199415951C93CDE997
:102070000A0105210AA8CDE913441891CDE91A23D4
:1020800004F004FA00B1FEE73F26032700220823EC
:1020900002A82146CDE90267CDE90423402640236A
:1020A0004FF480624027CDE90823CDE9066704F0AC
:1020B00029FD034600B1FEE780220A2602270025FB
:1020C00034924FF4807233948024439200224FF074
:1020D00054084FF008091EA8CDE93B334FF4805354
:1020E00035934FF4803346930623CDE92267CDE93B
:1020F000244540F22716402704242025CDE9262335
:102100004FF480620023CDE92867CDE92A45CDE967
:102110002C230FF23C0BDBE900AB00260227002446
:10212000002500224FF44013CDE91EABCDE92089F4
:10213000CDE92E67CDE93045CDE93E2304F042FFDD
:1021400000B1FEE707F09EF94FB0BDE8F08F00BF89
:1021500009130F030400000000040058004802584F
:102160000044025808B507F0EBF9BDE8084003F059
:102170009DB900BFFFBE704770B584B0012507F060
:10218000B1F90024FFF730FF03F044F94FF040515C
:102190002E4A4FF4807368460191ADF80050CDE9A6
:1021A000022303F059F940F2011119224FF0404384
:1021B0006846ADF80E108DF8082001938DF8015097
:1021C0008DF80D408DF80A4003F046F9042003F025
:1021D00031F908F005FEBFF34F8FBFF36F8F1C4B33
:1021E000C3F85042BFF34F8FBFF36F8F5A6942F469
:1021F00000325A61BFF34F8FBFF36F8FC3F8844033
:10220000BFF34F8FD3F8801043F6E074C1F34E3222
:10221000C1F3C901520102EA0405084645EA807685
:102220000138C3F86062461CF8D1203A12F1200F41
:10223000F1D1BFF34F8F5A6942F480325A61BFF334
:102240004F8FBFF36F8F04B070BD00BF0D0001034F
:1022500000ED00E007F086B938B5054600F002FF52
:1022600004462B78022B3FD0032B35D0012B2BD0EB
:102270002868214B214A1860A988998022606B79CF
:10228000012B18D0022B1CD0C3B1002501232046FE
:10229000E360A5602562C4E90455C4E9065503F06E
:1022A000BBF92946204603F0E5FA29462046BDE859
:1022B000384003F00BBB124B6360E6E7114B6360E1
:1022C000E3E7114B6360E0E72868104B104A1860A1
:1022D000A98899802260D2E728680E4B0E4A1860C0
:1022E000A98899802260CAE728680C4B0C4A1860BC
:1022F000A98899802260C2E72C170024005400406E
:102300003211D0208A62E0301A098010341700247C
:102310000058004044170024001C00583C170024BB
:10232000005C00409C4A0368934230B58FB055D0A2
:102330009A4A934200F09C80994A934200F0EE80C2
:10234000984A934201D00FB030BD974B974CD3F8C9
:10235000E020601C42F00202C3F8E020D3F8E03035
:1023600003F002030893089B00F06CFE0546601C16
:1023700000F070FE227812210023012ACDE9090124
:10238000CDE90B3301D804230D9309A92846019107
:1023900005F084FE864800F055FE0546844800F0AE
:1023A00059FE227800231224012A0199CDE909045B
:1023B000CDE90B3301D804230D93284605F06EFEBA
:1023C000794BD3F8F42042F08002C3F8F420D3F81C
:1023D000F43003F080030993099BB4E7724B754C0A
:1023E000D3F8E020601C42F00202C3F8E020D3F8EA
:1023F000E03003F002030293029B00F023FE054647
:10240000601C00F027FE227812210023012ACDE96A
:102410000901CDE90B3301D804230D9309A92846FE
:10242000019105F03BFE644800F00CFE0546624851
:1024300000F010FE227800231224012A0199CDE930
:102440000904CDE90B3301D804230D93284605F088
:1024500025FE554BD3F8E82042F40012C3F8E820DB
:10246000D3F8E83003F400130393039B0FB030BD9F
:102470004D4B524CD3F8E020601C42F08002C3F870
:10248000E020D3F8E02002F080020492049AD3F80E
:10249000E02042F00202C3F8E020D3F8E03003F07D
:1024A00002030593059B00F0CDFD0546601C00F07E
:1024B000D1FD227812210023012ACDE90901CDE9BD
:1024C0000B3301D804230D9309A92846019105F087
:1024D000E5FD3B4800F0B6FD0546394800F0BAFD81
:1024E000227800231224012A0199CDE90904CDE9BB
:1024F0000B3301D804230D93284605F0CFFD2A4B5A
:10250000D3F8E82042F48002C3F8E820D3F8E8309A
:1025100003F480030693069B0FB030BD294C601C6A
:1025200000F090FD0546601C00F094FD2278122119
:102530000023012ACDE90901CDE90B3301D8042399
:102540000D9309A92846019105F0A8FD1E4800F049
:1025500079FD05461C4800F07DFD227800231224F9
:10256000012A0199CDE90904CDE90B3301D80423EF
:102570000D93284605F092FD0B4BD3F8E82042F46A
:102580000002C3F8E820D3F8E83003F4000307930F
:10259000079B0FB030BD00BF005400400058004002
:1025A000005C0040001C00580044025844170024FE
:1025B000471700242C1700242F1700243417002459
:1025C000371700243C1700243F170024184BF0B5A0
:1025D000197983B0012929D0002211460024154819
:1025E00002230125144F4BF68036019200910760BB
:1025F0000662C461114EC460C0E90135C0E90544FA
:10260000C0E90B4403F03EFB0D4802234461C46162
:10261000C46044630660DDE90012C0E90154C0E90A
:102620000B4403B0BDE8F04003F02CBB0222D5E719
:10263000541700244C240024045C0140245C014015
:102640003C23002470B5254D82B0E978012936D0AD
:1026500000226B7A1146002B35D0012B3AD16B79D1
:102660001F48002B0CBF03230223436000244BF6BA
:102670008036022306628460C461C460C0E90544F8
:10268000C0E90B441648CDE9001203F0FBFAEB79E0
:1026900014480125A3424FF0020344610CBF0326F6
:1026A0000226C4614660C46044638560DDE90012AF
:1026B000C0E90B4402B0BDE8704003F0E3BA6B7AA6
:1026C0000222002BC9D16B790548B3FA83F35B0969
:1026D0004360CBE7024801234360C7E75417002457
:1026E000E4260024E4240024F8B5194F044600F140
:1026F000200C3E462068103454F80C1C354654F823
:10270000082C103654F8043C64450FC5F2D12378E8
:10271000104A3370104C11493B78114D1460012B55
:10272000104804F58064104A0D601049046011607F
:1027300005D0022B01D033B1F8BDFFF783FFBDE810
:10274000F840FFF743BFBDE8F840FFF77BBF00BF8D
:1027500054170024E426002404580140E4240024F3
:10276000245801404C2400243C230024245C0140D4
:10277000B14BD3F8E02042F010022DE9F04FC3F83E
:10278000E02093B0D3F8E0200446AC4D02F01002F4
:102790000092009AD3F8E02042F00202C3F8E02051
:1027A000D3F8E02002F002020192019AD3F8E0206F
:1027B00042F04002C3F8E020D3F8E02002F04002EB
:1027C0000292029AD3F8E02042F00802C3F8E02017
:1027D000D3F8E02002F008020392039AD3F8E02035
:1027E00042F00402C3F8E020D3F8E02002F0040233
:1027F0000492049AD3F8E02042F00102C3F8E020EA
:10280000D3F8E02002F001020592059AD3F8E02007
:1028100042F48072C3F8E020D3F8E010026801F4BB
:102820008071AA4206910699D3F8E01041F0800128
:10283000C3F8E010D3F8E01001F080010791079988
:10284000D3F8E01041F02001C3F8E010D3F8E01015
:1028500001F02001089108990CD0794B9A4200F0C0
:102860000781784B9A423AD0774B9A4275D013B091
:10287000BDE8F08F754A1168002900F06E810025CF
:10288000DFF8E89101310DF1340809EB450A2F46D4
:102890005FFA85FB1160504615B96D4B597AA9B99D
:1028A00000F0D0FB0646504600F0D4FB0223014660
:1028B000062230461192CDE90D134146CDE90F773E
:1028C00005F0ECFBBBF1040F00F00E81013509EBC4
:1028D000450A5FFA85FB5046002DDED0E0E75D4BF0
:1028E0001A6862B95449D1F8F00040F40000C1F808
:1028F000F000D1F8F01001F400010B910B99616820
:102900000132554D4FF4804021F002011A60534AC4
:102910004FF4805301294FF059072A604FF480711A
:102920000CBF002240226B614FF480660023AA6036
:102930004FF40032A8612846EB606B626F602E6135
:10294000C5E9071205F088FE22683F4BC4F88450A1
:102950009A42AC63C4F8805089D13E4B1A68002A71
:1029600000F0ED8000253E4E01320DF13408A946FD
:102970004FF0020A30465FFA85FB1A60CDB9344B3E
:102980009B7A7BB900F05EFB0746304600F062FBA5
:102990000A230D901095CDE90EA5384641461193B6
:1029A00005F07CFB013502365FFA85FB3046002DD1
:1029B000E5D000F047FB0746304600F04BFBBBF18B
:1029C000020F02464FF00A0341463846CDE90D2A70
:1029D000CDE90F9900F0B180119305F05FFBBBF1D9
:1029E000040FDFD163685A221E4D4FF4806623F036
:1029F00002031D496A604FF48052012B4FF480405E
:102A000029604FF480710CBF00234023A861284641
:102A1000AB600023C5E904624FF40032EB606B62E7
:102A2000C5E9071205F018FEC4F88450AC63C4F879
:102A3000805013B0BDE8F08F0044025804580140A4
:102A400024580140045C0140245C01404C170024E0
:102A500054170024501700246C260024580002400C
:102A60006B170024D4230024700002406117002457
:102A7000404A136863B94049D1F8F00040F480003F
:102A8000C1F8F000D1F8F01001F480010A910A9920
:102A900061680133394D4FF4804021F00201136029
:102AA000374A4FF4805301294FF058072A604FF4FA
:102AB00080710CBF002240226B614FF480660023BE
:102AC000AA604FF40032A86128466F602E61EB6067
:102AD0006B62C5E9071205F0BFFD2268C4F8845097
:102AE000AC63C4F88050BCE663685722254D4FF4B0
:102AF000806623F0020324496A604FF48052012B60
:102B00004FF4804029604FF480710CBF00234023B4
:102B1000A8612846AB600023C5E904624FF4003287
:102B2000EB606B62C5E9071205F096FD2268C4F8F8
:102B30008450AC63C4F880508FE608232DE70E491B
:102B4000D1F8F00040F40000C1F8F000D1F8F01026
:102B500001F400010C910C9904E7D3F8F00040F463
:102B60008000C3F8F000D3F8F03003F48003099339
:102B7000099B84E64C17002400440258F4250024E5
:102B8000280002407C2500241000024010B5837804
:102B900086B00446022B22D0032B1ED0012B1CD062
:102BA00000230293E378012B15D0022B13D00023CE
:102BB000039300232046049300F044FA0346204682
:102BC0001C4600F047FA01A903462046019305F090
:102BD00065FA06B010BD0393EBE70293E2E7112319
:102BE0000293DFE770B506460D4600F02BFA044667
:102BF000304600F02FFA2A1E0146204618BF012257
:102C0000BDE8704005F03CBCF0B5194BC827194E23
:102C100002224FF0804403F10C050021002089B00E
:102C20009A60DC60802200245A620194C3E9006744
:102C30004FF0FF360027C3E90401C3E906672846C1
:102C4000CDE90444CDE90644CDE9024403F07CFA21
:102C50004FF4805304A92846049303F029FB01A9EB
:102C600028460194039403F0E1FB09B0F0BD00BFD6
:102C700078170024400D0300014803F0FDBA00BF9F
:102C8000841700240368B3F1804F00D07047084BCD
:102C900082B0D3F8E82042F00102C3F8E820D3F86C
:102CA000E83003F001030193019B02B0704700BFBD
:102CB00000440258B6EE007A016060EE200A027607
:102CC000F7EE007A437680ED020A60EE870AC0EDE7
:102CD000047A87EEA07A10B40024C46044615DF8E1
:102CE000044B80ED017A704730B5044685B04FF44F
:102CF00080751030ADF80820ADF80C100180A2826C
:102D00006582E5828DED000AADF80430FFF73EFFE5
:102D100004F11400FFF73AFF9DED000A20460199E7
:102D200000F0C4F800224FF6FF73E261238305B080
:102D300030BD00BF10B5044601700230627008F06B
:102D400089FC0023072263672271E370236710BDAB
:102D50000378DB0700D470470230062108F0B4BCCA
:102D60000378DA0734D52DE9F04186B00446851C96
:102D700000274FF002086E46284608F0D1FCD0B17B
:102D8000284608F0B7FCE378012B1BD0022B15D0A6
:102D9000002BF1D10306EFD500F00F03C0F30210B2
:102DA0000728A3602071E7D001232846E37008F0CC
:102DB000B7FC0028E4D106B0BDE8F081020608D5D2
:102DC000E770D9E70106FBD4207384F80380D3E7CA
:102DD0007047231D607393E8070086E80700236FA0
:102DE000626F013B9B1A5B07F9D0636F0DF10C0E0C
:102DF00003EB430C013304EB8C0C03F0070396E860
:102E000007000CF1100C8EE807008CE807006367E0
:102E1000E770B1E730B585B004469FED110A9DF823
:102E20002050ADF80C100399ADF808202A468DED1E
:102E3000000AADF8043008F02DFD9DED000A2A4689
:102E400004F11C00029908F025FD9DED000A2A46B8
:102E500004F13800019905B0BDE8304008F01ABD12
:102E600000007A4438B50C46054691ED000A08F09A
:102E700035FD94ED010A05F11C0008F02FFD05F168
:102E8000380094ED020ABDE8384008F027BD00BFC5
:102E900010B5044608F034FD04F11C0008F030FDC4
:102EA00004F13800BDE8104008F02ABDB7EE007A02
:102EB00001220346C7EE007A70B4002683B0C1F346
:102EC00007250024ADF80410C660417010449D70C1
:102ED000DC701A709A809A71C3ED027A03B070BCEC
:102EE000FFF754BE704700BF012910B506D0022974
:102EF00015D051B1BDE8104006F0C4BA0A463448B6
:102F0000344906F047FBE8B1FEE7334B0A46334C41
:102F1000334934481C6006F03DFB68B1FEE70122EE
:102F20002C492B4806F036FB00B1FEE72E49284815
:102F300006F052FBC0B1FEE72B492A4806F04CFBD5
:102F400060B1FEE72849224806F046FB00B1FEE7E3
:102F500026491F4807F0C8F808B3FEE7244921486E
:102F600007F0C2F8A8B1FEE72049194807F0BCF8FD
:102F700000B1FEE7164806F045FB48B9164B02467D
:102F8000164C174917481C6006F004FB68B1FEE7B1
:102F9000FEE7144806F036FB0028ABD0FEE70C48ED
:102FA00006F030FB0028A5D0FEE70F490D4806F0DB
:102FB00013FB00B1FEE70E490A4807F095F800B18F
:102FC000FEE7084806F01EFB002893D0FEE700BF8E
:102FD000601A002440010024FC1C0024E52E000897
:102FE00024010024C417002414000024B401002488
:102FF000A4010024084691B207F0DCBC014800F0AF
:103000000DB900BFAC280024014800F007B900BF8B
:10301000AC280024014800F001B900BFAC2800240E
:10302000014800F0FBB800BFB42C0024014800F0B8
:10303000F5B800BFB42C0024014800F0EFB800BF81
:10304000B42C0024024B027853F82200704700BFD2
:1030500078030108024B427833F81200704700BF32
:103060005803010810B485B00478074B0DF1100C1B
:103070000FCB0CEB84040CE90F0054F8100C05B0D6
:103080005DF8044B704700BFD4020108074B01EB09
:10309000410103EB810110B44A680C688B6804603D
:1030A00042605DF8044B8360704700BFA8030108CD
:1030B000F0B58BB0002800F0888090F8BD3305464D
:1030C000046803F0FF02002B79D0204603232E462C
:1030D0002F1D85F8BD33E36B6C4613F4807308BF76
:1030E0002B6100F081FE56F810EBB446BCE80F00EF
:1030F0000FC4BCE80F000FC49CE8030084E8030081
:10310000704697E80E0000F081FD044630B10124BE
:103110000223204685F8BD330BB0F0BD0146286878
:1031200000F06AFE686858B322464FF0010E21464F
:10313000C2EBC20302F1010C05EB830383F83C20D0
:10314000A3F842205FFA8CF283F83DE0824283F8D4
:103150003F101965C3E91111EAD30022C4EBC4037F
:10316000611C05EB830383F8FC41CCB283F8FD219D
:10317000844283F8FF21C3F81022C3E98122EDD3F2
:103180006C460FCE0FC40FCE0FC496E8030084E840
:10319000030097E80E00286800F046FE0446002869
:1031A000B5D101226B6A85F83800934285F8BD23BA
:1031B0000FD0286801F034FA20460BB0F0BD80F83B
:1031C000BC2306F0DFFF286880E7012420460BB00F
:1031D000F0BD284600F002FDEBE700BF10B590F807
:1031E000BC3304460068012B16D00122A36A934227
:1031F00084F8BC2308D001F005FA206800F0ECFD4B
:10320000002084F8BC0310BDA3699342F3D0836B04
:1032100043F480338363EEE7022010BD2DE9F04FC5
:10322000066887B00446304601F038FA10B107B09E
:10323000BDE8F08F8246206801F000FA0028F6D041
:10324000206801F0FBF910F0020F206803D04369F9
:1032500003F00203436101F0F1F910F4002B206840
:1032600040F0608101F0EAF9420300F1EE80D4F809
:103270000080404601F0E2F9002874DB206801F08C
:10328000DDF9000564D4206801F0D8F9020114D5F5
:103290002268536903F00063536194F8F433002B00
:1032A00040F0A8810121204684F8F413536DC3F344
:1032B0008303C4F8F83300F0A7FC206801F0BEF9DE
:1032C000C3047BD4206801F0B9F910F4005F2068D2
:1032D0005DD101F0B3F910F0100F206812D08369AE
:1032E00023F010038361356AC5F3434305F00F07EC
:1032F000022B00F04B82062B00F09281836943F091
:103300001003836101F09AF9070700F16A812068D0
:1033100001F094F9C60200F15981206801F08EF99C
:10332000850200F14881206801F088F9400000F131
:103330003981206801F082F941077FF578AF236871
:103340005D686A0700F143825A682A435A606EE753
:10335000D6F80838D90700F136822068436903F4AB
:103360000063436190E7D6F8043823F00103C6F800
:10337000043894F8F433012B00F04B81204606F01A
:10338000F9FF2068436903F00043436177E701F0E8
:1033900089F9206800F050FE2568E06003F0CCFC5D
:1033A000227B0146284600F09BFC204606F0B8FF31
:1033B0002068436903F4005343618AE7D6F8043870
:1033C0001021206806F5006523F001036B6000F012
:1033D00021FE6768B7B106F510634FF67F3199603B
:1033E0000AF1010A1A682033BA4522F4001243F8A0
:1033F000202CC3F8E811D3F8E02122F40012C3F81E
:10340000E021ECD1EB69226B43F00113EB61002A60
:1034100040F0F4806A6942F22B0313436B612B691D
:1034200043F00B032B61D6F8003804F57172217C50
:1034300023F4FE632068C6F8003801F04FF92068D5
:10344000436903F4805343613DE7206801F002F9CA
:103450008146002800F0FA8006F51063D4F8008059
:1034600025464FF0000BCDF810A0CDE9023607E05D
:103470005FEA59090BF1010B05F11C0500F0EA8028
:1034800019F0010FF4D05FFA8BF74046394601F08E
:10349000F3F8C307064623D54FF0010C039B0BF04E
:1034A0000F00029AD3F834180CFA00F002EB4B121A
:1034B00021EA000120696045C3F83418C2F808C049
:1034C00003D1D5E911231344AB643946204606F0F5
:1034D00019FF2369012B03D1BBF1000F00F0B58167
:1034E000300704D5029B082203EB4B139A60F106C8
:1034F00004D5029B102203EB4B139A60720604D58D
:10350000029B402203EB4B139A60B30704D5029B46
:10351000022203EB4B139A60360600F1D580D4F8F3
:103520000080A5E701F08EF80546002800F08B80AA
:1035300006F53063206804F501784FF0000B9946DA
:10354000CDE9036A06E06D080BF1010B08F11C08D8
:1035500000F08380EA07F6D55FFA8BF1029101F063
:1035600081F810F0010F0646029979D1310700F178
:10357000F8802068F30603D509EB4B1310229A60FC
:10358000B70607D52169012900F0598109EB4B13D2
:1035900020229A60B104D6D509EB4B134FF40052A8
:1035A0009A60D0E7204606F0F1FE2068436903F0F8
:1035B00080434361BEE620465FFA8BF106F0DEFEF3
:1035C0002068436903F400134361ADE620465FFAC7
:1035D0008BF106F0D7FE2068436903F48013436142
:1035E0009CE6204606F098FE2068436903F0080335
:1035F00043618DE6204606F0A5FE5EE6D5F88430F0
:1036000043F00B03C5F884306B6C43F00B036B6421
:1036100009E70021204684F8F41300F0F5FAB0E63B
:10362000C7EBC707082204F57171304600F066FF4A
:10363000C5F30A1304EB87022068D2F814120B4476
:10364000C2F814325AE6834620680BE68346D4F863
:1036500000800EE6DDE9036A0BE6DDE9036A01E6B8
:1036600020680122D4F810C009EB4B1A00F530672E
:103670009445CAF8082007EB4B17036CD7F808E00D
:1036800000F0C580924A934240F0BD801EF4004F86
:1036900000F0B4804FF400423307BA607FF56AAFA0
:1036A000026CB8688A4B9A4200F0968020460292DB
:1036B00006F018FE874B029A9A4200F29580082283
:1036C0002068CAF8082055E7D5E91413D4F800801B
:1036D0008B423FF6CDAECA1A686C08F5106ACDF879
:1036E000148082420AEB4B1A28BF0246DAF818000F
:1036F000033280B2B0EB920F1BD222E0F9B194F802
:1037000010C0D5E91131CDF800C09E4228BF1E4639
:10371000B3B200F0DDFEDAF81820A96CF01C6B6D76
:1037200092B231443344B2EB900FA9646B65296DBA
:1037300005D38B42A1EB03063A464046DED3D4F8CC
:1037400000808B42FFF494AE059B0BF00F0101202B
:10375000D3F8342800FA01F122EA0102C3F8342830
:1037600086E622684FEA4B13216902F5306709EBC0
:10377000030A0129126C07EB4B17B86892D1554B1D
:103780009A4229D8204606F0ADFD98E747F6F07337
:103790001D423FF4B3ADC7EBC707C5F30A1230466D
:1037A00004EB87071546D7F8081200F0A7FED7F8F4
:1037B0000822D7F814322A4420681D44C7F808228A
:1037C000C7F814529AE5204606F0BCFDC5E5204630
:1037D00006F0E0FD2368B7E5020402D54FF400428D
:1037E000BA60204606F07EFD216901297FF467AFAB
:1037F00004F57172206800F071FF60E71EF0200F81
:1038000001D02023BB60204606F072FDAEE61EF01C
:10381000080F25D02F4A934205D91EF4004F02D03D
:103820004FF40043BB60204606F05CFD04F5717266
:103830000121206800F052FF0823BB6096E604F5E2
:10384000717200F04BFF2068A0E6236D002B7FF41F
:1038500047AE04F571720121206800F03FFF3FE69A
:103860001EF0200F07D02022BA6033077FF582AE0A
:10387000026CB86883E71EF0280FF6D1154A934210
:1038800006D91EF4004F03D04FF40042BA60ECE7B3
:103890003B692046D8F80070D8F80420C3F312031F
:1038A0003A44FB1AC8F80420C8F8103006F020FD8E
:1038B000BBF1000F7FF45AAED4F81032002B7FF426
:1038C00055AE04F571720121206800F007FF4DE646
:1038D0000A31544F0A30544F90F8BC23012A0DD0BE
:1038E000012210B5044680F83810006884F8BC2323
:1038F00000F076FE002084F8BC0310BD0220704763
:10390000F8B501F00F05090606464FF01C0422D455
:10391000C5EBC50004FB0564002706EB800004F539
:10392000FE7180F8FD7148780D708A60CB7000B12F
:10393000CD80022B01D100230B7196F8BC33012BF3
:1039400015D00123306886F8BC3300F081FB0020DD
:1039500086F8BC03F8BDC5EBC500012704FB056470
:1039600006EB800004F13C0180F83D70DBE70220AB
:10397000F8BD00BF11F0800F01F00F034FF01C01E4
:1039800010B5044619D101FB0341C3EBC30200206B
:1039900004EB820201F5FE7182F8FD010B7094F8D0
:1039A000BC33012B18D00123206884F8BC3300F00D
:1039B00097FB002084F8BC0310BD01FB0341C3EB5F
:1039C000C302012004EB82023C3182F83D000B70FF
:1039D00094F8BC33012BE6D1022010BD70B501F084
:1039E0000F0500261C21C5EBC50401FB050100EBFA
:1039F000840401F5FE71C4F80822C4F8103284F87A
:103A0000FC51C4F8146284F8FD6103690068012B5D
:103A100008BFC4F80C22DAB21DB900F0B1FC0020D6
:103A200070BD00F099FB002070BD00BF01F00F01D8
:103A3000C1EBC10100EB8101D1F81402704700BF56
:103A4000F8B501F00F05012600271C21C5EBC504C0
:103A500001FB050100EB84043C31A264236584F87A
:103A60003C50676584F83D6003690068B34208BF55
:103A7000E264DAB21DB900F083FC0020F8BD00F06A
:103A80006BFB0020F8BD00BF38B5436801F00F059F
:103A90009D4233D80B0604461CD4C1EBC1031C2045
:103AA000002200FB014104EB830301F5FE7183F862
:103AB000FD2101230D708B7094F8BC239A421BD01A
:103AC000206884F8BC3300F02BFDCDB1002084F8D1
:103AD000BC0338BD1C21C5EBC503012201FB050158
:103AE00000EB83033C3183F83D2001230D708B7084
:103AF00094F8BC239A42E3D1022038BD012038BD9E
:103B000004F57172217C206800F0E8FDDEE700BF5B
:103B1000426838B501F00F03934232D811F0800F9C
:103B200004464FF01C01C3EBC30219D101FB034152
:103B3000002004EB8202002501F5FE7182F8FD01F0
:103B40000B708D7094F8BC33012B18D001232068C2
:103B500084F8BC3300F018FD284684F8BC5338BD07
:103B600001FB0341012004EB820200253C3182F875
:103B70003D000B708D7094F8BC33012BE6D1022010
:103B800038BD012038BD00BF30B405686B6A29B963
:103B900043EA02430020AB6230BC7047A86A4C1E67
:103BA00003EB10400BD0002303F14001013305EB80
:103BB0008101DBB24968A34200EB1140F4D34034E9
:103BC00040EA024005EB84046060002030BC70478E
:103BD000034600201B685962704700BF034609492D
:103BE00030B41A680024012583F8F4432046946910
:103BF000C3F8FC5344F000649461536D194330BC26
:103C00005165704703000010704700BF84B070B466
:103C1000099E04AD0446012E85E80E0030D1826B6A
:103C20002D4B22F48032109982630129C26803EA85
:103C30000203C360C36823F44013C36043D0274B1F
:103C400001E0013B44D02269002AFADA2269234BC1
:103C500042F00102226101E0013B39D0206910F0FD
:103C60000100F9D1079B012B07D1A36843F008039A
:103C7000A360A36843F02003A36070BC04B0704746
:103C8000C268164B42F04002C26001E0013B21D005
:103C90002269002AFADA2269104B42F001022261FD
:103CA00001E0013B16D0206910F00100F9D10D9B15
:103CB00023B9A36B43F48033A363D3E7A36B23F44B
:103CC0008033A363CEE7C36843F48013C360B6E7D1
:103CD0000320C7E70320EAE7BFFFBDFF400D030055
:103CE000022A034610B40CD04FF41054D9680020B7
:103CF00021F47051D960DA6822435DF8044BDA6030
:103D00007047234A23480A4482422CD9224A234836
:103D10000A4482422AD9224A22480A44824228D9A5
:103D2000214A22480A44824226D3214A21480A4491
:103D3000824224D9204A21480A44824222D3204A7E
:103D400020480A448242CFD31F4A20480A44824274
:103D50001BD31F4A1F4C0A44A24234BF4FF4E05405
:103D60004FF4C054C2E74FF47054BFE74FF46054AF
:103D7000BCE74FF45054B9E74FF44054B6E74FF462
:103D80003054B3E74FF42054B0E74FF40054ADE79C
:103D9000405327FFFF340C00401E1BFF3F420F0023
:103DA00000DC0BFF7F4F1200808CF9FE20D6130041
:103DB00060B6E5FE5FE3160000D3CEFE40771B0041
:103DC000C05BB3FEC091210000CA91FE207538008F
:103DD000E05459FEE09C4100034600209A6842F0FE
:103DE00001029A60704700BF034600209A6822F0E3
:103DF00001029A60704700BF08B5C368012923F02B
:103E0000C043C3600BD041B9C36843F08043C36073
:103E1000322005F0A7FB002008BD012008BDC368C3
:103E200043F00053C360F3E784B02DE9F047139DDE
:103E3000002609AF0446C0F80461C0F80861C0F864
:103E40000C61C0F81061C0F81461C0F81861C0F8C6
:103E50001C61C0F82061C0F82461C0F82861C0F876
:103E60002C61C0F83061C0F83461C0F83861C0F826
:103E70003C6187E80E000C9F836B002D40F09E8014
:103E800023F400138363036843F040030360036873
:103E900043F08003036000220E9B04F50066C4F823
:103EA000002E012BD4F80028C4F8002800F09680DA
:103EB000D4F8003843F00303C4F800384FF48462A8
:103EC0004F4B226102E0013B00F09680206910F028
:103ED0002000F8D110224A4B226102E0013B00F0A1
:103EE0008D802269D206F9D4002232617261F261BA
:103EF000F9B104F510634FF090494FF0006A96460F
:103F00004FF67F3809E0C3F800E00132C3F810E053
:103F1000C3F8088020338A422FD0D3F800C0BCF108
:103F2000000FF0DA12B1C3F80090EEE7C3F800A07A
:103F3000EBE73369012F23F48073336142D0002211
:103F40006FF08043A26163611FB9A36943F010035E
:103F5000A361A1692B4B0F9A0B43A3611AB1A3690B
:103F600043F00803A361012D03D1A269264B13433B
:103F7000A361BDE8F04704B07047002204F5306348
:103F80004FF090494FF0006A96464FF67F3809E0AF
:103F9000C3F800E00132C3F810E0C3F80880203312
:103FA0008A42C6D0D3F800C0BCF1000FF0DA12B1DB
:103FB000C3F80090EEE7C3F800A0EBE743F400136A
:103FC000836368E7114A0021114B32636FF080422E
:103FD000376B3B433363A1616261BAE70B9B23B943
:103FE000D4F80038C4F8003868E7D4F8003843F053
:103FF0000103C4F8003861E701206BE7012073E793
:10400000400D030000383C800400004000018000A7
:10401000030001008901074A41F02001016101E02C
:10402000013A05D0036913F02003F9D1184670470F
:1040300003207047400D0300D0F8083813F0060045
:1040400004D013F0020F14BF02200F20704700BFEE
:1040500070B44B780A78012B1FD000F5006402F091
:104060000F054FF4803300EB4210E269AB4013437D
:10407000E361D0F8003B1B040CD48B68D0F8004BF4
:10408000C3F30A03C978154A234343EA81431A4319
:10409000C0F8002B002070BC704702F00F04D0F86D
:1040A0001C6800F5006500EB4210A3403343EB6150
:1040B000D0F800391C04EDD48B68D0F80059C3F354
:1040C0000A03CC7805492B4343EA844343EA8252EE
:1040D000114370BCC0F80019002070470080001028
:1040E00030B44B780978012B1AD001F00F054FF44A
:1040F0008032D0F83C4800F50063AA4000EB411044
:10410000134924EA0204DC63DC6924EA0202DA616E
:10411000D0F8003B194030BCC0F8001B00207047AD
:1041200000F5006201F00F0400EB41100949A340C3
:10413000D46B24EA0304D463D46924EA0303D3616F
:10414000D0F80039194030BCC0F800190020704781
:104150000078F3EF007833EC2DE9F0474D780C78D8
:10416000012D54D000EB4414824F4D69D4F810CB8C
:1041700004F53063804E0CEA07071F611F693E405B
:104180001E6195B38E68012A7C4F3544D3F810C068
:1041900005F1FF35B5FBF6F51FFA85FE07EAC545C3
:1041A00006FB0EF645EA0C05C6F312061D611D69F5
:1041B00046EA05061E6125D0CB78012B0CD1D0F83C
:1041C000083813F4807FD4F8003B0CBF43F0005351
:1041D00043F08053C4F8003BD4F8003B43F0044361
:1041E000C4F8003B0020BDE8F0878D68012A1E69F5
:1041F000C5F3120545EA06051D611D6945F4002554
:104200001D61D9D1CA68002AD6D05A61D4E74E6957
:10421000002E40D000EB441ED1F80880DFF854A1F6
:10422000C6F31207DEF8109906EB080C0EF51063C2
:1042300009EA0A0A0CF1FF3CDFF83C91C3F810A030
:10424000D3F810A0BCFBF8F80AEA0909DFF82CC182
:10425000C3F810900CEAC84CD3F810804CEA080C54
:10426000C3F810C0D3F810C047EA0C071F61CF781D
:10427000012F4ED0012A68D0DEF8003904F00F0477
:1042800043F00443A540CEF80039D0F83448254324
:10429000C0F83458A6E700EB441C374F354D012ACF
:1042A000DCF810E90CF510630EEA07071F611F69BF
:1042B00047F400271F611F6905EA07051D61CF78D4
:1042C00038D0DCF80059012F45F00445CCF80059EE
:1042D00088D1D0F8085815F4807F1D680CBF45F0D0
:1042E000005545F080551D60002A7FF47BAFB6B2C3
:1042F0000336B6083FF476AFCB6800EB043003EB2F
:10430000860100F5805053F8042B8B420260FAD1ED
:1043100068E71D69012A25F0C0451D611D6945F04A
:1043200000551D6116D0DEF8005945F00445CEF861
:104330000059CEE70A695AB9012F0ED01A68002039
:1043400042F004421A60BDE8F0870A69002AF5D0FD
:104350005A61F1E70A69002AFAD1D0F8082812F464
:10436000807F1A680CBF42F0005242F080521A60FF
:10437000E4E700BF0000F8FFFFFF07E00000F81FC0
:104380002DE9F0414C780B78012C2AD000EB43103A
:104390004D4D4E69D0F8107B00F530634B4C3D40DD
:1043A0001D611D692C401C618C6806B14C611D6942
:1043B000C4F31204012A45F400251D611D6944EA75
:1043C00005041C6108D0D0F8003B43F00443C0F85A
:1043D000003B0020BDE8F081CA68002AF3D05A6192
:1043E000F1E74D69ADB300EB431E374FD1F808C07C
:1043F000DEF810890EF51064344E654508EA0707AB
:104400002761276906EA0706266126694AD946F424
:104410000026C1F814C0CCF31205012A26612669D2
:1044200045EA0605256133D0DEF8002942F0044252
:10443000CEF80029BCF1000FCBD003F00F0101230F
:10444000D0F834288B401343C0F834380020BDE83E
:10445000F08100EB43101D4EA5F50025012AD0F890
:10446000103900F5106406EA03062661266946F451
:1044700000262661236905EA0305256108D0D0F8E6
:10448000003943F00443C0F800390020BDE8F08152
:104490000B6903B163612368002043F00443236088
:1044A000BDE8F08146F40026C5F31205012A266115
:1044B000266945EA06052561EAD0DEF8002942F0C2
:1044C0000442CEF80029B8E70000F8FFFFFF07E03C
:1044D00010B49DF8044064B903339B0809D001323D
:1044E00001EB830300EB023051F8042B8B42026096
:1044F000FAD100205DF8044B704700BF03329208E8
:104500000CD010B400F5805401EB8200236841F810
:10451000043B8842FAD15DF8044B70470846704767
:104520004A780B78012A00EB43100CD0D0F8002B0E
:104530000BB1002A14DAD0F8003B43F40013C0F8A2
:10454000003B00207047D0F80029002A00DB73B937
:10455000D0F8003943F40013C0F800390020704748
:10456000D0F8003B23F08043C0F8003BE3E7D0F8ED
:10457000003923F08043C0F80039D0F8003943F403
:104580000013C0F80039E9E74A780B78012A00EBFC
:10459000431013D0D0F8003B23F40013C0F8003BC5
:1045A000CB78023B012B01D900207047D0F8003BAB
:1045B00043F08053C0F8003B00207047D0F800392A
:1045C00023F40013C0F80039CB78023B012BEBD861
:1045D000D0F8003943F08053C0F80039002070470C
:1045E000034609010020D3F8002801F4FE6122F4FB
:1045F000FE62C3F80028D3F800281143C3F800185E
:10460000704700BF08B503460320D3F8042822F002
:104610000202C3F8042804F0A5FF002008BD00BF73
:1046200008B503460320D3F8042842F00202C3F879
:10463000042804F097FF002008BD00BF426980698C
:1046400010407047D0F8183800F50060C069184075
:10465000000C7047D0F8183800F50060C0691840A9
:1046600080B2704700EB411100F50060D1F8082BD3
:1046700040691040704700BF30B4D0F8104801F0D6
:104680000F05D0F8343800EB4111EB40D1F80809A0
:10469000DB01DBB2234330BC18407047406900F0B7
:1046A00001007047D0F8001900F500630A4A0A407B
:1046B000C0F800299A6802F00602042A05D1D0F851
:1046C000002942F00302C0F800295A68002042F491
:1046D00080725A60704700BF00F8FFFF144B10B49F
:1046E000046C9C421AD800F5306000230129036154
:1046F000036943F400230361036943F01803036172
:10470000036943F0C043036104D14261036843F08D
:104710008023036000205DF8044B7047D0F8003B15
:1047200000F53060002BE0DA00205DF8044B7047A4
:104730000A30544F704700BF806B08B5FFF7FAFF8F
:1047400008BD00BF704700BF836B5A6D12F0500F59
:104750005A6D10B51DD1196842F400725A650A6885
:1047600012F0080FCA681BD012F4406F0DD1CA684E
:1047700094040AD45A6D22F480725A655A6DD10499
:1047800003D45A6D42F001025A651846FCF736FF11
:1047900010BDD2060AD4DB6CBDE81040DB6C1847B4
:1047A0009007E7D01846FCF729FFF1E71846FFF716
:1047B000C9FF10BD806B08B5436D43F040034365EE
:1047C000836D43F004038365FFF7BCFF08BD00BFA2
:1047D000F0B5002283B0019290F85020012A00F039
:1047E0001B81034601201A6883F85000946866070D
:1047F00000F189800C68C4F31305002D40F08E8011
:10480000C4F3846C00FA0CF04C681F26D569A70924
:104810003440284302F1300507F00C07A640D06170
:104820000CFA04F4785920EA060020437851906885
:10483000450771D4956815F0080548D10C6802F158
:10484000140607208F684FEAD45CC4F304540CF0BC
:10485000040C00FA04FE07FA04F4C64F5CF80600E4
:1048600020EA0E0020434CF80600386800F0704043
:10487000B0F1805F00F0C880D068D66810F0100FEB
:10488000486940F0E980C6F38206760000FA06F631
:104890000F69042F00F0C38002F16004086854F827
:1048A00027C000F0F8400CF0004C40EA0C00304308
:1048B00044F827000E694F7E54F82600012F20F09F
:1048C000004008BF4FF00045054344F8265090686B
:1048D000C40716D4CE68086806F01807A64CD2F8AC
:1048E000C050FC40C0F31307DFF8B8C2044025EA0B
:1048F0000705664544EA0504C2F8C04046D00028D2
:1049000016DB002003E05A6D42F020025A650022B7
:1049100083F8502003B0F0BD9068D8E794FAA4F56E
:10492000B5FA85F5C4F3846C05F01F04A0406BE76D
:1049300092498A4200F0B68001F580718A4200F007
:10494000B1808F4E8F4DA968B46801F0E076E443E2
:1049500004F00104002C00F0B3808B4CA04200F066
:10496000E6808A4CA04200F01F81894CA042C8D149
:104970004902C6D482498A42C3D1AA68002022F0E3
:10498000E072324342F48002AA60C0E7002F69D08F
:1049900090FAA0F4B4FA84F4013404F01F04092C52
:1049A00000F2A38090FAA0F4B4FA84F490FAA0F58F
:1049B0000126B5FA85F501343544A40605F01F0536
:1049C00004F0F84406FA05F52C4390FAA0F0B0FA8A
:1049D00080F0304400F01F0000EB40000005204351
:1049E000C70D02F11405C0F304504FF0070C07F097
:1049F00004078E680CFA00FC7C59864024EA0C00FF
:104A00003043785108687AE7D6684869C6F3820669
:104A1000760000FA06F63BE7022003B0F0BD106E08
:104A20000D6800F0F840AC06B0EB856F30D0506EEA
:104A300000F0F840844226D0906E00F0F8408442A6
:104A40002BD0D06E00F0F84084427FF440AFD06E9F
:104A500020F00040D0663AE7760806F0080600FA33
:104A600006F615E7800E441C04F01F06092E2DD80B
:104A7000A406012506EB460004F0F84405FA06F604
:104A800000053443ABE7506E20F000405066D3E79A
:104A9000106E20F000401066C9E7906E20F00040D4
:104AA0009066CEE73B49354E3B4C0D468968B7686A
:104AB000A46801F0E0763C43E44304F0010449E7D4
:104AC0005A6D012042F020025A6520E706EB4600AD
:104AD0000127A5061E3807FA06F605F0F845000579
:104AE000354340F0007028437AE790FAA0F5B5FA14
:104AF00085F590FAA0F40126B4FA84F40135344423
:104B0000AD0604F01F0405F0F84506FA04F4254349
:104B100090FAA0F4B4FA84F4344404F01F0404EBD3
:104B20004404A4F11E00000540F00070DBE7080219
:104B30003FF5E7AE12498A427FF4E3AE174AA9680F
:104B40001268174821F0E07192093143A0FB02027C
:104B500041F400019209A96052000192019A002AD1
:104B60003FF4CFAE019A013A0192019A002AF9D19D
:104B7000C7E600BF0010005CFFFF0F0000200240EE
:104B80000060025800630258000084CB000052C746
:104B90000000B8CF0023024000210240040000249E
:104BA000632D3E050000FF4711F080707FF4A9AE31
:104BB00005498A427FF4A5AEAA6822F0E07232432A
:104BC00042F08072AA60A2E60060025803689A6808
:104BD000D20701D5002070479968214A114270B56B
:104BE00004462AD199681F4A0A4042F001029A609D
:104BF00004F0B2FC23681C4A0546934226D002F515
:104C00008072934222D0194A9268164E0AE09A683E
:104C1000324042F001029A6004F09EFC401B0228E0
:104C20000BD823681A68D20717D49A68D107EED533
:104C300004F092FC401B0228F3D9636D012043F07D
:104C400010036365A36D0343A36570BD084A9268B2
:104C5000D006DAD0074A9342D7D1002070BD00BFFA
:104C60003F000080C0FFFF7F002002400063025829
:104C700000230240002102402DE9F0413B4D044653
:104C800000680F461646A84219D0394B984216D0F4
:104C9000384DAB688068420716D494F85020012A3A
:104CA00012D003F01F080123B8F1090F84F8503027
:104CB0000DD90023012084F85030BDE8F0812E4D3D
:104CC000AB6880684207E8D50220BDE8F08140F279
:104CD000212323FA08F3DB4313F00105E9D1204631
:104CE000FFF774FF00283AD1626D244B256813400A
:104CF00043F480736365B8F1000F02D01C4B9D42F2
:104D000003D0636D23F480136365636D13F48053E4
:104D100029D0A36D23F00603A365E06C4FF0000CCF
:104D2000DFF868E033463A461C21154F154EC0F8AF
:104D30003CE00764C664296005F1400184F850C076
:104D40006E6846F010066E6003F050FE22680E4B4F
:104D500091680B4043F004039360BDE8F08184F850
:104D60005050BDE8F081A365D7E700BF00200240A6
:104D7000002102400063025800230240FEF0FFFFC2
:104D800039470008B5470008C0FFFF7F49470008C2
:104D900038B503689A68910702D59B68002038BD32
:104DA0009A68D20723D59A68044602F00D02012AB8
:104DB00008D0636D012043F010036365A36D0343C6
:104DC000A36538BD986803210A4A024042F00202F6
:104DD0009A60196004F0C0FB054604E004F0BCFBD7
:104DE000401B0228E5D823689B68DB07F6D4002027
:104DF00038BD00BFC0FFFF7F38B55A4A044603687C
:104E0000934249D002F58072934245D0564B9B683D
:104E100013F4403F14BF01230023EBB101F08CFFDA
:104E200063680546B3F5003F00F08B80B3F5403F63
:104E300073D0B3F5803F00F0848004F0A5FB41F20D
:104E4000030398421FD8494B9D4260D9226893685A
:104E500043F48073936038BD4FF4002003F03CF8B6
:104E600063680546B3F5101F75D01DD9B3F5201F33
:104E70005BD0B3F5301FE0D104F086FB41F20303B1
:104E8000984244D92D0A3A4B9D422ED82268936805
:104E900023F44073936038BD364B9B6813F4403F56
:104EA00014BF01230023B8E7B3F5E01F3FD004D9B6
:104EB000B3F5001FC1D14509BFE7B3F5801F06D088
:104EC0000AD9B3F5A01F02D0B3F5C01FB5D19B0C12
:104ED0005B00B5FBF3F5B0E7B3F5002FF7D023F493
:104EE0000022B2F5802FF2D0A7E7234B234A2B44B0
:104EF00093421ED9224B234A2B4493422268936843
:104F00002BD823F4407343F40073936038BD2268B8
:104F1000936823F48073936038BD850804F034FBF4
:104F200041F203039842AED88DE7C50985E705092C
:104F300083E72268936823F4407343F4807393609B
:104F400038BD1B0CB5FBF3F504F01EFB41F2030367
:104F5000984298D877E785096FE743F440739360E8
:104F600038BD00BF0020024000630258002D31010F
:104F7000105E5F0000230240EFA1A0FF0F5E5F0004
:104F8000DF4341FF1FBCBE0070B5002382B0019318
:104F9000002800F0CF80456D0446002D00F0B98058
:104FA000226893689D0003D59168704B0B40936015
:104FB0009368D80015D46E4B90681B686D4D9B09A3
:104FC0006D49A5FB035301409B0941F0805191605D
:104FD0000193019B2BB1019B013B0193019B002B92
:104FE000F9D19368D90024D4636D012543F01003EF
:104FF0006365A36D2B43A365936813F0040F636D82
:105000001DD1DB061BD4636D23F4817343F00203CF
:1050100063659368DE0728D4584B9A4217D003F58E
:1050200080739A4213D0564B9B68D9071DD4554ABA
:1050300015E09368002513F0040F636DE1D0636DF4
:10504000012543F010032846636502B070BD4B4A4A
:105050004D4B92689B681343D80706D44B4A93681C
:10506000616823F47C130B43936004F08DFA41F2E2
:105070000303A1689842237F51D8667D1A04206BF0
:1050800042EA463202430A43012B03D1236A013B21
:1050900042EA4342636A23B103F47873A16A0B4383
:1050A0001A4323683A49D86801400A43DA609A688B
:1050B00012F0040F9A681CD112071AD4D968354A25
:1050C000207D0A40E16A42EA80320A43DA6094F8BD
:1050D0003820012A3AD01A6922F001021A611A69AD
:1050E0002046616B22F070420A431A61FFF784FE8A
:1050F0002368E268012A21D01A6B22F00F021A639A
:10510000636D284623F0030343F00103636502B097
:1051100070BDFCF729FAA56584F8505040E71029C6
:10512000ABD1607D1A04216B42EA40320A4342F05F
:105130001C02A9E70125284602B070BD196BA269BF
:1051400021F00F01013A0A431A63D9E71869124E98
:10515000D4E910210640A06C0A43E16B32430243BC
:1051600042EA014242F001021A61B8E7C0FFFF5F64
:1051700004000024632D3E05C0FFFF6F00200240A5
:1051800000600258006302580021024000230240E0
:1051900003C0F0FFFCBFFFFF1EF800FCF0B50D469A
:1051A00090F8501083B00026012901963ED00123CB
:1051B0000446174680F85030FFF7EAFD636DE0B90A
:1051C0001C4E07F08042216805F480351E401A4BC2
:1051D0001A4F46F0020666658E68334013432B4330
:1051E00043F000438B608B68002B0EDB636D23F074
:1051F000030343F00103636502E043F010036365BA
:10520000002384F8503003B0F0BD019B01330193BB
:10521000019BBB42E7D9636D0022012023F01203FA
:1052200084F8502043F010036365ECE7022003B0DC
:10523000F0BD00BFFDEEFFFFC0FFFE3FFF955A55DA
:10524000F0B490F850200E68012A49D00346294A4C
:1052500001201C6883F85000944208D05A6D002148
:1052600042F0200283F850105A65F0BC7047224D7E
:10527000AA6852070AD5A2685A6D012042F020029E
:105280005A65002283F85020F0BC7047A06810F0E7
:105290000400F1D1C6B1DFF868C04F68DCF808201F
:1052A00022F440423A43CCF80820A468AA6822437A
:1052B000D40713D48A68DCF808401049164321400B
:1052C0000E43CCF80860DCE70D498A6822F44042BE
:1052D0008A60A068AA680243D00704D50020D0E7FE
:1052E0000220F0BC70478C683046044A22408A6035
:1052F000C7E700BF0020024000210240E0F0FFFFAE
:105300000023024007490002074BCA6800F4E0602E
:1053100010B44FF6FF0422405DF8044B10430343E2
:10532000CB60704700ED00E00000FA05194BDB6828
:10533000C3F3022330B4C3F107051C1D042D28BF9D
:105340000425062C19D9033B4FF0FF349C4022EA78
:1053500004024FF0FF34002804FA05F421EA0401A6
:1053600001FA03F141EA02010ADB09010A4BC9B261
:10537000034483F8001330BC704700221346E8E76B
:1053800000F00F000901054BC9B20344197630BC87
:10539000704700BF00ED00E000E100E0FCEC00E041
:1053A000002807DB00F01F0101234009024A8B405F
:1053B00042F82030704700BF00E100E000280DDB1C
:1053C0004309012200F01F000549203302FA00F0D2
:1053D00041F82300BFF34F8FBFF36F8F704700BFBB
:1053E00000E100E00138B0F1807F0DD2074B0022D0
:1053F000072130B4F025064C5860104684F823503D
:105400009A60196030BC70470120704710E000E0DE
:1054100000ED00E0BFF35F8F044A00200449536AA7
:1054200023F4803353624860704700BF00ED00E012
:1054300090ED00E0064A40F00100064B5860536AC8
:1054400043F480335362BFF34F8FBFF36F8F7047C6
:1054500000ED00E090ED00E0124A4378936001789F
:10546000E9B1436870B4D360C37A047B1B06857AC4
:10547000867B43EA0473447B0B43017A43EAC543CA
:10548000C57B43EA8443447A43EA464343EA0543FF
:1054900043EA042343EA410370BC13617047D160BF
:1054A0001161704790ED00E0704700BF08B5FFF74D
:1054B000FBFF08BD70B504460D4616466A1C2368FE
:1054C0002CD19A69900727D49A69D106F9D59A699F
:1054D0009106FCD520221021D961DA619A699007E2
:1054E00001D500229A629A69D10703D49A6942F0E1
:1054F00001029A615A6800211B4E2025012032408A
:105500005A60636C84F8401043F00403636484F8C9
:10551000415084F8421070BD002070BD9A69920716
:10552000FAD49A69D0061BD404F016F8801BA8425E
:1055300001D8002DC2D1636C2021002201200B4331
:1055400084F84020636484F8411084F8422070BDE0
:1055500004F002F8801B8542EDD3002DEBD02368C8
:1055600099698A06F4D5B5E700E800FE70B50446EF
:105570000D461646236899698A0649D49969CA0670
:1055800026D5681C38D19A699106FCD520221021B5
:10559000D961DA619A69900701D500229A629A6905
:1055A000D10703D49A6942F001029A615A68002136
:1055B000184E2025012032405A60636C84F8401058
:1055C00043F00403636484F8415084F8421070BDD2
:1055D00003F0C2FF801BA84201D8002DCAD1636C22
:1055E0002021002201200B4384F84020636484F8CA
:1055F000411084F8422070BD9A699206C6D403F027
:10560000ABFF801B8542EAD3002DE8D02368B8E7C2
:10561000002070BD00E800FE00284DD0F8B590F8DD
:105620004130044603F0FF02002B40D02421E06803
:10563000D4E9003284F841100128196822F0706220
:1056400021F0010119601A619A6822F400429A60FF
:10565000A26828D042F4044202289A6002D14FF492
:1056600000625A605A68002114482027A669104336
:10567000D4E9042558602A43D868E56942EA06223D
:10568000266A20F400403543D8600846DA601D6081
:105690001A6842F001021A60616484F84170216363
:1056A00084F84210F8BD42F400429A60DAE780F8CC
:1056B0004020FCF737FEB9E7012070470080000268
:1056C0002DE9F047984690F84130089E202B40F095
:1056D0008A8090F840300446012B00F0848001233A
:1056E0008946174680F8403003F036FF054604E04F
:1056F00003F032FF401B192878D82368986910F40A
:105700000040F5D110222121676284F8411084F80D
:1057100042206064A4F82A80628D606392B2FF2AFE
:1057200072D8618DC9F309075A68DFF838C189B2A8
:105730004A4802EA0C025FFA81FC21853A4342EAB8
:105740000C4210435860DFF824814FF0FF0ADFF865
:105750002091638D2A46314620469BB2002B30D0E3
:10576000FFF7A8FE002875D1606A216810F8012BA8
:10577000238D8A62628D013B6062013A9BB292B2D4
:1057800023856285628D92B2002BE2D1002AE0D09F
:10579000701C45D18B691A06FCD5638D9BB2FF2B1B
:1057A0004AD94B682A46A4F828A0204603EA0803F1
:1057B0003B4343EA09034B603146638D9BB2002BA8
:1057C000CED1FFF7D3FE002844D123682021244DF9
:1057D000D9615A682A405A6084F8411084F8400020
:1057E00084F8420000E00220BDE8F087636C2021CD
:1057F000002201200B4384F84020636484F84110A8
:1058000084F84220BDE8F0875A68C9F309071549B2
:10581000FF200A40144920853A431143596092E71A
:105820008B691B06B9D403F097FE401B8642DDD37B
:10583000002EDBD02168ABE7628D4B6892B203EAA1
:105840000803D0B2228543EA00433B4343F0007390
:105850004B607EE70120BDE8F08700BF002000829A
:1058600000E800FE009800FC0020FF81009C00FC86
:105870000000FF0190F84120202A21D1034670B496
:10588000D5B290F84020012A1CD01A6824200026A6
:1058900083F841001468304624F001041460146851
:1058A00024F480541460146821431160116841F09D
:1058B0000101116083F8415083F8406070BC70476B
:1058C00002207047022070BC704700BF90F8412052
:1058D000202A20D1034670B4D6B290F84020012A85
:1058E0001BD01A682420002583F84100146828463C
:1058F00024F001041460146824F4706444EA012163
:105900001160116841F00101116083F8416083F872
:10591000405070BC704702207047022070BC704736
:10592000B24B016899422DE9F04105461FD0203362
:1059300099421CD003F57873994259D0203399428B
:1059400056D003F57873994200F0208120339942B4
:1059500000F01C8195F89130A54E03F0FF026BB961
:10596000284685F89020FCF703FF296806E0A14E41
:1059700095F8913003F0FF02002BF1D09E4B9F4829
:105980001B680A68A0FB030322F480321B0B0A6029
:105990009B0023B30C68013B14F48034F9D1EB680D
:1059A0000222012B85F8912000F01A81934219BF41
:1059B000174603202320222715BF4FF0010C4FF07C
:1059C000210C00222022AB68013B042B00F25781FE
:1059D000DFE813F0D1001100D8001000D400D5F892
:1059E0009430012043F04003C5F89430BDE8F081C5
:1059F000834EBDE73A464FF400682B6A3260002BB5
:105A000044D07A4B994200F029817E48081AB0FAB6
:105A100080F04009002840F021817B4B994200F042
:105A200017812033994200F01381784B994200F09E
:105A300009812033994200F00581754B994200F0AD
:105A40001381744B994200F01581AB69B3F5002FB7
:105A500000F0EE80AB6A00EB80002A6AB3F1806F41
:105A60004FEA40030CBF0221012102FB01F21202A6
:105A7000B3FBF2F3684AA2FB0312D20802EB8201E5
:105A8000A3EB4103092B08BF01326A626B6833F054
:105A900002032B6D40F09F80012B14BF4FF4007464
:105AA000002403F071FD6B68B0F5005FD5E91112B9
:105AB00043EA01037FD31A43EB6CE96A1A43A869EE
:105AC0002B680A436969AF6A0A431968D5F824C08C
:105AD000024352483A430840296918600A4319684A
