:020000040800F2
:100000000000022091040008E1040008657800085F
:10001000E1040008E1040008E10400080000000019
:10002000000000000000000000000000E1040008E3
:10003000E104000800000000E10400085578000811
:10004000E1040008E1040008E1040008E1040008FC
:10005000E1040008E1040008E1040008E1040008EC
:10006000E1040008E1040008E10400081D13000891
:1000700029130008950D00083513000841130008E6
:10008000E1040008E1040008E1040008E1040008BC
:10009000E1040008E1040008E1040008E1040008AC
:1000A000E1040008E1040008E1040008E10400089C
:1000B000E1040008E1040008E1040008E10400088C
:1000C000E1040008E1040008E1040008E10400087C
:1000D000E1040008E1040008E1040008E10400086C
:1000E000E1040008E104000800000000E104000849
:1000F000E1040008E1040008E1040008E10400084C
:10010000E1040008E1040008E1040008E10400083B
:10011000E1040008E1040008E1040008E10400082B
:10012000E1040008E1040008E1040008E10400081B
:10013000E1040008E1040008E1040008E10400080B
:1001400000000000000000000000000000000000AF
:10015000E1040008E1040008E1040008E1040008EB
:10016000E1040008E1040008E1040008E1040008DB
:10017000E1040008E1040008E1040008E1040008CB
:10018000E1040008E1040008E1040008E1040008BB
:10019000E1040008E1040008E1040008E1040008AB
:1001A000E1040008E1040008E1040008E10400089B
:1001B000DD730008E1040008E1040008E104000820
:1001C000E1040008E1040008E1040008E10400087B
:1001D000E1040008E1040008E1040008E10400086B
:1001E000E1040008E1040008E1040008E10400085B
:1001F000E1040008E1040008E1040008E10400084B
:10020000E1040008E1040008E1040008E10400083A
:10021000E1040008E1040008E1040008E10400082A
:10022000E1040008E1040008E10400080000000007
:10023000E1040008E104000800000000E1040008F7
:10024000E1040008E1040008E1040008E1040008FA
:10025000E1040008E1040008E1040008E1040008EA
:10026000E1040008E1040008E1040008E1040008DA
:10027000E1040008E1040008E104000800000000B7
:10028000E1040008E1040008E104000800000000A7
:0802900000000000E104000879
:1002980010B5054C237833B9044B13B10448AFF3B8
:1002A80000800123237010BD180000240000000006
:1002B8009802000808B5034B1BB103490348AFF384
:1002C800008008BD000000001C00002498020008FF
:1002D80030B4194C0022194BD4F88810184841F44E
:1002E8007001184DC4F888101C68174944F00104BF
:1002F8001C601A611C68204018609A61DA611A62F1
:100308009A62DA621A635A639A63DA631A645A64FD
:10031800186820F4802018601A662B681940B1F11B
:10032800005F02D2094B01221A60034B4FF00062B2
:1003380030BC9A60704700BF00ED00E000440258EE
:100348007FEDF6EA0010005C0000FFFF0881005115
:10035800704700BF704700BF70B5234C84B0234E70
:1003680004F16C0001F036FFD4F88830002B32DD40
:1003780033780133DBB2042B2AD8337094F8713008
:100388007F2B01D104233370174801AC00F0B0F87B
:100398003378174D03EB430305EB830393E807001A
:1003A80084E807002146134801F06CFF337803EB1B
:1003B800430305EB830393E8070084E8070021461D
:1003C8000D4801F05FFF084800F0B0F804B070BDB8
:1003D80000233370D2E7D1D0337813B904233370B4
:1003E800CCE7013BC9E700BF34000024DC0100244E
:1003F800E0010024280100247C01002408B50F48EE
:1004080000F050F90E4B00210E48197001F0C4FF9E
:1004180001210D4801F0C0FF02210C4801F0BCFF8A
:1004280003210B4801F0B8FF07210A4801F0B4FF87
:100438000949024800F052F8FEE700BF34000024E2
:10044800DC010024E0010024EC010024F801002470
:10045800040200241002002461030008064A074928
:10046800074808B508F014FA034A06490020BDE811
:10047800084008F00DBA00BF000000245903000826
:10048800340000245D030008DFF834D0002103E0C5
:100498000C4B5B58435004310B480C4B42189A42A2
:1004A800F6D30B4A02E0002342F8043B094B9A4278
:1004B800F9D3FFF70DFF08F0FFF9FFF79FFF70472B
:1004C80000000220B88A000800000024140000245C
:1004D80018000024281B0024FEE70000002008B5AF
:1004E80001F04CF80020BDE8084001F06DB800BFED
:1004F80070B586B0064607216D4603AC284601F064
:100508004BFF95E8070084E8070006F1F400214650
:1005180001F0B8FE95E8070084E8070006F5A47026
:10052800214601F0AFFE06B070BD00BF10B504460D
:10053800F43001F0BDFE04F5A470BDE8104001F0F0
:10054800B7BE00BF2DE9F04114218CB0044606F077
:1005580051FB03461321204604F1F407ADF80C3093
:1005680006F048FB0346122120464FF00108ADF87B
:10057800103006F03FFB0346049A38460399ADF85D
:10058800143004F5A476059B06ADCDF8008001F083
:1005980051FE2046112106F02DFB03461821204666
:1005A800ADF80C3006F026FB03461721204609ACAF
:1005B800ADF8103006F01EFB0346049A3046039946
:1005C800ADF81430059BCDF8008001F033FE2846C5
:1005D800072101F0E1FE95E8070084E807003846A6
:1005E800214601F04FFE95E8070084E80700214600
:1005F800304601F047FE384601F05AFE304601F019
:1006080057FE0CB0BDE8F08170B5DFED250A8EB05D
:1006180015210446CDED010A06F0ECFA034605A8BB
:1006280004F1540504F18C06ADF80C30039900F080
:10063800A7F820460F2106F0DDFA03460DF1250044
:10064800ADF81030049900F09BF805A9284602225D
:10065800042300F0A7F804F1A80328460021C4E900
:10066800316300F045FB002394ED680A0146DDED97
:10067800010A1A46304601F06DFD28460121D4F8DA
:10068800C85000F035FB00230146DDED010A28467D
:1006980094ED680A1A4601F05DFD0EB070BD00BF0A
:1006A8006F12033B3022344B344970B5044686B090
:1006B800C0F8A42100F1CC06C0F8A03100F1DC0597
:1006C800C0F89C1106F00CFA204606F079FA01F001
:1006D80023FD20461C2106F08DFA034694ED680A96
:1006E8003046ADF81030049901F0F0FD20461B218A
:1006F80006F080FA034694ED680A2846ADF81430EF
:10070800059901F0E3FD20461A21C4E93B6506F08E
:1007180071FA034619212046ADF8043006F06AFA4A
:1007280003460D212046ADF8083006F063FA03466B
:10073800019994ED680A04F16C00ADF80C30029A46
:10074800039B01F021FD2046FFF7FCFE2046FFF742
:100758005BFFD4F8A411D4ED676A002007EE901A65
:10076800B8EE677AC6EE877AC4ED687A06B0BDE857
:10077800704000F013BF00BFAB127A44008E3B47B5
:1007880010B483B00022ADF804100321BDF8044072
:10079800817004800274C27003B05DF8044B01F0EC
:1007A80037BC00BF2DE9F04F0025DE4CDE4F9646E2
:1007B80042608DB0037007F11C0284F8EEE08446B5
:1007C800A4F8FB50C4F8EF50C4F8F350C4F8F7503D
:1007D800BD6101950495C7E90055C7E90255C7E908
:1007E80004554368CDE90255C4E94772CDE905557A
:1007F800CDE90755CDE90955002B00F06B810E4670
:100808000868A0464968F368B2683D80A8E80F0008
:10081800337C88F80030337C84F8EF30DCF804301F
:10082800012B40F2578133467D8053F8118F586869
:100838009968DA68C4F81180C4F81500C4F819106A
:10084800C4F81D201B7C84F8213096F8213084F8E8
:10085800F030DCF80430022B40F23C813346BD8096
:1008680053F8228F58689968DA68C4F82280C4F867
:100878002600C4F82A10C4F82E201B7C84F83230D5
:1008880096F8323084F8F130DCF80430032B40F26B
:1008980021813346FD8053F8338F58689968DA68A8
:1008A800C4F83380C4F83700C4F83B10C4F83F20BC
:1008B8001B7C84F8433096F8433084F8F230DCF837
:1008C8000430042B40F20681B14604F144083D810E
:1008D80059F8440FD9F80C30D9F80410D9F8082081
:1008E800A8E80F0099F8103088F8003096F85430CE
:1008F80084F8F330DCF80430052B40F2EB80334603
:100908007D8153F8558F58689968DA68C4F855801E
:10091800C4F85900C4F85D10C4F861201B7C84F841
:10092800653096F8653084F8F430DCF80430062B2E
:1009380040F2D0803346BD8153F8668F5868996875
:10094800DA68C4F86680C4F86A00C4F86E10C4F89F
:1009580072201B7C84F8763096F8763084F8F5306F
:10096800DCF80430072B40F2B5803346FD8153F89C
:10097800778F58689968DA68C4F87780C4F87B007C
:10098800C4F87F10C4F883201B7C84F8873096F85D
:10099800873084F8F630DCF80430082B40F29A806F
:1009A800B14604F188083D8259F8880FD9F80C300F
:1009B800D9F80410D9F80820A8E80F0099F81030E1
:1009C80088F8003096F8983084F8F730DCF804306E
:1009D800092B7FD9334608F101054FF0000953F878
:1009E800998FA7F8129058689968DA68C4F89980BE
:1009F8006860A960EA601B7C2B7496F8A93084F8BB
:100A0800F830DCF804300A2B64D93346A7F8149080
:100A180053F8AA8F58689968DA68C4F8AA80C5F8A4
:100A28001500C5F81910C5F81D201B7C85F8213064
:100A380096F8BA3084F8F930DCF804300B2B49D931
:100A48003346A7F8169053F8BB8F58689968DA6848
:100A5800C4F8BB80C5F82600C5F82A10C5F82E20B2
:100A68001B7C85F8323096F8CB3084F8FA30DCF805
:100A780004300C2B2ED9B24605F13308A7F818908C
:100A88005AF8CC0FDAF80C30DAF80410DAF8082043
:100A9800A8E80F009AF8103088F8003096F8DC3093
:100AA80084F8FB30DCF804300D2B13D93346A7F853
:100AB8001A9053F8DD7F58689968DA68C4F8DD70D1
:100AC800A864E9642A651B7C85F8543096F8ED30F3
:100AD80084F8FC3015484FF480719CF800305FFAB8
:100AE8008EF24FF480260027C4F824010120A4F8D0
:100AF80038110821C4F83C210022C4E94A67C4E936
:100B08004C01002600270320002184F84021C4F866
:100B18005821C4E95267C4E95401002B00F08B80C6
:100B280006E000BF20020024000000300020024040
:100B3800012200200121013B84F85C21C4E95A010B
:100B4800082B0AD8DFE803F005868B90959A9FA5B5
:100B5800AC0003224023C4E958235548002501F07E
:100B6800F3FE01A95248019501F0F8FF40F2FF7326
:100B7800022204200021CDE9062394F8EE30CDE9C5
:100B88000801002B48D00627DFF85491494EDFF8BA
:100B98005481DFF854B1DFF854A119E0022A30D0AB
:100BA800012A40D15B78012B3FD0002B0CBF334684
:100BB8000023013504A93E48EDB2CDE9043701F020
:100BC800FDFB94F8EE30AB4226D93B4B53F8257029
:100BD80005EB0513E25C2344002ADFD15B78062B82
:100BE8001DD0072B23D0022B2CD0032B2CD06BB37A
:100BF800012B2DD0042B21D0052B304B18BF0023FF
:100C0800D7E75B78042B0CD0052B12D0C3B1012B8E
:100C18002B4B18BF0023CCE70DB0BDE8F08F294B54
:100C2800C7E74346C5E70023C3E74B46C1E753463A
:100C3800BFE75B46BDE784F85C318EE7224BB8E737
:100C4800224BB6E7224BB4E7224BB2E7224BB0E780
:100C5800224BAEE707226023C4E958237DE70F2221
:100C68008023C4E9582378E71F22A023C4E9582326
:100C780073E73F22C023C4E958236EE77F22E023AD
:100C8800C4E9582369E7FF224FF48073C4E9582365
:100C980063E740F2FF124FF49073C4E958235CE70E
:100CA80040F2FF324FF4A073C4E9582355E700BF60
:100CB800440300240002B025548900080000B84FFE
:100CC8000008302E0800900C0000844B0004002A15
:100CD8000040C03A0080F03E000021430000524727
:100CE8002000F0141000C010000180218000501D69
:100CF800034B0D29D3F81C0198BF00EB4100704746
:100D0800200200241D4B02689A4200D070471C4BF9
:100D18004FF48061D3F8D82070B542F02002194D05
:100D280004460920C5F8981182B0C5F88C014FF423
:100D38000061C3F8D82005F5C476D3F8D8204FF45D
:100D48000053114802F02002C5F89C11C5F8A031E3
:100D58004FF4807101920023019AC5F8880130464A
:100D6800C5F8A411C5E96433C5E96A3304F0E6FFA0
:100D7800E664C5F8C04102B070BD00BF0020024063
:100D8800004402582002002440000240014805F0B7
:100D9800C7BA00BFA80300242DE9F04FD64F8DB085
:100DA800DFF86CB3BB6807F11006D7F810580BF5DD
:100DB80082640BF1100207F5826903EB800E06943A
:100DC80083000A9204EB8508DBF8084006EB850CE3
:100DD800039302EB850197F81C3809EB850ACDF8D7
:100DE8001C8004EB80000B91CDE9086CCDE9049AD6
:100DF800002B00F0DA80012B40F0C480002D00F0B9
:100E080066810B4600240EF1040900F10408DFEDA9
:100E1800BB5A71460295019351F8343059F8345051
:100E280083F4000E50F8343085F4000583F4000A8A
:100E3800AEF5000306EE103A58F83430AAF5000A69
:100E4800013483F4000EA5F5000306EE90AAB8EE6F
:100E5800C66A07EE103AAEF50003F8EEE66A07EE4A
:100E6800903AB8EEC77A019B26EE256AF8EEE77A43
:100E780066EEA56A27EE257AA6EC016A67EEA57AE2
:100E8800E2EC016AACEC017AE3EC017A0193029B93
:100E9800A342C1D11D467B682A4604A908A89847E1
:100EA800039ADBF80C00F96897F81C3810441144D1
:100EB800002B00F0B180012B5DD1DDF810A00023DC
:100EC800DDF81C900E1DDDF81880041DDDF814E017
:100ED8009FED8B7ADFF83CC2DFED8A6A8A4F3BE0F0
:100EE800F4EEE67AF1EE10FAC0F22B813A46FEEC07
:100EF800017A41F83320F4EEC77AF1EE10FA3FD9BF
:100F0800F4EEE67AF1EE10FAC0F222813A46F8ECF5
:100F1800017A46F83320F4EEC77AF1EE10FA2DD9AB
:100F2800F4EEE67AF1EE10FAC0F219813A46F9ECDD
:100F3800017A40F83320F4EEC77AF1EE10FA14D9AA
:100F4800F4EEE67AF1EE10FAC0F2C7803A4644F8B9
:100F5800332001339D420ED9FAEC017AF4EEC77AB8
:100F6800F1EE10FABCD86246C1E7624644F8332075
:100F780001339D42F0D80DB0BDE8F08F6246D6E748
:100F88006246C4E77B682A4604A908A89847039ADA
:100F9800DBF80C00F96897F81C3810441144CBB3FF
:100FA800012BE8D1002D88D1E5E7002D00F08F80D6
:100FB8000EF1040900F10408DFED545A3EF93340FC
:100FC80006EE104A30F9334006EE904A39F93340BC
:100FD800B8EEC66A07EE104A38F93340F8EEE66A0A
:100FE800013307EE904AB8EEC77A26EE256A9D428D
:100FF800F8EEE77A66EEA56A27EE257AA6EC016A8E
:1010080067EEA57AE2EC016AACEC017AE1EC017AD0
:10101800D4D140E7002DAED0DDF810A00023DDF8D4
:101028001C900E1DDDF81880041DDDF814E09FEDFE
:10103800347ADFF8E0C0DFED336A334F38E0F4EE9E
:10104800E67AF1EE10FA4FDB3A46FEEC017A41F807
:101058003320F4EEC77AF1EE10FA36D9F4EEE67AD8
:10106800F1EE10FA58DB3A46F8EC017A46F83320EC
:10107800F4EEC77AF1EE10FA25D9F4EEE67AF1EE3D
:1010880010FA50DB3A46F9EC017A40F83320F4EED6
:10109800C77AF1EE10FA14D9F4EEE67AF1EE10FA06
:1010A80048DB3A4644F8332001339D427FF663AF6C
:1010B800FAEC017AF4EEC77AF1EE10FABFD862467C
:1010C800C3E76246EEE76246DDE76246CCE77B6847
:1010D8002A4604A908A898474DE7B0EE676ABEEE0D
:1010E800E46A16EE102A32E7B0EE676ABEEEE46AEA
:1010F80016EE102AA9E700BF2004002400000034DF
:1011080004FF7FBF04FF7F3F82FF7F00000000389D
:10111800480C00247E0080FFB0EE676ABEEEE46AE9
:1011280016EE102AA0E7B0EE676ABEEEE46A16EE85
:10113800102AA8E7B0EE676ABEEEE46A16EE102A37
:10114800B0E7B0EE676ABEEEE46A16EE102ACEE6A5
:10115800B0EE676ABEEEE46A16EE102AD7E6B0EE85
:10116800676ABEEEE46A16EE102AE0E60B469200C5
:101178000146184607F0C4BBF8B5044601220F46DD
:1011880058484FF4804104F0EDFC2368564A9342D6
:1011980063D02032934260D0544DD5F8184805F1F9
:1011A800100095F81C28BE00AB686408012A03EB00
:1011B800870100EB840452D0A0420FD002469FED75
:1011C8004C7A51F8043B1BB207EE903AF8EEE77AF6
:1011D80067EE877AE2EC017A9442F2D105F58264EF
:1011E80095F81E78D5F8102821462B6802FB07F2DF
:1011F8009847D5F8182895F81C18EB685208012963
:10120800334404EB820240D094421ED09FED397AD9
:101218003948DFED3A6A9FED3A6A08E0F4EEE67A7B
:10122800F1EE10FA55DBA24243F8041B0DD0F4ECA2
:10123800017A47F6FE71F4EEC77AF1EE10FAEDD8AE
:101248000146A24243F8041BF1D100224FF4804129
:101258002448BDE8F84004F085BC2A4D9DE7A0422B
:10126800BCD002469FED287A51F8043B83F4000372
:10127800A3F5000307EE903AF8EEE77A67EE877A6F
:10128800E2EC017A9442EFD1A8E79442DDD0043B26
:101298009FED187A1D4DDFED196A1D4808E0F4EE40
:1012A800E67AF1EE10FA0DDBA24243F8041FCCD027
:1012B800F4EC017A0146F4EEC77AF1EE10FAEED8B2
:1012C8002946F1E7B0EE676ABEEEE46A16EE101A38
:1012D800EAE767EE867AFDEEE77A17EE901A09B22A
:1012E800A1E700BF0018025804580140480C002428
:1012F8000000003804FF7FBF0280FFFF04FF7F3F2C
:1013080000FEFF4620040024000000347E0080FF19
:1013180082FF7F00014805F003B800BFE4170024EE
:10132800014804F0FDBF00BF5C180024014804F028
:10133800F7BF00BFD4180024014804F0F1BF00BF74
:101348003C1600242DE9F0470646814C814D88B0B3
:10135800814AD0E90030C4F82468802BC5F8246895
:10136800077828BF802390F80B9090F80C80C4F879
:101378001038C5F81038C378226084F81C3803790F
:101388002A6085F81C3800F0F1FBB06808B100F05D
:10139800A5F9F06808B100F0A1F9D5F810184FF0D8
:1013A800020E6E4A17F0FD0F0191D4F8101802F5DD
:1013B80000606B4B01FA0EFA0199AB6003F500630C
:1013C80001FA0EF1E260A060C4F818A8EB60C5F855
:1013D800181884F81EE885F81EE82ED1F14584F81F
:1013E8001D9800F08A80B9F1030F76D0B9F1010F8A
:1013F8007DD0914600F2FF7340F6FE72A3EB09031D
:10140800934240F28C804FF40062002107F086FA84
:1014180048464FF40062002107F080FA4FF400724A
:101428000021504807F07AFA4FF4007200214E4824
:1014380007F074FA0023C4F814387B1E012B10D966
:1014480000274A484FF4804201230024077002A96C
:1014580047480594CDE9022304F08CF908B0BDE8AB
:10146800F087B8F1010F85F81D8854D0B8F1020F44
:101478000AD171681023F0684BF68032897AB1FA84
:1014880081F1490905F00CFCA86840F6FE72ED6888
:1014980000F2FF735B1B93424ED94FF400620021A8
:1014A80007F03CFA28464FF40062002107F036FAAC
:1014B8004FF4007200212F48A7F1020707F02EFA17
:1014C8004FF4007200212C4807F028FAB7FA87F782
:1014D80000237F09C4F81438B3E740F60133ADF8A8
:1014E8000830029805F0E2FCD4E9020982E7B06806
:1014F80005F096FBD4E902097CE7716810234BF6E6
:101508008032B068497AB1FA81F1490905F0C8FB1F
:10151800D4E902096EE7F06805F082FBB4E7031F1F
:10152800A9F1040200F2FC70002143F8041F834271
:1015380042F8041FF9D171E7031F2A1F00F2FC705B
:10154800002143F8041F984242F8041FF9D1AFE77D
:1015580020040024480C002475110008FC00003009
:10156800FC100030300400243008002470140024DB
:1015780000180258580C002458100024044B00226C
:101588001A7010B9034B19607047034B1960704704
:101598007014002420040024480C002468B9084B67
:1015A800802993F81E2828BF8021C3F8101801FB52
:1015B80002F14900C3F818187047024BF0E700BF62
:1015C80020040024480C002410B5C0B9234CD4F8DA
:1015D8002438B4F818285B685B7973B3E16820484D
:1015E80001F0C8FFD4F82438B4F818285B68DB7910
:1015F80073BBA1681B48BDE8104002F04DB81A4CF7
:10160800D4F82438B4F818285B689B7983B1E1686A
:10161800164801F0AFFFD4F82438B4F818285B68EE
:101628001B7A7BB9A1681248BDE8104002F034B8B3
:10163800A1680E4802F030F8EDE7A168084802F00A
:101648002BF8CFE7E1680A48BDE8104001F092BFE7
:10165800E1680448BDE8104001F08CBF2004002474
:101668004C1900244C170024480C0024B4160024FC
:10167800A4150024084B1A78012A07D10368074AE1
:10168800934206D02032934203D070470021FFF7DF
:1016980073BD0020FFF780BB70140024045801407C
:1016A8000B4B1A78012A07D103680A4A934209D0DA
:1016B8002032934206D07047074BD3F818184908D0
:1016C800FFF75ABD044BD3F818084008FFF764BB6E
:1016D80070140024045801402004002438B505463D
:1016E80000F046FE04462B78022B3FD0032B35D062
:1016F800012B2BD02868214B214A1860A988998092
:1017080022606B79012B18D0022B1CD0C3B10025A5
:1017180001232046E360A5602562C4E90455C4E9B5
:10172800065501F02FFB2946204601F059FC2946B1
:101738002046BDE8384001F07FBC124B6360E6E705
:10174800114B6360E3E7114B6360E0E72868104BD7
:10175800104A1860A98899802260D2E728680E4B41
:101768000E4A1860A98899802260CAE728680C4B3D
:101778000C4A1860A98899802260C2E77414002472
:10178800005400403211D0208A62E0301A098010DB
:101798007C140024005800408C140024001C0058BD
:1017A80084140024005C00409C4A0368934230B5CE
:1017B8008FB055D09A4A934200F09C80994A934240
:1017C80000F0EE80984A934201D00FB030BD974B9D
:1017D800974CD3F8E020601C42F00202C3F8E020E6
:1017E800D3F8E03003F002030893089B00F0B0FD43
:1017F8000546601C00F0B4FD227812210023012A5E
:10180800CDE90901CDE90B3301D804230D9309A9CA
:101818002846019103F0AEFF864800F099FD054681
:10182800844800F09DFD227800231224012A0199A2
:10183800CDE90904CDE90B3301D804230D932846DB
:1018480003F098FF794BD3F8F42042F08002C3F8F4
:10185800F420D3F8F43003F080030993099BB4E72C
:10186800724B754CD3F8E020601C42F00202C3F8BA
:10187800E020D3F8E03003F002030293029B00F06B
:1018880067FD0546601C00F06BFD227812210023DD
:10189800012ACDE90901CDE90B3301D804230D93C1
:1018A80009A92846019103F065FF644800F050FD3E
:1018B8000546624800F054FD227800231224012ACC
:1018C8000199CDE90904CDE90B3301D804230D931F
:1018D800284603F04FFF554BD3F8E82042F4001296
:1018E800C3F8E820D3F8E83003F400130393039B0C
:1018F8000FB030BD4D4B524CD3F8E020601C42F085
:101908008002C3F8E020D3F8E02002F080020492BD
:10191800049AD3F8E02042F00202C3F8E020D3F89A
:10192800E03003F002030593059B00F011FD054626
:10193800601C00F015FD227812210023012ACDE950
:101948000901CDE90B3301D804230D9309A92846D1
:10195800019103F00FFF3B4800F0FAFC05463948B7
:1019680000F0FEFC227800231224012A0199CDE917
:101978000904CDE90B3301D804230D93284603F05D
:10198800F9FE2A4BD3F8E82042F48002C3F8E82095
:10199800D3F8E83003F480030693069B0FB030BDFC
:1019A800294C601C00F0D4FC0546601C00F0D8FCF3
:1019B800227812210023012ACDE90901CDE90B3350
:1019C80001D804230D9309A92846019103F0D2FEFA
:1019D8001E4800F0BDFC05461C4800F0C1FC2278FA
:1019E80000231224012A0199CDE90904CDE90B331A
:1019F80001D804230D93284603F0BCFE0B4BD3F803
:101A0800E82042F40002C3F8E820D3F8E83003F4F1
:101A180000030793079B0FB030BD00BF0054004080
:101A280000580040005C0040001C00580044025868
:101A38008C1400248F1400247414002477140024B8
:101A48007C1400247F1400248414002487140024A8
:101A5800184BF0B5197983B0012929D00022114615
:101A68000024154802230125144F4BF680360192B5
:101A7800009107600662C461114EC460C0E9013577
:101A8800C0E90544C0E90B4401F0B2FC0D4802234B
:101A98004461C461C46044630660DDE90012C0E9C2
:101AA8000154C0E90B4403B0BDE8F04001F0A0BC0C
:101AB8000222D5E79C140024B4160024045C0140DB
:101AC800245C0140A415002470B5254D82B0E97846
:101AD800012936D000226B7A1146002B35D0012B14
:101AE8003AD16B791F48002B0CBF032302234360B4
:101AF80000244BF68036022306628460C461C46009
:101B0800C0E90544C0E90B441648CDE9001201F0CC
:101B18006FFCEB7914480125A3424FF0020344619E
:101B28000CBF03260226C4614660C4604463856016
:101B3800DDE90012C0E90B4402B0BDE8704001F0D5
:101B480057BC6B7A0222002BC9D16B790548B3FACE
:101B580083F35B094360CBE7024801234360C7E78F
:101B68009C1400244C1900244C170024F8B5194F74
:101B7800044600F1200C3E462068103454F80C1C32
:101B8800354654F8082C103654F8043C64450FC503
:101B9800F2D12378104A3370104C11493B78114D1B
:101BA8001460012B104804F58064104A0D60104938
:101BB8000460116005D0022B01D033B1F8BDFFF7E6
:101BC80083FFBDE8F840FFF743BFBDE8F840FFF7E3
:101BD8007BBF00BF9C1400244C190024045801400A
:101BE8004C17002424580140B4160024A4150024DE
:101BF800245C0140B14BD3F8E02042F010022DE9FB
:101C0800F04FC3F8E02093B0D3F8E0200446AC4D81
:101C180002F010020092009AD3F8E02042F002028B
:101C2800C3F8E020D3F8E02002F002020192019A02
:101C3800D3F8E02042F04002C3F8E020D3F8E020D7
:101C480002F040020292029AD3F8E02042F0080221
:101C5800C3F8E020D3F8E02002F008020392039AC8
:101C6800D3F8E02042F00402C3F8E020D3F8E020E3
:101C780002F004020492049AD3F8E02042F0010230
:101C8800C3F8E020D3F8E02002F001020592059A9B
:101C9800D3F8E02042F48072C3F8E020D3F8E010D3
:101CA800026801F48071AA4206910699D3F8E010FF
:101CB80041F08001C3F8E010D3F8E01001F0800192
:101CC80007910799D3F8E01041F02001C3F8E0101C
:101CD800D3F8E01001F02001089108990CD0794B55
:101CE8009A4200F00781784B9A423AD0774B9A4251
:101CF80075D013B0BDE8F08F754A1168002900F05F
:101D08006E810025DFF8E89101310DF1340809EB07
:101D1800450A2F465FFA85FB1160504615B96D4B91
:101D2800597AA9B900F014FB0646504600F018FB92
:101D380002230146062230461192CDE90D13414691
:101D4800CDE90F7703F016FDBBF1040F00F00E810B
:101D5800013509EB450A5FFA85FB5046002DDED0B8
:101D6800E0E75D4B1A6862B95449D1F8F00040F4D5
:101D78000000C1F8F000D1F8F01001F400010B9157
:101D88000B9961680132554D4FF4804021F00201F2
:101D98001A60534A4FF4805301294FF059072A60BB
:101DA8004FF480710CBF002240226B614FF48066B3
:101DB8000023AA604FF40032A8612846EB606B62EA
:101DC8006F602E61C5E9071203F0B8FF22683F4B28
:101DD800C4F884509A42AC63C4F8805089D13E4B11
:101DE8001A68002A00F0ED8000253E4E01320DF100
:101DF8003408A9464FF0020A30465FFA85FB1A609C
:101E0800CDB9344B9B7A7BB900F0A2FA074630462D
:101E180000F0A6FA0A230D901095CDE90EA53846D4
:101E28004146119303F0A6FC013502365FFA85FBA3
:101E38003046002DE5D000F08BFA0746304600F01A
:101E48008FFABBF1020F02464FF00A0341463846AB
:101E5800CDE90D2ACDE90F9900F0B180119303F077
:101E680089FCBBF1040FDFD163685A221E4D4FF481
:101E7800806623F002031D496A604FF48052012BEB
:101E88004FF4804029604FF480710CBF0023402339
:101E9800A8612846AB600023C5E904624FF400320C
:101EA800EB606B62C5E9071203F048FFC4F8845081
:101EB800AC63C4F8805013B0BDE8F08F00440258FA
:101EC8000458014024580140045C0140245C01404E
:101ED800941400249C14002498140024D41800247A
:101EE80058000240B31400243C160024700002403D
:101EF800A9140024404A136863B94049D1F8F00096
:101F080040F48000C1F8F000D1F8F01001F480012D
:101F18000A910A9961680133394D4FF4804021F0E4
:101F280002011360374A4FF4805301294FF05807D4
:101F38002A604FF480710CBF002240226B614FF47D
:101F480080660023AA604FF40032A86128466F60BB
:101F58002E61EB606B62C5E9071203F0EFFE2268A1
:101F6800C4F88450AC63C4F88050BCE66368572258
:101F7800254D4FF4806623F0020324496A604FF42C
:101F88008052012B4FF4804029604FF480710CBFC0
:101F980000234023A8612846AB600023C5E90462FA
:101FA8004FF40032EB606B62C5E9071203F0C6FE1E
:101FB8002268C4F88450AC63C4F880508FE60823C4
:101FC8002DE70E49D1F8F00040F40000C1F8F00008
:101FD800D1F8F01001F400010C910C9904E7D3F842
:101FE800F00040F48000C3F8F000D3F8F03003F4B8
:101FF80080030993099B84E6941400240044025842
:102008005C18002428000240E41700241000024055
:1020180010B5837886B00446022B22D0032B1ED03D
:10202800012B1CD000230293E378012B15D0022B3F
:1020380013D00023039300232046049300F088F96B
:10204800034620461C4600F08BF901A903462046AA
:10205800019303F08FFB06B010BD0393EBE70293E7
:10206800E2E711230293DFE738B5054600F070F97F
:102078000446284600F074F901462046BDE8384079
:1020880003F06ABD70B506460D4600F061F90446D6
:10209800304600F065F92A1E0146204618BF012285
:1020A800BDE8704003F05EBDF0B5194BC827194E66
:1020B80002224FF0804403F10C050021002089B072
:1020C8009A60DC60802200245A620194C3E90067A8
:1020D8004FF0FF360027C3E90401C3E90667284625
:1020E800CDE90444CDE90644CDE9024401F0E2FB20
:1020F8004FF4805304A92846049301F08FFC01A9EA
:1021080028460194039401F047FD09B0F0BD00BFD3
:10211800C0140024400D0300014801F063BC00BF57
:10212800CC1400240368B3F1804F00D07047084BEB
:1021380082B0D3F8E82042F00102C3F8E820D3F8CF
:10214800E83003F001030193019B02B0704700BF20
:1021580000440258B6EE007A016060EE200A02766A
:10216800F7EE007A437680ED020A60EE870AC0ED4A
:10217800047A87EEA07A10B40024C46044615DF844
:10218800044B80ED017A704730B5044685B04FF4B2
:1021980080751030ADF80820ADF80C100180A282CF
:1021A8006582E5828DED000AADF80430FFF730FF57
:1021B80004F11400FFF72CFF9DED000A2046019959
:1021C80000F084F800224FF6FF73E261238305B024
:1021D80030BD00BF70B5067E044610307600FFF7AC
:1021E80043FF034676B2657E04F114001E436D007A
:1021F80026766DB2FFF738FF034620461D43657605
:1022080000F080F8237E002203F00303E261022B32
:1022180006D0627E02F00302022A00D133B170BDFB
:10222800637E9B07FBD10123E36170BD4FF0FF3351
:10223800E36170BD30B585B004469FED110A9DF885
:102248002050ADF80C100399ADF808202A468DED02
:10225800000AADF8043005F073FB9DED000A2A462C
:1022680004F11C00029905F06BFB9DED000A2A465B
:1022780004F13800019905B0BDE8304005F060BBB5
:1022880000007A4438B50C46054691ED000A05F081
:102298007BFB94ED010A05F11C0005F075FB05F1C7
:1022A800380094ED020ABDE8384005F06DBB00BF68
:1022B80010B5044605F07AFB04F11C0005F076FB26
:1022C80004F13800BDE8104005F070BBB7EE007AA5
:1022D80001220346C7EE007A70B4002683B0C1F32A
:1022E80007250024ADF80410C660417010449D70A5
:1022F800DC701A709A809A71C3ED027A03B070BCD0
:10230800FFF786BE38B54479054683790130640005
:1023180064B2B3B1FFF7A8FEB0FA80F35B092343B8
:10232800DBB2A3F17F026B71012A0ED9FF2B07D113
:10233800D5ED037A95ED027A77EE877AC5ED037AC3
:1023480038BDFFF791FE43B2E9E70023EB6038BDE3
:10235800024B027853F82200704700BFB489000886
:10236800024B427833F81200704700BF9489000886
:1023780010B485B00478074B0DF1100C0FCB0CEBA3
:1023880084040CE90F0054F8100C05B05DF8044BF8
:10239800704700BF34890008074B01EB410103EB8C
:1023A800810110B44A680C688B68046042605DF86B
:1023B800044B8360704700BFE4890008F0B5002231
:1023C80083B0019290F85020012A00F01B81034647
:1023D80001201A6883F850009468660700F1898024
:1023E8000C68C4F31305002D40F08E80C4F3846C90
:1023F80000FA0CF04C681F26D569A7093440284319
:1024080002F1300507F00C07A640D0610CFA04F47D
:10241800785920EA0600204378519068450771D41E
:10242800956815F0080548D10C6802F114060720D4
:102438008F684FEAD45CC4F304540CF0040C00FA1F
:1024480004FE07FA04F4C64F5CF8060020EA0E0002
:1024580020434CF80600386800F07040B0F1805F07
:1024680000F0C880D068D66810F0100F486940F0B6
:10247800E980C6F38206760000FA06F60F69042F93
:1024880000F0C38002F16004086854F827C000F027
:10249800F8400CF0004C40EA0C00304344F82700A8
:1024A8000E694F7E54F82600012F20F0004008BF27
:1024B8004FF00045054344F826509068C40716D4E9
:1024C800CE68086806F01807A64CD2F8C050FC4041
:1024D800C0F31307DFF8B8C2044025EA07056645CC
:1024E80044EA0504C2F8C04046D0002816DB0020A4
:1024F80003E05A6D42F020025A65002283F850200A
:1025080003B0F0BD9068D8E794FAA4F5B5FA85F55C
:10251800C4F3846C05F01F04A0406BE792498A421B
:1025280000F0B68001F580718A4200F0B1808F4ECC
:102538008F4DA968B46801F0E076E44304F0010423
:10254800002C00F0B3808B4CA04200F0E6808A4C4F
:10255800A04200F01F81894CA042C8D14902C6D4CC
:1025680082498A42C3D1AA68002022F0E07232432D
:1025780042F48002AA60C0E7002F69D090FAA0F464
:10258800B4FA84F4013404F01F04092C00F2A38087
:1025980090FAA0F4B4FA84F490FAA0F50126B5FAFA
:1025A80085F501343544A40605F01F0504F0F84408
:1025B80006FA05F52C4390FAA0F0B0FA80F0304402
:1025C80000F01F0000EB400000052043C70D02F19A
:1025D8001405C0F304504FF0070C07F004078E6889
:1025E8000CFA00FC7C59864024EA0C0030437851F0
:1025F80008687AE7D6684869C6F38206760000FA62
:1026080006F63BE7022003B0F0BD106E0D6800F03F
:10261800F840AC06B0EB856F30D0506E00F0F84053
:10262800844226D0906E00F0F84084422BD0D06EC1
:1026380000F0F84084427FF440AFD06E20F00040B4
:10264800D0663AE7760806F0080600FA06F615E7B7
:10265800800E441C04F01F06092E2DD8A40601255F
:1026680006EB460004F0F84405FA06F60005344384
:10267800ABE7506E20F000405066D3E7106E20F0B4
:1026880000401066C9E7906E20F000409066CEE7E3
:102698003B49354E3B4C0D468968B768A46801F044
:1026A800E0763C43E44304F0010449E75A6D012015
:1026B80042F020025A6520E706EB46000127A506EE
:1026C8001E3807FA06F605F0F8450005354340F0D0
:1026D800007028437AE790FAA0F5B5FA85F590FAE4
:1026E800A0F40126B4FA84F401353444AD0604F0AC
:1026F8001F0405F0F84506FA04F4254390FAA0F4FF
:10270800B4FA84F4344404F01F0404EB4404A4F140
:102718001E00000540F00070DBE708023FF5E7AE59
:1027280012498A427FF4E3AE174AA968126817482B
:1027380021F0E07192093143A0FB020241F400014B
:102748009209A96052000192019A002A3FF4CFAE83
:10275800019A013A0192019A002AF9D1C7E600BF0D
:102768000010005CFFFF0F000020024000600258CC
:1027780000630258000084CB000052C70000B8CFA5
:10278800002302400021024004000024632D3E057E
:102798000000FF4711F080707FF4A9AE05498A4216
:1027A8007FF4A5AEAA6822F0E072324342F080724C
:1027B800AA60A2E60060025838B55A4A044603687F
:1027C800934249D002F58072934245D0564B9B689C
:1027D80013F4403F14BF01230023EBB101F062FE64
:1027E80063680546B3F5003F00F08B80B3F5403FC2
:1027F80073D0B3F5803F00F0848004F06BF941F2A8
:10280800030398421FD8494B9D4260D922689368B8
:1028180043F48073936038BD4FF4002002F0C8FE83
:1028280063680546B3F5101F75D01DD9B3F5201F91
:102838005BD0B3F5301FE0D104F04CF941F203034B
:10284800984244D92D0A3A4B9D422ED82268936863
:1028580023F44073936038BD364B9B6813F4403FB4
:1028680014BF01230023B8E7B3F5E01F3FD004D914
:10287800B3F5001FC1D14509BFE7B3F5801F06D0E6
:102888000AD9B3F5A01F02D0B3F5C01FB5D19B0C70
:102898005B00B5FBF3F5B0E7B3F5002FF7D023F4F1
:1028A8000022B2F5802FF2D0A7E7234B234A2B440E
:1028B80093421ED9224B234A2B44934222689368A1
:1028C8002BD823F4407343F40073936038BD226817
:1028D800936823F48073936038BD850804F0FAF890
:1028E80041F203039842AED88DE7C50985E705098B
:1028F80083E72268936823F4407343F480739360FA
:1029080038BD1B0CB5FBF3F504F0E4F841F2030302
:10291800984298D877E785096FE743F44073936046
:1029280038BD00BF0020024000630258002D31016D
:10293800105E5F0000230240EFA1A0FF0F5E5F0062
:10294800DF4341FF1FBCBE0070B5002382B0019376
:10295800002800F0CF80456D0446002D00F0B980B6
:10296800226893689D0003D59168704B0B40936073
:102978009368D80015D46E4B90681B686D4D9B0901
:102988006D49A5FB035301409B0941F080519160BB
:102998000193019B2BB1019B013B0193019B002BF0
:1029A800F9D19368D90024D4636D012543F010034D
:1029B8006365A36D2B43A365936813F0040F636DE0
:1029C8001DD1DB061BD4636D23F4817343F002032E
:1029D80063659368DE0728D4584B9A4217D003F5ED
:1029E80080739A4213D0564B9B68D9071DD4554A19
:1029F80015E09368002513F0040F636DE1D0636D53
:102A0800012543F010032846636502B070BD4B4AA8
:102A18004D4B92689B681343D80706D44B4A93687A
:102A2800616823F47C130B43936004F053F841F27C
:102A38000303A1689842237F51D8667D1A04206B4E
:102A480042EA463202430A43012B03D1236A013B7F
:102A580042EA4342636A23B103F47873A16A0B43E1
:102A68001A4323683A49D86801400A43DA609A68E9
:102A780012F0040F9A681CD112071AD4D968354A83
:102A8800207D0A40E16A42EA80320A43DA6094F81B
:102A98003820012A3AD01A6922F001021A611A690B
:102AA8002046616B22F070420A431A61FFF784FEE8
:102AB8002368E268012A21D01A6B22F00F021A63F8
:102AC800636D284623F0030343F00103636502B0F6
:102AD80070BDFEF717F9A56584F8505040E7102936
:102AE800ABD1607D1A04216B42EA40320A4342F0BE
:102AF8001C02A9E70125284602B070BD196BA2691E
:102B080021F00F01013A0A431A63D9E71869124EF6
:102B1800D4E910210640A06C0A43E16B324302431A
:102B280042EA014242F001021A61B8E7C0FFFF5FC2
:102B380004000024632D3E05C0FFFF6F0020024003
:102B4800006002580063025800210240002302403E
:102B580003C0F0FFFCBFFFFF1EF800FCF0B490F8C4
:102B680050200E68012A49D00346294A01201C68D2
:102B780083F85000944208D05A6D002142F0200298
:102B880083F850105A65F0BC7047224DAA68520766
:102B98000AD5A2685A6D012042F020025A65002227
:102BA80083F85020F0BC7047A06810F00400F1D101
:102BB800C6B1DFF868C04F68DCF8082022F440424C
:102BC8003A43CCF80820A468AA682243D40713D44F
:102BD8008A68DCF808401049164321400E43CCF8B7
:102BE8000860DCE70D498A6822F440428A60A068E0
:102BF800AA680243D00704D50020D0E70220F0BC21
:102C080070478C683046044A22408A60C7E700BF94
:102C18000020024000210240E0F0FFFF00230240B4
:102C280070B504460D4616466A1C23682CD19A696D
:102C3800900727D49A69D106F9D59A699106FCD5E7
:102C480020221021D961DA619A69900701D5002202
:102C58009A629A69D10703D49A6942F001029A618B
:102C68005A6800211B4E2025012032405A60636CAF
:102C780084F8401043F00403636484F8415084F8F6
:102C8800421070BD002070BD9A699207FAD49A6903
:102C9800D0061BD403F006FF801BA84201D8002DE4
:102CA800C2D1636C2021002201200B4384F840200C
:102CB800636484F8411084F8422070BD03F0F2FE8A
:102CC800801B8542EDD3002DEBD0236899698A06D5
:102CD800F4D5B5E700E800FE70B504460D46164683
:102CE800236899698A0649D49969CA0626D5681C51
:102CF80038D19A699106FCD520221021D961DA6170
:102D08009A69900701D500229A629A69D10703D47B
:102D18009A6942F001029A615A680021184E2025EA
:102D2800012032405A60636C84F8401043F0040379
:102D3800636484F8415084F8421070BD03F0B2FE19
:102D4800801BA84201D8002DCAD1636C2021002223
:102D580001200B4384F84020636484F8411084F810
:102D6800422070BD9A699206C6D403F09BFE801B70
:102D78008542EAD3002DE8D02368B8E7002070BD6B
:102D880000E800FE00284DD0F8B590F84130044620
:102D980003F0FF02002B40D02421E068D4E9003280
:102DA80084F841100128196822F0706221F00101AD
:102DB80019601A619A6822F400429A60A26828D0C1
:102DC80042F4044202289A6002D14FF400625A6029
:102DD8005A68002114482027A6691043D4E904251D
:102DE80058602A43D868E56942EA0622266A20F430
:102DF80000403543D8600846DA601D601A6842F022
:102E080001021A60616484F84170216384F84210F9
:102E1800F8BD42F400429A60DAE780F84020FEF7F5
:102E2800C3FCB9E701207047008000022DE9F04794
:102E3800984690F84130089E202B40F08A8090F800
:102E480040300446012B00F0848001238946174650
:102E580080F8403003F026FE054604E003F022FE29
:102E6800401B192878D82368986910F40040F5D1D8
:102E780010222121676284F8411084F8422060649E
:102E8800A4F82A80628D606392B2FF2A72D8618D9D
:102E9800C9F309075A68DFF838C189B24A4802EA13
:102EA8000C025FFA81FC21853A4342EA0C42104346
:102EB8005860DFF824814FF0FF0ADFF82091638D16
:102EC8002A46314620469BB2002B30D0FFF7A8FE99
:102ED800002875D1606A216810F8012B238D8A6259
:102EE800628D013B6062013A9BB292B22385628592
:102EF800628D92B2002BE2D1002AE0D0701C45D13D
:102F08008B691A06FCD5638D9BB2FF2B4AD94B6897
:102F18002A46A4F828A0204603EA08033B4343EACC
:102F280009034B603146638D9BB2002BCED1FFF76E
:102F3800D3FE002844D123682021244DD9615A6842
:102F48002A405A6084F8411084F8400084F842000E
:102F580000E00220BDE8F087636C202100220120F8
:102F68000B4384F84020636484F8411084F84220BD
:102F7800BDE8F0875A68C9F309071549FF200A40D8
:102F8800144920853A431143596092E78B691B061F
:102F9800B9D403F087FD401B8642DDD3002EDBD079
:102FA8002168ABE7628D4B6892B203EA0803D0B29E
:102FB800228543EA00433B4343F000734B607EE7BE
:102FC8000120BDE8F08700BF0020008200E800FE75
:102FD800009800FC0020FF81009C00FC0000FF011D
:102FE80090F84120202A21D1034670B4D5B290F838
:102FF8004020012A1CD01A682420002683F84100AA
:103008001468304624F001041460146824F48054D1
:103018001460146821431160116841F001011160C6
:1030280083F8415083F8406070BC704702207047B5
:10303800022070BC704700BF90F84120202A20D1A0
:10304800034670B4D6B290F84020012A1BD01A6803
:103058002420002583F841001468284624F0010440
:103068001460146824F4706444EA01211160116842
:1030780041F00101116083F8416083F8405070BC51
:10308800704702207047022070BC7047B24B01683D
:1030980099422DE9F04105461FD0203399421CD0B2
:1030A80003F57873994259D02033994256D003F5E5
:1030B8007873994200F020812033994200F01C81F6
:1030C80095F89130A54E03F0FF026BB9284685F8B4
:1030D8009020FEF78FFD296806E0A14E95F8913003
:1030E80003F0FF02002BF1D09E4B9F481B680A6833
:1030F800A0FB030322F480321B0B0A609B0023B35E
:103108000C68013B14F48034F9D1EB680222012BDE
:1031180085F8912000F01A81934219BF17460320C1
:103128002320222715BF4FF0010C4FF0210C00225D
:103138002022AB68013B042B00F25781DFE813F033
:10314800D1001100D8001000D400D5F89430012027
:1031580043F04003C5F89430BDE8F081834EBDE7E5
:103168003A464FF400682B6A3260002B44D07A4B01
:10317800994200F029817E48081AB0FA80F0400987
:10318800002840F021817B4B994200F017812033C1
:10319800994200F01381784B994200F0098120335D
:1031A800994200F00581754B994200F01381744BE8
:1031B800994200F01581AB69B3F5002F00F0EE805D
:1031C800AB6A00EB80002A6AB3F1806F4FEA4003D4
:1031D8000CBF0221012102FB01F21202B3FBF2F340
:1031E800684AA2FB0312D20802EB8201A3EB410357
:1031F800092B08BF01326A626B6833F002032B6D3A
:1032080040F09F80012B14BF4FF40074002403F09A
:1032180061FC6B68B0F5005FD5E9111243EA010360
:103228007FD31A43EB6CE96A1A43A8692B680A43EF
:103238006969AF6A0A431968D5F824C0024352483D
:103248003A430840296918600A4319684FF2200078
:103258004E4F0A4342EA0C5242EA080222434C4CBF
:103268001A605968EA690C40296B11436A6B5C6003
:1032780011435C686A6E2143EC6D22432C6E5960E1
:10328800224399686C6D0F40A96D013C01399F601C
:1032980022439C6842EA0122A96E2243EC6E9A609E
:1032A80041EA0402D9686C6F0840296F42EA044277
:1032B800294C0139D860D868A34242EA012242EA7F
:1032C8000002DA601AD02D4A934217D00023012257
:1032D800C5F89430184685F8903085F89120BDE8F7
:1032E800F0814FF480683EE702464FF400683AE701
:1032F80062464FF4006836E7264EEFE6736C23F01B
:103308000103736495F83830012BDFD1D5E90F2319
:10331800013A43EA02137364736C43F00103736464
:10332800D4E7E96C1A4368690A43E96A2B680A43D7
:10333800AF691968024318483A430840D5E909C1FA
:1033480081E7012B08BF4FF4007460E713201227B0
:103358004FF0110C1022ECE60458014000540058BC
:1033680000580140040000241BECCB95005C014090
:1033780024580140045C0140046001400454005892
:1033880024540058CDCCCCCC10C005F00080F8FFF8
:10339800F01FFFFF0060014010C005F800EB80003F
:1033A800296A6A6D430002FB01F2B3FBF2F317E7E7
:1033B8004FF4007002F0FCF82968F4E64FF400704E
:1033C80002F0F6F82968E6E64FF4807002F0F0F8AB
:1033D8002968D8E64FF4806002F0EAF82968E6E642
:1033E8004FF4006002F0E4F8E5E64FF00008BAE6B2
:1033F8000229F8B5044635D9C81E012830D86568B1
:1034080000204FF40036236735F002054FF480257D
:1034180060640CBF0127074604294FF6FF71276532
:103428000CBF01270D27E064E065A765A06661670A
:10343800C4E91865032A13D8DFE802F0484F553766
:1034480023684B4A934205D002F1C052A2F582325A
:10345800934205D16368012B02D1636C002B30D0F5
:103468000120F8BD45680020236735F00205606437
:10347800E0644FF4803508BF0646A0664FF6FF703B
:1034880018BF0126E565606713F001002665E7D1DE
:103498004D1E012D2ED84FF40035C4E91850032ACB
:1034A800DED8DFE802F05A4B3B315B01E021802295
:1034B8006365A164E26603F00DFB94F83830012BD4
:1034C800BED02046BDE8F840FFF7E0BD1B018021D3
:1034D80040226365A164E266EDE780225B01A26495
:1034E8006365E266E7E75B01C02180226365A1644A
:1034F800E266E0E74FF48025C4E91805032AAFD84F
:10350800DFE802F02B1C0C025B08E02080219A0106
:10351800A0645B01E166C4E91523CCE75B08C0251C
:10352800802002294FEA8312A5644FEA4313E0661C
:10353800C4E91523BFD10823A366BCE75B08802232
:1035480002294FEA8310A2644FEA4313E266C4E9F2
:103558001503B0D11023A366ADE75B088020402196
:103568005A01A0641B01E166C4E91523A3E700BF63
:10357800045801402DE9F8430F460446154603F068
:1035880091FA002F62D0B5FA85F84FEA5818002D45
:103598005CD094F89130012B5FFA83F951D194F8FB
:1035A8009030012B4DD0424606464FF0120CD4F80D
:1035B800800065F30F022B46C4F89480394665F302
:1035C8001F42324D84F89090E267314AA76784F829
:1035D80091C00564C2642F4D2268C0F850801C3227
:1035E800C56302F075FD00283ED1636C082B636843
:1035F80031D0052161202268023B012B98BF01468A
:1036080013690B431361136843F40033136006E036
:1036180003F048FA831BB3F57A7F2AD822685569E4
:1036280015F4E025F4D01368DB0303D4136843F4DE
:10363800803313604FF00009484684F89090BDE845
:10364800F8834FF002094846BDE8F8834FF00109B6
:103658004846BDE8F88323F00202012A0BBF152172
:10366800052171206120C6E7484684F89080BDE8AE
:10367800F883D4F894304FF0030984F8905043F05D
:1036880040034846C4F89430BDE8F883D5370008AD
:103698005138000871370008F8B500294FD0B2FA40
:1036A80082F513466D09002A49D090F89120044606
:1036B800012AD6B240D190F89020012A3CD02F465A
:1036C80080F8906081674FF0220C63F30F07C0F811
:1036D80094500A46D0F8840063F31F471E4984F8C3
:1036E80091C0E76701641D491D4FC16421680565E4
:1036F8001C31C76302F0ECFCD0B923681A68D20306
:1037080003D41A6842F480321A60626C082A62682C
:1037180018D005206125023A1969012A98BF284660
:10372800002501432E4619611A6842F400321A60D6
:10373800304684F89050F8BD02263046F8BD012680
:103748003046F8BD22F0020101290BBF15200520E3
:1037580071256125DFE700BF4138000851380008AE
:10376800E1370008704700BF38B5C369806BB3F50F
:10377800807F19D003680024416C1A680829A0F8D2
:103788007E4022F400321A60426810D06FF0610562
:103798006FF00504023A1969012A98BF2C460125E1
:1037A8002140196180F89150FFF7DCFF38BD22F005
:1037B800020101290BBF6FF071056FF061056FF011
:1037C80015046FF00504E5E7704700BF806B08B586
:1037D800FFF7FAFF08BD00BF38B5C369806BB3F5C2
:1037E800807F19D003680024416C1A68082922F4E4
:1037F80000321A604268A0F87E4010D06FF0610570
:103808006FF00504023A1969012A98BF2C46012570
:103818002140196180F89150FDF742FF38BD22F030
:10382800020101290BBF6FF071056FF061056FF0A0
:1038380015046FF00504E5E7806B08B5FDF71AFF7E
:1038480008BD00BF704700BF10B5846B03F0C6F811
:10385800022823D0D4F89420216842F08002134B28
:103868001348C4F894201B680A68A0FB030322F4D9
:1038780000321B0B0A600A689B0022F480320A603F
:103888006BB10A68013BD203FAD401220023204617
:1038980084F89120A4F87E30FFF7D4FF10BDD4F847
:1038A800943043F04003C4F89430EEE70400002459
:1038B8001BECCB95002800F08680F8B590F83D30D9
:1038C800044603F0FF02002B5FD0226802233F4921
:1038D800B2F1804F84F83D30A2EB01011368B1FAD0
:1038E80081F14FEA511126D029BB3948824222D0B2
:1038F80000F5806082421ED0364F374DD71BAA4252
:10390800B7FA87F74FEA571744D0002F42D1334808
:1039180033498A4218BF824247D001F580618A4202
:1039280043D0A16923F08003E0680B43616813600A
:10393800D062916223E0274F23F07003A568D71B5C
:103948002B43B7FA87F77F09206923F44073A569E9
:103958000343E668606823F080032B431360D66254
:10396800906251B94FB91D491D4B9A4218BF8A42FE
:1039780003D003F580639A4201D16369136301237D
:103988000020536184F83D30F8BD80F83C20FEF7F4
:10399800C9FB9AE7104823F07003A568824243EAFE
:1039A8000503D1D0002FCFD1B1E7216923F44073AB
:1039B800A5690B43E068616823F080032B4313601B
:1039C800D0629162CFE70120704700BF000001403C
:1039D8000004004000040140000C00400040014089
:1039E8000044014010B4016802240B4A034680F8E1
:1039F8003D4088680240062A06D0B2F5803F03D0D1
:103A08000A6842F001020A600122002083F83D2082
:103A18005DF8044B704700BF0700010090F83C3088
:103A2800012B7DD0024602230068F0B4012482F8FD
:103A38003D3082F83C40544C85680B682C40602B24
:103A480084606FD01DD9B3F5005F59D042D94F4972
:103A58008B4206D038D94E498B4202D010318B4266
:103A680006D184684B4921400B4343F00703836028
:103A780000230121184682F83D1082F83C30F0BC42
:103A88007047402B67D019D9502BF1D1036A056ACA
:103A98004C6823F00A0325F00105CE681C433D4B12
:103AA8000562816921F0F00141EA06118161046231
:103AB80081680B4043F057038360D9E7202BD0D0AF
:103AC8001AD9302BD4D1CCE723F01001B1F5801FDF
:103AD800CED1C6E7702BCBD1CC68D1E90153816830
:103AE8002B4321F47F4143EA04230B43836083681B
:103AF80043F077038360BBE733F01001B8D1B0E738
:103B0800D1E90153CC682B43816843EA042321F4AB
:103B18007F410B438360836843F480438360A7E756
:103B280002207047056A4E6825F01005CF68194BCA
:103B380005628469016A24F4704421F0A00144EA12
:103B4800073441EA06118461016281680B4043F041
:103B5800670383608CE7036A056A4C6823F00A03ED
:103B680025F00105CE681C430A4B0562816921F0E6
:103B7800F00141EA06118161046281680B4043F05B
:103B88004703836074E700BF8800CEFF2000100061
:103B9800300010008FFFCFFF90F83C20012A26D07C
:103BA8000222034670B40468124D80F83D20AC42EE
:103BB8006268A06816D005F58065AC4212D00D6821
:103BC80020F08000896822F0700201262A43014310
:103BD800002562602846A16083F83D6083F83C5068
:103BE80070BC704722F470024D682A43E7E7022050
:103BF800704700BF00000140002800F0EA81F8B5D6
:103C080003680446D9072ED5B2490A69896A02F0C1
:103C18003802102A00F00481182A00F0FC8063683A
:103C2800B3F5803F00F02481002B00F06281B3F5EA
:103C3800A02FA84B1A6800F03C8222F480321A6048
:103C48001A6822F480221A6002F02CFFA14E054661
:103C580005E002F027FF401B642800F24881336822
:103C68009B03F6D52368980700F18980D90630D5DB
:103C7800984A1369926A03F03803082B00F0E08031
:103C8800182B00F0D880E369002B00F06F81914B6E
:103C98001A681E4642F080021A6002F003FF0546C9
:103CA80005E002F0FFFE401B022800F22081336885
:103CB800DB05F6D502F00EFF41F20303984200F24D
:103CC8001A827368226A23F0F84343EA82637360B6
:103CD80023681D0717D56369002B00F021817D4BF0
:103CE8005A6F1E4642F001025A6702F0DBFE054693
:103CF80005E002F0D7FE401B022800F2F880736F3F
:103D08009807F6D523689A0617D5A369002B00F003
:103D18001A81704B1A681E4642F480521A6002F0EB
:103D2800C1FE054605E002F0BDFE401B022800F278
:103D3800DE8033689F04F6D52368590700F19E801A
:103D4800636AD3B1634A116901F03801182970D048
:103D5800022B1368154623F08073136000F043812B
:103D680002F0A0FE044605E002F09CFE001B0228BB
:103D780000F2BD802B689B01F6D40020F8BD554A9F
:103D88001369926A13F038032AD1524BE1681B6811
:103D98005A0701D500294CD04E4A1368164623F01D
:103DA80019030B43136002F07DFE054605E002F09F
:103DB80079FE401B022800F29A8033685B07F6D52B
:103DC80002F088FE41F2030322699842736800F208
:103DD800F98023F47C3343EA02337360236845E7B0
:103DE800182B00F0EB80E268002A00F0D3803949F4
:103DF8000B680E4623F0190313430B6002F052FEC2
:103E0800054604E002F04EFE401B02286FD83368D6
:103E18005F07F7D5D4E701F0030102297FF4FFAE6D
:103E28002C4A126892037FF51EAF6268002A7FF45D
:103E38001AAF0120F8BD02F00302012A7FF423AF74
:103E4800244B1B68DA0502D5E369802BF1D102F017
:103E580041FE41F203031F4A9842216A00F2BB80E7
:103E6800536823F0F84343EA81635360236830E7DB
:103E7800184A136843F480331360E5E6164B1A6852
:103E88001E4642F480721A6002F00CFE054604E0F9
:103E980002F008FE401B642829D83368DA05F7D5F4
:103EA800A368012B00F03081002B00F00A81052B5C
:103EB800084B1A6F00F02E8122F001021A671A6F60
:103EC80022F004021A6702F0EDFD024E41F2883733
:103ED800054608E0004402580048025802F0E2FD96
:103EE800401BB84203D8336F9B07F7D528E7032058
:103EF800F8BD8C4B1A681E4622F480321A601A6884
:103F080022F480221A6002F0CDFD054604E002F09A
:103F1800C9FD401B6428EAD833689F03F7D4A1E69B
:103F2800804B5A6F1E4622F001025A6702F0BAFD12
:103F3800054604E002F0B6FD401B0228D7D8736F8F
:103F48009907F7D4DEE6774B1A681E4622F48052AA
:103F58001A6002F0A7FD054604E002F0A3FD401B2D
:103F68000228C4D833689804F7D4E5E66D4B1A687C
:103F78001E4622F080021A6002F094FD054604E015
:103F880002F090FD401B0228B1D83368DF05F7D452
:103F980023689EE6634B1A681E4622F001021A60E7
:103FA80002F080FD054604E002F07CFD401B02287B
:103FB8009DD833685807F7D4236857E691077FF4EC
:103FC80012AFE2E623F0FE4343EA0263736023681C
:103FD8004CE601207047D36823F07C5343EA016321
:103FE800D360236875E602F05DFD064605E002F041
:103FF80059FD801B02283FF67AAF2B689901F6D449
:10400800AA6A494BA06A1340E26A48490343454EED
:1040180043EA0213AB62276BD4E90D32013F501E0D
:10402800013BE26BC7F308075B020004013A9BB24D
:1040380000F4FE001206034302F0FE423B43134322
:104048002B63EB6A23F00103EB626A6BA36C1140EC
:1040580041EAC3016963EB6A226C23F00C03134342
:10406800EB62EB6A626C23F002031343EB62EB6AC8
:1040780043F48033EB62EB6A43F40033EB62EB6AA0
:1040880043F48023EB62EB6A43F00103EB622B6895
:1040980043F080732B6002F005FD044605E002F052
:1040A80001FD001B02283FF622AF33689A01F6D5BE
:1040B80063E642F480221A601A6842F480321A6079
:1040C800C2E5184B41F288371A6F1E4622F00102EA
:1040D8001A671A6F22F004021A6702F0E3FC054619
:1040E80005E002F0DFFC401BB8423FF600AF336F3B
:1040F8009807F6D424E6F368226A23F07C5343EA4F
:104108000263F3602368E4E5064A136F43F0010392
:104118001367D8E642F004021A671A6F42F00102E8
:104128001A67D0E6004402580CFCFFFF0700FFFFA7
:10413800474A136903F03803102B04D0182B0DD00D
:104148001BB14448704744487047136899064AD5DC
:1041580013684248C3F3C103D8407047936A30B428
:10416800946AD16A14F47C7FC4F30510556B38D077
:10417800C5F3CC0501F0010103F0030301FB05F1D0
:10418800012B07EE901AB8EEE77A02D0022B2CD05A
:1041980093B307EE900A9FED325AF8EEE77A136B65
:1041A800C5EE276ADFED2F5AC3F3080307EE903AEE
:1041B800B7EE006AF8EEE77AE7EE257A77EE867AC8
:1041C80066EEA76A224B1B6BC3F34623013307EE47
:1041D800903AB8EEE77AC6EE877AFCEEE77A17EE01
:1041E800900A30BC70471D48704707EE900A9FED53
:1041F8001E5AF8EEE77AD2E713689B0620D51368B3
:1042080007EE900A1549B7EE005AC3F3C100F8EE5D
:10421800E77A136BC140DFED134AC3F3080306EED8
:10422800101A06EE903AB8EEC66AF8EEE66AC6EEDE
:10423800275AE7EE246A76EE856A66EEA56AC1E734
:1042480007EE900A9FED095AF8EEE77AA7E700BF54
:104258000044025800093D000024F4000090D003F7
:104268000024744A000000390024744B0024744C64
:10427800002800F00381874A136803F00F038B427C
:104288002DE9F04104460D460CD2136823F00F03C4
:104298000B431360136803F00F038B4202D0012015
:1042A800BDE8F08123685F070BD57B4920698A69DF
:1042B80002F07002904204D98A6922F07002024327
:1042C8008A611E070BD574496069CA6902F07002D9
:1042D800904204D9CA6922F070020243CA61D80622
:1042E8000BD56D49A069CA6902F4E062904204D90D
:1042F800CA6922F4E0620243CA6199060BD566498D
:10430800E0690A6A02F07002904204D90A6A22F04F
:10431800700202430A629A0740F1A2805E48E1688F
:10432800826902F00F02914204D9826922F00F02D9
:104338000A438261D80731D5574AA168936923F4A3
:1043480070630B43936161681368022900F09880D9
:10435800032900F08F80012900F0988058079ED526
:104368004D4A41F288381369174623F007030B4377
:10437800136102F097FB064605E002F093FB801BF1
:10438800404500F281803B69626803F03803B3EB73
:10439800C20FF2D12368990706D5E1683E488269C1
:1043A80002F00F028A425FD83A490A6802F00F0207
:1043B800AA420AD90A6822F00F022A430A600A6848
:1043C80002F00F02AA427FF46AAF5A070BD53249AE
:1043D80020698A6902F07002904204D28A6922F048
:1043E800700202438A611F070BD52B496069CA69AD
:1043F80002F07002904204D2CA6922F070020243AD
:10440800CA61DE060BD52449A069CA6902F4E062D4
:10441800904204D2CA6922F4E0620243CA619D064E
:104428000BD51D4AE169136A03F07003994204D25F
:10443800136A23F070030B431362FFF779FE164AE1
:10444800164C034692690F201549C2F30322A25C59
:1044580002F01F02D340BDE8F0410B6002F0C2BA7F
:10446800DA073FF569AF9FE7826922F00F0211432F
:10447800816199E79F013FF573AF10E7012070470D
:104488009B033FF56DAF0AE7032009E7DE053FF51B
:1044980067AF04E70020005200440258448900082E
:1044A8000400002408B501F04FF9064B06499B6942
:1044B800064A03F00F03CB5C03F01F03D8401060DB
:1044C80008BD00BF004402584489000808000024C1
:1044D8003B4AF8B5936A03F00303032B69D01368CA
:1044E80006460F46144623F08063136002F0DAFA9A
:1044F800054604E002F0D6FA431B022B57D823687E
:104508001A01F7D4A36A326823F47C332D4943EAAD
:104518000233A3627568D6E90232013D501E013BA1
:104528003269C5F308055B020004013A9BB200F446
:10453800FE001206034302F0FE422B431343A3631B
:10454800E36A726923F0C0031343E362E36AB26962
:1045580023F020031343E362E36A23F01003E362CA
:10456800E26BF369114041EAC301E163E36A43F096
:104578001003E362E36AF7B1012F0CBF43F4801321
:1045880043F40013E3620E4B1A681D4642F0806242
:104598001A6002F087FA044604E002F083FA001B6E
:1045A800022804D82B681B01F7D50020F8BD03208A
:1045B800F8BD0120F8BD43F40023E362E3E700BF40
:1045C800004402580700FFFF3B4AF8B5936A03F01E
:1045D8000303032B69D0136806460F46144623F0DD
:1045E8008053136002F05EFA054604E002F05AFABE
:1045F800431B022B57D823689A00F7D4A36A326862
:1046080023F07C732D4943EA0253A3627568D6E907
:104618000232013D501E013B3269C5F308055B02B9
:104628000004013A9BB200F4FE001206034302F0B4
:10463800FE422B4313432364E36A726923F4406305
:104648001343E362E36AB26923F400731343E3623A
:10465800E36A23F48073E362626CF369114041EA10
:10466800C3016164E36A43F48073E362E36AF7B108
:10467800012F0CBF43F4000343F08073E3620E4B39
:104688001A681D4642F080521A6002F00BFA04467E
:1046980004E002F007FA001B022804D82B689B00EC
:1046A800F7D50020F8BD0320F8BD0120F8BD43F47C
:1046B8008003E362E3E700BF004402580700FFFFFE
:1046C8002DE9F8430368044613F000661CD0426ED7
:1046D800B2F5001F00F0B98423D8002A00F0CE8379
:1046E800B2F5801F20D102210430FFF7F1FE064603
:1046F800002E40F06E84626E2368AB480026016D80
:1047080021F440110A430265DD0511D5626D042AC2
:1047180000F20785DFE812F0690470048004CA0219
:10472800CA02B2F5401FE8D0DD054FF00106EDD40E
:10473800354698051BD5A26D802A00F0758400F2D5
:10474800EC80002A00F08883402A40F0ED800021A8
:10475800201DFFF7BDFE23680546002D40F072833B
:104768009149A06D0A6D22F4E07202430A65590569
:104778001FD5D4F8A420B2F5800F00F0448400F2CD
:10478800D680002A00F08083B2F5001F40F0D78061
:104798000021201DFFF79CFE23680546002D40F0F0
:1047A80055838149D4F8A4008A6D22F4600202433B
:1047B8008A651A051FD5D4F8A820B2F1007F00F049
:1047C8000B8400F2BF80002A00F04C83B2F1807F96
:1047D80040F0C0800021201DFFF77AFE23680546BF
:1047E800002D40F031837049D4F8A8008A6D22F07A
:1047F800E06202438A659F0118D5A26C202A00F066
:10480800B68300F2AA803AB1102A40F0A98066491E
:10481800CA6A42F40032CA62002D40F043836249FA
:10482800A06CCA6C22F030020243CA64D8041DD5B9
:10483800E26DB2F5005F00F0008400F29480002A77
:1048480000F01683B2F5805F40F095800021201DAE
:10485800FFF73EFE23680546002D40F0FB825249D3
:10486800E06D0A6D22F4E04202430A6599041AD504
:10487800226EB2F5003F00F068837FD84AB1B2F5E6
:10488800803F40F083800121201DFFF721FE23682F
:104898000546002D40F019834349206E0A6D22F425
:1048A800E02202430A655A041BD5D4F8AC20B2F1C1
:1048B800005F00F065836CD842B1B2F1805F70D1BF
:1048C8000121201DFFF704FE23680546002D40F056
:1048D800FE823549D4F8AC008A6D22F0E0420243EA
:1048E8008A651F040DD5E26EB2F1805F00F0378350
:1048F800B2F1005F00F0E681002A00F0E9810126AC
:104908003546D8015CD5626C032A00F21084DFE8D2
:1049180012F0530041034D005300C02A3FF41DAF6D
:10492800B2F5807F3FF419AF012635461FE7B2F58F
:10493800C00F3FF433AFB2F5000F3FF42FAF01269D
:10494800354636E7B2F1407F3FF44AAFB2F1806FA7
:104958003FF446AF012635464DE7302A3FF45CAFB9
:104968000126354662E7B2F5405F3FF475AFB2F510
:10497800804F3FF471AF0126354677E722F4803146
:10498800B1F5802F85D0B2F5403F82D0012635465B
:1049980089E722F08051B1F1804F97D0B2F1405FA2
:1049A80094D0012635469CE7004402580221201D78
:1049B800FFF78EFD23680546002D00F06B822E461A
:1049C800590200F1EB81DF0739D5A26F282A00F2DE
:1049D8006A81DFE812F03000680168016801680147
:1049E8006801680168015703680168016801680186
:1049F80068016801680129006801680168016801A7
:104A0800680168016801300068016801680168018F
:104A1800680168016801300068016801680168017F
:104A28006801680168013000012104F12400FFF7E2
:104A3800CBFD23680546002D00F055822E469807C9
:104A480016D5626F052A00F26F83DFE812F00D00B9
:104A5800110306000D000D000D00012104F12400D2
:104A6800FFF7B2FD23680546002D00F026822E468A
:104A7800590717D5D4F89020052A00F24F83DFE8AC
:104A880012F00D00ED0206000D000D000D000121D1
:104A980004F12400FFF798FD23680546002D00F077
:104AA80003822E469A061DD5D4F88C20B2F1005FF9
:104AB80000F0418200F225814AB1B2F1805F40F0F6
:104AC8002A810021201DFFF703FD23680546002DDC
:104AD80040F01182B649D4F88C004A6D22F0E042C9
:104AE80002434A655F061DD5D4F89820B2F5006FD9
:104AF80000F00D8200F212814AB1B2F5806F40F0E9
:104B080017810021201DFFF7E3FC23680546002DCF
:104B180040F0E381A649D4F898008A6D22F4E05267
:104B280002438A6518061DD5D4F89C20B2F5804F3B
:104B380000F0F78100F2FF804AB1B2F5005F40F063
:104B480004810021201DFFF7C3FC23680546002DC2
:104B580040F0C1819649D4F89C008A6D22F46042E5
:104B680002438A6519070BD5D4F88010B1F5805F28
:104B780000F024828E48426D22F440520A43426576
:104B8800DA060BD5D4F89410B1F5807F00F00B82CB
:104B98008748826D22F440720A4382651F030ED54E
:104BA800D4F8A010B1F5803F00F0E580B1F5003FE2
:104BB80000F0E880002900F07E820126354658037F
:104BC8000FD5D4F88420B2F5001F00F0C180B2F5EB
:104BD800401F00F0C480B2F5801F00F075820126E6
:104BE8003546D90317D5E26C002A00F08681B2F564
:104BF800803F40F024810221201DFFF769FC054613
:104C08002368002D40F081816949E06CCA6C22F468
:104C180080320243CA649A0000F106819F0335D4AA
:104C2800301E18BF0120DE0206D56149256F0A6DC6
:104C380022F000422A430A65DD0007D55C49D4F812
:104C4800B4500A6922F480422A430A61990206D5BF
:104C58005749A56E0A6D22F080722A430A655A00E8
:104C680009D5534A116921F4004111611169D4F839
:104C7800B85029431161002B06DA4D4A216DD36CD7
:104C880023F040530B43D364BDE8F883E26FB2F5D9
:104C9800807F00F0078226D922F48071B1F5007F69
:104CA80023D00120BFE701263546C8E63546002D4A
:104CB80040F0CE803E49606D0A6D22F00702024343
:104CC8000A6536E50121201DFFF702FC2368054629
:104CD800002D40F0FE803649E06E0A6D22F0405209
:104CE80002430A650DE6002ADBD1002DD9D1304DEB
:104CF800301E696D18BF012021F440710A436A65AE
:104D080091E722F08051B1F1804F3FF4E0AEB2F16B
:104D1800405F3FF4DCAE01263546E3E622F48061CD
:104D2800B1F5805F3FF4F3AEB2F5406F3FF4EFAEFC
:104D380001263546F6E622F40051B1F5004F3FF45E
:104D480006AFB2F5C04F3FF402AF0126354609E77A
:104D5800012104F12400FFF737FC23680546002DE4
:104D680040F0BF801249D4F884004A6D22F4401202
:104D780002434A6535E7022104F12400FFF724FCC9
:104D880023680546002D40F0AA800949D4F8A00000
:104D98008A6D22F4403202438A6510E7054B1A688F
:104DA800984642F480721A6001F07CFE074609E0DA
:104DB800004402580048025801F074FEC01B6428E1
:104DC80000F26A81D8F80030DA05F5D5002D40F0F8
:104DD800A281B34AD4F8B030116F594011F4407F22
:104DE8000BD0116F106F21F4407140F480301067C0
:104DF800106F20F4803010671167B3F5807F00F0E2
:104E08006C8103F44072B2F5407F00F07A81A449C6
:104E18000A6922F47C520A61A14AC3F30B03116F99
:104E28000B4313672368CEE5022104F12400FFF742
:104E3800CBFB236800283FF4F1AE0126EEE60126FD
:104E48003546E8E62E4692E42E46D4E42E46B0E4F3
:104E58002E466EE42E4609E59149CA6A42F40032AC
:104E6800CA627AE48E49CA6A42F40032CA62B7E476
:104E78008B49CA6A42F40032CA62EDE48848C16AC2
:104E880041F40031C16238E48549CA6A42F400320B
:104E9800CA6283E48249606CCA6C22F0030202434E
:104EA800CA648DE52E46C1E47D49D4F890008A6D28
:104EB80022F0070202438A65F4E57949606F4A6D7A
:104EC80022F0070202434A65D2E52E46EBE42E465D
:104ED80007E52E4615E52E4644E62E4622E62E46E2
:104EE8006DE62E467DE66E49A06F4A6D22F03802C7
:104EF80002434A65A3E52E46F4E56949CA6A42F4C5
:104F08000032CA62002D3FF47FAE2E4683E60221AE
:104F180004F12400FFF758FB05462368002DDCD177
:104F2800F8E5022104F12400FFF74EFB054623684B
:104F3800002DD0D10EE6022104F12400FFF744FB36
:104F480005462368002DD6D1C4E5012104F12400CB
:104F5800FFF73AFB05462368002DB6D19CE450497B
:104F6800CA6A42F40032CA62002DB2D1B3E6022105
:104F7800201DFFF7ADFA05462368002D92D14EE4B7
:104F8800012104F12400FFF71FFB05462368002DCB
:104F98009DD19EE44249CA6A42F40032CA62002D99
:104FA8007FF40DAD76E7022104F12400FFF70CFB36
:104FB800236800283FF4F2AD0126EFE5022104F151
:104FC8002400FFF701FB236800283FF4D9AD012630
:104FD800D6E52368FFF798BB002104F12400FFF70A
:104FE800F3FA23680546FFF7FBBB2D493546CA6A25
:104FF80042F40032CA625AE60021201DFFF768FA1F
:105008002368054653E6002104F12400FFF7DCFA83
:1050180023680546FFF7C2BB002104F12400FFF70F
:10502800D3FA2368054642E6002104F12400FFF77D
:10503800CBFA23680546FFF790BB002104F1240052
:10504800FFF7C2FA2368054606E402212430FFF779
:10505800BBFA0646002E3FF44EABBAE70121201DED
:10506800FFF736FA05462368002D7FF41AAD1BE7D3
:105078000121201DFFF72CFA05462368002D7FF437
:10508800F6AC1AE70121201DFFF722FA054623682E
:10509800002D7FF4D3AC26E703262368354692E437
:1050A800004402582348C16A41F40031C162002D0E
:1050B8007FF4F7AD1BE6201DFFF70AFA05462368C3
:1050C800002D7FF40CAF60E61A49CA6A42F4003238
:1050D800CA62002D7FF405AF44E601F0E3FCDFF877
:1050E800548041F28839074604E001F0DBFCC01B1C
:1050F8004845D1D8D8F870309B07F6D5D4F8B030E9
:105108007FE60C480C4A016902EA131221F47C512B
:105118000A43026180E623682E4654E40126354698
:10512800C0E40126FFF704BB01263546A0E40126AA
:10513800354645E400440258CFFFFF00584B70B491
:10514800996A9D6ADC6A15F47C3FC5F30532DE6B0B
:105158005CD0C6F3CC0604F0100401F0030104FB94
:1051680006F4012907EE904AB8EEE77A03D002293F
:1051780075D000294FD007EE902ADFED4A6AF8EE85
:10518800E77A9B6B86EEA76A9FED475AC3F308033D
:1051980006EE903AF7EE005AF8EEE66AE7EE056A90
:1051A80076EEA56A66EE266A3D4AB7EE006A936B0C
:1051B800C3F3462307EE103AB8EEC77A70BC37EE51
:1051C800067AC6EE877AFCEEE77AC0ED007A936B32
:1051D800C3F3064307EE103AB8EEC77A37EE067AFD
:1051E800C6EE877AFCEEE77AC0ED017A936BC3F3DB
:1051F800066307EE903AF8EEE77A77EE867A86EE5F
:10520800A77ABCEEC77A80ED027A704770BCC0E915
:105218000022826070471968890627D5196807EE49
:10522800902A224AB7EE005AC1F3C101F8EEE77A94
:105238009B6BCA40DFED1C4AC3F3080306EE102A35
:1052480006EE903AB8EEC66AF8EEE66AC6EE275A57
:10525800E7EE246A76EE856A66EEA56AA4E707EEAD
:10526800902ADFED136AF8EEE77A8AE707EE902ACC
:105278009FED105A9B6BB7EE006AF8EEE77ADFED08
:105288000A5AC3F30803C5EE276A07EE903AF8EE08
:10529800E77AE7EE257A77EE867A66EEA76A83E7FD
:1052A800004402580024744A000000390090D003DA
:1052B8000024744B0024744C584B70B4996A9D6A4E
:1052C800DC6A15F07C7FC5F305525E6C5CD0C6F3D2
:1052D800CC0604F4807401F0030104FB06F40129F0
:1052E80007EE904AB8EEE77A03D0022975D0002974
:1052F8004FD007EE902ADFED4A6AF8EEE77A1B6C8A
:1053080086EEA76A9FED475AC3F3080306EE903A64
:10531800F7EE005AF8EEE66AE7EE056A76EEA56A59
:1053280066EE266A3D4AB7EE006A136CC3F346235D
:1053380007EE103AB8EEC77A70BC37EE067AC6EEBA
:10534800877AFCEEE77AC0ED007A136CC3F3064364
:1053580007EE103AB8EEC77A37EE067AC6EE877AC5
:10536800FCEEE77AC0ED017A136CC3F3066307EE2F
:10537800903AF8EEE77A77EE867A86EEA77ABCEE70
:10538800C77A80ED027A704770BCC0E9002282605B
:1053980070471968890627D5196807EE902A224AA6
:1053A800B7EE005AC1F3C101F8EEE77A1B6CCA40A8
:1053B800DFED1C4AC3F3080306EE102A06EE903A06
:1053C800B8EEC66AF8EEE66AC6EE275AE7EE246A31
:1053D80076EE856A66EEA56AA4E707EE902ADFED09
:1053E800136AF8EEE77A8AE707EE902A9FED105ADB
:1053F8001B6CB7EE006AF8EEE77ADFED0A5AC3F3E2
:105408000803C5EE276A07EE903AF8EEE77AE7EE6A
:10541800257A77EE867A66EEA76A83E70044025813
:105428000024744A000000390090D0030024744B13
:105438000024744C584B70B4996A9D6ADC6A15F460
:105448007C7FC5F305125E6B5CD0C6F3CC0604F016
:10545800010401F0030104FB06F4012907EE904A58
:10546800B8EEE77A03D0022975D000294FD007EEAD
:10547800902ADFED4A6AF8EEE77A1B6B86EEA76A98
:105488009FED475AC3F3080306EE903AF7EE005A29
:10549800F8EEE66AE7EE056A76EEA56A66EE266A33
:1054A8003D4AB7EE006A136BC3F3462307EE103A82
:1054B800B8EEC77A70BC37EE067AC6EE877AFCEE8D
:1054C800E77AC0ED007A136BC3F3064307EE103A90
:1054D800B8EEC77A37EE067AC6EE877AFCEEE77A38
:1054E800C0ED017A136BC3F3066307EE903AF8EE4A
:1054F800E77A77EE867A86EEA77ABCEEC77A80EDF1
:10550800027A704770BCC0E900228260704719684F
:10551800890627D5196807EE902A224AB7EE005A5D
:10552800C1F3C101F8EEE77A1B6BCA40DFED1C4AF4
:10553800C3F3080306EE102A06EE903AB8EEC66AE0
:10554800F8EEE66AC6EE275AE7EE246A76EE856A32
:1055580066EEA56AA4E707EE902ADFED136AF8EE77
:10556800E77A8AE707EE902A9FED105A1B6BB7EE91
:10557800006AF8EEE77ADFED0A5AC3F30803C5EECE
:10558800276A07EE903AF8EEE77AE7EE257A77EEA3
:10559800867A66EEA76A83E7004402580024744AB4
:1055A800000000390090D0030024744B0024744C90
:1055B800B0F5807F00B585B048D0B0F5007F11D038
:1055C800B0F5806F00F08280B0F5006F52D0B0F572
:1055D800805F2CD0B0F5002F00F09680002005B039
:1055E8005DF804FB534A136D03F4E073802B59D024
:1055F80012D9C02B26D0B3F5807FEFD1D36C13F02E
:1056080040535BD0B3F1805F00F08D80B3F1005F51
:10561800494818BF0020E2E7002B3CD0402BDDD1E1
:1056280001A8FFF78BFD019805B05DF804FB414A1E
:10563800136D03F4E043B3F5005F33D029D9B3F514
:10564800405F58D13D4805B05DF804FB394B1B6DF0
:1056580003F00703042BC1D801A252F823F000BFBE
:105668009F56000829560008AD5600084D560008F8
:10567800BB5600082F4A936D03F0E063B3F1007F37
:1056880010D01DD9B3F1407FDCD0B3F1806FB5D015
:10569800A4E7002B34D101A8FFF7CCFE029805B08F
:1056A8005DF804FB01A8FFF707FE019805B05DF857
:1056B80004FB204BDB6C13F04053A3D120488EE74A
:1056C800002BE8D0B3F1807FAAD087E7194A936D01
:1056D80003F46003B3F5800FE4D005D8002BDAD0CB
:1056E800B3F5001F9CD079E7B3F5C00FAAD0B3F586
:1056F800000F83D072E7B3F5804F3FF47FAF6DE7BB
:10570800B3F5805F8CD069E70A4A936D03F44033A0
:10571800B3F5803F09D0B3F5003F3FF46FAF002BDE
:105728007FF45CAF7CE7074859E701A8FFF7C4FDA1
:10573800039854E7004402580024F4000080BB009A
:105748000090D00300093D0008B5FEF7F1FC064BB8
:1057580006499B69064AC3F30323CB5C03F01F0386
:10576800D840106008BD00BF0044025844890008B2
:10577800040000242DE9F04F0D6883B0002D00F0DF
:10578800C4800023DFF82C82DFF82CE201229A4043
:1057980012EA050C00F0B4804C6824F01007022FC0
:1057A80040F0B680DF0803F0070A4FF00F0B0E69D0
:1057B80000EB87074FEA8A0AD7F820900BFA0AFB12
:1057C80006FA0AF64FEA430A29EA0B094FF0030BD7
:1057D80046EA09090BFA0AF604EA0B0BC7F8209007
:1057E8006FEA060907680BFA0AFB27EA06064BEA7E
:1057F800060606608768C4F3001609EA070BCF6837
:105808009E4007FA0AF747EA0B078760476827EAC6
:10581800020216434660C668E7008A6806EA090974
:1058280002FA0AF242EA0902C26069D5D8F8F470AD
:1058380023F0030903F003020F2647F0020709F1DA
:10584800B0499200C8F8F47009F58069D8F8F47086
:1058580006FA02FA07F0020701974D4F019EB84277
:10586800D9F8086026EA0A0620D007F58067B8420A
:105878006BD0484FB8426DD0474FB84260D0474FC1
:10588800B84271D0464FB84273D0464FB84266D03E
:10589800454FB84272D0454FB84274D0444FB842D1
:1058A8000CBF09270A2707FA02F21643C9F808604D
:1058B8006FEA0C07DEF80020E60354BF3A404CEAD2
:1058C8000202CEF80020A203DEF804604FF0B042D6
:1058D80054BF3E404CEA0606CEF804601668E20261
:1058E8004FF0B04254BF3E404CEA0606A4024FF0C7
:1058F800B0441660526854BF3A404CEA02026260F3
:10590800013335FA03F27FF441AF03B0BDE8F08FFD
:105918004FEA430A4FF00309D0F800B0013F04EA08
:10592800090609FA0AF9012F2BEA090B06FA0AF601
:105938006FEA090946EA0B0606603FF66CAF59E7BD
:10594800032707FA02F21643B0E7012707FA02F223
:105958001643ABE7022707FA02F21643A6E7062723
:1059680007FA02F21643A1E7042707FA02F21643E0
:105978009CE7052707FA02F2164397E7072707FA75
:1059880002F2164392E7082707FA02F216438DE758
:105998000000025800080258000C02580010025873
:1059A8000014025800180258001C0258002002581F
:1059B800002402580044025880000058002900F0D2
:1059C800AC8000232DE9F04FDFF870A183B0DFF839
:1059D8007091DFF87081DFF870B14FF0010E0EFAA8
:1059E80003F414EA010C73D023F0030503F0030257
:1059F8000F26484555444FEAC202AF6806FA02F638
:105A080007EA0607019723D058456AD0464FB8429F
:105A18006AD0464FB84271D0454FB84273D0454F0F
:105A2800B84266D0444FB84259D0DFF820E17045FB
:105A380074D0DFF81CE170456AD0DFF818E17045D2
:105A480014BF4FF00A0E4FF0090E0EFA02F200E0F2
:105A58000022019F974219D1AF684FF0B04227EA60
:105A68000606AE60D8F8005025EA0C05C8F80050C4
:105A7800D8F8045025EA0C05C8F80450156825EA3A
:105A88000C051560556825EA0C0555605A00032673
:105A9800D0F800C00F2723FA06F5964003F0070256
:105AA80000EB85054CEA060C9200C0F800C0974050
:105AB8002A6A22EA07022A62826822EA06028260C9
:105AC800426822EA04044460C26822EA0606C66004
