:020000040800F2
:100000000000022065050008B5050008ED12000893
:10001000B5050008B5050008B5050008000000009A
:10002000000000000000000000000000B50500080E
:10003000B505000800000000B5050008DD12000845
:10004000B5050008B5050008B5050008B5050008A8
:10005000B5050008B5050008B5050008B505000898
:10006000B5050008B5050008B5050008E10600085B
:10007000ED060008B5050008F906000805070008A8
:10008000B5050008B5050008B5050008B505000868
:10009000B5050008B5050008B5050008B505000858
:1000A000B5050008B5050008B5050008B505000848
:1000B000B5050008B5050008B5050008B505000838
:1000C000B5050008B5050008B5050008B505000828
:1000D000B5050008B5050008B5050008B505000818
:1000E000B5050008B505000800000000B5050008CA
:1000F000B5050008B5050008B5050008B5050008F8
:10010000B5050008B5050008B5050008B5050008E7
:10011000B5050008B5050008B5050008B5050008D7
:10012000B5050008B5050008B5050008B5050008C7
:10013000B5050008B5050008B5050008B5050008B7
:1001400000000000000000000000000000000000AF
:10015000B5050008B5050008B5050008B505000897
:10016000B5050008B50500086D1F0008791F0008D7
:10017000B5050008851F0008B5050008B50500088D
:10018000B5050008B5050008B5050008B505000867
:10019000B5050008B5050008B5050008B505000857
:1001A000B5050008B5050008B5050008B505000847
:1001B000690E0008B5050008B5050008B50500087A
:1001C000B5050008B5050008911F00089D1F00082F
:1001D000B5050008A91F0008B5050008B505000809
:1001E000B5050008B5050008B5050008B505000807
:1001F000B5050008B5050008B5050008B5050008F7
:10020000B5050008B5050008B5050008B5050008E6
:10021000B5050008B5050008B5050008B5050008D6
:10022000B5050008B5050008B50500080000000088
:10023000B5050008B505000800000000B505000878
:10024000B5050008B5050008B5050008B5050008A6
:10025000B5050008B5050008B5050008B505000896
:10026000B5050008B5050008B5050008B505000886
:10027000B5050008B5050008B50500080000000038
:10028000B5050008B5050008B50500080000000028
:0802900000000000B5050008A4
:1002A00010B5054C237833B9044B13B10448AFF3B0
:1002B00000800123237010BD3002002400000000E4
:1002C0009802000808B5034B1BB103490348AFF37C
:1002D000008008BD000000003402002498020008DD
:1002E000034613F8012B002AFBD1181A0138704776
:1002F00001F0FF01102A2BDB10F0070F08D010F8D7
:10030000013B013A8B422DD010F0070F42B3F6D1DA
:10031000F0B441EA012141EA014122F007047FF0F3
:1003200000070023F0E80256083C85EA010586EA4A
:10033000010685FA47F5A3FA87F586FA47F6A5FA86
:1003400087F68EB9EED1F0BC01F0FF0102F0070292
:1003500032B110F8013B013A83EA010313B1F8D13D
:100360000020704701387047002D06BF354603381E
:10037000073815F0010F07D1013015F4807F02BF57
:10038000013015F4C03F0130F0BC0138704700BFA8
:1003900030B4194C0022194BD4F88810184841F495
:1003A0007001184DC4F888101C68174944F0010406
:1003B0001C601A611C68204018609A61DA611A6238
:1003C0009A62DA621A635A639A63DA631A645A6445
:1003D000186820F4802018601A662B681940B1F163
:1003E000005F02D2094B01221A60034B4FF00062FA
:1003F00030BC9A60704700BF00ED00E00044025836
:100400007FEDF6EA0010005C0000FFFF088100515C
:10041000704700BF704700BF704700BF0B6873B1E3
:10042000421E30B4064C134612F8015F023304F842
:10043000015B0D681B1A9D42F5D830BC70477047B0
:1004400050020024704700BF0EB470B583B000F1B5
:1004500070054FF400720021079E0446284609F0FB
:10046000ABF83046FFF73CFF0230B0F5007F04D90F
:1004700003B0BDE8704003B0704708AA3146284673
:10048000019209F09FF92846FFF72AFF2946024604
:1004900004F2D22001F05AFD03B0BDE8704003B071
:1004A000704700BF08B50F4800F086F80D4800F00F
:1004B000F3F800210C4801F0C3FC0C490A4801F094
:1004C00049FD012107480A4C00F000F908220949BA
:1004D0000948FFF7B9FF2368FA200133236001F0D0
:1004E00087FCF3E71C0B00247E0B00241D0400088E
:1004F0004C02002454A900084008002410B50F4AFB
:100500000F4C1049104809F009F80C4A0F491048DF
:1005100009F004F82146094A0E4808F0FFFF214679
:10052000064A0D4808F0FAFF0C480123034A0C491B
:10053000C366BDE8104008F0F1BF00BF0000002412
:1005400019040008110400081C0B002415040008FD
:100550009806002450060024740600244008002455
:1005600045040008DFF834D0002103E00C4B5B5851
:10057000435004310B480C4B42189A42F6D30B4AB5
:1005800002E0002342F8043B094B9A42F9D3FFF7FB
:10059000FFFE08F0D7FFFFF785FF7047000002203D
:1005A00010AB0008000000243002002430020024B8
:1005B00040560024FEE70000F8B5044603232B4D07
:1005C00040F6033C84F82F3004F12407284B06261C
:1005D000284AC4F8313003F10073274803F540730B
:1005E000264925600125C4F83530254B62604FF45B
:1005F0008072A0600020E1603021C4F83930214BC6
:10060000A284C4F83D30C4F841C0A76184F82750E3
:1006100084F8295084F82B0084F82D006161267439
:10062000194FC4E9070000F08FF928463021174D13
:1006300000F08AF9164B4FF4A060022140F2071235
:10064000E365A4F860004FF48773124884F867608C
:10065000C4F84570C4F84950C4F84D0084F86310DC
:10066000A4F86420A4F86830F8BD00BF00070500B6
:1006700004020404010508050905070506050A0624
:100680000403000106090002000108010901010735
:100690000001000404010B0110B5044600F028FE1F
:1006A000204600F0E7FBE01C00F064F904F1630071
:1006B00001F028FB04F1670001F024FB04F11400B1
:1006C00000F026F8BDE8104001F05ABB633001F09D
:1006D00045BB00BF0B4692000146184608F05EBFBE
:1006E000014806F081BE00BFD8280024014806F06A
:1006F0007BBE00BF50290024014806F075BE00BF34
:10070000C8290024014806F06FBE00BF302700242E
:100710002DE9F0470646814C814D88B0814AD0E9E9
:100720000030C4F82468802BC5F82468077828BFF7
:10073000802390F80B9090F80C80C4F81038C5F81E
:100740001038C378226084F81C3803792A6085F851
:100750001C3801F085F8B06808B100F039FEF06887
:1007600008B100F035FED5F810184FF0020E6E4AB1
:1007700017F0FD0F0191D4F8101802F500606B4BD3
:1007800001FA0EFA0199AB6003F5006301FA0EF16C
:10079000E260A060C4F818A8EB60C5F8181884F8E7
:1007A0001EE885F81EE82ED1F14584F81D9800F06A
:1007B0008A80B9F1030F76D0B9F1010F7DD091464F
:1007C00000F2FF7340F6FE72A3EB0903934240F27E
:1007D0008C804FF40062002108F0EEFE48464FF492
:1007E0000062002108F0E8FE4FF40072002150483A
:1007F00008F0E2FE4FF4007200214E4808F0DCFEE3
:100800000023C4F814387B1E012B10D900274A4856
:100810004FF4804201230024077002A94748059441
:10082000CDE9022306F038F908B0BDE8F087B8F149
:10083000010F85F81D8854D0B8F1020F0AD17168F4
:100840001023F0684BF68032897AB1FA81F14909B8
:1008500008F058FCA86840F6FE72ED6800F2FF73DD
:100860005B1B93424ED94FF40062002108F0A4FEB6
:1008700028464FF40062002108F09EFE4FF40072FB
:1008800000212F48A7F1020708F096FE4FF40072EE
:1008900000212C4808F090FEB7FA87F700237F0963
:1008A000C4F81438B3E740F60133ADF808300298C5
:1008B00008F02EFDD4E9020982E7B06808F0E2FBF7
:1008C000D4E902097CE7716810234BF68032B068E6
:1008D000497AB1FA81F1490908F014FCD4E9020916
:1008E0006EE7F06808F0CEFBB4E7031FA9F104023D
:1008F00000F2FC70002143F8041F834242F8041FF9
:10090000F9D171E7031F2A1F00F2FC70002143F8A0
:10091000041F984242F8041FF9D1AFE7880B002466
:10092000B0130024D506000800000030001000308D
:10093000980B0024980F0024D81B0024001802589C
:10094000C0130024C017002468B9084B802993F80D
:100950001E2828BF8021C3F8101801FB02F14900AE
:10096000C3F818187047024BF0E700BF880B00244B
:10097000B01300242DE9F04FA44C0346ABB0204641
:1009800023655F7893F8008003F040FBE8B9012FFE
:100990004FF001059E49034614BF4FF480124FF4F7
:1009A0000002E060A560C4E9001592FAA2F2B2FA72
:1009B00082F24FF48076E0612046013A2362C4E976
:1009C000042603F0B7FA034618B101202BB0BDE8A6
:1009D000F08F4FF0660C41F2883220460EA9149633
:1009E000179313931B93CDF838C0CDE91533CDE998
:1009F000193303F029FB0028E7D1992341F288320B
:100A00000EA920460E9303F01FFB0028DDD14FF006
:100A1000000B4FF0010C4FF0050A4FF08079249045
:100A200008AA21901CA9299041F28833CDF870A022
:100A3000CDF89490CDE908BC4FF0100B4FF0010CAD
:100A4000CDE90ABC4FF0000B4FF4800CCDE92260D9
:100A5000CDE927002046CDE90CBC03F061FC00285D
:100A6000B3D1ADF808001390CDE91460CDE91609B3
:100A7000CDE91850CDE91A00002F00F0CB80F0230B
:100A8000ADF80830C02341F288320EA95F480E93BA
:100A900003F0DAFA002898D141F288325B4802A9C3
:100AA00003F03CFB044600288FD1002601274FF4B9
:100AB00080754FF080794FF0000A4FF4800B21943D
:100AC00041F28833299408AA1CA950482295CDF8F0
:100AD0009490CDE90867CDE9234410260127CDE99C
:100AE00027440524CDE90A671C94CDE90CAB03F03B
:100AF00017FC00287FF469AF012406238DF8070056
:100B000041F2883213901CA91B90219029900E94D9
:100B10001C93CDE91450CDE91609CDE91900CDE9B2
:100B20002250CDE92400CDE92700384803F08CFAA3
:100B300000287FF44AAF10260127052041F28833B0
:100B400008AA1CA91C903148CDF89490CDE90A67F9
:100B500002260227CDE90CABCDE9086703F0E0FBE4
:100B600000287FF432AF41F288320EA9274803F003
:100B70006BFA00287FF429AF402341F288320DF14F
:100B8000070122488DF8073003F0C8FA00287FF4E7
:100B90001CAF10260127052002AA41F288330EA9B6
:100BA0000E901A48CDF85C90CDE9046740264027A6
:100BB000CDE906ABCDE9026703F0B2FB064600289B
:100BC0007FF403AF22950025219605202996012761
:100BD0001C9008AA41F288331CA90C48CDF89490C7
:100BE000CDE92366CDE927660126CDE90856102612
:100BF000CDE90CABCDE90A6703F092FB00287FF446
:100C0000E4AEB8F1000F50D00020DFE6DC1B00247A
:100C100000500052612341F288320EA920460E9303
:100C200003F012FA00287FF4D0AE41F2883202A914
:100C3000204603F0F1FA00287FF4C7AEBDF8083073
:100C40000625259041F2883223F0780321902990DF
:100C50001CA943F0400322961C95ADF80830CDE95D
:100C60002300CDE92700204603F0EEF900287FF4A9
:100C7000ACAE1026012720460225022441F288331B
:100C800008AA1CA9CDF870A0CDF89490CDE90A6708
:100C900000264FF48007CDE90845CDE90C6703F045
:100CA0003FFB00283FF4EEAE8FE6EB24A0264FF486
:100CB000005706251C9400244FF0805000234FF469
:100CC00080784FF4406929900EAA1CA90C48CDE900
:100CD0001E67CDE920454FF440464FF04077002491
:100CE0000025CDE92733CDE92289CDE92467CDE977
:100CF0000E4503F089FB003818BF012066E600BFEF
:100D0000DC1B00243E4B02682DE9F0479A428CB070
:100D10004FF00005CDE90755CDE909550B9502D0F7
:100D20000CB0BDE8F087374B0226374905AFD3F842
:100D3000D420B146DFF8D4A04FF0030842F480423B
:100D4000C3F8D420D3F8D42002F480420092009A51
:100D5000D3F8E02042F04002C3F8E020D3F8E020CE
:100D600002F040020192019AD3F8E02042F0200202
:100D7000C3F8E020D3F8E02002F020020292029AA9
:100D8000D3F8E02042F01002C3F8E020D3F8E020CE
:100D900002F010020392039AD3F8E0203243C3F822
:100DA000E020D3F8E03033400493049B03C905905E
:100DB000ADF81810DAF8504034440236204601F0FD
:100DC000F9F8034620461C4601F0FCF817F8013BF1
:100DD000024607A920460B93CDE90729CDE909581A
:100DE00005F05AFE0E2EE5D100225C20114602F0DD
:100DF0005BFC5C2002F092FC0CB0BDE8F08700BF09
:100E0000005000520044025864A90008DC1B002472
:100E1000124B02689A4200D07047114AD2F8D4307F
:100E200070B523F4804302250E4EC2F8D430346DE1
:100E30002C440235204601F0BDF8034620461C46EE
:100E400001F0C0F80146204605F04AFF0E2DEED114
:100E50005C20BDE8704002F06FBC00BF0050005243
:100E600000440258DC1B0024014803F055BB00BFBE
:100E7000DC1B00242DE9F043444C8BB0A0630378C5
:100E800023B1002528460BB0BDE8F083404A0A2371
:100E900000260127626008220893202302A9201D52
:100EA000C4E90267C4E9042340264FF4C077002256
:100EB0004FF40063C4E90667C4E908234FF4805681
:100EC000002702220723C4E90A67CDE9022304268A
:100ED000032200230827CDE90623CDE9046702F0A9
:100EE000A7FC054600284CD14FF001084FF010092F
:100EF0000126002702A94FF480520190201DCDE960
:100F000002894FF002084FF01009CDE9046702F0A2
:100F1000B9FC642006F072FE02A94FF48052201D35
:100F2000CDE90467CDE9028904264FF003084FF0AC
:100F30001009002702F0A6FC02A94FF48052201DE0
:100F4000CDE90467CDE9028902F09CFC40F232232E
:100F50004FF0010C042601931027019B02A94FF4C6
:100F60008052201DCDE904C3CDE9026702F08AFC5E
:100F7000201D40F6060102F0A5FC28460BB0BDE896
:100F8000F083012528460BB0BDE8F083381C00240F
:100F900040410052694A2DE9F04315688FB015B100
:100FA0000FB0BDE8F083664B01210C2400261160D0
:100FB0000327D3F8D4204FF683784FF0020908A90D
:100FC00042F480525F48C3F8D420D3F8D42002F40E
:100FD00080520092009AD3F8E02042F01002C3F849
:100FE000E020D3F8E02002F010020192019AD3F839
:100FF000E02042F04002C3F8E020D3F8E02002F005
:1010000040020292029AD3F8E02042F00802C3F8AC
:10101000E020D3F8E02002F008020392039AD3F80C
:10102000E02042F48072C3F8E020D3F8E02002F41C
:1010300080720492049AD3F8E02042F08002C3F850
:10104000E020D3F8E02002F080020592059AD3F860
:10105000E02042F02002C3F8E020D3F8E02002F0C4
:1010600020020692069AD3F8E02042F00402C3F868
:10107000E020D3F8E0300C9403F004030793079BBF
:10108000CDE90A67CDE9088905F006FD48F2371277
:10109000022308A92C480C94DFF8C080CDE90A6728
:1010A000CDE9082305F0F8FC4CF20372022308A9ED
:1010B00026480C94CDE90A67CDE9082305F0ECFC3D
:1010C00040F2FF62022308A921480C94CDE90A6787
:1010D000CDE9082305F0E0FC4FF60C72022308A9C5
:1010E0001C480C94CDE90A67CDE9082305F0D4FC2F
:1010F0004FF63F02022308A917480C94CDE90823B4
:10110000CDE90A6705F0C8FCD8F83800013000F0D6
:1011100051FFD8F838300646581C00F053FF022221
:101120000746032308A930460C9408970B93CDE992
:10113000092505F0B1FC0FB0BDE8F083301C002498
:10114000004402580010025800180258000C0258BF
:1011500000200258001C025800140258381C0024B9
:101160002DE9F04FCFB04C2200210AA808F024FA54
:101170002022002102A808F01FFABC2200211EA88C
:1011800008F01AFA022006F0A3FC514A0021514B44
:1011900001911846D16A21F00101D162D26A02F0B0
:1011A000010201929A6942F440429A619B6903F4F8
:1011B00040430193019B83699B04FCD5464A02246A
:1011C00021204FF48031936A0126042523F0030384
:1011D00023439362C8230822109616930023179482
:1011E000199415951C93CDE90A0105210AA8CDE9AA
:1011F00013441891CDE91A2303F090FE00B1FEE7E5
:101200003F2603270022082302A82146CDE90267D2
:10121000CDE90423402640234FF480624027CDE9E6
:101220000823CDE9066704F0B5F9034600B1FEE7EF
:1012300080220A260227002534924FF480723394CC
:101240008024439200224FF054084FF008091EA852
:10125000CDE93B334FF4805335934FF480334693BD
:101260000623CDE92267CDE9244540F22716402721
:1012700004242025CDE926234FF480620023CDE904
:101280002867CDE92A45CDE92C230FF23C0BDBE999
:1012900000AB002602270024002500224FF4401353
:1012A000CDE91EABCDE92089CDE92E67CDE93045EA
:1012B000CDE93E2304F096FB00B1FEE706F02EFCDC
:1012C0004FB0BDE8F08F00BF09130F03040000000A
:1012D00000040058004802580044025808B506F0BF
:1012E0007BFCBDE8084002F09FBA00BFFFBE70471C
:1012F00070B584B0012506F041FC0024FFF730FFF3
:1013000002F046FA4FF040512E4A4FF4807368467F
:101310000191ADF80050CDE9022302F05BFA40F2F2
:10132000011119224FF040436846ADF80E108DF8B8
:10133000082001938DF801508DF80D408DF80A407A
:1013400002F048FA042002F033FA07F0FBFFBFF383
:101350004F8FBFF36F8F1C4BC3F85042BFF34F8FBB
:10136000BFF36F8F5A6942F400325A61BFF34F8F57
:10137000BFF36F8FC3F88440BFF34F8FD3F8801053
:1013800043F6E074C1F34E32C1F3C901520102EADF
:101390000405084645EA80760138C3F86062461CB9
:1013A000F8D1203A12F1200FF1D1BFF34F8F5A69D3
:1013B00042F480325A61BFF34F8FBFF36F8F04B096
:1013C00070BD00BF0D00010300ED00E006F016BC8B
:1013D00038B5054600F0FEFD04462B78022B3FD0C1
:1013E000032B35D0012B2BD02868214B214A1860C4
:1013F000A988998022606B79012B18D0022B1CD010
:10140000C3B1002501232046E360A5602562C4E93D
:101410000455C4E9065502F01FFB2946204602F098
:1014200049FC29462046BDE8384002F06FBC124B0B
:101430006360E6E7114B6360E3E7114B6360E0E74D
:101440002868104B104A1860A98899802260D2E75A
:1014500028680E4B0E4A1860A98899802260CAE756
:1014600028680C4B0C4A1860A98899802260C2E752
:10147000741C0024005400403211D0208A62E030F5
:101480001A0980107C1C0024005800408C1C002489
:10149000001C0058841C0024005C00409C4A036827
:1014A000934230B58FB055D09A4A934200F09C8059
:1014B000994A934200F0EE80984A934201D00FB0CF
:1014C00030BD974B974CD3F8E020601C42F00202ED
:1014D000C3F8E020D3F8E03003F002030893089B40
:1014E00000F068FD0546601C00F06CFD22781221BA
:1014F0000023012ACDE90901CDE90B3301D80423EA
:101500000D9309A92846019105F0C6FA864800F016
:1015100051FD0546844800F055FD22780023122431
:10152000012A0199CDE90904CDE90B3301D804233F
:101530000D93284605F0B0FA794BD3F8F42042F029
:101540008002C3F8F420D3F8F43003F08003099349
:10155000099BB4E7724B754CD3F8E020601C42F055
:101560000202C3F8E020D3F8E03003F00203029354
:10157000029B00F01FFD0546601C00F023FD227851
:1015800012210023012ACDE90901CDE90B3301D84D
:1015900004230D9309A92846019105F07DFA6448BA
:1015A00000F008FD0546624800F00CFD227800239B
:1015B0001224012A0199CDE90904CDE90B3301D8A0
:1015C00004230D93284605F067FA554BD3F8E8201D
:1015D00042F40012C3F8E820D3F8E83003F4001313
:1015E0000393039B0FB030BD4D4B524CD3F8E0201A
:1015F000601C42F08002C3F8E020D3F8E02002F043
:1016000080020492049AD3F8E02042F00202C3F868
:10161000E020D3F8E03003F002030593059B00F0CF
:10162000C9FC0546601C00F0CDFC22781221002385
:10163000012ACDE90901CDE90B3301D804230D932B
:1016400009A92846019105F027FA3B4800F0B2FCB1
:101650000546394800F0B6FC227800231224012AFE
:101660000199CDE90904CDE90B3301D804230D9389
:10167000284605F011FA2A4BD3F8E82042F48002FC
:10168000C3F8E820D3F8E83003F480030693069B00
:101690000FB030BD294C601C00F08CFC0546601C6E
:1016A00000F090FC227812210023012ACDE90901E3
:1016B000CDE90B3301D804230D9309A928460191E4
:1016C00005F0EAF91E4800F075FC05461C4800F0DC
:1016D00079FC227800231224012A0199CDE909041A
:1016E000CDE90B3301D804230D93284605F0D4F936
:1016F0000B4BD3F8E82042F40002C3F8E820D3F8FB
:10170000E83003F400030793079B0FB030BD00BF20
:101710000054004000580040005C0040001C00588D
:10172000004402588C1C00248F1C0024741C0024CC
:10173000771C00247C1C00247F1C0024841C0024B3
:10174000871C0024184BF0B5197983B0012929D0E2
:10175000002211460024154802230125144F4BF6A0
:1017600080360192009107600662C461114EC46028
:10177000C0E90135C0E90544C0E90B4403F086F92E
:101780000D4802234461C461C46044630660DDE91E
:101790000012C0E90154C0E90B4403B0BDE8F040B9
:1017A00003F074B90222D5E79C1C0024A82700246A
:1017B000045C0140245C01409826002470B5254D4E
:1017C00082B0E978012936D000226B7A1146002BCD
:1017D00035D0012B3AD16B791F48002B0CBF032366
:1017E0000223436000244BF68036022306628460A5
:1017F000C461C460C0E90544C0E90B441648CDE9A2
:10180000001203F043F9EB7914480125A3424FF08D
:10181000020344610CBF03260226C4614660C46013
:1018200044638560DDE90012C0E90B4402B0BDE805
:10183000704003F02BB96B7A0222002BC9D16B796F
:101840000548B3FA83F35B094360CBE70248012301
:101850004360C7E79C1C0024402A00244028002441
:10186000F8B5194F044600F1200C3E4620681034AC
:1018700054F80C1C354654F8082C103654F8043C27
:1018800064450FC5F2D12378104A3370104C1149CA
:101890003B78114D1460012B104804F58064104A08
:1018A0000D6010490460116005D0022B01D033B1E6
:1018B000F8BDFFF783FFBDE8F840FFF743BFBDE881
:1018C000F840FFF77BBF00BF9C1C0024402A002487
:1018D000045801404028002424580140A82700242F
:1018E00098260024245C0140B14BD3F8E02042F05C
:1018F00010022DE9F04FC3F8E02093B0D3F8E020B8
:101900000446AC4D02F010020092009AD3F8E02099
:1019100042F00202C3F8E020D3F8E02002F0020215
:101920000192019AD3F8E02042F04002C3F8E0208F
:10193000D3F8E02002F040020292029AD3F8E020AD
:1019400042F00802C3F8E020D3F8E02002F00802D9
:101950000392039AD3F8E02042F00402C3F8E02097
:10196000D3F8E02002F004020492049AD3F8E020B5
:1019700042F00102C3F8E020D3F8E02002F00102B7
:101980000592059AD3F8E02042F48072C3F8E02073
:10199000D3F8E010026801F48071AA42069106991A
:1019A000D3F8E01041F08001C3F8E010D3F8E01064
:1019B00001F0800107910799D3F8E01041F0200170
:1019C000C3F8E010D3F8E01001F020010891089965
:1019D0000CD0794B9A4200F00781784B9A423AD06A
:1019E000774B9A4275D013B0BDE8F08F754A1168F5
:1019F000002900F06E810025DFF8E89101310DF13A
:101A0000340809EB450A2F465FFA85FB1160504602
:101A100015B96D4B597AA9B900F0CCFA0646504673
:101A200000F0D0FA02230146062230461192CDE999
:101A30000D134146CDE90F7705F02EF8BBF1040FE9
:101A400000F00E81013509EB450A5FFA85FB50462F
:101A5000002DDED0E0E75D4B1A6862B95449D1F839
:101A6000F00040F40000C1F8F000D1F8F01001F4EB
:101A700000010B910B9961680132554D4FF4804084
:101A800021F002011A60534A4FF4805301294FF0AC
:101A900059072A604FF480710CBF002240226B610D
:101AA0004FF480660023AA604FF40032A8612846F4
:101AB000EB606B626F602E61C5E9071205F0CAFA30
:101AC00022683F4BC4F884509A42AC63C4F88050FB
:101AD00089D13E4B1A68002A00F0ED8000253E4E69
:101AE00001320DF13408A9464FF0020A30465FFA80
:101AF00085FB1A60CDB9344B9B7A7BB900F05AFA5A
:101B00000746304600F05EFA0A230D901095CDE9A5
:101B10000EA538464146119304F0BEFF013502364A
:101B20005FFA85FB3046002DE5D000F043FA07460A
:101B3000304600F047FABBF1020F02464FF00A03AD
:101B400041463846CDE90D2ACDE90F9900F0B18024
:101B5000119304F0A1FFBBF1040FDFD163685A2297
:101B60001E4D4FF4806623F002031D496A604FF456
:101B70008052012B4FF4804029604FF480710CBFDC
:101B800000234023A8612846AB600023C5E9046216
:101B90004FF40032EB606B62C5E9071205F05AFAA8
:101BA000C4F88450AC63C4F8805013B0BDE8F08F23
:101BB000004402580458014024580140045C01408C
:101BC000245C0140941C00249C1C0024981C0024CC
:101BD000C829002458000240B31C002430270024E8
:101BE00070000240A91C0024404A136863B94049B0
:101BF000D1F8F00040F48000C1F8F000D1F8F01006
:101C000001F480010A910A9961680133394D4FF45A
:101C1000804021F002011360374A4FF480530129BC
:101C20004FF058072A604FF480710CBF0022402209
:101C30006B614FF480660023AA604FF40032A86104
:101C400028466F602E61EB606B62C5E9071205F0F4
:101C500001FA2268C4F88450AC63C4F88050BCE632
:101C600063685722254D4FF4806623F00203244910
:101C70006A604FF48052012B4FF4804029604FF48A
:101C800080710CBF00234023A8612846AB6000236D
:101C9000C5E904624FF40032EB606B62C5E90712DC
:101CA00005F0D8F92268C4F88450AC63C4F88050B9
:101CB0008FE608232DE70E49D1F8F00040F400002C
:101CC000C1F8F000D1F8F01001F400010C910C996A
:101CD00004E7D3F8F00040F48000C3F8F000D3F834
:101CE000F03003F480030993099B84E6941C0024DC
:101CF000004402585029002428000240D82800241B
:101D00001000024010B5837886B00446022B22D022
:101D1000032B1ED0012B1CD000230293E378012B50
:101D200015D0022B13D000230393002320460493E5
:101D300000F040F9034620461C4600F043F901A993
:101D400003462046019304F0A7FE06B010BD03939E
:101D5000EBE70293E2E711230293DFE770B5064653
:101D60000D4600F027F90446304600F02BF92A1EF4
:101D70000146204618BF0122BDE8704005F07EB83C
:101D8000F0B5194BC827194E02224FF0804403F1D9
:101D90000C050021002089B09A60DC6080220024BC
:101DA0005A620194C3E900674FF0FF360027C3E988
:101DB0000401C3E906672846CDE90444CDE9064499
:101DC000CDE9024402F024FF4FF4805304A92846D1
:101DD000049302F0B5FF01A928460194039403F08F
:101DE0006DF809B0F0BD00BFC01C0024400D030019
:101DF000054A1368D26803FB00F0516A536A5B1A04
:101E00009842FBD8704700BFC01C00240368B3F1A0
:101E1000804F00D07047084B82B0D3F8E82042F0E2
:101E20000102C3F8E820D3F8E83003F0010301937E
:101E3000019B02B0704700BF00440258704700BFCA
:101E4000012910B506D0022915D051B1BDE81040C6
:101E500005F064BE0A463448344905F0E7FEE8B1AF
:101E6000FEE7334B0A46334C334934481C6005F0D7
:101E7000DDFE68B1FEE701222C492B4805F0D6FEB5
:101E800000B1FEE72E49284805F0F2FEC0B1FEE79A
:101E90002B492A4805F0ECFE60B1FEE728492248AC
:101EA00005F0E6FE00B1FEE726491F4806F068FC93
:101EB00008B3FEE72449214806F062FCA8B1FEE71A
:101EC0002049194806F05CFC00B1FEE7164805F011
:101ED000E5FE48B9164B0246164C174917481C60D8
:101EE00005F0A4FE68B1FEE7FEE7144805F0D6FE53
:101EF0000028ABD0FEE70C4805F0D0FE0028A5D0A6
:101F0000FEE70F490D4805F0B3FE00B1FEE70E49AC
:101F10000A4806F035FC00B1FEE7084805F0BEFEB1
:101F2000002893D0FEE700BFA81F00244001002432
:101F3000442200243D1E0008240100240C1D00241E
:101F400014000024B4010024A4010024084691B226
:101F500007F07CB8034A0846034B1160196007F08C
:101F60008BB800BF4422002448220024014800F01E
:101F7000FBB800BF082C0024014800F0F5B800BFF2
:101F8000082C0024014800F0EFB800BF082C002402
:101F9000014800F0E9B800BF10300024014800F00B
:101FA000E3B800BF10300024014800F0DDB800BFE6
:101FB00010300024024B027853F82200704700BF13
:101FC0008CA90008024B427833F81200704700BF1A
:101FD0006CA9000810B485B00478074B0DF1100C03
:101FE0000FCB0CEB84040CE90F0054F8100C05B077
:101FF0005DF8044B704700BF34A90008F0B58BB002
:10200000002800F0888090F8BD330546046803F08E
:10201000FF02002B79D0204603232E462F1D85F882
:10202000BD33E36B6C4613F4807308BF2B6100F083
:1020300081FE56F810EBB446BCE80F000FC4BCE8B4
:102040000F000FC49CE8030084E80300704697E883
:102050000E0000F081FD044630B101240223204629
:1020600085F8BD330BB0F0BD0146286800F06AFE6C
:10207000686858B322464FF0010E2146C2EBC203F6
:1020800002F1010C05EB830383F83C20A3F8422006
:102090005FFA8CF283F83DE0824283F83F101965C5
:1020A000C3E91111EAD30022C4EBC403611C05EBA0
:1020B000830383F8FC41CCB283F8FD21844283F88A
:1020C000FF21C3F81022C3E98122EDD36C460FCE65
:1020D0000FC40FCE0FC496E8030084E8030097E80E
:1020E0000E00286800F046FE04460028B5D1012203
:1020F0006B6A85F83800934285F8BD230FD02868B5
:1021000001F034FA20460BB0F0BD80F8BC2306F095
:1021100085FB286880E7012420460BB0F0BD2846E7
:1021200000F002FDEBE700BF10B590F8BC330446A9
:102130000068012B16D00122A36A934284F8BC23C5
:1021400008D001F005FA206800F0ECFD002084F8CA
:10215000BC0310BDA3699342F3D0836B43F4803377
:102160008363EEE7022010BD2DE9F04F066887B0CB
:102170000446304601F038FA10B107B0BDE8F08FE0
:102180008246206801F000FA0028F6D0206801F0AD
:10219000FBF910F0020F206803D0436903F002033B
:1021A000436101F0F1F910F4002B206840F06081E8
:1021B00001F0EAF9420300F1EE80D4F800804046D5
:1021C00001F0E2F9002874DB206801F0DDF9000578
:1021D00064D4206801F0D8F9020114D5226853694B
:1021E00003F00063536194F8F433002B40F0A881AE
:1021F0000121204684F8F413536DC3F38303C4F81C
:10220000F83300F0A7FC206801F0BEF9C3047BD4CA
:10221000206801F0B9F910F4005F20685DD101F089
:10222000B3F910F0100F206812D0836923F0100367
:102230008361356AC5F3434305F00F07022B00F0B5
:102240004B82062B00F09281836943F01003836177
:1022500001F09AF9070700F16A81206801F094F90A
:10226000C60200F15981206801F08EF9850200F163
:102270004881206801F088F9400000F13981206828
:1022800001F082F941077FF578AF23685D686A073E
:1022900000F143825A682A435A606EE7D6F808383C
:1022A000D90700F136822068436903F40063436173
:1022B00090E7D6F8043823F00103C6F8043894F800
:1022C000F433012B00F04B81204606F09FFB206881
:1022D000436903F00043436177E701F089F920681F
:1022E00000F050FE2568E06003F06EFA227B0146A4
:1022F000284600F09BFC204606F05EFB2068436900
:1023000003F4005343618AE7D6F8043810212068AB
:1023100006F5006523F001036B6000F021FE67689D
:10232000B7B106F510634FF67F3199600AF1010AE3
:102330001A682033BA4522F4001243F8202CC3F85F
:10234000E811D3F8E02122F40012C3F8E021ECD127
:10235000EB69226B43F00113EB61002A40F0F4803B
:102360006A6942F22B0313436B612B6943F00B0341
:102370002B61D6F8003804F57172217C23F4FE63DA
:102380002068C6F8003801F04FF92068436903F46B
:10239000805343613DE7206801F002F9814600283F
:1023A00000F0FA8006F51063D4F8008025464FF05F
:1023B000000BCDF810A0CDE9023607E05FEA59091D
:1023C0000BF1010B05F11C0500F0EA8019F0010F7B
:1023D000F4D05FFA8BF74046394601F0F3F8C307B3
:1023E000064623D54FF0010C039B0BF00F00029A19
:1023F000D3F834180CFA00F002EB4B1221EA00017A
:1024000020696045C3F83418C2F808C003D1D5E983
:1024100011231344AB643946204606F0BFFA236902
:10242000012B03D1BBF1000F00F0B581300704D5BB
:10243000029B082203EB4B139A60F10604D5029B22
:10244000102203EB4B139A60720604D5029B4022C4
:1024500003EB4B139A60B30704D5029B022203EBF4
:102460004B139A60360600F1D580D4F80080A5E7BA
:1024700001F08EF80546002800F08B8006F53063E9
:10248000206804F501784FF0000B9946CDE9036A06
:1024900006E06D080BF1010B08F11C0800F08380C9
:1024A000EA07F6D55FFA8BF1029101F081F810F09E
:1024B000010F0646029979D1310700F1F8802068B2
:1024C000F30603D509EB4B1310229A60B70607D524
:1024D0002169012900F0598109EB4B1320229A60F0
:1024E000B104D6D509EB4B134FF400529A60D0E7F4
:1024F000204606F097FA2068436903F08043436161
:10250000BEE620465FFA8BF106F084FA2068436944
:1025100003F400134361ADE620465FFA8BF106F049
:102520007DFA2068436903F4801343619CE62046EA
:1025300006F03EFA2068436903F0080343618DE624
:10254000204606F04BFA5EE6D5F8843043F00B03E4
:10255000C5F884306B6C43F00B036B6409E7002112
:10256000204684F8F41300F0F5FAB0E6C7EBC7078D
:10257000082204F57171304600F066FFC5F30A13B6
:1025800004EB87022068D2F814120B44C2F814320C
:102590005AE6834620680BE68346D4F800800EE6B0
:1025A000DDE9036A0BE6DDE9036A01E62068012242
:1025B000D4F810C009EB4B1A00F530679445CAF8FF
:1025C000082007EB4B17036CD7F808E000F0C58034
:1025D000924A934240F0BD801EF4004F00F0B48058
:1025E0004FF400423307BA607FF56AAF026CB868F7
:1025F0008A4B9A4200F096802046029206F0BEF97D
:10260000874B029A9A4200F2958008222068CAF805
:10261000082055E7D5E91413D4F800808B423FF623
:10262000CDAECA1A686C08F5106ACDF814808242E3
:102630000AEB4B1A28BF0246DAF81800033280B2C0
:10264000B0EB920F1BD222E0F9B194F810C0D5E99B
:102650001131CDF800C09E4228BF1E46B3B200F033
:10266000DDFEDAF81820A96CF01C6B6D92B23144D3
:102670003344B2EB900FA9646B65296D05D38B428F
:10268000A1EB03063A464046DED3D4F800808B42E5
:10269000FFF494AE059B0BF00F010120D3F8342812
:1026A00000FA01F122EA0102C3F8342886E6226822
:1026B0004FEA4B13216902F5306709EB030A012940
:1026C000126C07EB4B17B86892D1554B9A4229D838
:1026D000204606F053F998E747F6F0731D423FF4A1
:1026E000B3ADC7EBC707C5F30A12304604EB870743
:1026F0001546D7F8081200F0A7FED7F80822D7F839
:1027000014322A4420681D44C7F80822C7F814521E
:102710009AE5204606F062F9C5E5204606F086F9FE
:102720002368B7E5020402D54FF40042BA602046A0
:1027300006F024F9216901297FF467AF04F571726D
:10274000206800F071FF60E71EF0200F01D0202309
:10275000BB60204606F018F9AEE61EF0080F25D043
:102760002F4A934205D91EF4004F02D04FF4004384
:10277000BB60204606F002F904F571720121206861
:1027800000F052FF0823BB6096E604F5717200F07A
:102790004BFF2068A0E6236D002B7FF447AE04F5C5
:1027A00071720121206800F03FFF3FE61EF0200F0C
:1027B00007D02022BA6033077FF582AE026CB8687A
:1027C00083E71EF0280FF6D1154A934206D91EF46E
:1027D000004F03D04FF40042BA60ECE73B6920465B
:1027E000D8F80070D8F80420C3F312033A44FB1A57
:1027F000C8F80420C8F8103006F0C6F8BBF1000F86
:102800007FF45AAED4F81032002B7FF455AE04F5A5
:1028100071720121206800F007FF4DE60A31544F24
:102820000A30544F90F8BC23012A0DD0012210B574
:10283000044680F83810006884F8BC2300F076FE67
:10284000002084F8BC0310BD02207047F8B501F0E9
:102850000F05090606464FF01C0422D4C5EBC5003F
:1028600004FB0564002706EB800004F5FE7180F888
:10287000FD7148780D708A60CB7000B1CD80022B5D
:1028800001D100230B7196F8BC33012B15D0012325
:10289000306886F8BC3300F081FB002086F8BC036A
:1028A000F8BDC5EBC500012704FB056406EB8000FD
:1028B00004F13C0180F83D70DBE70220F8BD00BF69
:1028C00011F0800F01F00F034FF01C0110B504460A
:1028D00019D101FB0341C3EBC302002004EB8202C8
:1028E00001F5FE7182F8FD010B7094F8BC33012BE9
:1028F00018D00123206884F8BC3300F097FB002037
:1029000084F8BC0310BD01FB0341C3EBC3020120EB
:1029100004EB82023C3182F83D000B7094F8BC332A
:10292000012BE6D1022010BD70B501F00F05002685
:102930001C21C5EBC50401FB050100EB840401F576
:10294000FE71C4F80822C4F8103284F8FC51C4F8AF
:10295000146284F8FD6103690068012B08BFC4F8A4
:102960000C22DAB21DB900F0B1FC002070BD00F0FD
:1029700099FB002070BD00BF01F00F01C1EBC10148
:1029800000EB8101D1F81402704700BFF8B501F0E7
:102990000F05012600271C21C5EBC50401FB05011D
:1029A00000EB84043C31A264236584F83C506765E5
:1029B00084F83D6003690068B34208BFE264DAB29C
:1029C0001DB900F083FC0020F8BD00F06BFB002077
:1029D000F8BD00BF38B5436801F00F059D4233D8FC
:1029E0000B0604461CD4C1EBC1031C20002200FBD3
:1029F000014104EB830301F5FE7183F8FD210123FE
:102A00000D708B7094F8BC239A421BD0206884F818
:102A1000BC3300F02BFDCDB1002084F8BC0338BDE1
:102A20001C21C5EBC503012201FB050100EB83035B
:102A30003C3183F83D2001230D708B7094F8BC234A
:102A40009A42E3D1022038BD012038BD04F57172ED
:102A5000217C206800F0E8FDDEE700BF426838B561
:102A600001F00F03934232D811F0800F04464FF06B
:102A70001C01C3EBC30219D101FB0341002004EB8D
:102A80008202002501F5FE7182F8FD010B708D7048
:102A900094F8BC33012B18D00123206884F8BC3390
:102AA00000F018FD284684F8BC5338BD01FB0341F3
:102AB000012004EB820200253C3182F83D000B70BE
:102AC0008D7094F8BC33012BE6D1022038BD012073
:102AD00038BD00BF30B405686B6A29B943EA0243C8
:102AE0000020AB6230BC7047A86A4C1E03EB10405C
:102AF0000BD0002303F14001013305EB8101DBB270
:102B00004968A34200EB1140F4D3403440EA02404C
:102B100005EB84046060002030BC70470346002051
:102B20001B685962704700BF0346094930B41A68F0
:102B30000024012583F8F44320469469C3F8FC532C
:102B400044F000649461536D194330BC5165704783
:102B500003000010704700BF84B070B4099E04AD3C
:102B60000446012E85E80E0030D1826B2D4B22F4F5
:102B70008032109982630129C26803EA0203C360AC
:102B8000C36823F44013C36043D0274B01E0013BEB
:102B900044D02269002AFADA2269234B42F001026A
:102BA000226101E0013B39D0206910F00100F9D128
:102BB000079B012B07D1A36843F00803A360A36818
:102BC00043F02003A36070BC04B07047C268164B8A
:102BD00042F04002C26001E0013B21D02269002A9C
:102BE000FADA2269104B42F00102226101E0013B56
:102BF00016D0206910F00100F9D10D9B23B9A36B09
:102C000043F48033A363D3E7A36B23F48033A3633C
:102C1000CEE7C36843F48013C360B6E70320C7E779
:102C20000320EAE7BFFFBDFF400D0300022A034671
:102C300010B40CD04FF41054D968002021F4705116
:102C4000D960DA6822435DF8044BDA607047234AA2
:102C500023480A4482422CD9224A23480A44824209
:102C60002AD9224A22480A44824228D9214A2248A3
:102C70000A44824226D3214A21480A44824224D966
:102C8000204A21480A44824222D3204A20480A444A
:102C90008242CFD31F4A20480A4482421BD31F4A94
:102CA0001F4C0A44A24234BF4FF4E0544FF4C054C6
:102CB000C2E74FF47054BFE74FF46054BCE74FF4E1
:102CC0005054B9E74FF44054B6E74FF43054B3E7EB
:102CD0004FF42054B0E74FF40054ADE7405327FFC2
:102CE000FF340C00401E1BFF3F420F0000DC0BFFB7
:102CF0007F4F1200808CF9FE20D6130060B6E5FEEF
:102D00005FE3160000D3CEFE40771B00C05BB3FE2E
:102D1000C091210000CA91FE20753800E05459FE90
:102D2000E09C4100034600209A6842F001029A604C
:102D3000704700BF034600209A6822F001029A60A3
:102D4000704700BF08B5C368012923F0C043C360C2
:102D50000BD041B9C36843F08043C360322004F014
:102D60004DFF002008BD012008BDC36843F000539B
:102D7000C360F3E784B02DE9F047139D002609AF47
:102D80000446C0F80461C0F80861C0F80C61C0F8DE
:102D90001061C0F81461C0F81861C0F81C61C0F877
:102DA0002061C0F82461C0F82861C0F82C61C0F827
:102DB0003061C0F83461C0F83861C0F83C6187E820
:102DC0000E000C9F836B002D40F09E8023F40013B7
:102DD0008363036843F040030360036843F08003A8
:102DE000036000220E9B04F50066C4F8002E012B40
:102DF000D4F80028C4F8002800F09680D4F80038F1
:102E000043F00303C4F800384FF484624F4B22614F
:102E100002E0013B00F09680206910F02000F8D11C
:102E200010224A4B226102E0013B00F08D802269B2
:102E3000D206F9D4002232617261F261F9B104F56F
:102E400010634FF090494FF0006A96464FF67F3876
:102E500009E0C3F800E00132C3F810E0C3F80880CD
:102E600020338A422FD0D3F800C0BCF1000FF0DA33
:102E700012B1C3F80090EEE7C3F800A0EBE73369A6
:102E8000012F23F48073336142D000226FF080431E
:102E9000A26163611FB9A36943F01003A361A16933
:102EA0002B4B0F9A0B43A3611AB1A36943F008039C
:102EB000A361012D03D1A269264B1343A361BDE891
:102EC000F04704B07047002204F530634FF090499A
:102ED0004FF0006A96464FF67F3809E0C3F800E0ED
:102EE0000132C3F810E0C3F8088020338A42C6D00C
:102EF000D3F800C0BCF1000FF0DA12B1C3F80090B3
:102F0000EEE7C3F800A0EBE743F40013836368E740
:102F1000114A0021114B32636FF08042376B3B4303
:102F20003363A1616261BAE70B9B23B9D4F800381F
:102F3000C4F8003868E7D4F8003843F00103C4F857
:102F4000003861E701206BE7012073E7400D0300C3
:102F500000383C80040000400001800003000100B4
:102F60008901074A41F02001016101E0013A05D0E1
:102F7000036913F02003F9D1184670470320704706
:102F8000400D0300D0F8083813F0060004D013F009
:102F9000020F14BF02200F20704700BF70B44B789F
:102FA0000A78012B1FD000F5006402F00F054FF4E2
:102FB000803300EB4210E269AB401343E361D0F889
:102FC000003B1B040CD48B68D0F8004BC3F30A03FE
:102FD000C978154A234343EA81431A43C0F8002BBA
:102FE000002070BC704702F00F04D0F81C6800F598
:102FF000006500EB4210A3403343EB61D0F8003989
:103000001C04EDD48B68D0F80059C3F30A03CC78C4
:1030100005492B4343EA844343EA8252114370BC7F
:10302000C0F80019002070470080001030B44B78C1
:103030000978012B1AD001F00F054FF48032D0F837
:103040003C4800F50063AA4000EB4110134924EA14
:103050000204DC63DC6924EA0202DA61D0F8003B96
:10306000194030BCC0F8001B0020704700F500621A
:1030700001F00F0400EB41100949A340D46B24EA8E
:103080000304D463D46924EA0303D361D0F800397C
:10309000194030BCC0F80019002070470078F3EFE9
:1030A000007833EC2DE9F0474D780C78012D54D0A1
:1030B00000EB4414824F4D69D4F810CB04F5306313
:1030C000804E0CEA07071F611F693E401E6195B3E1
:1030D0008E68012A7C4F3544D3F810C005F1FF35C6
:1030E000B5FBF6F51FFA85FE07EAC54506FB0EF6A9
:1030F00045EA0C05C6F312061D611D6946EA050680
:103100001E6125D0CB78012B0CD1D0F8083813F4F0
:10311000807FD4F8003B0CBF43F0005343F0805352
:10312000C4F8003BD4F8003B43F00443C4F8003B30
:103130000020BDE8F0878D68012A1E69C5F31205DD
:1031400045EA06051D611D6945F400251D61D9D1BB
:10315000CA68002AD6D05A61D4E74E69002E40D002
:1031600000EB441ED1F80880DFF854A1C6F3120723
:10317000DEF8109906EB080C0EF5106309EA0A0A4E
:103180000CF1FF3CDFF83C91C3F810A0D3F810A07D
:10319000BCFBF8F80AEA0909DFF82CC1C3F8109063
:1031A0000CEAC84CD3F810804CEA080CC3F810C0E5
:1031B000D3F810C047EA0C071F61CF78012F4ED01B
:1031C000012A68D0DEF8003904F00F0443F004430C
:1031D000A540CEF80039D0F834482543C0F834581B
:1031E000A6E700EB441C374F354D012ADCF810E907
:1031F0000CF510630EEA07071F611F6947F40027EB
:103200001F611F6905EA07051D61CF7838D0DCF81A
:103210000059012F45F00445CCF8005988D1D0F869
:10322000085815F4807F1D680CBF45F0005545F027
:1032300080551D60002A7FF47BAFB6B20336B60816
:103240003FF476AFCB6800EB043003EB860100F56A
:10325000805053F8042B8B420260FAD168E71D6955
:10326000012A25F0C0451D611D6945F000551D610D
:1032700016D0DEF8005945F00445CEF80059CEE7E7
:103280000A695AB9012F0ED01A68002042F0044290
:103290001A60BDE8F0870A69002AF5D05A61F1E7A3
:1032A0000A69002AFAD1D0F8082812F4807F1A6837
:1032B0000CBF42F0005242F080521A60E4E700BFB7
:1032C0000000F8FFFFFF07E00000F81F2DE9F041C4
:1032D0004C780B78012C2AD000EB43104D4D4E69F1
:1032E000D0F8107B00F530634B4C3D401D611D69EB
:1032F0002C401C618C6806B14C611D69C4F312043A
:10330000012A45F400251D611D6944EA05041C617C
:1033100008D0D0F8003B43F00443C0F8003B002045
:10332000BDE8F081CA68002AF3D05A61F1E74D691F
:10333000ADB300EB431E374FD1F808C0DEF810895B
:103340000EF51064344E654508EA070727612769C2
:1033500006EA0706266126694AD946F40026C1F81E
:1033600014C0CCF31205012A2661266945EA060538
:10337000256133D0DEF8002942F00442CEF800295E
:10338000BCF1000FCBD003F00F010123D0F834289B
:103390008B401343C0F834380020BDE8F08100EBC7
:1033A00043101D4EA5F50025012AD0F8103900F56F
:1033B000106406EA03062661266946F400262661A3
:1033C000236905EA0305256108D0D0F8003943F0E8
:1033D0000443C0F800390020BDE8F0810B6903B157
:1033E00063612368002043F004432360BDE8F0815B
:1033F00046F40026C5F31205012A2661266945EA2E
:1034000006052561EAD0DEF8002942F00442CEF834
:103410000029B8E70000F8FFFFFF07E010B49DF8AF
:10342000044064B903339B0809D0013201EB8303E4
:1034300000EB023051F8042B8B420260FAD10020DD
:103440005DF8044B704700BF033292080CD010B4F3
:1034500000F5805401EB8200236841F8043B884268
:10346000FAD15DF8044B7047084670474A780B78EC
:10347000012A00EB43100CD0D0F8002B0BB1002A2E
:1034800014DAD0F8003B43F40013C0F8003B0020EE
:103490007047D0F80029002A00DB73B9D0F8003952
:1034A00043F40013C0F8003900207047D0F8003B07
:1034B00023F08043C0F8003BE3E7D0F8003923F065
:1034C0008043C0F80039D0F8003943F40013C0F845
:1034D0000039E9E74A780B78012A00EB431013D052
:1034E000D0F8003B23F40013C0F8003BCB78023B3C
:1034F000012B01D900207047D0F8003B43F08053E6
:10350000C0F8003B00207047D0F8003923F40013C6
:10351000C0F80039CB78023B012BEBD8D0F800394A
:1035200043F08053C0F8003900207047034609017A
:103530000020D3F8002801F4FE6122F4FE62C3F8F3
:103540000028D3F800281143C3F80018704700BFC3
:1035500008B503460320D3F8042822F00202C3F87A
:10356000042804F04BFB002008BD00BF08B503464B
:103570000320D3F8042842F00202C3F8042804F020
:103580003DFB002008BD00BF4269806910407047C4
:10359000D0F8183800F50060C0691840000C70477A
:1035A000D0F8183800F50060C069184080B2704744
:1035B00000EB411100F50060D1F8082B4069104084
:1035C000704700BF30B4D0F8104801F00F05D0F8B4
:1035D000343800EB4111EB40D1F80809DB01DBB2D4
:1035E000234330BC18407047406900F00100704729
:1035F000D0F8001900F500630A4A0A40C0F8002913
:103600009A6802F00602042A05D1D0F8002942F097
:103610000302C0F800295A68002042F480725A6000
:10362000704700BF00F8FFFF144B10B4046C9C42BD
:103630001AD800F53060002301290361036943F4BF
:1036400000230361036943F018030361036943F036
:10365000C043036104D14261036843F080230360E7
:1036600000205DF8044B7047D0F8003B00F5306057
:10367000002BE0DA00205DF8044B70470A30544F0D
:1036800007490002074BCA6800F4E06010B44FF627
:10369000FF0422405DF8044B10430343CB607047A6
:1036A00000ED00E00000FA05194BDB68C3F30223CC
:1036B00030B4C3F107051C1D042D28BF0425062CBA
:1036C00019D9033B4FF0FF349C4022EA04024FF02B
:1036D000FF34002804FA05F421EA040101FA03F199
:1036E00041EA02010ADB09010A4BC9B2034483F82B
:1036F000001330BC704700221346E8E700F00F00CB
:103700000901054BC9B20344197630BC704700BFAC
:1037100000ED00E000E100E0FCEC00E0002807DB49
:1037200000F01F0101234009024A8B4042F820307B
:10373000704700BF00E100E000280DDB43090122D3
:1037400000F01F000549203302FA00F041F8230081
:10375000BFF34F8FBFF36F8F704700BF00E100E0F2
:103760000138B0F1807F0DD2074B0022072130B421
:10377000F025064C5860104684F823509A60196072
:1037800030BC70470120704710E000E000ED00E021
:10379000BFF35F8F044A00200449536A23F4803347
:1037A00053624860704700BF00ED00E090ED00E01C
:1037B000064A40F00100064B5860536A43F48033D8
:1037C0005362BFF34F8FBFF36F8F704700ED00E080
:1037D00090ED00E0124A437893600178E9B14368C4
:1037E00070B4D360C37A047B1B06857A867B43EA78
:1037F0000473447B0B43017A43EAC543C57B43EA28
:103800008443447A43EA464343EA054343EA0423B4
:1038100043EA410370BC13617047D1601161704786
:1038200090ED00E0704700BF08B5FFF7FBFF08BD53
:1038300018B338B590F82C300D46044603F0FF025B
:10384000B3B10223214684F82C3051F8040B05F063
:10385000BDFD2946D4E9000205F0F4FD084A012126
:103860000020136843F00043136084F82C1038BD27
:1038700080F82D20FDF78EFBE3E70120704700BFA5
:103880000040005270B590F82C300546022BD8B29B
:1038900004D000F0FB04012C01D0012070BD0223F4
:1038A0000E46286885F82C3005F018FE3368022B88
:1038B00003D0002085F82C4070BD0523002085F83A
:1038C0002C3070BD38B590F82C300446022BD8B29D
:1038D00005D094F82C30012BDDB201D0012038BD89
:1038E0000223206884F82C3005F00AFE002084F8BA
:1038F0002C5038BD70B504460D4616466A1C236828
:103900002CD19A69900727D49A69D106F9D59A697A
:103910009106FCD520221021D961DA619A699007BD
:1039200001D500229A629A69D10703D49A6942F0BC
:1039300001029A615A6800211B4E20250120324065
:103940005A60636C84F8401043F00403636484F8A5
:10395000415084F8421070BD002070BD9A699207F2
:10396000FAD49A69D0061BD404F042F9801BA8420D
:1039700001D8002DC2D1636C2021002201200B430D
:1039800084F84020636484F8411084F8422070BDBC
:1039900004F02EF9801B8542EDD3002DEBD0236877
:1039A00099698A06F4D5B5E700E800FE70B50446CB
:1039B0000D461646236899698A0649D49969CA064C
:1039C00026D5681C38D19A699106FCD52022102191
:1039D000D961DA619A69900701D500229A629A69E1
:1039E000D10703D49A6942F001029A615A68002112
:1039F000184E2025012032405A60636C84F8401034
:103A000043F00403636484F8415084F8421070BDAD
:103A100004F0EEF8801BA84201D8002DCAD1636CD7
:103A20002021002201200B4384F84020636484F8A5
:103A3000411084F8422070BD9A699206C6D404F001
:103A4000D7F8801B8542EAD3002DE8D02368B8E779
:103A5000002070BD00E800FE00284DD0F8B590F8B9
:103A60004130044603F0FF02002B40D02421E068DF
:103A7000D4E9003284F841100128196822F07062FC
:103A800021F0010119601A619A6822F400429A60DB
:103A9000A26828D042F4044202289A6002D14FF46E
:103AA00000625A605A68002114482027A669104312
:103AB000D4E9042558602A43D868E56942EA062219
:103AC000266A20F400403543D8600846DA601D605D
:103AD0001A6842F001021A60616484F8417021633F
:103AE00084F84210F8BD42F400429A60DAE780F8A8
:103AF0004020FDF7D3FCB9E70120704700800002A9
:103B00002DE9F047984690F84130089E202B40F070
:103B10008A8090F840300446012B00F08480012315
:103B20008946174680F8403004F062F8054604E004
:103B300004F05EF8401B192878D82368986910F4BF
:103B40000040F5D110222121676284F8411084F8E9
:103B500042206064A4F82A80628D606392B2FF2ADA
:103B600072D8618DC9F309075A68DFF838C189B284
:103B70004A4802EA0C025FFA81FC21853A4342EA94
:103B80000C4210435860DFF824814FF0FF0ADFF841
:103B90002091638D2A46314620469BB2002B30D0BF
:103BA000FFF7A8FE002875D1606A216810F8012B84
:103BB000238D8A62628D013B6062013A9BB292B2B0
:103BC00023856285628D92B2002BE2D1002AE0D07B
:103BD000701C45D18B691A06FCD5638D9BB2FF2BF7
:103BE0004AD94B682A46A4F828A0204603EA0803CD
:103BF0003B4343EA09034B603146638D9BB2002B84
:103C0000CED1FFF7D3FE002844D123682021244DD4
:103C1000D9615A682A405A6084F8411084F84000FB
:103C200084F8420000E00220BDE8F087636C2021A8
:103C3000002201200B4384F84020636484F8411083
:103C400084F84220BDE8F0875A68C9F3090715498E
:103C5000FF200A40144920853A431143596092E7F6
:103C60008B691B06B9D403F0C3FF401B8642DDD32A
:103C7000002EDBD02168ABE7628D4B6892B203EA7D
:103C80000803D0B2228543EA00433B4343F000736C
:103C90004B607EE70120BDE8F08700BF0020008276
:103CA00000E800FE009800FC0020FF81009C00FC62
:103CB0000000FF0190F84120202A21D1034670B472
:103CC000D5B290F84020012A1CD01A682420002682
:103CD00083F841001468304624F00104146014682D
:103CE00024F480541460146821431160116841F079
:103CF0000101116083F8415083F8406070BC704747
:103D000002207047022070BC704700BF90F841202D
:103D1000202A20D1034670B4D6B290F84020012A60
:103D20001BD01A682420002583F841001468284617
:103D300024F001041460146824F4706444EA01213E
:103D40001160116841F00101116083F8416083F84E
:103D5000405070BC704702207047022070BC704712
:103D6000F0B44C6A82B014B1B2F1406F30D18B69BB
:103D7000002B34D00E6A002E59D0056823438F687B
:103D8000C869EF61002800F0AE8013430F690C682A
:103D9000B2F1406F43EA0603CE6843EA0003C86A03
:103DA00043EA0003086B43EA000348690190486B4B
:103DB00043EA0003019843EA070343EA060343EAA0
:103DC000040343EA80436B6160D04B68AB615DE004
:103DD0008B6A0568013B2B618B69002BCAD10B6A8A
:103DE000002B44D0066823438D68C869F56100281C
:103DF00069D013434D6B0F69B2F1406F43EA000382
:103E0000C86ACC6843EA0003086B43EA00034869C8
:103E100043EA050343EA070343EA040343EA804312
:103E2000736133D04B68B36102B0F0BC7047CD69A9
:103E3000002D6CD023430668CC6AB2F1406F43EA90
:103E400002000F6B4B6B40EA0500CD6840EA0400AE
:103E50000C6840EA070040EA03004B6940EA0500AD
:103E600040EA040040EA83407061DBD10EE0CB6998
:103E70007BB95CB1CB6A00682343D1E90C5413438E
:103E80004A692B43234343EA8243436102B0F0BCB7
:103E900070472343CC6A0D6BB2F1406F43EA0203D3
:103EA000006843EA04034C6B43EA0503CD6843EA28
:103EB00004034C6943EA050343EA84434361E5D0C4
:103EC0004B688361E2E7D1E90B0513434C6B034375
:103ED0002B43D1E904022343034343EA8243736142
:103EE00002B0F0BC704713434F6B0C6933434A690F
:103EF000D1E90B0C0343086843EA0C033B4323431B
:103F0000034343EA82436B6102B0F0BC70471C4339
:103F1000CE6A006844EA02030C684A693343D1E977
:103F20000C753B432B43234343EA8243436102B076
:103F3000F0BC7047F8B5044603F05AFE002C55D08B
:103F400094F84030012B53D00123064684F84030CA
:103F500094F8413003F0FF02002B35D0A76C2368A2
:103F6000A1681A68013922F4706242EA01221A60DB
:103F700001E07A1C32D19D6815F02005F9D1D4E911
:103F80000716E26828461F680A43616832431D4EDF
:103F900042EA01623E406169A76932431A4E1A60E3
:103FA00041EA07025F6821693E4042EA014201217D
:103FB00032435A601A680A431A60656484F84110F3
:103FC000002384F84030F8BD204684F84020FCF7F8
:103FD00099FE41F288331F46A364C0E703F008FE50
:103FE000801BB84206D82FB12368C4E70120F8BD72
:103FF0000220F8BD0423012084F84130636C0343A0
:104000006364DDE72FFFFF00FEF8E0FFC8B110B5E5
:1040100090F840300446012B11D00268012380F84B
:104020004030136823F001031360FCF7F1FE002316
:104030006364184684F8413084F8403010BD022093
:1040400010BD0120704700BF2DE9F04104460D4628
:10405000904603F0CDFD94F84030012B3BD0012376
:1040600084F8403094F84130012BDEB206D00226AD
:104070000023304684F84030BDE8F081002202235E
:104080000746626484F84130B8F1FF3F23680ED1DF
:104090009A6812F02002FBD129462046FFF760FE05
:1040A0006B6AE3B10123002684F84130E0E79A68A7
:1040B00012F020021ED003F09BFDC01B804502D3EE
:1040C000B8F1000FE0D1042384F84130636C43F071
:1040D00001036364CCE702263046BDE8F081226824
:1040E00093689B07FCD5022101230026D16084F848
:1040F0004130BDE729462046FFF732FE6B6A43B1E7
:10410000D0E703F075FDC01B8045DCD3B8F1000F8C
:10411000D9D0226893689907F3D5E4E72DE9F843ED
:1041200004468946154603F063FD94F8403027683D
:10413000012B67D0012384F8403094F84130012BE3
:104140005FFA83F807D04FF002080023404684F856
:104150004030BDE8F88300236364B9F1000F56D006
:104160001223064684F841303B690133E3623B6920
:10417000C4F824900133A3627B6923F040637B6120
:10418000E36A002B31D0691C3B4611D19A68520773
:10419000FCD5636A1B7887F82030E26A636A013ACB
:1041A0000133E262E26A6362F2B1691C2368EDD016
:1041B0009B685807EDD403F01BFD801B854201D39B
:1041C000002DF2D1042384F84130636C43F00103E5
:1041D000636413E0BB689B070CD403F009FD801BEC
:1041E0008542EFD3002DEDD02768691CF2D1BB6862
:1041F0009A07FCD502234FF00008FB60012384F8E6
:104200004130A2E74FF002084046BDE8F883636CF6
:1042100043F00803636498E72DE9F8430446154624
:10422000894603F0E5FC2768BA6994F84030012B11
:104230006CD0012384F8403094F84130012B5FFAB0
:1042400083F807D04FF002080023404684F840303E
:10425000BDE8F88300236364B9F1000F5BD022232B
:10426000064684F841303B690133A3633B69C4F8D7
:104270003090013363637B6923F0406343F08063D4
:104280007B61BA61A36B002B33D0681C3B4612D113
:104290009A6812F0060FFBD097F82020236B1A7053
:1042A000A26B236B013A0133A263A26B2363FAB1C1
:1042B000681C2368ECD09B6813F0060FECD103F068
:1042C00097FC801B854201D3002DF1D1042384F893
:1042D0004130636C43F00103636413E0BB689B07E8
:1042E0000CD403F085FC801B8542EFD3002DEDD06C
:1042F0002768691CF2D1BB689A07FCD502234FF0EE
:104300000008FB60012384F841309DE74FF002086C
:104310004046BDE8F883636C43F00803636493E7A9
:104320002DE9F84304461D460F46164603F060FC8F
:1043300094F84030012B4FD0012384F8403094F89A
:104340004130012B5FFA83F807D04FF002080023B9
:10435000404684F84030BDE8F8830022422381467D
:10436000626484F84130681C236829D19A689106F8
:10437000FCD43268394670689A62B2685862DA6270
:104380001A68306922F44002D6F80CC042EA0006EE
:104390004FF00062204646F480061E60C7F828C031
:1043A000FFF7DEFC681C22681BD193681907FCD557
:1043B000082101234FF00008D16084F84130C6E79E
:1043C0009A689206D5D503F013FCA0EB090085424C
:1043D00012D3002DC7D10FE04FF002084046BDE8D0
:1043E000F88393681B07E3D403F002FCA0EB0900F9
:1043F000854201D3002DD5D1042384F84130636C6C
:1044000043F001036364A2E72DE9F84304460F4635
:10441000904603F0EDFB94F84030012B42D001238D
:1044200084F8403094F84130012BDEB206D00226E9
:104430000023304684F84030BDE8F8830022822310
:104440000546D4F84890626484F84130B9F1FF3FE2
:10445000226814D193689906FCD41368D8F8041024
:1044600023F00803082943EA010313601ED03946EC
:104470004FF0406220460026FFF772FCD8E79368B1
:104480009B06EAD503F0B4FB401B814502D3B9F18A
:10449000000FDBD1042384F84130636C43F0010347
:1044A0006364C5E702263046BDE8F883D8F80010FB
:1044B00010231163D360136843F480131360D6E7AD
:1044C000704700BF08B5006C00238363C36290F897
:1044D0004130082B0BD103680222DA601A6842F4DB
:1044E00000321A601A6842F002021A6008BD012305
:1044F00080F84130FFF7E4FF08BD00BF704700BF00
:10450000704700BF704700BF704700BF704700BFD3
:10451000704700BF704700BF38B5036804469A680B
:10452000196855070ED548030CD594F84120122A76
:1045300075D094F84120222A00F0A1802046FFF790
:10454000E5FF38BD950726D5880324D50222DA6019
:104550001A6822F4E0221A6094F84120122A7AD0D4
:1045600094F84120222A00F0A98094F84120022AE0
:1045700000F0D08094F84120082AE2D15A69012144
:10458000204622F040625A6184F84110636C3BBBC4
:10459000FFF7B4FF38BD150725D4D50735D5C803B7
:1045A00033D50125DD601A6822F470221A60626C2E
:1045B00042F0020262641A68520779D51A68E06B09
:1045C00022F0040257491A60816503F06BFA002853
:1045D000B7D0636C204643F00403636484F8415011
:1045E000FFF76EFF38BD0803D7D50822DA601A68D6
:1045F000520206D51A68012122F410221A6084F8AA
:1046000041102046FFF784FF38BDD00699D5CA0275
:1046100097D510222046DA60FFF77CFF38BD9A68F4
:1046200050078BD518460EE0626A127883F8202076
:10463000E16A20680139626AE1620132816862627E
:104640004D077FF57BAFE26A002AEDD1036823F4C2
:104650008023036072E71A68510709D51A68E16B75
:1046600022F0040209681A60CB6823F00103CB60D2
:104670000123204684F84130FFF746FF38BD9A6891
:1046800052077FF55BAF18460EE093F82010226BBF
:104690001170A16B20680139226BA163013281681E
:1046A000226349077FF54AAFA26B002AEDD1CDE71F
:1046B000204684F84150FFF703FF38BD1A685207BF
:1046C0001DD49A6812F47C5F0FD111E093F820108A
:1046D000226B1170A16B20680139226BA16301323A
:1046E0008168226311F47C5F02D0A26B002AEDD1B5
:1046F0000123204684F84130FFF704FF38BD1A68D3
:10470000E16B22F0040209681A60CB6823F0010310
:10471000CB60EDE70123204684F84130FFF7F0FE3F
:1047200038BD00BFC5440008B24B016899422DE96D
:10473000F04105461FD0203399421CD003F5787311
:10474000994259D02033994256D003F57873994253
:1047500000F020812033994200F01C8195F89130BF
:10476000A54E03F0FF026BB9284685F89020FDF7AF
:10477000BBF8296806E0A14E95F8913003F0FF02DE
:10478000002BF1D09E4B9F481B680A68A0FB0303D7
:1047900022F480321B0B0A609B0023B30C68013BA0
:1047A00014F48034F9D1EB680222012B85F89120B2
:1047B00000F01A81934219BF1746032023202227B5
:1047C00015BF4FF0010C4FF0210C00222022AB68E6
:1047D000013B042B00F25781DFE813F0D1001100F8
:1047E000D8001000D400D5F89430012043F04003E5
:1047F000C5F89430BDE8F081834EBDE73A464FF4EA
:1048000000682B6A3260002B44D07A4B994200F04A
:1048100029817E48081AB0FA80F04009002840F04B
:1048200021817B4B994200F017812033994200F09F
:104830001381784B994200F009812033994200F0AE
:104840000581754B994200F01381744B994200F039
:104850001581AB69B3F5002F00F0EE80AB6A00EB79
:1048600080002A6AB3F1806F4FEA40030CBF022137
:10487000012102FB01F21202B3FBF2F3684AA2FB30
:104880000312D20802EB8201A3EB4103092B08BFFC
:1048900001326A626B6833F002032B6D40F09F8037
:1048A000012B14BF4FF40074002403F0B9F96B68B6
:1048B000B0F5005FD5E9111243EA01037FD31A4333
:1048C000EB6CE96A1A43A8692B680A436969AF6A05
:1048D0000A431968D5F824C0024352483A430840B5
:1048E000296918600A4319684FF220004E4F0A43A5
:1048F00042EA0C5242EA080222434C4C1A605968C0
:10490000EA690C40296B11436A6B5C6011435C6877
:104910006A6E2143EC6D22432C6E596022439968E4
:104920006C6D0F40A96D013C01399F6022439C686A
:1049300042EA0122A96E2243EC6E9A6041EA040227
:10494000D9686C6F0840296F42EA0442294C01394A
:10495000D860D868A34242EA012242EA0002DA6043
:104960001AD02D4A934217D000230122C5F8943063
:10497000184685F8903085F89120BDE8F0814FF415
:1049800080683EE702464FF400683AE762464FF41B
:10499000006836E7264EEFE6736C23F0010373647C
:1049A00095F83830012BDFD1D5E90F23013A43EADE
:1049B00002137364736C43F001037364D4E7E96C0E
:1049C0001A4368690A43E96A2B680A43AF691968A0
:1049D000024318483A430840D5E909C181E7012B51
:1049E00008BF4FF4007460E7132012274FF0110C3A
:1049F0001022ECE6045801400054005800580140D1
:104A0000040000241BECCB95005C014024580140BD
:104A1000045C0140046001400454005824540058D0
:104A2000CDCCCCCC10C005F00080F8FFF01FFFFF0C
:104A30000060014010C005F800EB8000296A6A6D33
:104A4000430002FB01F2B3FBF2F317E74FF40070EF
:104A500001F040FF2968F4E64FF4007001F03AFFDE
:104A60002968E6E64FF4807001F034FF2968D8E643
:104A70004FF4806001F02EFF2968E6E64FF40060F5
:104A800001F028FFE5E64FF00008BAE60229F8B584
:104A9000044635D9C81E012830D8656800204FF477
:104AA0000036236735F002054FF4802560640CBFA3
:104AB0000127074604294FF6FF7127650CBF012720
:104AC0000D27E064E065A765A0666167C4E9186525
:104AD000032A13D8DFE802F0484F553723684B4AC2
:104AE000934205D002F1C052A2F58232934205D121
:104AF0006368012B02D1636C002B30D00120F8BD1C
:104B000045680020236735F002056064E0644FF4D7
:104B1000803508BF0646A0664FF6FF7018BF012615
:104B2000E565606713F001002665E7D14D1E012D94
:104B30002ED84FF40035C4E91850032ADED8DFE838
:104B400002F05A4B3B315B01E02180226365A16496
:104B5000E26603F065F894F83830012BBED02046A9
:104B6000BDE8F840FFF7E0BD1B01802140226365EE
:104B7000A164E266EDE780225B01A2646365E26600
:104B8000E7E75B01C02180226365A164E266E0E79C
:104B90004FF48025C4E91805032AAFD8DFE802F0F6
:104BA0002B1C0C025B08E02080219A01A0645B01B1
:104BB000E166C4E91523CCE75B08C0258020022903
:104BC0004FEA8312A5644FEA4313E066C4E9152354
:104BD000BFD10823A366BCE75B08802202294FEA05
:104BE0008310A2644FEA4313E266C4E91503B0D10F
:104BF0001023A366ADE75B08802040215A01A06422
:104C00001B01E166C4E91523A3E700BF0458014076
:104C1000002800F08680F8B590F83D30044603F097
:104C2000FF02002B5FD0226802233F49B2F1804F80
:104C300084F83D30A2EB01011368B1FA81F14FEA2B
:104C4000511126D029BB3948824222D000F580601C
:104C500082421ED0364F374DD71BAA42B7FA87F78C
:104C60004FEA571744D0002F42D1334833498A4284
:104C700018BF824247D001F580618A4243D0A169C2
:104C800023F08003E0680B4361681360D062916297
:104C900023E0274F23F07003A568D71B2B43B7FAF7
:104CA00087F77F09206923F44073A5690343E66809
:104CB000606823F080032B431360D662906251B981
:104CC0004FB91D491D4B9A4218BF8A4203D003F5C4
:104CD00080639A4201D16369136301230020536109
:104CE00084F83D30F8BD80F83C20FDF78FF89AE756
:104CF000104823F07003A568824243EA0503D1D02F
:104D0000002FCFD1B1E7216923F44073A5690B438C
:104D1000E068616823F080032B431360D0629162E6
:104D2000CFE70120704700BF0000014000040040B1
:104D300000040140000C00400040014000440140DC
:104D400090F83C30012B7DD0024602230068F0B47D
:104D5000012482F83D3082F83C40544C85680B6851
:104D60002C40602B84606FD01DD9B3F5005F59D003
:104D700042D94F498B4206D038D94E498B4202D096
:104D800010318B4206D184684B4921400B4343F0DC
:104D90000703836000230121184682F83D1082F842
:104DA0003C30F0BC7047402B67D019D9502BF1D163
:104DB000036A056A4C6823F00A0325F00105CE68F2
:104DC0001C433D4B0562816921F0F00141EA061167
:104DD0008161046281680B4043F057038360D9E727
:104DE000202BD0D01AD9302BD4D1CCE723F010010E
:104DF000B1F5801FCED1C6E7702BCBD1CC68D1E9FD
:104E0000015381682B4321F47F4143EA04230B4380
:104E10008360836843F077038360BBE733F010015E
:104E2000B8D1B0E7D1E90153CC682B43816843EA9C
:104E3000042321F47F410B438360836843F4804360
:104E40008360A7E702207047056A4E6825F01005C9
:104E5000CF68194B05628469016A24F4704421F01B
:104E6000A00144EA073441EA0611846101628168C5
:104E70000B4043F0670383608CE7036A056A4C6864
:104E800023F00A0325F00105CE681C430A4B056296
:104E9000816921F0F00141EA0611816104628168B3
:104EA0000B4043F04703836074E700BF8800CEFFE8
:104EB00020001000300010008FFFCFFF90F83C2042
:104EC000012A26D00222034670B40468124D80F8ED
:104ED0003D20AC426268A06816D005F58065AC4202
:104EE00012D00D6820F08000896822F0700201263F
:104EF0002A430143002562602846A16083F83D6093
:104F000083F83C5070BC704722F470024D682A430D
:104F1000E7E70220704700BF00000140002800F0D2
:104F2000EA81F8B503680446D9072ED5B2490A6963
:104F3000896A02F03802102A00F00481182A00F071
:104F4000FC806368B3F5803F00F02481002B00F003
:104F50006281B3F5A02FA84B1A6800F03C8222F4BE
:104F600080321A601A6822F480221A6002F040FE31
:104F7000A14E054605E002F03BFE401B642800F20E
:104F8000488133689B03F6D52368980700F1898030
:104F9000D90630D5984A1369926A03F03803082B72
:104FA00000F0E080182B00F0D880E369002B00F0BF
:104FB0006F81914B1A681E4642F080021A6002F01F
:104FC00017FE054605E002F013FE401B022800F222
:104FD00020813368DB05F6D502F022FE41F203039F
:104FE000984200F21A827368226A23F0F84343EA77
:104FF0008263736023681D0717D56369002B00F077
:1050000021817D4B5A6F1E4642F001025A6702F021
:10501000EFFD054605E002F0EBFD401B022800F223
:10502000F880736F9807F6D523689A0617D5A36999
:10503000002B00F01A81704B1A681E4642F4805211
:105040001A6002F0D5FD054605E002F0D1FD401BD7
:10505000022800F2DE8033689F04F6D523685907E2
:1050600000F19E80636AD3B1634A116901F038018F
:10507000182970D0022B1368154623F08073136033
:1050800000F0438102F0B4FD044605E002F0B0FDFB
:10509000001B022800F2BD802B689B01F6D4002083
:1050A000F8BD554A1369926A13F038032AD1524B5E
:1050B000E1681B685A0701D500294CD04E4A136895
:1050C000164623F019030B43136002F091FD0546C9
:1050D00005E002F08DFD401B022800F29A80336843
:1050E0005B07F6D502F09CFD41F20303226998426A
:1050F000736800F2F98023F47C3343EA023373606F
:10510000236845E7182B00F0EB80E268002A00F0E6
:10511000D38039490B680E4623F0190313430B6003
:1051200002F066FD054604E002F062FD401B022825
:105130006FD833685F07F7D5D4E701F00301022980
:105140007FF4FFAE2C4A126892037FF51EAF6268AF
:10515000002A7FF41AAF0120F8BD02F00302012AF1
:105160007FF423AF244B1B68DA0502D5E369802B5B
:10517000F1D102F055FD41F203031F4A9842216A22
:1051800000F2BB80536823F0F84343EA8163536025
:10519000236830E7184A136843F480331360E5E668
:1051A000164B1A681E4642F480721A6002F020FD07
:1051B000054604E002F01CFD401B642829D8336832
:1051C000DA05F7D5A368012B00F03081002B00F041
:1051D0000A81052B084B1A6F00F02E8122F0010284
:1051E0001A671A6F22F004021A6702F001FD024EDC
:1051F00041F28837054608E000440258004802584A
:1052000002F0F6FC401BB84203D8336F9B07F7D57A
:1052100028E70320F8BD8C4B1A681E4622F4803222
:105220001A601A6822F480221A6002F0E1FC054636
:1052300004E002F0DDFC401B6428EAD833689F03D9
:10524000F7D4A1E6804B5A6F1E4622F001025A673E
:1052500002F0CEFC054604E002F0CAFC401B022826
:10526000D7D8736F9907F7D4DEE6774B1A681E46D6
:1052700022F480521A6002F0BBFC054604E002F002
:10528000B7FC401B0228C4D833689804F7D4E5E67D
:105290006D4B1A681E4622F080021A6002F0A8FCCC
:1052A000054604E002F0A4FC401B0228B1D8336894
:1052B000DF05F7D423689EE6634B1A681E4622F08A
:1052C00001021A6002F094FC054604E002F090FC32
:1052D000401B02289DD833685807F7D4236857E647
:1052E00091077FF412AFE2E623F0FE4343EA026344
:1052F000736023684CE601207047D36823F07C5329
:1053000043EA0163D360236875E602F071FC064648
:1053100005E002F06DFC801B02283FF67AAF2B6897
:105320009901F6D4AA6A494BA06A1340E26A484937
:105330000343454E43EA0213AB62276BD4E90D32B7
:10534000013F501E013BE26BC7F308075B020004FC
:10535000013A9BB200F4FE001206034302F0FE4243
:105360003B4313432B63EB6A23F00103EB626A6B4D
:10537000A36C114041EAC3016963EB6A226C23F01C
:105380000C031343EB62EB6A626C23F002031343DA
:10539000EB62EB6A43F48033EB62EB6A43F4003375
:1053A000EB62EB6A43F48023EB62EB6A43F00103A8
:1053B000EB622B6843F080732B6002F019FC04460B
:1053C00005E002F015FC001B02283FF622AF33680F
:1053D0009A01F6D563E642F480221A601A6842F414
:1053E00080321A60C2E5184B41F288371A6F1E46A8
:1053F00022F001021A671A6F22F004021A6702F003
:10540000F7FB054605E002F0F3FB401BB8423FF610
:1054100000AF336F9807F6D424E6F368226A23F0CE
:105420007C5343EA0263F3602368E4E5064A136FA2
:1054300043F001031367D8E642F004021A671A6FBB
:1054400042F001021A67D0E6004402580CFCFFFF4C
:105450000700FFFF474A136903F03803102B04D0FD
:10546000182B0DD01BB1444870474448704713684F
:1054700099064AD513684248C3F3C103D840704720
:10548000936A30B4946AD16A14F47C7FC4F3051033
:10549000556B38D0C5F3CC0501F0010103F00303CF
:1054A00001FB05F1012B07EE901AB8EEE77A02D066
:1054B000022B2CD093B307EE900A9FED325AF8EEF0
:1054C000E77A136BC5EE276ADFED2F5AC3F30803A3
:1054D00007EE903AB7EE006AF8EEE77AE7EE257A43
:1054E00077EE867A66EEA76A224B1B6BC3F34623E0
:1054F000013307EE903AB8EEE77AC6EE877AFCEE13
:10550000E77A17EE900A30BC70471D48704707EEE7
:10551000900A9FED1E5AF8EEE77AD2E713689B06D1
:1055200020D5136807EE900A1549B7EE005AC3F369
:10553000C100F8EEE77A136BC140DFED134AC3F305
:10554000080306EE101A06EE903AB8EEC66AF8EEB8
:10555000E66AC6EE275AE7EE246A76EE856A66EEBC
:10556000A56AC1E707EE900A9FED095AF8EEE77ABF
:10557000A7E700BF0044025800093D000024F400E2
:105580000090D0030024744A000000390024744BBA
:105590000024744C002800F00381874A136803F04C
:1055A0000F038B422DE9F04104460D460CD21368DF
:1055B00023F00F030B431360136803F00F038B42B8
:1055C00002D00120BDE8F08123685F070BD57B493D
:1055D00020698A6902F07002904204D98A6922F037
:1055E000700202438A611E070BD574496069CA695B
:1055F00002F07002904204D9CA6922F0700202439C
:10560000CA61D8060BD56D49A069CA6902F4E06287
:10561000904204D9CA6922F4E0620243CA61990641
:105620000BD56649E0690A6A02F07002904204D91B
:105630000A6A22F0700202430A629A0740F1A280CD
:105640005E48E168826902F00F02914204D98269E2
:1056500022F00F020A438261D80731D5574AA16868
:10566000936923F470630B439361616813680229A3
:1056700000F09880032900F08F80012900F09880C5
:1056800058079ED54D4A41F288381369174623F0D2
:1056900007030B43136102F0ABFA064605E002F084
:1056A000A7FA801B404500F281803B69626803F0E5
:1056B0003803B3EBC20FF2D12368990706D5E1682E
:1056C0003E48826902F00F028A425FD83A490A686E
:1056D00002F00F02AA420AD90A6822F00F022A43F6
:1056E0000A600A6802F00F02AA427FF46AAF5A0702
:1056F0000BD5324920698A6902F07002904204D2C7
:105700008A6922F0700202438A611F070BD52B4978
:105710006069CA6902F07002904204D2CA6922F03C
:1057200070020243CA61DE060BD52449A069CA692A
:1057300002F4E062904204D2CA6922F4E0620243B9
:10574000CA619D060BD51D4AE169136A03F0700317
:10575000994204D2136A23F070030B431362FFF7DC
:1057600079FE164A164C034692690F201549C2F37A
:105770000322A25C02F01F02D340BDE8F0410B609F
:1057800002F0D6B9DA073FF569AF9FE7826922F0E8
:105790000F021143816199E79F013FF573AF10E755
:1057A000012070479B033FF56DAF0AE7032009E72F
:1057B000DE053FF567AF04E70020005200440258C1
:1057C00044A900080400002408B501F04FF9064B75
:1057D00006499B69064A03F00F03CB5C03F01F03E5
:1057E000D840106008BD00BF0044025844A900081A
:1057F000080000243B4AF8B5936A03F00303032B27
:1058000069D0136806460F46144623F08063136080
:1058100002F0EEF9054604E002F0EAF9431B022B20
:1058200057D823681A01F7D4A36A326823F47C336B
:105830002D4943EA0233A3627568D6E90232013D7D
:10584000501E013B3269C5F308055B020004013AB2
:105850009BB200F4FE001206034302F0FE422B430B
:105860001343A363E36A726923F0C0031343E36243
:10587000E36AB26923F020031343E362E36A23F08F
:105880001003E362E26BF369114041EAC301E16393
:10589000E36A43F01003E362E36AF7B1012F0CBF40
:1058A00043F4801343F40013E3620E4B1A681D4661
:1058B00042F080621A6002F09BF9044604E002F0B4
:1058C00097F9001B022804D82B681B01F7D500208C
:1058D000F8BD0320F8BD0120F8BD43F40023E362C6
:1058E000E3E700BF004402580700FFFF3B4AF8B55A
:1058F000936A03F00303032B69D0136806460F462F
:10590000144623F08053136002F072F9054604E058
:1059100002F06EF9431B022B57D823689A00F7D484
:10592000A36A326823F07C732D4943EA0253A362D1
:105930007568D6E90232013D501E013B3269C5F35C
:1059400008055B020004013A9BB200F4FE00120657
:10595000034302F0FE422B4313432364E36A72695C
:1059600023F440631343E362E36AB26923F40073F0
:105970001343E362E36A23F48073E362626CF369C6
:10598000114041EAC3016164E36A43F48073E36256
:10599000E36AF7B1012F0CBF43F4000343F08073B7
:1059A000E3620E4B1A681D4642F080521A6002F004
:1059B0001FF9044604E002F01BF9001B022804D87A
:1059C0002B689B00F7D50020F8BD0320F8BD01200F
:1059D000F8BD43F48003E362E3E700BF00440258EC
:1059E0000700FFFF2DE9F8430368044613F0006643
:1059F0001CD0426EB2F5001F00F0B98423D8002AF3
:105A000000F0CE83B2F5801F20D102210430FFF7D1
:105A1000F1FE0646002E40F06E84626E2368AB48AD
:105A20000026016D21F440110A430265DD0511D500
:105A3000626D042A00F20785DFE812F06904700441
:105A40008004CA02CA02B2F5401FE8D0DD054FF05B
:105A50000106EDD4354698051BD5A26D802A00F0CD
:105A6000758400F2EC80002A00F08883402A40F020
:105A7000ED800021201DFFF7BDFE23680546002DA7
:105A800040F072839149A06D0A6D22F4E0720243E6
:105A90000A6559051FD5D4F8A420B2F5800F00F08F
:105AA000448400F2D680002A00F08083B2F5001F03
:105AB00040F0D7800021201DFFF79CFE236805469B
:105AC000002D40F055838149D4F8A4008A6D22F45A
:105AD000600202438A651A051FD5D4F8A820B2F1E6
