:020000040800F2
:100000000000022061050008B1050008651B00081A
:10001000B1050008B1050008B105000800000000A6
:10002000000000000000000000000000B105000812
:10003000B105000800000000B1050008551B0008CC
:10004000B1050008B1050008B1050008B1050008B8
:10005000B1050008B1050008B1050008B1050008A8
:10006000B1050008B1050008B1050008550F0008EA
:10007000610F00083D0F00086D0F0008790F0008A0
:10008000B1050008B1050008B1050008B105000878
:10009000B1050008B1050008B1050008B105000868
:1000A000B1050008B1050008B1050008B105000858
:1000B000B1050008B1050008B1050008B105000848
:1000C000B1050008B1050008B1050008B105000838
:1000D000B1050008B1050008B1050008B105000828
:1000E000B1050008B105000800000000B1050008D6
:1000F000B1050008B1050008B1050008B105000808
:10010000B1050008B1050008B1050008B1050008F7
:10011000B1050008B1050008B1050008B1050008E7
:10012000B1050008B1050008B1050008B1050008D7
:10013000B1050008B1050008B1050008B1050008C7
:1001400000000000000000000000000000000000AF
:10015000B1050008B1050008B1050008B1050008A7
:10016000B1050008B10500085529000861290008FB
:10017000B10500086D290008B1050008B1050008A7
:10018000B1050008B1050008B1050008B105000877
:10019000B1050008B1050008B1050008B105000867
:1001A000B1050008B1050008B1050008B105000857
:1001B000DD160008B1050008B1050008B10500080A
:1001C000B1050008B1050008792900088529000853
:1001D000B105000891290008B1050008B105000823
:1001E000B1050008B1050008B1050008B105000817
:1001F000B1050008B1050008B1050008B105000807
:10020000B1050008B1050008B1050008B1050008F6
:10021000B1050008B1050008B1050008B1050008E6
:10022000B1050008B1050008B10500080000000094
:10023000B1050008B105000800000000B105000884
:10024000B1050008B1050008B1050008B1050008B6
:10025000B1050008B1050008B1050008B1050008A6
:10026000B1050008B1050008B1050008B105000896
:10027000B1050008B1050008B10500080000000044
:10028000B1050008B1050008B10500080000000034
:0802900000000000B1050008A8
:1002A00010B5054C237833B9044B13B10448AFF3B0
:1002B00000800123237010BD3002002400000000E4
:1002C0009802000808B5034B1BB103490348AFF37C
:1002D000008008BD000000003402002498020008DD
:1002E000034613F8012B002AFBD1181A0138704776
:1002F00001F0FF01102A2BDB10F0070F08D010F8D7
:10030000013B013A8B422DD010F0070F42B3F6D1DA
:10031000F0B441EA012141EA014122F007047FF0F3
:1003200000070023F0E80256083C85EA010586EA4A
:10033000010685FA47F5A3FA87F586FA47F6A5FA86
:1003400087F68EB9EED1F0BC01F0FF0102F0070292
:1003500032B110F8013B013A83EA010313B1F8D13D
:100360000020704701387047002D06BF354603381E
:10037000073815F0010F07D1013015F4807F02BF57
:10038000013015F4C03F0130F0BC0138704700BFA8
:1003900030B4194C0022194BD4F88810184841F495
:1003A0007001184DC4F888101C68174944F0010406
:1003B0001C601A611C68204018609A61DA611A6238
:1003C0009A62DA621A635A639A63DA631A645A6445
:1003D000186820F4802018601A662B681940B1F163
:1003E000005F02D2094B01221A60034B4FF00062FA
:1003F00030BC9A60704700BF00ED00E00044025836
:100400007FEDF6EA0010005C0000FFFF088100515C
:10041000704700BF704700BF704700BF0B6873B1E3
:10042000421E30B4064C134612F8015F023304F842
:10043000015B0D681B1A9D42F5D830BC70477047B0
:100440004C020024704700BF0EB4F0B582B000F13A
:100450006B0504464FF4007207AE0021284656F89B
:10046000047B0AF057FA28463946324601960AF0CC
:1004700057FB2846FFF734FF2946024604F2CE20F8
:1004800002F058FA02B0BDE8F04003B0704700BF78
:100490000B4810B500F1620400F08CF8094800F038
:1004A000D9F902F0A9F802F0DFF82046002102F0A5
:1004B000BBF920460449BDE8104002F03FBA00BF36
:1004C000180B0024980600241D04000838B5084CB9
:1004D000FFF7DEFF02F0CEF8226803460549551CFF
:1004E00005482560FFF7B0FFFA2002F0CDF8F1E7EC
:1004F0004C060024B0BC00084008002410B50E4A89
:100500000E4C0F490F480AF0B7F90B4A0E490F4835
:100510000AF0B2F92146084A0D480AF0ADF9214621
:10052000054A0C480AF0A8F9034A0B490B48BDE8F4
:1005300010400AF0A1B900BF00000024190400080F
:1005400011040008180B0024150400089806002464
:1005500050060024740600244504000840080024C6
:10056000DFF834D0002103E00C4B5B5843500431DA
:100570000B480C4B42189A42F6D30B4A02E0002378
:1005800042F8043B094B9A42F9D3FFF701FF0AF006
:1005900087F9FFF79BFF70470000022060BF00084B
:1005A00000000024300200243002002440580024BF
:1005B000FEE70000F8B5044603232B4D40F6033C4C
:1005C00084F82F3004F12407284B0626284AC4F863
:1005D000313003F10073274803F540732649256045
:1005E0000125C4F83530254B62604FF48072A0605D
:1005F0000020E1603021C4F83930214BA284C4F8D6
:100600003D30C4F841C0A76184F8275084F82950D0
:1006100084F82B0084F82D0061612674194FC4E919
:10062000070000F0CBFD28463021174D00F0C6FD35
:10063000164B4FF4A060022140F20712E365A4F8C4
:1006400060004FF48773124884F86760C4F84570FF
:10065000C4F84950C4F84D0084F86310A4F864202D
:10066000A4F86830F8BD00BF0007050004020404C8
:10067000010508050905070506050A06040300012A
:100680000609000200010801090101070001000438
:1006900004010B0110B5044601F066FA204601F092
:1006A00023F8E01C00F0A0FD04F1630001F066FFF8
:1006B00004F1670001F062FF04F1140000F062FC35
:1006C000BDE8104001F098BF1F2982B009D8084B3F
:1006D00003EB410213F81130507843EA002002B0D6
:1006E000704701230C2043EA002002B0704700BF8E
:1006F000D4BC00082DE9F04114218CB00446FFF76A
:10070000E3FF03461321204604F1F407ADF80C3053
:10071000FFF7DAFF0346122120464FF00108ADF83B
:100720001030FFF7D1FF0346049A38460399ADF81D
:10073000143004F5A476059B06ADCDF8008002F0D8
:1007400009F820461121FFF7BFFF03461821204674
:10075000ADF80C30FFF7B8FF03461721204609AC6F
:10076000ADF81030FFF7B0FF0346049A3046039906
:10077000ADF81430059BCDF8008001F0EBFF284662
:10078000072102F02FF995E8070084E807003846B2
:10079000214602F007F895E8070084E807002146A3
:1007A000304601F0FFFF384602F012F8304602F002
:1007B0000FF80CB0BDE8F08170B5DFED250A8EB002
:1007C00015210446CDED010AFFF77EFF034605A87B
:1007D00004F1540504F18C06ADF80C30039900F0D7
:1007E000A7F820460F21FFF76FFF03460DF1250004
:1007F000ADF81030049900F09BF805A928460222B4
:10080000042300F0A7F804F1A80328460021C4E956
:10081000316300F045FB002394ED680A0146DDEDED
:10082000010A1A46304601F055FF28460121D4F846
:10083000C85000F035FB00230146DDED010A2846D3
:1008400094ED680A1A4601F045FF0EB070BD00BF76
:100850006F12033B3022344B344970B5044686B0E6
:10086000C0F8A42100F1CC06C0F8A03100F1DC05ED
:10087000C0F89C11FFF79EFE2046FFF70BFF01F02A
:10088000F3FE20461C21FFF71FFF034694ED680A84
:100890003046ADF81030049901F0A8FF20461B2126
:1008A000FFF712FF034694ED680A2846ADF81430AE
:1008B000059901F09BFF20461A21C4E93B65FFF72B
:1008C00003FF034619212046ADF80430FFF7FCFE74
:1008D00003460D212046ADF80830FFF7F5FE03462C
:1008E000019994ED680A04F16C00ADF80C30029A9D
:1008F000039B01F009FF2046FFF7FCFE2046FFF7AF
:100900005BFFD4F8A411D4ED676A002007EE901ABB
:10091000B8EE677AC6EE877AC4ED687A06B0BDE8AD
:10092000704000F04BBC00BFAB127A44008E3B47D6
:1009300010B483B00022ADF804100321BDF80440C8
:10094000817004800274C27003B05DF8044B01F042
:1009500015BE00BF2DE9F04F0025DE4CDE4F964658
:1009600042608DB0037007F11C0284F8EEE084460B
:10097000A4F8FB50C4F8EF50C4F8F350C4F8F75093
:10098000BD6101950495C7E90055C7E90255C7E95E
:1009900004554368CDE90255C4E94772CDE90555D0
:1009A000CDE90755CDE90955002B00F06B810E46C6
:1009B0000868A0464968F368B2683D80A8E80F005F
:1009C000337C88F80030337C84F8EF30DCF8043076
:1009D000012B40F2578133467D8053F8118F5868C0
:1009E0009968DA68C4F81180C4F81500C4F81910C1
:1009F000C4F81D201B7C84F8213096F8213084F83F
:100A0000F030DCF80430022B40F23C813346BD80EC
:100A100053F8228F58689968DA68C4F82280C4F8BD
:100A20002600C4F82A10C4F82E201B7C84F832302B
:100A300096F8323084F8F130DCF80430032B40F2C1
:100A400021813346FD8053F8338F58689968DA68FE
:100A5000C4F83380C4F83700C4F83B10C4F83F2012
:100A60001B7C84F8433096F8433084F8F230DCF88D
:100A70000430042B40F20681B14604F144083D8164
:100A800059F8440FD9F80C30D9F80410D9F80820D7
:100A9000A8E80F0099F8103088F8003096F8543024
:100AA00084F8F330DCF80430052B40F2EB80334659
:100AB0007D8153F8558F58689968DA68C4F8558075
:100AC000C4F85900C4F85D10C4F861201B7C84F898
:100AD000653096F8653084F8F430DCF80430062B85
:100AE00040F2D0803346BD8153F8668F58689968CC
:100AF000DA68C4F86680C4F86A00C4F86E10C4F8F6
:100B000072201B7C84F8763096F8763084F8F530C5
:100B1000DCF80430072B40F2B5803346FD8153F8F2
:100B2000778F58689968DA68C4F87780C4F87B00D2
:100B3000C4F87F10C4F883201B7C84F8873096F8B3
:100B4000873084F8F630DCF80430082B40F29A80C5
:100B5000B14604F188083D8259F8880FD9F80C3065
:100B6000D9F80410D9F80820A8E80F0099F8103037
:100B700088F8003096F8983084F8F730DCF80430C4
:100B8000092B7FD9334608F101054FF0000953F8CE
:100B9000998FA7F8129058689968DA68C4F8998014
:100BA0006860A960EA601B7C2B7496F8A93084F811
:100BB000F830DCF804300A2B64D93346A7F81490D7
:100BC00053F8AA8F58689968DA68C4F8AA80C5F8FB
:100BD0001500C5F81910C5F81D201B7C85F82130BB
:100BE00096F8BA3084F8F930DCF804300B2B49D988
:100BF0003346A7F8169053F8BB8F58689968DA689F
:100C0000C4F8BB80C5F82600C5F82A10C5F82E2008
:100C10001B7C85F8323096F8CB3084F8FA30DCF85B
:100C200004300C2B2ED9B24605F13308A7F81890E2
:100C30005AF8CC0FDAF80C30DAF80410DAF8082099
:100C4000A8E80F009AF8103088F8003096F8DC30E9
:100C500084F8FB30DCF804300D2B13D93346A7F8A9
:100C60001A9053F8DD7F58689968DA68C4F8DD7027
:100C7000A864E9642A651B7C85F8543096F8ED3049
:100C800084F8FC3015484FF480719CF800305FFA0E
:100C90008EF24FF480260027C4F824010120A4F826
:100CA00038110821C4F83C210022C4E94A67C4E98C
:100CB0004C01002600270320002184F84021C4F8BD
:100CC0005821C4E95267C4E95401002B00F08B801D
:100CD00006E000BF880B0024000000300020024026
:100CE000012200200121013B84F85C21C4E95A0162
:100CF000082B0AD8DFE803F005868B90959A9FA50C
:100D0000AC0003224023C4E958235548002503F0D2
:100D100083FC01A95248019503F088FD40F2FF735E
:100D2000022204200021CDE9062394F8EE30CDE91B
:100D30000801002B48D00627DFF85491494EDFF810
:100D40005481DFF854B1DFF854A119E0022A30D001
:100D5000012A40D15B78012B3FD0002B0CBF3346DA
:100D60000023013504A93E48EDB2CDE9043703F074
:100D70008DF994F8EE30AB4226D93B4B53F82570F1
:100D800005EB0513E25C2344002ADFD15B78062BD8
:100D90001DD0072B23D0022B2CD0032B2CD06BB3D0
:100DA000012B2DD0042B21D0052B304B18BF002355
:100DB000D7E75B78042B0CD0052B12D0C3B1012BE5
:100DC0002B4B18BF0023CCE70DB0BDE8F08F294BAB
:100DD000C7E74346C5E70023C3E74B46C1E7534691
:100DE000BFE75B46BDE784F85C318EE7224BB8E78E
:100DF000224BB6E7224BB4E7224BB2E7224BB0E7D7
:100E0000224BAEE707226023C4E958237DE70F2277
:100E10008023C4E9582378E71F22A023C4E958237C
:100E200073E73F22C023C4E958236EE77F22E02303
:100E3000C4E9582369E7FF224FF48073C4E95823BB
:100E400063E740F2FF124FF49073C4E958235CE764
:100E500040F2FF324FF4A073C4E9582355E700BFB6
:100E6000AC0C00240002B02514BD00080000B84FEF
:100E70000008302E0800900C0000844B0004002A6B
:100E80000040C03A0080F03E00002143000052477D
:100E90002000F0141000C010000180218000501DBF
:100EA000034B0D29D3F81C0198BF00EB410070479C
:100EB000880B00241D4B02689A4200D070471C4BDF
:100EC0004FF48061D3F8D82070B542F02002194D5C
:100ED00004460920C5F8981182B0C5F88C014FF47A
:100EE0000061C3F8D82005F5C476D3F8D8204FF4B4
:100EF0000053114802F02002C5F89C11C5F8A0313A
:100F00004FF4807101920023019AC5F888013046A0
:100F1000C5F8A411C5E96433C5E96A3307F0EEF9F1
:100F2000E664C5F8C04102B070BD00BF00200240B9
:100F300000440258880B002440000240014807F09A
:100F4000A7BB00BF100D00240B46920001461846B7
:100F500009F0D2BC014807F09BBB00BFD82A00248F
:100F6000014807F095BB00BF502B0024014807F053
:100F70008FBB00BFC82B0024014807F089BB00BF0E
:100F8000302900242DE9F0470646814C814D88B078
:100F9000814AD0E90030C4F82468802BC5F8246861
:100FA000077828BF802390F80B9090F80C80C4F845
:100FB0001038C5F81038C378226084F81C380379DB
:100FC0002A6085F81C3801F087F8B06808B100F095
:100FD0003BFEF06808B100F037FED5F810184FF06E
:100FE000020E6E4A17F0FD0F0191D4F8101802F5A9
:100FF00000606B4B01FA0EFA0199AB6003F50063D8
:1010000001FA0EF1E260A060C4F818A8EB60C5F820
:10101000181884F81EE885F81EE82ED1F14584F8EA
:101020001D9800F08A80B9F1030F76D0B9F1010F55
:101030007DD0914600F2FF7340F6FE72A3EB0903E8
:10104000934240F28C804FF40062002109F062FC70
:1010500048464FF40062002109F05CFC4FF4007236
:101060000021504809F056FC4FF4007200214E4810
:1010700009F050FC0023C4F814387B1E012B10D952
:1010800000274A484FF4804201230024077002A938
:1010900047480594CDE9022306F052FE08B0BDE8AA
:1010A000F087B8F1010F85F81D8854D0B8F1020F10
:1010B0000AD171681023F0684BF68032897AB1FA50
:1010C00081F1490909F072F9A86840F6FE72ED68ED
:1010D00000F2FF735B1B93424ED94FF40062002174
:1010E00009F018FC28464FF40062002109F012FCB8
:1010F0004FF4007200212F48A7F1020709F00AFC03
:101100004FF4007200212C4809F004FCB7FA87F76D
:1011100000237F09C4F81438B3E740F60133ADF873
:101120000830029809F048FAD4E9020982E7B06869
:1011300009F0FCF8D4E902097CE7716810234BF64A
:101140008032B068497AB1FA81F1490909F02EF983
:10115000D4E902096EE7F06809F0E8F8B4E7031F84
:10116000A9F1040200F2FC70002143F8041F83423D
:1011700042F8041FF9D171E7031F2A1F00F2FC7027
:10118000002143F8041F984242F8041FF9D1AFE749
:10119000880D0024B0150024490F0008FC00003021
:1011A000FC100030980D002498110024D81D002454
:1011B00000180258C0150024C019002468B9084B53
:1011C000802993F81E2828BF8021C3F8101801FB3E
:1011D00002F14900C3F818187047024BF0E700BF4E
:1011E000880D0024B01500242DE9F04FA44C0346CF
:1011F000ABB0204623655F7893F8008004F03EF89A
:10120000E8B9012F4FF001059E49034614BF4FF482
:1012100080124FF40002E060A560C4E9001592FA64
:10122000A2F2B2FA82F24FF48076E0612046013AEF
:101230002362C4E9042603F0B5FF034618B1012078
:101240002BB0BDE8F08F4FF0660C41F2883220469B
:101250000EA91496179313931B93CDF838C0CDE9BC
:101260001533CDE9193304F027F80028E7D1992385
:1012700041F288320EA920460E9304F01DF8002892
:10128000DDD14FF0000B4FF0010C4FF0050A4FF08D
:101290008079249008AA21901CA9299041F28833D2
:1012A000CDF870A0CDF89490CDE908BC4FF0100BAC
:1012B0004FF0010CCDE90ABC4FF0000B4FF4800C4D
:1012C000CDE92260CDE927002046CDE90CBC04F031
:1012D0005FF90028B3D1ADF808001390CDE9146090
:1012E000CDE91609CDE91850CDE91A00002F00F01C
:1012F000CB80F023ADF80830C02341F288320EA92C
:101300005F480E9303F0D8FF002898D141F288324D
:101310005B4802A904F03AF8044600288FD1002661
:1013200001274FF480754FF080794FF0000A4FF499
:10133000800B219441F28833299408AA1CA95048B3
:101340002295CDF89490CDE90867CDE92344102685
:101350000127CDE927440524CDE90A671C94CDE98E
:101360000CAB04F015F900287FF469AF01240623C3
:101370008DF8070041F2883213901CA91B90219030
:1013800029900E941C93CDE91450CDE91609CDE9AE
:101390001900CDE92250CDE92400CDE927003848D5
:1013A00003F08AFF00287FF44AAF102601270520AA
:1013B00041F2883308AA1CA91C903148CDF89490BA
:1013C000CDE90A6702260227CDE90CABCDE9086713
:1013D00004F0DEF800287FF432AF41F288320EA923
:1013E000274803F069FF00287FF429AF402341F22A
:1013F00088320DF1070122488DF8073003F0C6FF4F
:1014000000287FF41CAF10260127052002AA41F214
:1014100088330EA90E901A48CDF85C90CDE9046788
:1014200040264027CDE906ABCDE9026704F0B0F8CD
:10143000064600287FF403AF22950025219605205B
:10144000299601271C9008AA41F288331CA90C4850
:10145000CDF89490CDE92366CDE927660126CDE944
:1014600008561026CDE90CABCDE90A6704F090F8D8
:1014700000287FF4E4AEB8F1000F50D00020DFE682
:10148000DC1D002400500052612341F288320EA975
:1014900020460E9303F010FF00287FF4D0AE41F2F7
:1014A000883202A9204603F0EFFF00287FF4C7AE80
:1014B000BDF808300625259041F2883223F07803E4
:1014C000219029901CA943F0400322961C95ADF869
:1014D0000830CDE92300CDE92700204603F0ECFEDB
:1014E00000287FF4ACAE10260127204602250224F6
:1014F00041F2883308AA1CA9CDF870A0CDF89490C9
:10150000CDE90A6700264FF48007CDE90845CDE90B
:101510000C6704F03DF800283FF4EEAE8FE6EB24B4
:10152000A0264FF4005706251C9400244FF080504D
:1015300000234FF480784FF4406929900EAA1CA92B
:101540000C48CDE91E67CDE920454FF440464FF0E9
:10155000407700240025CDE92733CDE92289CDE964
:101560002467CDE90E4504F087F8003818BF012044
:1015700066E600BFDC1D00243E4B02682DE9F04703
:101580009A428CB04FF00005CDE90755CDE90955D9
:101590000B9502D00CB0BDE8F087374B02263749D7
:1015A00005AFD3F8D420B146DFF8D4A04FF003083C
:1015B00042F48042C3F8D420D3F8D42002F480420D
:1015C0000092009AD3F8E02042F04002C3F8E020F5
:1015D000D3F8E02002F040020192019AD3F8E02013
:1015E00042F02002C3F8E020D3F8E02002F020020D
:1015F0000292029AD3F8E02042F01002C3F8E020F1
:10160000D3F8E02002F010020392039AD3F8E0200E
:101610003243C3F8E020D3F8E03033400493049B16
:1016200003C90590ADF81810DAF85040344402367A
:10163000204601F0B3F9034620461C4601F0B6F9F6
:1016400017F8013B024607A920460B93CDE907296D
:10165000CDE9095806F074FB0E2EE5D100225C207E
:10166000114603F059F95C2003F090F90CB0BDE885
:10167000F08700BF005000520044025854BD0008DB
:10168000DC1D0024124B02689A4200D07047114AB8
:10169000D2F8D43070B523F4804302250E4EC2F840
:1016A000D430346D2C440235204601F077F90346DE
:1016B00020461C4601F07AF90146204606F064FCFB
:1016C0000E2DEED15C20BDE8704003F06DB900BF77
:1016D0000050005200440258DC1D0024014804F070
:1016E00053B800BFDC1D00242DE9F043444C8BB0FF
:1016F000A063037823B1002528460BB0BDE8F08332
:10170000404A0A230026012762600822089320230A
:1017100002A9201DC4E90267C4E9042340264FF44E
:10172000C07700224FF40063C4E90667C4E90823C8
:101730004FF48056002702220723C4E90A67CDE947
:1017400002230426032200230827CDE90623CDE93E
:10175000046703F0A5F9054600284CD14FF00108B5
:101760004FF010090126002702A94FF48052019082
:10177000201DCDE902894FF002084FF01009CDE994
:10178000046703F0B7F9642007F08CFB02A94FF45B
:101790008052201DCDE90467CDE9028904264FF06F
:1017A00003084FF01009002703F0A4F902A94FF431
:1017B0008052201DCDE90467CDE9028903F09AF932
:1017C00040F232234FF0010C042601931027019BB5
:1017D00002A94FF48052201DCDE904C3CDE9026770
:1017E00003F088F9201D40F6060103F0A3F928460E
:1017F0000BB0BDE8F083012528460BB0BDE8F083AF
:10180000381E002440410052694A2DE9F043156812
:101810008FB015B10FB0BDE8F083664B01210C24E9
:10182000002611600327D3F8D4204FF683784FF0B9
:10183000020908A942F480525F48C3F8D420D3F8C3
:10184000D42002F480520092009AD3F8E02042F0B3
:101850001002C3F8E020D3F8E02002F01002019259
:10186000019AD3F8E02042F04002C3F8E020D3F818
:10187000E02002F040020292029AD3F8E02042F007
:101880000802C3F8E020D3F8E02002F00802039237
:10189000039AD3F8E02042F48072C3F8E020D3F832
:1018A000E02002F480720492049AD3F8E02042F01F
:1018B0008002C3F8E020D3F8E02002F08002059215
:1018C000059AD3F8E02042F02002C3F8E020D3F8D4
:1018D000E02002F020020692069AD3F8E02042F0BF
:1018E0000402C3F8E020D3F8E0300C9403F00403C2
:1018F0000793079BCDE90A67CDE9088906F020FA2E
:1019000048F23712022308A92C480C94DFF8C08053
:10191000CDE90A67CDE9082306F012FA4CF203720A
:10192000022308A926480C94CDE90A67CDE90823CB
:1019300006F006FA40F2FF62022308A921480C943F
:10194000CDE90A67CDE9082306F0FAF94FF60C72E3
:10195000022308A91C480C94CDE90A67CDE90823A5
:1019600006F0EEF94FF63F02022308A917480C943F
:10197000CDE90823CDE90A6706F0E2F9D8F8380086
:10198000013001F00BF8D8F838300646581C01F049
:101990000DF802220746032308A930460C94089745
:1019A0000B93CDE9092506F0CBF90FB0BDE8F08324
:1019B000301E00240044025800100258001802583B
:1019C000000C025800200258001C02580014025853
:1019D000381E0024000000002DE9F04FCFB04C224B
:1019E00000210AA808F096FF2022002102A808F092
:1019F00091FFBC2200211EA808F08CFF022007F0F6
:101A0000BBF9514A0021514B01911846D16A21F08E
:101A10000101D162D26A02F0010201929A6942F494
:101A200040429A619B6903F440430193019B83699F
:101A30009B04FCD5464A022421204FF48031936A4E
:101A40000126042523F0030323439362C8230822BD
:101A50001096169300231794199415951C93CDE9AD
:101A60000A0105210AA8CDE913441891CDE91A23EA
:101A700004F0A8FB00B1FEE73F260327002208235D
:101A800002A82146CDE90267CDE904234026402380
:101A90004FF480624027CDE90823CDE9066704F0C2
:101AA000CDFE034600B1FEE780220A26022700256C
:101AB00034924FF4807233948024439200224FF08A
:101AC00054084FF008091EA8CDE93B334FF480536A
:101AD00035934FF4803346930623CDE92267CDE951
:101AE000244540F22716402704242025CDE926234B
:101AF0004FF480620023CDE92867CDE92A45CDE97E
:101B00002C230FF23C0BDBE900AB0026022700245C
:101B1000002500224FF44013CDE91EABCDE920890A
:101B2000CDE92E67CDE93045CDE93E2305F0AEF88D
:101B300000B1FEE707F046F94FB0BDE8F08F00BFF7
:101B400009130F0304000000000400580048025865
:101B50000044025808B507F093F9BDE8084002F0C8
:101B60009BBF00BFFFBE704770B584B0012507F072
:101B700059F90024FFF730FF02F042FF4FF04051C7
:101B80002E4A4FF4807368460191ADF80050CDE9BC
:101B9000022302F057FF40F2011119224FF0404397
:101BA0006846ADF80E108DF8082001938DF80150AD
:101BB0008DF80D408DF80A4002F044FF042002F039
:101BC0002FFF08F013FDBFF34F8FBFF36F8F1C4B38
:101BD000C3F85042BFF34F8FBFF36F8F5A6942F47F
:101BE00000325A61BFF34F8FBFF36F8FC3F8844049
:101BF000BFF34F8FD3F8801043F6E074C1F34E3239
:101C0000C1F3C901520102EA0405084645EA80769B
:101C10000138C3F86062461CF8D1203A12F1200F57
:101C2000F1D1BFF34F8F5A6942F480325A61BFF34A
:101C30004F8FBFF36F8F04B070BD00BF0D00010365
:101C400000ED00E007F02EB938B5054600F0B6FE0D
:101C500004462B78022B3FD0032B35D0012B2BD001
:101C60002868214B214A1860A988998022606B79E5
:101C7000012B18D0022B1CD0C3B100250123204614
:101C8000E360A5602562C4E90455C4E9065503F084
:101C90001BF82946204603F045F929462046BDE8B1
:101CA000384003F06BB9124B6360E6E7114B636099
:101CB000E3E7114B6360E0E72868104B104A1860B7
:101CC000A98899802260D2E728680E4B0E4A1860D6
:101CD000A98899802260CAE728680C4B0C4A1860D2
:101CE000A98899802260C2E7741E00240054004035
:101CF0003211D0208A62E0301A0980107C1E002444
:101D0000005800408C1E0024001C0058841E002433
:101D1000005C00409C4A0368934230B58FB055D0B8
:101D20009A4A934200F09C80994A934200F0EE80D8
:101D3000984A934201D00FB030BD974B974CD3F8DF
:101D4000E020601C42F00202C3F8E020D3F8E0304B
:101D500003F002030893089B00F020FE0546601C78
:101D600000F024FE227812210023012ACDE9090186
:101D7000CDE90B3301D804230D9309A9284601911D
:101D800005F0DEFF864800F009FE0546844800F0B5
:101D90000DFE227800231224012A0199CDE90904BD
:101DA000CDE90B3301D804230D93284605F0C8FF75
:101DB000794BD3F8F42042F08002C3F8F420D3F832
:101DC000F43003F080030993099BB4E7724B754C20
:101DD000D3F8E020601C42F00202C3F8E020D3F800
:101DE000E03003F002030293029B00F0D7FD0546AA
:101DF000601C00F0DBFD227812210023012ACDE9CE
:101E00000901CDE90B3301D804230D9309A9284614
:101E1000019105F095FF644800F0C0FD0546624859
:101E200000F0C4FD227800231224012A0199CDE993
:101E30000904CDE90B3301D804230D93284605F09E
:101E40007FFF554BD3F8E82042F40012C3F8E82096
:101E5000D3F8E83003F400130393039B0FB030BDB5
:101E60004D4B524CD3F8E020601C42F08002C3F886
:101E7000E020D3F8E02002F080020492049AD3F824
:101E8000E02042F00202C3F8E020D3F8E03003F093
:101E900002030593059B00F081FD0546601C00F0E0
:101EA00085FD227812210023012ACDE90901CDE91F
:101EB0000B3301D804230D9309A92846019105F09D
:101EC0003FFF3B4800F06AFD0546394800F06EFDD3
:101ED000227800231224012A0199CDE90904CDE9D1
:101EE0000B3301D804230D93284605F029FF2A4B14
:101EF000D3F8E82042F48002C3F8E820D3F8E830B1
:101F000003F480030693069B0FB030BD294C601C80
:101F100000F044FD0546601C00F048FD22781221C7
:101F20000023012ACDE90901CDE90B3301D80423AF
:101F30000D9309A92846019105F002FF1E4800F003
:101F40002DFD05461C4800F031FD227800231224A7
:101F5000012A0199CDE90904CDE90B3301D8042305
:101F60000D93284605F0ECFE0B4BD3F8E82042F425
:101F70000002C3F8E820D3F8E83003F40003079325
:101F8000079B0FB030BD00BF005400400058004018
:101F9000005C0040001C0058004402588C1E0024C5
:101FA0008F1E0024741E0024771E00247C1E002433
:101FB0007F1E0024841E0024871E0024184BF0B5C9
:101FC000197983B0012929D000221146002415482F
:101FD00002230125144F4BF68036019200910760D1
:101FE0000662C461114EC460C0E90135C0E9054410
:101FF000C0E90B4403F082FE0D4802234461C46132
:10200000C46044630660DDE90012C0E90154C0E920
:102010000B4403B0BDE8F04003F070BE0222D5E7E8
:102020009C1E0024A8290024045C0140245C01407B
:102030009828002470B5254D82B0E978012936D062
:1020400000226B7A1146002B35D0012B3AD16B79E7
:102050001F48002B0CBF03230223436000244BF6D0
:102060008036022306628460C461C460C0E905440E
:10207000C0E90B441648CDE9001203F03FFEEB79AE
:1020800014480125A3424FF0020344610CBF03260C
:102090000226C4614660C46044638560DDE90012C5
:1020A000C0E90B4402B0BDE8704003F027BE6B7A74
:1020B0000222002BC9D16B790548B3FA83F35B097F
:1020C0004360CBE7024801234360C7E79C1E00241E
:1020D000402C0024402A0024F8B5194F044600F192
:1020E000200C3E462068103454F80C1C354654F839
:1020F000082C103654F8043C64450FC5F2D12378FF
:10210000104A3370104C11493B78114D1460012B6B
:10211000104804F58064104A0D6010490460116095
:1021200005D0022B01D033B1F8BDFFF783FFBDE826
:10213000F840FFF743BFBDE8F840FFF77BBF00BFA3
:102140009C1E0024402C002404580140402A0024F6
:1021500024580140A829002498280024245C014028
:10216000B14BD3F8E02042F010022DE9F04FC3F854
:10217000E02093B0D3F8E0200446AC4D02F010020A
:102180000092009AD3F8E02042F00202C3F8E02067
:10219000D3F8E02002F002020192019AD3F8E02085
:1021A00042F04002C3F8E020D3F8E02002F0400201
:1021B0000292029AD3F8E02042F00802C3F8E0202D
:1021C000D3F8E02002F008020392039AD3F8E0204B
:1021D00042F00402C3F8E020D3F8E02002F0040249
:1021E0000492049AD3F8E02042F00102C3F8E02000
:1021F000D3F8E02002F001020592059AD3F8E0201E
:1022000042F48072C3F8E020D3F8E010026801F4D1
:102210008071AA4206910699D3F8E01041F080013E
:10222000C3F8E010D3F8E01001F08001079107999E
:10223000D3F8E01041F02001C3F8E010D3F8E0102B
:1022400001F02001089108990CD0794B9A4200F0D6
:102250000781784B9A423AD0774B9A4275D013B0A7
:10226000BDE8F08F754A1168002900F06E810025E5
:10227000DFF8E89101310DF1340809EB450A2F46EA
:102280005FFA85FB1160504615B96D4B597AA9B9B3
:1022900000F084FB0646504600F088FB022301460E
:1022A000062230461192CDE90D134146CDE90F7754
:1022B00005F046FDBBF1040F00F00E81013509EB7E
:1022C000450A5FFA85FB5046002DDED0E0E75D4B06
:1022D0001A6862B95449D1F8F00040F40000C1F81E
:1022E000F000D1F8F01001F400010B910B99616836
:1022F0000132554D4FF4804021F002011A60534ADB
:102300004FF4805301294FF059072A604FF4807130
:102310000CBF002240226B614FF480660023AA604C
:102320004FF40032A8612846EB606B626F602E614B
:10233000C5E9071205F0E2FF22683F4BC4F884505C
:102340009A42AC63C4F8805089D13E4B1A68002A87
:1023500000F0ED8000253E4E01320DF13408A94613
:102360004FF0020A30465FFA85FB1A60CDB9344B54
:102370009B7A7BB900F012FB0746304600F016FB53
:102380000A230D901095CDE90EA5384641461193CC
:1023900005F0D6FC013502365FFA85FB3046002D8C
:1023A000E5D000F0FBFA0746304600F0FFFABBF13B
:1023B000020F02464FF00A0341463846CDE90D2A86
:1023C000CDE90F9900F0B180119305F0B9FCBBF194
:1023D000040FDFD163685A221E4D4FF4806623F04C
:1023E00002031D496A604FF48052012B4FF4804074
:1023F00029604FF480710CBF00234023A861284658
:10240000AB600023C5E904624FF40032EB606B62FD
:10241000C5E9071205F072FFC4F88450AC63C4F834
:10242000805013B0BDE8F08F0044025804580140BA
:1024300024580140045C0140245C0140941E0024A7
:102440009C1E0024981E0024C82B00245800024023
:10245000B31E00243029002470000240A91E00246D
:10246000404A136863B94049D1F8F00040F4800055
:10247000C1F8F000D1F8F01001F480010A910A9936
:1024800061680133394D4FF4804021F0020113603F
:10249000374A4FF4805301294FF058072A604FF410
:1024A00080710CBF002240226B614FF480660023D4
:1024B000AA604FF40032A86128466F602E61EB607D
:1024C0006B62C5E9071205F019FF2268C4F8845051
:1024D000AC63C4F88050BCE663685722254D4FF4C6
:1024E000806623F0020324496A604FF48052012B76
:1024F0004FF4804029604FF480710CBF00234023CB
:10250000A8612846AB600023C5E904624FF400329D
:10251000EB606B62C5E9071205F0F0FE2268C4F8B3
:102520008450AC63C4F880508FE608232DE70E4931
:10253000D1F8F00040F40000C1F8F000D1F8F0103C
:1025400001F400010C910C9904E7D3F8F00040F479
:102550008000C3F8F000D3F8F03003F4800309934F
:10256000099B84E6941E002400440258502B00244A
:1025700028000240D82A00241000024010B58378B9
:1025800086B00446022B22D0032B1ED0012B1CD078
:1025900000230293E378012B15D0022B13D00023E4
:1025A000039300232046049300F0F8F903462046E5
:1025B0001C4600F0FBF901A903462046019305F0F3
:1025C000BFFB06B010BD0393EBE70293E2E71123D4
:1025D0000293DFE770B506460D4600F0DFF90446CA
:1025E000304600F0E3F92A1E0146204618BF0122BA
:1025F000BDE8704005F096BDF0B5194BC827194EDF
:1026000002224FF0804403F10C050021002089B024
:102610009A60DC60802200245A620194C3E900675A
:102620004FF0FF360027C3E90401C3E906672846D7
:10263000CDE90444CDE90644CDE9024403F020FC91
:102640004FF4805304A92846049303F0CDFC01A95C
:1026500028460194039403F085FD09B0F0BD00BF46
:10266000C01E0024400D0300014803F0A1BC00BFC0
:10267000CC1E0024034BDA681B68506AB0FBF3F0F1
:10268000704700BFC01E0024054A1368D26803FBD0
:1026900000F0516A536A5B1A9842FBD8704700BF3A
:1026A000C01E00240368B3F1804F00D07047084B70
:1026B00082B0D3F8E82042F00102C3F8E820D3F852
:1026C000E83003F001030193019B02B0704700BFA3
:1026D00000440258B6EE007A016060EE200A0276ED
:1026E000F7EE007A437680ED020A60EE870AC0EDCD
:1026F000047A87EEA07A10B40024C46044615DF8C7
:10270000044B80ED017A704730B5044685B04FF434
:1027100080751030ADF80820ADF80C100180A28251
:102720006582E5828DED000AADF80430FFF726FFE3
:1027300004F11400FFF722FF9DED000A20460199E5
:1027400000F054F800224FF6FF73E261238305B0D6
:1027500030BD00BF30B585B004469FED110A9DF82D
:102760002050ADF80C100399ADF808202A468DEDE5
:10277000000AADF8043007F07DFF9DED000A2A46FF
:1027800004F11C00029907F075FF9DED000A2A462E
:1027900004F13800019905B0BDE8304007F06ABF88
:1027A00000007A4438B50C46054691ED000A07F062
:1027B00085FF94ED010A05F11C0007F07FFF05F18C
:1027C000380094ED020ABDE8384007F077BF00BF3B
:1027D00010B5044607F084FF04F11C0007F080FFE9
:1027E00004F13800BDE8104007F07ABFB7EE007A78
:1027F00001220346C7EE007A70B4002683B0C1F30D
:1028000007250024ADF80410C660417010449D7087
:10281000DC701A709A809A71C3ED027A03B070BCB2
:10282000FFF7ACBE704700BF012910B506D00229E2
:1028300015D051B1BDE8104006F0C4BA0A4634487C
:10284000344906F047FBE8B1FEE7334B0A46334C08
:10285000334934481C6006F03DFB68B1FEE70122B5
:102860002C492B4806F036FB00B1FEE72E492848DC
:1028700006F052FBC0B1FEE72B492A4806F04CFB9C
:1028800060B1FEE72849224806F046FB00B1FEE7AA
:1028900026491F4807F0C8F808B3FEE72449214835
:1028A00007F0C2F8A8B1FEE72049194807F0BCF8C4
:1028B00000B1FEE7164806F045FB48B9164B024644
:1028C000164C174917481C6006F004FB68B1FEE778
:1028D000FEE7144806F036FB0028ABD0FEE70C48B4
:1028E00006F030FB0028A5D0FEE70F490D4806F0A2
:1028F00013FB00B1FEE70E490A4807F095F800B156
:10290000FEE7084806F01EFB002893D0FEE700BF54
:10291000A821002440010024442400242528000884
:10292000240100240C1F002414000024B4010024FE
:10293000A4010024084691B207F0DCBC034A084613
:10294000034B1160196007F0EBBC00BF4424002466
:1029500048240024014800F00DB900BF082E0024CF
:10296000014800F007B900BF082E0024014800F01C
:1029700001B900BF082E0024014800F0FBB800BFD9
:1029800010320024014800F0F5B800BF10320024D6
:10299000014800F0EFB800BF10320024024B02786B
:1029A00053F82200704700BF7CBD0008024B4278FC
:1029B00033F81200704700BF5CBD000810B485B04A
:1029C0000478074B0DF1100C0FCB0CEB84040CE9D1
:1029D0000F0054F8100C05B05DF8044B704700BFB1
:1029E00090BC0008074B01EB410103EB810110B4DF
:1029F0004A680C688B68046042605DF8044B836031
:102A0000704700BFACBD0008F0B58BB0002800F0E7
:102A1000888090F8BD330546046803F0FF02002B60
:102A200079D0204603232E462F1D85F8BD33E36B56
:102A30006C4613F4807308BF2B6100F081FE56F8DA
:102A400010EBB446BCE80F000FC4BCE80F000FC485
:102A50009CE8030084E80300704697E80E0000F04D
:102A600081FD044630B101240223204685F8BD33A0
:102A70000BB0F0BD0146286800F06AFE686858B3E4
:102A800022464FF0010E2146C2EBC20302F1010CB7
:102A900005EB830383F83C20A3F842205FFA8CF215
:102AA00083F83DE0824283F83F101965C3E91111B4
:102AB000EAD30022C4EBC403611C05EB830383F853
:102AC000FC41CCB283F8FD21844283F8FF21C3F896
:102AD0001022C3E98122EDD36C460FCE0FC40FCE76
:102AE0000FC496E8030084E8030097E80E00286806
:102AF00000F046FE04460028B5D101226B6A85F835
:102B00003800934285F8BD230FD0286801F034FACD
:102B100020460BB0F0BD80F8BC2306F0D3FF286838
:102B200080E7012420460BB0F0BD284600F002FDEE
:102B3000EBE700BF10B590F8BC3304460068012BEA
:102B400016D00122A36A934284F8BC2308D001F076
:102B500005FA206800F0ECFD002084F8BC0310BDED
:102B6000A3699342F3D0836B43F480338363EEE72E
:102B7000022010BD2DE9F04F066887B004463046AC
:102B800001F038FA10B107B0BDE8F08F8246206836
:102B900001F000FA0028F6D0206801F0FBF910F0EF
:102BA000020F206803D0436903F00203436101F080
:102BB000F1F910F4002B206840F0608101F0EAF98F
:102BC000420300F1EE80D4F80080404601F0E2F9C3
:102BD000002874DB206801F0DDF9000564D420686A
:102BE00001F0D8F9020114D52268536903F000639B
:102BF000536194F8F433002B40F0A8810121204662
:102C000084F8F413536DC3F38303C4F8F83300F06E
:102C1000A7FC206801F0BEF9C3047BD4206801F052
:102C2000B9F910F4005F20685DD101F0B3F910F03C
:102C3000100F206812D0836923F010038361356A76
:102C4000C5F3434305F00F07022B00F04B82062B20
:102C500000F09281836943F01003836101F09AF9D7
:102C6000070700F16A81206801F094F9C60200F1BB
:102C70005981206801F08EF9850200F148812068B1
:102C800001F088F9400000F13981206801F082F9F3
:102C900041077FF578AF23685D686A0700F14382DA
:102CA0005A682A435A606EE7D6F80838D90700F107
:102CB00036822068436903F40063436190E7D6F8E5
:102CC000043823F00103C6F8043894F8F433012BD8
:102CD00000F04B81204606F0EDFF2068436903F0C9
:102CE0000043436177E701F089F9206800F050FE66
:102CF0002568E06003F0BCFE227B0146284600F018
:102D00009BFC204606F0ACFF2068436903F40053A7
:102D100043618AE7D6F804381021206806F500657B
:102D200023F001036B6000F021FE6768B7B106F580
:102D300010634FF67F3199600AF1010A1A68203357
:102D4000BA4522F4001243F8202CC3F8E811D3F856
:102D5000E02122F40012C3F8E021ECD1EB69226BF0
:102D600043F00113EB61002A40F0F4806A6942F2FB
:102D70002B0313436B612B6943F00B032B61D6F8D4
:102D8000003804F57172217C23F4FE632068C6F8D4
:102D9000003801F04FF92068436903F48053436120
:102DA0003DE7206801F002F98146002800F0FA8032
:102DB00006F51063D4F8008025464FF0000BCDF8DF
:102DC00010A0CDE9023607E05FEA59090BF1010BCB
:102DD00005F11C0500F0EA8019F0010FF4D05FFA4C
:102DE0008BF74046394601F0F3F8C307064623D572
:102DF0004FF0010C039B0BF00F00029AD3F834182C
:102E00000CFA00F002EB4B1221EA00012069604548
:102E1000C3F83418C2F808C003D1D5E9112313440C
:102E2000AB643946204606F00DFF2369012B03D120
:102E3000BBF1000F00F0B581300704D5029B0822DA
:102E400003EB4B139A60F10604D5029B102203EBAF
:102E50004B139A60720604D5029B402203EB4B137E
:102E60009A60B30704D5029B022203EB4B139A60CE
:102E7000360600F1D580D4F80080A5E701F08EF881
:102E80000546002800F08B8006F53063206804F5C5
:102E900001784FF0000B9946CDE9036A06E06D0812
:102EA0000BF1010B08F11C0800F08380EA07F6D54E
:102EB0005FFA8BF1029101F081F810F0010F0646E4
:102EC000029979D1310700F1F8802068F30603D523
:102ED00009EB4B1310229A60B70607D52169012927
:102EE00000F0598109EB4B1320229A60B104D6D52A
:102EF00009EB4B134FF400529A60D0E7204606F0DE
:102F0000E5FE2068436903F080434361BEE6204646
:102F10005FFA8BF106F0D2FE2068436903F40013D8
:102F20004361ADE620465FFA8BF106F0CBFE2068E8
:102F3000436903F4801343619CE6204606F08CFE4F
:102F40002068436903F0080343618DE6204606F0DC
:102F500099FE5EE6D5F8843043F00B03C5F8843063
:102F60006B6C43F00B036B6409E70021204684F887
:102F7000F41300F0F5FAB0E6C7EBC707082204F532
:102F80007171304600F066FFC5F30A1304EB870247
:102F90002068D2F814120B44C2F814325AE6834661
:102FA00020680BE68346D4F800800EE6DDE9036A6C
:102FB0000BE6DDE9036A01E620680122D4F810C0BF
:102FC00009EB4B1A00F530679445CAF8082007EB67
:102FD0004B17036CD7F808E000F0C580924A934283
:102FE00040F0BD801EF4004F00F0B4804FF400426A
:102FF0003307BA607FF56AAF026CB8688A4B9A42B1
:1030000000F096802046029206F00CFE874B029A52
:103010009A4200F2958008222068CAF8082055E7F5
:10302000D5E91413D4F800808B423FF6CDAECA1A0E
:10303000686C08F5106ACDF8148082420AEB4B1ACE
:1030400028BF0246DAF81800033280B2B0EB920FC4
:103050001BD222E0F9B194F810C0D5E91131CDF8B6
:1030600000C09E4228BF1E46B3B200F0DDFEDAF873
:103070001820A96CF01C6B6D92B231443344B2EB52
:10308000900FA9646B65296D05D38B42A1EB0306F4
:103090003A464046DED3D4F800808B42FFF494AE2B
:1030A000059B0BF00F010120D3F8342800FA01F141
:1030B00022EA0102C3F8342886E622684FEA4B135D
:1030C000216902F5306709EB030A0129126C07EB4D
:1030D0004B17B86892D1554B9A4229D8204606F032
:1030E000A1FD98E747F6F0731D423FF4B3ADC7EB7F
:1030F000C707C5F30A12304604EB87071546D7F811
:10310000081200F0A7FED7F80822D7F814322A4494
:1031100020681D44C7F80822C7F814529AE52046D3
:1031200006F0B0FDC5E5204606F0D4FD2368B7E5FE
:10313000020402D54FF40042BA60204606F072FD48
:10314000216901297FF467AF04F57172206800F0EE
:1031500071FF60E71EF0200F01D02023BB602046E6
:1031600006F066FDAEE61EF0080F25D02F4A93420A
:1031700005D91EF4004F02D04FF40043BB60204637
:1031800006F050FD04F571720121206800F052FF35
:103190000823BB6096E604F5717200F04BFF2068CF
:1031A000A0E6236D002B7FF447AE04F57172012178
:1031B000206800F03FFF3FE61EF0200F07D02022DE
:1031C000BA6033077FF582AE026CB86883E71EF001
:1031D000280FF6D1154A934206D91EF4004F03D0AA
:1031E0004FF40042BA60ECE73B692046D8F8007023
:1031F000D8F80420C3F312033A44FB1AC8F8042099
:10320000C8F8103006F014FDBBF1000F7FF45AAE81
:10321000D4F81032002B7FF455AE04F57172012101
:10322000206800F007FF4DE60A31544F0A30544F32
:1032300090F8BC23012A0DD0012210B5044680F875
:103240003810006884F8BC2300F076FE002084F873
:10325000BC0310BD02207047F8B501F00F05090648
:1032600006464FF01C0422D4C5EBC50004FB0564E0
:10327000002706EB800004F5FE7180F8FD714878A8
:103280000D708A60CB7000B1CD80022B01D100237C
:103290000B7196F8BC33012B15D00123306886F8EA
:1032A000BC3300F081FB002086F8BC03F8BDC5EB01
:1032B000C500012704FB056406EB800004F13C0116
:1032C00080F83D70DBE70220F8BD00BF11F0800FF1
:1032D00001F00F034FF01C0110B5044619D101FB9A
:1032E0000341C3EBC302002004EB820201F5FE712F
:1032F00082F8FD010B7094F8BC33012B18D0012328
:10330000206884F8BC3300F097FB002084F8BC03ED
:1033100010BD01FB0341C3EBC302012004EB820299
:103320003C3182F83D000B7094F8BC33012BE6D1A0
:10333000022010BD70B501F00F0500261C21C5EB61
:10334000C50401FB050100EB840401F5FE71C4F81E
:103350000822C4F8103284F8FC51C4F8146284F8CE
:10336000FD6103690068012B08BFC4F80C22DAB2C2
:103370001DB900F0B1FC002070BD00F099FB0020E9
:1033800070BD00BF01F00F01C1EBC10100EB810175
:10339000D1F81402704700BFF8B501F00F050126FF
:1033A00000271C21C5EBC50401FB050100EB8404CB
:1033B0003C31A264236584F83C50676584F83D6025
:1033C00003690068B34208BFE264DAB21DB900F0D5
:1033D00083FC0020F8BD00F06BFB0020F8BD00BFAF
:1033E00038B5436801F00F059D4233D80B060446FB
:1033F0001CD4C1EBC1031C20002200FB014104EBE3
:10340000830301F5FE7183F8FD2101230D708B709C
:1034100094F8BC239A421BD0206884F8BC3300F097
:103420002BFDCDB1002084F8BC0338BD1C21C5EBB9
:10343000C503012201FB050100EB83033C3183F846
:103440003D2001230D708B7094F8BC239A42E3D188
:10345000022038BD012038BD04F57172217C20683E
:1034600000F0E8FDDEE700BF426838B501F00F0369
:10347000934232D811F0800F04464FF01C01C3EB89
:10348000C30219D101FB0341002004EB8202002595
:1034900001F5FE7182F8FD010B708D7094F8BC335C
:1034A000012B18D00123206884F8BC3300F018FDEC
:1034B000284684F8BC5338BD01FB0341012004EBCE
:1034C000820200253C3182F83D000B708D7094F82B
:1034D000BC33012BE6D1022038BD012038BD00BF2E
:1034E00030B405686B6A29B943EA02430020AB6235
:1034F00030BC7047A86A4C1E03EB10400BD0002371
:1035000003F14001013305EB8101DBB24968A342BD
:1035100000EB1140F4D3403440EA024005EB840450
:103520006060002030BC7047034600201B68596271
:10353000704700BF0346094930B41A6800240125CA
:1035400083F8F44320469469C3F8FC5344F00064C4
:103550009461536D194330BC5165704703000010EE
:10356000704700BF84B070B4099E04AD0446012EBC
:1035700085E80E0030D1826B2D4B22F480321099F9
:1035800082630129C26803EA0203C360C36823F4AB
:103590004013C36043D0274B01E0013B44D0226974
:1035A000002AFADA2269234B42F00102226101E08B
:1035B000013B39D0206910F00100F9D1079B012BA4
:1035C00007D1A36843F00803A360A36843F0200376
:1035D000A36070BC04B07047C268164B42F0400252
:1035E000C26001E0013B21D02269002AFADA226997
:1035F000104B42F00102226101E0013B16D020692C
:1036000010F00100F9D10D9B23B9A36B43F4803373
:10361000A363D3E7A36B23F48033A363CEE7C3682C
:1036200043F48013C360B6E70320C7E70320EAE74B
:10363000BFFFBDFF400D0300022A034610B40CD0AB
:103640004FF41054D968002021F47051D960DA6821
:1036500022435DF8044BDA607047234A23480A444A
:1036600082422CD9224A23480A4482422AD9224A39
:1036700022480A44824228D9214A22480A448242E6
:1036800026D3214A21480A44824224D9204A21488B
:103690000A44824222D3204A20480A448242CFD39D
:1036A0001F4A20480A4482421BD31F4A1F4C0A4427
:1036B000A24234BF4FF4E0544FF4C054C2E74FF479
:1036C0007054BFE74FF46054BCE74FF45054B9E76F
:1036D0004FF44054B6E74FF43054B3E74FF420545E
:1036E000B0E74FF40054ADE7405327FFFF340C0020
:1036F000401E1BFF3F420F0000DC0BFF7F4F1200FC
:10370000808CF9FE20D6130060B6E5FE5FE316005C
:1037100000D3CEFE40771B00C05BB3FEC0912100FA
:1037200000CA91FE20753800E05459FEE09C41002B
:10373000034600209A6842F001029A60704700BF79
:10374000034600209A6822F001029A60704700BF89
:1037500008B5C368012923F0C043C3600BD041B949
:10376000C36843F08043C360322005F09BFB002018
:1037700008BD012008BDC36843F00053C360F3E7F0
:1037800084B02DE9F047139D002609AF0446C0F828
:103790000461C0F80861C0F80C61C0F81061C0F89D
:1037A0001461C0F81861C0F81C61C0F82061C0F84D
:1037B0002461C0F82861C0F82C61C0F83061C0F8FD
:1037C0003461C0F83861C0F83C6187E80E000C9F96
:1037D000836B002D40F09E8023F400138363036805
:1037E00043F040030360036843F08003036000225A
:1037F0000E9B04F50066C4F8002E012BD4F80028B7
:10380000C4F8002800F09680D4F8003843F0030391
:10381000C4F800384FF484624F4B226102E0013B50
:1038200000F09680206910F02000F8D110224A4B59
:10383000226102E0013B00F08D802269D206F9D4BA
:10384000002232617261F261F9B104F510634FF048
:1038500090494FF0006A96464FF67F3809E0C3F86A
:1038600000E00132C3F810E0C3F8088020338A4238
:103870002FD0D3F800C0BCF1000FF0DA12B1C3F8BA
:103880000090EEE7C3F800A0EBE73369012F23F4C3
:103890008073336142D000226FF08043A261636184
:1038A0001FB9A36943F01003A361A1692B4B0F9AC1
:1038B0000B43A3611AB1A36943F00803A361012D6F
:1038C00003D1A269264B1343A361BDE8F04704B0BE
:1038D0007047002204F530634FF090494FF0006AC2
:1038E00096464FF67F3809E0C3F800E00132C3F88E
:1038F00010E0C3F8088020338A42C6D0D3F800C055
:10390000BCF1000FF0DA12B1C3F80090EEE7C3F893
:1039100000A0EBE743F40013836368E7114A00213A
:10392000114B32636FF08042376B3B433363A161CD
:103930006261BAE70B9B23B9D4F80038C4F80038A9
:1039400068E7D4F8003843F00103C4F8003861E7B1
:1039500001206BE7012073E7400D030000383C8035
:103960000400004000018000030001008901074AB3
:1039700041F02001016101E0013A05D0036913F033
:103980002003F9D11846704703207047400D03000B
:10399000D0F8083813F0060004D013F0020F14BF5B
:1039A00002200F20704700BF70B44B780A78012BBB
:1039B0001FD000F5006402F00F054FF4803300EBD8
:1039C0004210E269AB401343E361D0F8003B1B04B3
:1039D0000CD48B68D0F8004BC3F30A03C978154A9E
:1039E000234343EA81431A43C0F8002B002070BCF4
:1039F000704702F00F04D0F81C6800F5006500EB7A
:103A00004210A3403343EB61D0F800391C04EDD4DD
:103A10008B68D0F80059C3F30A03CC7805492B43CF
:103A200043EA844343EA8252114370BCC0F8001950
:103A3000002070470080001030B44B780978012BCB
:103A40001AD001F00F054FF48032D0F83C4800F551
:103A50000063AA4000EB4110134924EA0204DC632E
:103A6000DC6924EA0202DA61D0F8003B194030BC7C
:103A7000C0F8001B0020704700F5006201F00F0441
:103A800000EB41100949A340D46B24EA0304D4633A
:103A9000D46924EA0303D361D0F80039194030BC5B
:103AA000C0F80019002070470078F3EF007833EC7D
:103AB0002DE9F0474D780C78012D54D000EB4414DB
:103AC000824F4D69D4F810CB04F53063804E0CEA78
:103AD00007071F611F693E401E6195B38E68012A6A
:103AE0007C4F3544D3F810C005F1FF35B5FBF6F532
:103AF0001FFA85FE07EAC54506FB0EF645EA0C05EA
:103B0000C6F312061D611D6946EA05061E6125D031
:103B1000CB78012B0CD1D0F8083813F4807FD4F87F
:103B2000003B0CBF43F0005343F08053C4F8003B0C
:103B3000D4F8003B43F00443C4F8003B0020BDE848
:103B4000F0878D68012A1E69C5F3120545EA06054E
:103B50001D611D6945F400251D61D9D1CA68002A7F
:103B6000D6D05A61D4E74E69002E40D000EB441EF7
:103B7000D1F80880DFF854A1C6F31207DEF81099D7
:103B800006EB080C0EF5106309EA0A0A0CF1FF3C7B
:103B9000DFF83C91C3F810A0D3F810A0BCFBF8F8F4
:103BA0000AEA0909DFF82CC1C3F810900CEAC84CE6
:103BB000D3F810804CEA080CC3F810C0D3F810C03A
:103BC00047EA0C071F61CF78012F4ED0012A68D039
:103BD000DEF8003904F00F0443F00443A540CEF8AA
:103BE0000039D0F834482543C0F83458A6E700EB34
:103BF000441C374F354D012ADCF810E90CF51063F1
:103C00000EEA07071F611F6947F400271F611F693C
:103C100005EA07051D61CF7838D0DCF80059012F7F
:103C200045F00445CCF8005988D1D0F8085815F46F
:103C3000807F1D680CBF45F0005545F080551D6024
:103C4000002A7FF47BAFB6B20336B6083FF476AFF6
:103C5000CB6800EB043003EB860100F5805053F88D
:103C6000042B8B420260FAD168E71D69012A25F016
:103C7000C0451D611D6945F000551D6116D0DEF877
:103C8000005945F00445CEF80059CEE70A695AB903
:103C9000012F0ED01A68002042F004421A60BDE8DD
:103CA000F0870A69002AF5D05A61F1E70A69002A0B
:103CB000FAD1D0F8082812F4807F1A680CBF42F0BD
:103CC000005242F080521A60E4E700BF0000F8FFA3
:103CD000FFFF07E00000F81F2DE9F0414C780B785A
:103CE000012C2AD000EB43104D4D4E69D0F8107BCB
:103CF00000F530634B4C3D401D611D692C401C613B
:103D00008C6806B14C611D69C4F31204012A45F4A4
:103D100000251D611D6944EA05041C6108D0D0F826
:103D2000003B43F00443C0F8003B0020BDE8F081B5
:103D3000CA68002AF3D05A61F1E74D69ADB300EBD0
:103D4000431E374FD1F808C0DEF810890EF5106415
:103D5000344E654508EA07072761276906EA070622
:103D6000266126694AD946F40026C1F814C0CCF36E
:103D70001205012A2661266945EA0605256133D028
:103D8000DEF8002942F00442CEF80029BCF1000F11
:103D9000CBD003F00F010123D0F834288B4013431C
:103DA000C0F834380020BDE8F08100EB43101D4E10
:103DB000A5F50025012AD0F8103900F5106406EAAF
:103DC00003062661266946F400262661236905EA72
:103DD0000305256108D0D0F8003943F00443C0F84A
:103DE00000390020BDE8F0810B6903B163612368ED
:103DF000002043F004432360BDE8F08146F4002630
:103E0000C5F31205012A2661266945EA06052561E2
:103E1000EAD0DEF8002942F00442CEF80029B8E7E3
:103E20000000F8FFFFFF07E010B49DF8044064B9FC
:103E300003339B0809D0013201EB830300EB02300E
:103E400051F8042B8B420260FAD100205DF8044B3C
:103E5000704700BF033292080CD010B400F58054B4
:103E600001EB8200236841F8043B8842FAD15DF8F7
:103E7000044B7047084670474A780B78012A00EBDC
:103E800043100CD0D0F8002B0BB1002A14DAD0F874
:103E9000003B43F40013C0F8003B00207047D0F80B
:103EA0000029002A00DB73B9D0F8003943F400136D
:103EB000C0F8003900207047D0F8003B23F0804361
:103EC000C0F8003BE3E7D0F8003923F08043C0F8A6
:103ED0000039D0F8003943F40013C0F80039E9E79D
:103EE0004A780B78012A00EB431013D0D0F8003B3E
:103EF00023F40013C0F8003BCB78023B012B01D91F
:103F000000207047D0F8003B43F08053C0F8003BDE
:103F100000207047D0F8003923F40013C0F80039AE
:103F2000CB78023B012BEBD8D0F8003943F080531B
:103F3000C0F8003900207047034609010020D3F87B
:103F4000002801F4FE6122F4FE62C3F80028D3F8D1
:103F500000281143C3F80018704700BF08B5034696
:103F60000320D3F8042822F00202C3F8042804F046
:103F700099FF002008BD00BF08B503460320D3F811
:103F8000042842F00202C3F8042804F08BFF00204A
:103F900008BD00BF4269806910407047D0F81838EA
:103FA00000F50060C0691840000C7047D0F8183860
:103FB00000F50060C069184080B2704700EB411105
:103FC00000F50060D1F8082B40691040704700BF31
:103FD00030B4D0F8104801F00F05D0F8343800EBB9
:103FE0004111EB40D1F80809DB01DBB2234330BCBF
:103FF00018407047406900F001007047D0F8001980
:1040000000F500630A4A0A40C0F800299A6802F0E5
:104010000602042A05D1D0F8002942F00302C0F8B4
:1040200000295A68002042F480725A60704700BF2D
:1040300000F8FFFF144B10B4046C9C421AD800F532
:104040003060002301290361036943F40023036105
:10405000036943F018030361036943F0C04303613C
:1040600004D14261036843F08023036000205DF8BF
:10407000044B7047D0F8003B00F53060002BE0DACD
:1040800000205DF8044B70470A30544FF0B5002211
:1040900083B0019290F85020012A00F01B81034662
:1040A00001201A6883F850009468660700F189803F
:1040B0000C68C4F31305002D40F08E80C4F3846CAB
:1040C00000FA0CF04C681F26D569A7093440284334
:1040D00002F1300507F00C07A640D0610CFA04F499
:1040E000785920EA0600204378519068450771D43A
:1040F000956815F0080548D10C6802F114060720F0
:104100008F684FEAD45CC4F304540CF0040C00FA3A
:1041100004FE07FA04F4C64F5CF8060020EA0E001D
:1041200020434CF80600386800F07040B0F1805F22
:1041300000F0C880D068D66810F0100F486940F0D1
:10414000E980C6F38206760000FA06F60F69042FAE
:1041500000F0C38002F16004086854F827C000F042
:10416000F8400CF0004C40EA0C00304344F82700C3
:104170000E694F7E54F82600012F20F0004008BF42
:104180004FF00045054344F826509068C40716D404
:10419000CE68086806F01807A64CD2F8C050FC405C
:1041A000C0F31307DFF8B8C2044025EA07056645E7
:1041B00044EA0504C2F8C04046D0002816DB0020BF
:1041C00003E05A6D42F020025A65002283F8502025
:1041D00003B0F0BD9068D8E794FAA4F5B5FA85F578
:1041E000C4F3846C05F01F04A0406BE792498A4237
:1041F00000F0B68001F580718A4200F0B1808F4EE8
:104200008F4DA968B46801F0E076E44304F001043E
:10421000002C00F0B3808B4CA04200F0E6808A4C6A
:10422000A04200F01F81894CA042C8D14902C6D4E7
:1042300082498A42C3D1AA68002022F0E072324348
:1042400042F48002AA60C0E7002F69D090FAA0F47F
:10425000B4FA84F4013404F01F04092C00F2A380A2
:1042600090FAA0F4B4FA84F490FAA0F50126B5FA15
:1042700085F501343544A40605F01F0504F0F84423
:1042800006FA05F52C4390FAA0F0B0FA80F030441D
:1042900000F01F0000EB400000052043C70D02F1B5
:1042A0001405C0F304504FF0070C07F004078E68A4
:1042B0000CFA00FC7C59864024EA0C00304378510B
:1042C00008687AE7D6684869C6F38206760000FA7D
:1042D00006F63BE7022003B0F0BD106E0D6800F05B
:1042E000F840AC06B0EB856F30D0506E00F0F8406F
:1042F000844226D0906E00F0F84084422BD0D06EDD
:1043000000F0F84084427FF440AFD06E20F00040CF
:10431000D0663AE7760806F0080600FA06F615E7D2
:10432000800E441C04F01F06092E2DD8A40601257A
:1043300006EB460004F0F84405FA06F6000534439F
:10434000ABE7506E20F000405066D3E7106E20F0CF
:1043500000401066C9E7906E20F000409066CEE7FE
:104360003B49354E3B4C0D468968B768A46801F05F
:10437000E0763C43E44304F0010449E75A6D012030
:1043800042F020025A6520E706EB46000127A50609
:104390001E3807FA06F605F0F8450005354340F0EB
:1043A000007028437AE790FAA0F5B5FA85F590FAFF
:1043B000A0F40126B4FA84F401353444AD0604F0C7
:1043C0001F0405F0F84506FA04F4254390FAA0F41A
:1043D000B4FA84F4344404F01F0404EB4404A4F15C
:1043E0001E00000540F00070DBE708023FF5E7AE75
:1043F00012498A427FF4E3AE174AA9681268174847
:1044000021F0E07192093143A0FB020241F4000166
:104410009209A96052000192019A002A3FF4CFAE9E
:10442000019A013A0192019A002AF9D1C7E600BF28
:104430000010005CFFFF0F000020024000600258E7
:1044400000630258000084CB000052C70000B8CFC0
:10445000002302400021024004000024632D3E0599
:104460000000FF4711F080707FF4A9AE05498A4231
:104470007FF4A5AEAA6822F0E072324342F0807267
:10448000AA60A2E60060025838B55A4A044603689A
:10449000934249D002F58072934245D0564B9B68B7
:1044A00013F4403F14BF01230023EBB102F0E0FA04
:1044B00063680546B3F5003F00F08B80B3F5403FDD
:1044C00073D0B3F5803F00F0848004F0FDFC41F22E
:1044D000030398421FD8494B9D4260D922689368D4
:1044E00043F48073936038BD4FF4002003F046FB23
:1044F00063680546B3F5101F75D01DD9B3F5201FAD
:104500005BD0B3F5301FE0D104F0DEFC41F20303D1
:10451000984244D92D0A3A4B9D422ED8226893687E
:1045200023F44073936038BD364B9B6813F4403FCF
:1045300014BF01230023B8E7B3F5E01F3FD004D92F
:10454000B3F5001FC1D14509BFE7B3F5801F06D001
:104550000AD9B3F5A01F02D0B3F5C01FB5D19B0C8B
:104560005B00B5FBF3F5B0E7B3F5002FF7D023F40C
:104570000022B2F5802FF2D0A7E7234B234A2B4429
:1045800093421ED9224B234A2B44934222689368BC
:104590002BD823F4407343F40073936038BD226832
:1045A000936823F48073936038BD850804F08CFC15
:1045B00041F203039842AED88DE7C50985E70509A6
:1045C00083E72268936823F4407343F48073936015
:1045D00038BD1B0CB5FBF3F504F076FC41F2030388
:1045E000984298D877E785096FE743F44073936062
:1045F00038BD00BF0020024000630258002D310189
:10460000105E5F0000230240EFA1A0FF0F5E5F007D
:10461000DF4341FF1FBCBE0070B5002382B0019391
:10462000002800F0CF80456D0446002D00F0B980D1
:10463000226893689D0003D59168704B0B4093608E
:104640009368D80015D46E4B90681B686D4D9B091C
:104650006D49A5FB035301409B0941F080519160D6
:104660000193019B2BB1019B013B0193019B002B0B
:10467000F9D19368D90024D4636D012543F0100368
:104680006365A36D2B43A365936813F0040F636DFB
:104690001DD1DB061BD4636D23F4817343F0020349
:1046A00063659368DE0728D4584B9A4217D003F508
:1046B00080739A4213D0564B9B68D9071DD4554A34
:1046C00015E09368002513F0040F636DE1D0636D6E
:1046D000012543F010032846636502B070BD4B4AC4
:1046E0004D4B92689B681343D80706D44B4A936896
:1046F000616823F47C130B43936004F0E5FB41F203
:104700000303A1689842237F51D8667D1A04206B69
:1047100042EA463202430A43012B03D1236A013B9A
:1047200042EA4342636A23B103F47873A16A0B43FC
:104730001A4323683A49D86801400A43DA609A6804
:1047400012F0040F9A681CD112071AD4D968354A9E
:10475000207D0A40E16A42EA80320A43DA6094F836
:104760003820012A3AD01A6922F001021A611A6926
:104770002046616B22F070420A431A61FFF784FE03
:104780002368E268012A21D01A6B22F00F021A6313
:10479000636D284623F0030343F00103636502B011
:1047A00070BDFCF787FBA56584F8505040E71029E1
:1047B000ABD1607D1A04216B42EA40320A4342F0D9
:1047C0001C02A9E70125284602B070BD196BA26939
:1047D00021F00F01013A0A431A63D9E71869124E12
:1047E000D4E910210640A06C0A43E16B3243024336
:1047F00042EA014242F001021A61B8E7C0FFFF5FDE
:1048000004000024632D3E05C0FFFF6F002002401E
:104810000060025800630258002102400023024059
:1048200003C0F0FFFCBFFFFF1EF800FCF0B490F8DF
:1048300050200E68012A49D00346294A01201C68ED
:1048400083F85000944208D05A6D002142F02002B3
:1048500083F850105A65F0BC7047224DAA68520781
:104860000AD5A2685A6D012042F020025A65002242
:1048700083F85020F0BC7047A06810F00400F1D11C
:10488000C6B1DFF868C04F68DCF8082022F4404267
:104890003A43CCF80820A468AA682243D40713D46A
:1048A0008A68DCF808401049164321400E43CCF8D2
:1048B0000860DCE70D498A6822F440428A60A068FB
:1048C000AA680243D00704D50020D0E70220F0BC3C
:1048D00070478C683046044A22408A60C7E700BFB0
:1048E0000020024000210240E0F0FFFF00230240D0
:1048F00007490002074BCA6800F4E06010B44FF6A5
:10490000FF0422405DF8044B10430343CB60704723
:1049100000ED00E00000FA05194BDB68C3F3022349
:1049200030B4C3F107051C1D042D28BF0425062C37
:1049300019D9033B4FF0FF349C4022EA04024FF0A8
:10494000FF34002804FA05F421EA040101FA03F116
:1049500041EA02010ADB09010A4BC9B2034483F8A8
:10496000001330BC704700221346E8E700F00F0048
:104970000901054BC9B20344197630BC704700BF2A
:1049800000ED00E000E100E0FCEC00E0002807DBC7
:1049900000F01F0101234009024A8B4042F82030F9
:1049A000704700BF00E100E000280DDB4309012251
:1049B00000F01F000549203302FA00F041F82300FF
:1049C000BFF34F8FBFF36F8F704700BF00E100E070
:1049D0000138B0F1807F0DD2074B0022072130B49F
:1049E000F025064C5860104684F823509A601960F0
:1049F00030BC70470120704710E000E000ED00E09F
:104A0000BFF35F8F044A00200449536A23F48033C4
:104A100053624860704700BF00ED00E090ED00E099
:104A2000064A40F00100064B5860536A43F4803355
:104A30005362BFF34F8FBFF36F8F704700ED00E0FD
:104A400090ED00E0124A437893600178E9B1436841
:104A500070B4D360C37A047B1B06857A867B43EAF5
:104A60000473447B0B43017A43EAC543C57B43EAA5
:104A70008443447A43EA464343EA054343EA042332
:104A800043EA410370BC13617047D1601161704704
:104A900090ED00E0704700BF08B5FFF7FBFF08BDD1
:104AA00018B338B590F82C300D46044603F0FF02D9
:104AB000B3B10223214684F82C3051F8040B05F0E1
:104AC00033FE2946D4E9000205F06AFE084A0121B6
:104AD0000020136843F00043136084F82C1038BDA5
:104AE00080F82D20FCF790FEE3E70120704700BF1F
:104AF0000040005270B590F82C300546022BD8B219
:104B000004D000F0FB04012C01D0012070BD022371
:104B10000E46286885F82C3005F08EFE3368022B8F
:104B200003D0002085F82C4070BD0523002085F8B7
:104B30002C3070BD38B590F82C300446022BD8B21A
:104B400005D094F82C30012BDDB201D0012038BD06
:104B50000223206884F82C3005F080FE002084F8C1
:104B60002C5038BD70B504460D4616466A1C2368A5
:104B70002CD19A69900727D49A69D106F9D59A69F8
:104B80009106FCD520221021D961DA619A6990073B
:104B900001D500229A629A69D10703D49A6942F03A
:104BA00001029A615A6800211B4E202501203240E3
:104BB0005A60636C84F8401043F00403636484F823
:104BC000415084F8421070BD002070BD9A69920770
:104BD000FAD49A69D0061BD404F05EF9801BA8426F
:104BE00001D8002DC2D1636C2021002201200B438B
:104BF00084F84020636484F8411084F8422070BD3A
:104C000004F04AF9801B8542EDD3002DEBD02368D8
:104C100099698A06F4D5B5E700E800FE70B5044648
:104C20000D461646236899698A0649D49969CA06C9
:104C300026D5681C38D19A699106FCD5202210210E
:104C4000D961DA619A69900701D500229A629A695E
:104C5000D10703D49A6942F001029A615A6800218F
:104C6000184E2025012032405A60636C84F84010B1
:104C700043F00403636484F8415084F8421070BD2B
:104C800004F00AF9801BA84201D8002DCAD1636C38
:104C90002021002201200B4384F84020636484F823
:104CA000411084F8422070BD9A699206C6D404F07F
:104CB000F3F8801B8542EAD3002DE8D02368B8E7DB
:104CC000002070BD00E800FE00284DD0F8B590F837
:104CD0004130044603F0FF02002B40D02421E0685D
:104CE000D4E9003284F841100128196822F070627A
:104CF00021F0010119601A619A6822F400429A6059
:104D0000A26828D042F4044202289A6002D14FF4EB
:104D100000625A605A68002114482027A66910438F
:104D2000D4E9042558602A43D868E56942EA062296
:104D3000266A20F400403543D8600846DA601D60DA
:104D40001A6842F001021A60616484F841702163BC
:104D500084F84210F8BD42F400429A60DAE780F825
:104D60004020FCF7D7FFB9E7012070470080000220
:104D70002DE9F047984690F84130089E202B40F0EE
:104D80008A8090F840300446012B00F08480012393
:104D90008946174680F8403004F07EF8054604E066
:104DA00004F07AF8401B192878D82368986910F421
:104DB0000040F5D110222121676284F8411084F867
:104DC00042206064A4F82A80628D606392B2FF2A58
:104DD00072D8618DC9F309075A68DFF838C189B202
:104DE0004A4802EA0C025FFA81FC21853A4342EA12
:104DF0000C4210435860DFF824814FF0FF0ADFF8BF
:104E00002091638D2A46314620469BB2002B30D03C
:104E1000FFF7A8FE002875D1606A216810F8012B01
:104E2000238D8A62628D013B6062013A9BB292B22D
:104E300023856285628D92B2002BE2D1002AE0D0F8
:104E4000701C45D18B691A06FCD5638D9BB2FF2B74
:104E50004AD94B682A46A4F828A0204603EA08034A
:104E60003B4343EA09034B603146638D9BB2002B01
:104E7000CED1FFF7D3FE002844D123682021244D52
:104E8000D9615A682A405A6084F8411084F8400079
:104E900084F8420000E00220BDE8F087636C202126
:104EA000002201200B4384F84020636484F8411001
:104EB00084F84220BDE8F0875A68C9F3090715490C
:104EC000FF200A40144920853A431143596092E774
:104ED0008B691B06B9D403F0DFFF401B8642DDD38C
:104EE000002EDBD02168ABE7628D4B6892B203EAFB
:104EF0000803D0B2228543EA00433B4343F00073EA
:104F00004B607EE70120BDE8F08700BF00200082F3
:104F100000E800FE009800FC0020FF81009C00FCDF
:104F20000000FF0190F84120202A21D1034670B4EF
:104F3000D5B290F84020012A1CD01A6824200026FF
:104F400083F841001468304624F0010414601468AA
:104F500024F480541460146821431160116841F0F6
:104F60000101116083F8415083F8406070BC7047C4
:104F700002207047022070BC704700BF90F84120AB
:104F8000202A20D1034670B4D6B290F84020012ADE
:104F90001BD01A682420002583F841001468284695
:104FA00024F001041460146824F4706444EA0121BC
:104FB0001160116841F00101116083F8416083F8CC
:104FC000405070BC704702207047022070BC704790
:104FD000F0B44C6A82B014B1B2F1406F30D18B6939
:104FE000002B34D00E6A002E59D0056823438F68F9
:104FF000C869EF61002800F0AE8013430F690C68A8
:10500000B2F1406F43EA0603CE6843EA0003C86A80
:1050100043EA0003086B43EA000348690190486BC8
:1050200043EA0003019843EA070343EA060343EA1D
:10503000040343EA80436B6160D04B68AB615DE081
:105040008B6A0568013B2B618B69002BCAD10B6A07
:10505000002B44D0066823438D68C869F561002899
:1050600069D013434D6B0F69B2F1406F43EA0003FF
:10507000C86ACC6843EA0003086B43EA0003486946
:1050800043EA050343EA070343EA040343EA804390
:10509000736133D04B68B36102B0F0BC7047CD6927
:1050A000002D6CD023430668CC6AB2F1406F43EA0E
:1050B00002000F6B4B6B40EA0500CD6840EA04002C
:1050C0000C6840EA070040EA03004B6940EA05002B
:1050D00040EA040040EA83407061DBD10EE0CB6916
:1050E0007BB95CB1CB6A00682343D1E90C5413430C
:1050F0004A692B43234343EA8243436102B0F0BC35
:1051000070472343CC6A0D6BB2F1406F43EA020350
:10511000006843EA04034C6B43EA0503CD6843EAA5
:1051200004034C6943EA050343EA84434361E5D041
:105130004B688361E2E7D1E90B0513434C6B0343F2
:105140002B43D1E904022343034343EA82437361BF
:1051500002B0F0BC704713434F6B0C6933434A698C
:10516000D1E90B0C0343086843EA0C033B43234398
:10517000034343EA82436B6102B0F0BC70471C43B7
:10518000CE6A006844EA02030C684A693343D1E9F5
:105190000C753B432B43234343EA8243436102B0F4
:1051A000F0BC7047F8B5044603F076FE002C55D0ED
:1051B00094F84030012B53D00123064684F8403048
:1051C00094F8413003F0FF02002B35D0A76C236820
:1051D000A1681A68013922F4706242EA01221A6059
:1051E00001E07A1C32D19D6815F02005F9D1D4E98F
:1051F0000716E26828461F680A43616832431D4E5D
:1052000042EA01623E406169A76932431A4E1A6060
:1052100041EA07025F6821693E4042EA01420121FA
:1052200032435A601A680A431A60656484F8411070
:10523000002384F84030F8BD204684F84020FCF775
:105240009BF941F288331F46A364C0E703F024FEB4
:10525000801BB84206D82FB12368C4E70120F8BDEF
:105260000220F8BD0423012084F84130636C03431D
:105270006364DDE72FFFFF00FEF8E0FFC8B110B563
:1052800090F840300446012B11D00268012380F8C9
:105290004030136823F001031360FCF7F3F9002397
:1052A0006364184684F8413084F8403010BD022011
:1052B00010BD0120704700BF2DE9F04104460D46A6
:1052C000904603F0E9FD94F84030012B3BD00123D8
:1052D00084F8403094F84130012BDEB206D002262B
:1052E0000023304684F84030BDE8F08100220223DC
:1052F0000746626484F84130B8F1FF3F23680ED15D
:105300009A6812F02002FBD129462046FFF760FE82
:105310006B6AE3B10123002684F84130E0E79A6824
:1053200012F020021ED003F0B7FDC01B804502D34F
:10533000B8F1000FE0D1042384F84130636C43F0EE
:1053400001036364CCE702263046BDE8F0812268A1
:1053500093689B07FCD5022101230026D16084F8C5
:105360004130BDE729462046FFF732FE6B6A43B164
:10537000D0E703F091FDC01B8045DCD3B8F1000FEE
:10538000D9D0226893689907F3D5E4E72DE9F8436B
:1053900004468946154603F07FFD94F8403027689F
:1053A000012B67D0012384F8403094F84130012B61
:1053B0005FFA83F807D04FF002080023404684F8D4
:1053C0004030BDE8F88300236364B9F1000F56D084
:1053D0001223064684F841303B690133E3623B699E
:1053E000C4F824900133A3627B6923F040637B619E
:1053F000E36A002B31D0691C3B4611D19A685207F1
:10540000FCD5636A1B7887F82030E26A636A013A48
:105410000133E262E26A6362F2B1691C2368EDD093
:105420009B685807EDD403F037FD801B854201D3FC
:10543000002DF2D1042384F84130636C43F0010362
:10544000636413E0BB689B070CD403F025FD801B4D
:105450008542EFD3002DEDD02768691CF2D1BB68DF
:105460009A07FCD502234FF00008FB60012384F863
:105470004130A2E74FF002084046BDE8F883636C74
:1054800043F00803636498E72DE9F84304461546A2
:10549000894603F001FD2768BA6994F84030012B72
:1054A0006CD0012384F8403094F84130012B5FFA2E
:1054B00083F807D04FF002080023404684F84030BC
:1054C000BDE8F88300236364B9F1000F5BD02223A9
:1054D000064684F841303B690133A3633B69C4F855
:1054E0003090013363637B6923F0406343F0806352
:1054F0007B61BA61A36B002B33D0681C3B4612D191
:105500009A6812F0060FFBD097F82020236B1A70D0
:10551000A26B236B013A0133A263A26B2363FAB13E
:10552000681C2368ECD09B6813F0060FECD103F0E5
:10553000B3FC801B854201D3002DF1D1042384F8F4
:105540004130636C43F00103636413E0BB689B0765
:105550000CD403F0A1FC801B8542EFD3002DEDD0CD
:105560002768691CF2D1BB689A07FCD502234FF06B
:105570000008FB60012384F841309DE74FF00208EA
:105580004046BDE8F883636C43F00803636493E727
:105590002DE9F84304461D460F46164603F07CFCF1
:1055A00094F84030012B4FD0012384F8403094F818
:1055B0004130012B5FFA83F807D04FF00208002337
:1055C000404684F84030BDE8F883002242238146FB
:1055D000626484F84130681C236829D19A68910676
:1055E000FCD43268394670689A62B2685862DA62EE
:1055F0001A68306922F44002D6F80CC042EA00066C
:105600004FF00062204646F480061E60C7F828C0AE
:10561000FFF7DEFC681C22681BD193681907FCD5D4
:10562000082101234FF00008D16084F84130C6E71B
:105630009A689206D5D503F02FFCA0EB09008542AD
:1056400012D3002DC7D10FE04FF002084046BDE84D
:10565000F88393681B07E3D403F01EFCA0EB09005A
:10566000854201D3002DD5D1042384F84130636CE9
:1056700043F001036364A2E72DE9F84304460F46B3
:10568000904603F009FC94F84030012B42D00123EE
:1056900084F8403094F84130012BDEB206D0022667
:1056A0000023304684F84030BDE8F883002282238E
:1056B0000546D4F84890626484F84130B9F1FF3F60
:1056C000226814D193689906FCD41368D8F80410A2
:1056D00023F00803082943EA010313601ED039466A
:1056E0004FF0406220460026FFF772FCD8E793682F
:1056F0009B06EAD503F0D0FB401B814502D3B9F1EC
:10570000000FDBD1042384F84130636C43F00103C4
:105710006364C5E702263046BDE8F883D8F8001078
:1057200010231163D360136843F480131360D6E72A
:10573000704700BF08B5006C00238363C36290F814
:105740004130082B0BD103680222DA601A6842F458
:1057500000321A601A6842F002021A6008BD012382
:1057600080F84130FFF7E4FF08BD00BF704700BF7D
:10577000704700BF704700BF704700BF704700BF51
:10578000704700BF704700BF38B5036804469A6889
:10579000196855070ED548030CD594F84120122AF4
:1057A00075D094F84120222A00F0A1802046FFF70E
:1057B000E5FF38BD950726D5880324D50222DA6097
:1057C0001A6822F4E0221A6094F84120122A7AD052
:1057D00094F84120222A00F0A98094F84120022A5E
:1057E00000F0D08094F84120082AE2D15A690121C2
:1057F000204622F040625A6184F84110636C3BBB42
:10580000FFF7B4FF38BD150725D4D50735D5C80334
:1058100033D50125DD601A6822F470221A60626CAB
:1058200042F0020262641A68520779D51A68E06B86
:1058300022F0040257491A60816503F087FA0028B4
:10584000B7D0636C204643F00403636484F841508E
:10585000FFF76EFF38BD0803D7D50822DA601A6853
:10586000520206D51A68012122F410221A6084F827
:1058700041102046FFF784FF38BDD00699D5CA02F3
:1058800097D510222046DA60FFF77CFF38BD9A6872
:1058900050078BD518460EE0626A127883F82020F4
:1058A000E16A20680139626AE162013281686262FC
:1058B0004D077FF57BAFE26A002AEDD1036823F440
:1058C0008023036072E71A68510709D51A68E16BF3
:1058D00022F0040209681A60CB6823F00103CB6050
:1058E0000123204684F84130FFF746FF38BD9A680F
:1058F00052077FF55BAF18460EE093F82010226B3D
:105900001170A16B20680139226BA163013281689B
:10591000226349077FF54AAFA26B002AEDD1CDE79C
:10592000204684F84150FFF703FF38BD1A6852073C
:105930001DD49A6812F47C5F0FD111E093F8201007
:10594000226B1170A16B20680139226BA1630132B7
:105950008168226311F47C5F02D0A26B002AEDD132
:105960000123204684F84130FFF704FF38BD1A6850
:10597000E16B22F0040209681A60CB6823F001038E
:10598000CB60EDE70123204684F84130FFF7F0FEBD
:1059900038BD00BF35570008B24B016899422DE968
:1059A000F04105461FD0203399421CD003F578738F
:1059B000994259D02033994256D003F578739942D1
:1059C00000F020812033994200F01C8195F891303D
:1059D000A54E03F0FF026BB9284685F89020FCF72E
:1059E000BFFB296806E0A14E95F8913003F0FF0255
:1059F000002BF1D09E4B9F481B680A68A0FB030355
:105A000022F480321B0B0A609B0023B30C68013B1D
:105A100014F48034F9D1EB680222012B85F891202F
:105A200000F01A81934219BF174603202320222732
:105A300015BF4FF0010C4FF0210C00222022AB6863
:105A4000013B042B00F25781DFE813F0D100110075
:105A5000D8001000D400D5F89430012043F0400362
:105A6000C5F89430BDE8F081834EBDE73A464FF467
:105A700000682B6A3260002B44D07A4B994200F0C8
:105A800029817E48081AB0FA80F04009002840F0C9
:105A900021817B4B994200F017812033994200F01D
:105AA0001381784B994200F009812033994200F02C
:105AB0000581754B994200F01381744B994200F0B7
:105AC0001581AB69B3F5002F00F0EE80AB6A00EBF7
:105AD00080002A6AB3F1806F4FEA40030CBF0221B5
